{
  "_format": "hh-sol-artifact-1",
  "contractName": "KustodiaEscrow",
  "sourceName": "contracts/KustodiaEscrow.sol",
  "abi": [
    {
      "inputs": [
        {
          "internalType": "address",
          "name": "_mxnbToken",
          "type": "address"
        },
        {
          "internalType": "address",
          "name": "_platformWallet",
          "type": "address"
        }
      ],
      "stateMutability": "nonpayable",
      "type": "constructor"
    },
    {
      "anonymous": false,
      "inputs": [
        {
          "indexed": true,
          "internalType": "uint256",
          "name": "escrowId",
          "type": "uint256"
        },
        {
          "indexed": false,
          "internalType": "uint256",
          "name": "amount",
          "type": "uint256"
        },
        {
          "indexed": false,
          "internalType": "address",
          "name": "to",
          "type": "address"
        }
      ],
      "name": "CustodyReleased",
      "type": "event"
    },
    {
      "anonymous": false,
      "inputs": [
        {
          "indexed": true,
          "internalType": "uint256",
          "name": "escrowId",
          "type": "uint256"
        },
        {
          "indexed": false,
          "internalType": "address",
          "name": "by",
          "type": "address"
        }
      ],
      "name": "DisputeRaised",
      "type": "event"
    },
    {
      "anonymous": false,
      "inputs": [
        {
          "indexed": true,
          "internalType": "uint256",
          "name": "escrowId",
          "type": "uint256"
        },
        {
          "indexed": false,
          "internalType": "bool",
          "name": "releasedToSeller",
          "type": "bool"
        }
      ],
      "name": "DisputeResolved",
      "type": "event"
    },
    {
      "anonymous": false,
      "inputs": [
        {
          "indexed": true,
          "internalType": "uint256",
          "name": "escrowId",
          "type": "uint256"
        },
        {
          "indexed": true,
          "internalType": "address",
          "name": "buyer",
          "type": "address"
        },
        {
          "indexed": true,
          "internalType": "address",
          "name": "seller",
          "type": "address"
        },
        {
          "indexed": false,
          "internalType": "uint256",
          "name": "custodyAmount",
          "type": "uint256"
        },
        {
          "indexed": false,
          "internalType": "uint256",
          "name": "custodyEnd",
          "type": "uint256"
        }
      ],
      "name": "EscrowCreated",
      "type": "event"
    },
    {
      "anonymous": false,
      "inputs": [
        {
          "indexed": true,
          "internalType": "uint256",
          "name": "escrowId",
          "type": "uint256"
        },
        {
          "indexed": false,
          "internalType": "uint256",
          "name": "amount",
          "type": "uint256"
        },
        {
          "indexed": false,
          "internalType": "address",
          "name": "to",
          "type": "address"
        }
      ],
      "name": "ImmediateRelease",
      "type": "event"
    },
    {
      "anonymous": false,
      "inputs": [
        {
          "indexed": true,
          "internalType": "address",
          "name": "previousOwner",
          "type": "address"
        },
        {
          "indexed": true,
          "internalType": "address",
          "name": "newOwner",
          "type": "address"
        }
      ],
      "name": "OwnershipTransferred",
      "type": "event"
    },
    {
      "inputs": [],
      "name": "FEE_BPS",
      "outputs": [
        {
          "internalType": "uint256",
          "name": "",
          "type": "uint256"
        }
      ],
      "stateMutability": "view",
      "type": "function"
    },
    {
      "inputs": [
        {
          "internalType": "address",
          "name": "seller",
          "type": "address"
        },
        {
          "internalType": "uint256",
          "name": "custodyAmount",
          "type": "uint256"
        },
        {
          "internalType": "uint256",
          "name": "custodyPeriod",
          "type": "uint256"
        }
      ],
      "name": "createEscrow",
      "outputs": [],
      "stateMutability": "nonpayable",
      "type": "function"
    },
    {
      "inputs": [],
      "name": "escrowCounter",
      "outputs": [
        {
          "internalType": "uint256",
          "name": "",
          "type": "uint256"
        }
      ],
      "stateMutability": "view",
      "type": "function"
    },
    {
      "inputs": [
        {
          "internalType": "uint256",
          "name": "",
          "type": "uint256"
        }
      ],
      "name": "escrows",
      "outputs": [
        {
          "internalType": "address",
          "name": "buyer",
          "type": "address"
        },
        {
          "internalType": "address",
          "name": "seller",
          "type": "address"
        },
        {
          "internalType": "uint256",
          "name": "custodyAmount",
          "type": "uint256"
        },
        {
          "internalType": "uint256",
          "name": "custodyEnd",
          "type": "uint256"
        },
        {
          "internalType": "enum KustodiaEscrow.EscrowStatus",
          "name": "status",
          "type": "uint8"
        }
      ],
      "stateMutability": "view",
      "type": "function"
    },
    {
      "inputs": [],
      "name": "mxnbToken",
      "outputs": [
        {
          "internalType": "contract IERC20",
          "name": "",
          "type": "address"
        }
      ],
      "stateMutability": "view",
      "type": "function"
    },
    {
      "inputs": [],
      "name": "owner",
      "outputs": [
        {
          "internalType": "address",
          "name": "",
          "type": "address"
        }
      ],
      "stateMutability": "view",
      "type": "function"
    },
    {
      "inputs": [],
      "name": "platformWallet",
      "outputs": [
        {
          "internalType": "address",
          "name": "",
          "type": "address"
        }
      ],
      "stateMutability": "view",
      "type": "function"
    },
    {
      "inputs": [
        {
          "internalType": "uint256",
          "name": "escrowId",
          "type": "uint256"
        }
      ],
      "name": "raiseDispute",
      "outputs": [],
      "stateMutability": "nonpayable",
      "type": "function"
    },
    {
      "inputs": [
        {
          "internalType": "uint256",
          "name": "escrowId",
          "type": "uint256"
        }
      ],
      "name": "releaseCustody",
      "outputs": [],
      "stateMutability": "nonpayable",
      "type": "function"
    },
    {
      "inputs": [],
      "name": "renounceOwnership",
      "outputs": [],
      "stateMutability": "nonpayable",
      "type": "function"
    },
    {
      "inputs": [
        {
          "internalType": "uint256",
          "name": "escrowId",
          "type": "uint256"
        },
        {
          "internalType": "bool",
          "name": "releaseToSeller",
          "type": "bool"
        }
      ],
      "name": "resolveDispute",
      "outputs": [],
      "stateMutability": "nonpayable",
      "type": "function"
    },
    {
      "inputs": [
        {
          "internalType": "address",
          "name": "newOwner",
          "type": "address"
        }
      ],
      "name": "transferOwnership",
      "outputs": [],
      "stateMutability": "nonpayable",
      "type": "function"
    }
  ],
  "bytecode": "0x6080346100c357601f610c7238819003918201601f19168301916001600160401b038311848410176100c85780849260409485528339810103126100c357610052602061004b836100de565b92016100de565b60008054336001600160a01b0319808316821784556040519590946001600160a01b03949093859391908416907f8be0079c531659141344cd1fd0a4f28419497f9722a3daafe3b4186f6b6457e09080a31683600154161760015516906002541617600255610b7f90816100f38239f35b600080fd5b634e487b7160e01b600052604160045260246000fd5b51906001600160a01b03821682036100c35756fe608060408181526004918236101561001657600080fd5b600092833560e01c918263012f52ee146109535750816334b25ee2146107295781634043cd9514610700578163715018a6146106b55781638da5cb5b1461068d5781639526592f146104f1578163a5c1674e14610407578163bf333f2c146103eb578163c7ceafea146103cc578163e2ecb31114610189578163f2fde38b146100d4575063fa2af9da146100a957600080fd5b346100d057816003193601126100d05760025490516001600160a01b039091168152602090f35b5080fd5b905034610185576020366003190112610185576100ef6109ce565b906100f86109e9565b6001600160a01b0391821692831561013357505082546001600160a01b031981168317845516600080516020610b2a8339815191528380a380f35b906020608492519162461bcd60e51b8352820152602660248201527f4f776e61626c653a206e6577206f776e657220697320746865207a65726f206160448201526564647265737360d01b6064820152fd5b8280fd5b8383346100d05760603660031901126100d0576101a46109ce565b9260249384356044358115610395578560018060a01b0380600154168751906323b872dd60e01b82523388830152308b8301528560448301528160648160209687945af190811561038b57899161035e575b50156103245787906102088442610a92565b88519160a083016001600160401b038111848210176103125790899392918b52338352808684019916988981528b84019189835260608501938452808d6080870198808a526003548152888b52209551169060018060a01b031991828754161786556001860192511690825416179055516002830155516003820155019051600581101561030057916102d097917f59e4b8728799382406714f1c57de5c893d2772f9a8bf9950c5afe4397e6486549360ff8019835416911617905560035497889442610a92565b9082519586528501523393a460001982146102ef575060010160035580f35b634e487b7160e01b83526011905250fd5b634e487b7160e01b8952602187528989fd5b634e487b7160e01b855260418a528c85fd5b865162461bcd60e51b81528087018390526015818b015274151bdad95b881d1c985b9cd9995c8819985a5b1959605a1b6044820152606490fd5b61037e9150833d8511610384575b6103768183610a41565b810190610a7a565b8a6101f6565b503d61036c565b88513d8b823e3d90fd5b845162461bcd60e51b8152602081860152601281890152710416d6f756e74206d757374206265203e20360741b6044820152606490fd5b5050346100d057816003193601126100d0576020906003549051908152f35b5050346100d057816003193601126100d0576020905160968152f35b91905034610185576020366003190112610185578135918284528060205281842060018060a01b038082541633149081156104e1575b50156104ac5781019081549060ff821690600582101561049957509160027f84a477df8a28a4276ca6dee4458a06c3015f30c477d9c949ede4e13ff8a552b4949261048a60209515610ab5565b60ff191617905551338152a280f35b634e487b7160e01b875260219052602486fd5b506020606492519162461bcd60e51b8352820152600f60248201526e139bdd081c185c9d1a58da5c185b9d608a1b6044820152fd5b905060018201541633143861043d565b839150346100d05760209283600319360112610185578135916105126109e9565b82845280855281842094818601805460ff8116600581101561067a576105389015610ab5565b6003880154421061063d5760ff19166001908117909155546002805497018054855163a9059cbb60e01b815291986001600160a01b039593859284929188169183918c91839161058c918c16838b01610aee565b03925af1908115610633578791610616575b50156105dc57507f1ab7e153e445011096686e7d6cdde884e5b3a4c5c1e49b1087e4a64d6850e130939495549160025416908351928352820152a280f35b60649184519162461bcd60e51b8352820152601660248201527510dd5cdd1bd91e481c995b19585cd94819985a5b195960521b6044820152fd5b61062d9150833d8511610384576103768183610a41565b8861059e565b85513d89823e3d90fd5b5050606492519162461bcd60e51b8352820152601860248201527710dd5cdd1bd91e481c195c9a5bd9081b9bdd08195b99195960421b6044820152fd5b634e487b7160e01b885260218552602488fd5b5050346100d057816003193601126100d057905490516001600160a01b039091168152602090f35b83346106fd57806003193601126106fd576106ce6109e9565b80546001600160a01b03198116825581906001600160a01b0316600080516020610b2a8339815191528280a380f35b80fd5b5050346100d057816003193601126100d05760015490516001600160a01b039091168152602090f35b91905034610185578060031936011261018557813591602435918215159182840361094f576107566109e9565b84865260209381855282872090828201805460ff8116600581101561093c5760020361090a5760ff19166003179055859015610851576107c49160018060a01b036002816001541691600184015416920154918a875180968195829463a9059cbb60e01b84528a8401610aee565b03925af190811561084757879161082a575b50156107f8575090600080516020610b0a83398151915292915b51908152a280f35b83606492519162461bcd60e51b8352820152600e60248201526d14995b19585cd94819985a5b195960921b6044820152fd5b6108419150853d8711610384576103768183610a41565b386107d6565b83513d89823e3d90fd5b6001548254600290930154855163a9059cbb60e01b81529384926001600160a01b039081169284928d92849261088c929091168a8401610aee565b03925af19081156108475787916108ed575b50156108bc575090600080516020610b0a83398151915292916107f0565b83606492519162461bcd60e51b8352820152600d60248201526c1499599d5b990819985a5b1959609a1b6044820152fd5b6109049150853d8711610384576103768183610a41565b3861089e565b855162461bcd60e51b8152808601899052600c60248201526b139bdd08191a5cdc1d5d195960a21b6044820152606490fd5b634e487b7160e01b8b526021865260248bfd5b8580fd5b8385346106fd5760203660031901126106fd57833581528360205281812060018060a01b039283825416936001830154169060028301549160ff886003860154950154169587526020870152850152606084015260058210156109bb5760a083836080820152f35b634e487b7160e01b815260218452602490fd5b600435906001600160a01b03821682036109e457565b600080fd5b6000546001600160a01b031633036109fd57565b606460405162461bcd60e51b815260206004820152602060248201527f4f776e61626c653a2063616c6c6572206973206e6f7420746865206f776e65726044820152fd5b601f909101601f19168101906001600160401b03821190821017610a6457604052565b634e487b7160e01b600052604160045260246000fd5b908160209103126109e4575180151581036109e45790565b91908201809211610a9f57565b634e487b7160e01b600052601160045260246000fd5b15610abc57565b60405162461bcd60e51b815260206004820152600a6024820152694e6f742061637469766560b01b6044820152606490fd5b6001600160a01b03909116815260208101919091526040019056fe5a87909bff68caaaaf0b3fd9c74eeccc928832f879315e5c6fb7a73612f26c0c8be0079c531659141344cd1fd0a4f28419497f9722a3daafe3b4186f6b6457e0a26469706673582212207f2142da5eeea07541aaf16bdbf27ceda5672445119717d9f1ab06d2689b0ce964736f6c63430008140033",
  "linkReferences": {},
  "deployedLinkReferences": {}
}