{
  "_format": "hh-sol-artifact-1",
  "contractName": "KustodiaEscrow2_0",
  "sourceName": "contracts/KustodiaEscrow2_0.sol",
  "abi": [
    {
      "anonymous": false,
      "inputs": [
        {
          "indexed": true,
          "internalType": "uint256",
          "name": "escrowId",
          "type": "uint256"
        }
      ],
      "name": "EscrowCancelled",
      "type": "event"
    },
    {
      "anonymous": false,
      "inputs": [
        {
          "indexed": true,
          "internalType": "uint256",
          "name": "escrowId",
          "type": "uint256"
        },
        {
          "indexed": true,
          "internalType": "address",
          "name": "payer",
          "type": "address"
        },
        {
          "indexed": true,
          "internalType": "address",
          "name": "payee",
          "type": "address"
        },
        {
          "indexed": false,
          "internalType": "uint256",
          "name": "amount",
          "type": "uint256"
        },
        {
          "indexed": false,
          "internalType": "string",
          "name": "vertical",
          "type": "string"
        },
        {
          "indexed": false,
          "internalType": "string",
          "name": "clabe",
          "type": "string"
        }
      ],
      "name": "EscrowCreated",
      "type": "event"
    },
    {
      "anonymous": false,
      "inputs": [
        {
          "indexed": true,
          "internalType": "uint256",
          "name": "escrowId",
          "type": "uint256"
        },
        {
          "indexed": false,
          "internalType": "bool",
          "name": "inFavorOfSeller",
          "type": "bool"
        }
      ],
      "name": "EscrowDisputeResolved",
      "type": "event"
    },
    {
      "anonymous": false,
      "inputs": [
        {
          "indexed": true,
          "internalType": "uint256",
          "name": "escrowId",
          "type": "uint256"
        },
        {
          "indexed": false,
          "internalType": "address",
          "name": "by",
          "type": "address"
        },
        {
          "indexed": false,
          "internalType": "string",
          "name": "reason",
          "type": "string"
        }
      ],
      "name": "EscrowDisputed",
      "type": "event"
    },
    {
      "anonymous": false,
      "inputs": [
        {
          "indexed": true,
          "internalType": "uint256",
          "name": "escrowId",
          "type": "uint256"
        },
        {
          "indexed": false,
          "internalType": "uint256",
          "name": "amount",
          "type": "uint256"
        }
      ],
      "name": "EscrowFunded",
      "type": "event"
    },
    {
      "anonymous": false,
      "inputs": [
        {
          "indexed": true,
          "internalType": "uint256",
          "name": "escrowId",
          "type": "uint256"
        }
      ],
      "name": "EscrowReleased",
      "type": "event"
    },
    {
      "anonymous": false,
      "inputs": [
        {
          "indexed": false,
          "internalType": "uint8",
          "name": "version",
          "type": "uint8"
        }
      ],
      "name": "Initialized",
      "type": "event"
    },
    {
      "anonymous": false,
      "inputs": [
        {
          "indexed": true,
          "internalType": "address",
          "name": "previousOwner",
          "type": "address"
        },
        {
          "indexed": true,
          "internalType": "address",
          "name": "newOwner",
          "type": "address"
        }
      ],
      "name": "OwnershipTransferred",
      "type": "event"
    },
    {
      "inputs": [],
      "name": "bridgeWallet",
      "outputs": [
        {
          "internalType": "address",
          "name": "",
          "type": "address"
        }
      ],
      "stateMutability": "view",
      "type": "function"
    },
    {
      "inputs": [
        {
          "internalType": "uint256",
          "name": "escrowId",
          "type": "uint256"
        }
      ],
      "name": "cancel",
      "outputs": [],
      "stateMutability": "nonpayable",
      "type": "function"
    },
    {
      "inputs": [
        {
          "internalType": "address",
          "name": "payer",
          "type": "address"
        },
        {
          "internalType": "address",
          "name": "payee",
          "type": "address"
        },
        {
          "internalType": "address",
          "name": "token",
          "type": "address"
        },
        {
          "internalType": "uint256",
          "name": "amount",
          "type": "uint256"
        },
        {
          "internalType": "uint256",
          "name": "deadline",
          "type": "uint256"
        },
        {
          "internalType": "string",
          "name": "vertical",
          "type": "string"
        },
        {
          "internalType": "string",
          "name": "clabe",
          "type": "string"
        },
        {
          "internalType": "string",
          "name": "conditions",
          "type": "string"
        }
      ],
      "name": "createEscrow",
      "outputs": [
        {
          "internalType": "uint256",
          "name": "",
          "type": "uint256"
        }
      ],
      "stateMutability": "nonpayable",
      "type": "function"
    },
    {
      "inputs": [
        {
          "internalType": "uint256",
          "name": "escrowId",
          "type": "uint256"
        },
        {
          "internalType": "string",
          "name": "reason",
          "type": "string"
        }
      ],
      "name": "dispute",
      "outputs": [],
      "stateMutability": "nonpayable",
      "type": "function"
    },
    {
      "inputs": [
        {
          "internalType": "uint256",
          "name": "",
          "type": "uint256"
        }
      ],
      "name": "escrows",
      "outputs": [
        {
          "internalType": "address",
          "name": "payer",
          "type": "address"
        },
        {
          "internalType": "address",
          "name": "payee",
          "type": "address"
        },
        {
          "internalType": "uint256",
          "name": "amount",
          "type": "uint256"
        },
        {
          "internalType": "uint256",
          "name": "deadline",
          "type": "uint256"
        },
        {
          "internalType": "string",
          "name": "vertical",
          "type": "string"
        },
        {
          "internalType": "string",
          "name": "clabe",
          "type": "string"
        },
        {
          "internalType": "enum KustodiaEscrow2_0.EscrowStatus",
          "name": "status",
          "type": "uint8"
        },
        {
          "internalType": "string",
          "name": "conditions",
          "type": "string"
        },
        {
          "internalType": "address",
          "name": "token",
          "type": "address"
        }
      ],
      "stateMutability": "view",
      "type": "function"
    },
    {
      "inputs": [
        {
          "internalType": "uint256",
          "name": "escrowId",
          "type": "uint256"
        }
      ],
      "name": "fundEscrow",
      "outputs": [],
      "stateMutability": "nonpayable",
      "type": "function"
    },
    {
      "inputs": [
        {
          "internalType": "address",
          "name": "_bridgeWallet",
          "type": "address"
        },
        {
          "internalType": "address",
          "name": "_platformWallet",
          "type": "address"
        }
      ],
      "name": "initialize",
      "outputs": [],
      "stateMutability": "nonpayable",
      "type": "function"
    },
    {
      "inputs": [],
      "name": "nextEscrowId",
      "outputs": [
        {
          "internalType": "uint256",
          "name": "",
          "type": "uint256"
        }
      ],
      "stateMutability": "view",
      "type": "function"
    },
    {
      "inputs": [],
      "name": "owner",
      "outputs": [
        {
          "internalType": "address",
          "name": "",
          "type": "address"
        }
      ],
      "stateMutability": "view",
      "type": "function"
    },
    {
      "inputs": [],
      "name": "platformWallet",
      "outputs": [
        {
          "internalType": "address",
          "name": "",
          "type": "address"
        }
      ],
      "stateMutability": "view",
      "type": "function"
    },
    {
      "inputs": [
        {
          "internalType": "uint256",
          "name": "escrowId",
          "type": "uint256"
        }
      ],
      "name": "release",
      "outputs": [],
      "stateMutability": "nonpayable",
      "type": "function"
    },
    {
      "inputs": [],
      "name": "renounceOwnership",
      "outputs": [],
      "stateMutability": "nonpayable",
      "type": "function"
    },
    {
      "inputs": [
        {
          "internalType": "address",
          "name": "token",
          "type": "address"
        },
        {
          "internalType": "address",
          "name": "to",
          "type": "address"
        },
        {
          "internalType": "uint256",
          "name": "amount",
          "type": "uint256"
        }
      ],
      "name": "rescueTokens",
      "outputs": [],
      "stateMutability": "nonpayable",
      "type": "function"
    },
    {
      "inputs": [
        {
          "internalType": "uint256",
          "name": "escrowId",
          "type": "uint256"
        },
        {
          "internalType": "bool",
          "name": "inFavorOfSeller",
          "type": "bool"
        }
      ],
      "name": "resolveDispute",
      "outputs": [],
      "stateMutability": "nonpayable",
      "type": "function"
    },
    {
      "inputs": [
        {
          "internalType": "address",
          "name": "_bridgeWallet",
          "type": "address"
        }
      ],
      "name": "setBridgeWallet",
      "outputs": [],
      "stateMutability": "nonpayable",
      "type": "function"
    },
    {
      "inputs": [
        {
          "internalType": "address",
          "name": "_platformWallet",
          "type": "address"
        }
      ],
      "name": "setPlatformWallet",
      "outputs": [],
      "stateMutability": "nonpayable",
      "type": "function"
    },
    {
      "inputs": [
        {
          "internalType": "address",
          "name": "newOwner",
          "type": "address"
        }
      ],
      "name": "transferOwnership",
      "outputs": [],
      "stateMutability": "nonpayable",
      "type": "function"
    }
  ],
  "bytecode": "0x60808060405234610016576117b8908161001c8239f35b600080fdfe6080604052600436101561001257600080fd5b60003560e01c8063012f52ee146111de57806334b25ee21461105357806337bdc99b14610f5957806340e58ee514610ed5578063485cc95514610d4b578063488ec89e1461066a57806366c85dee14610562578063715018a6146105175780638831e9cf146104cc57806389cb29dd146104ae5780638da5cb5b14610485578063c9c31af5146102f4578063cc9351b6146102a9578063cea9d26f146101bd578063f2fde38b1461012e578063fa2af9da146101055763fa89c171146100d757600080fd5b34610100576000366003190112610100576067546040516001600160a01b039091168152602090f35b600080fd5b34610100576000366003190112610100576068546040516001600160a01b039091168152602090f35b34610100576020366003190112610100576101476113fd565b61014f61147f565b6001600160a01b0381161561016957610167906114d7565b005b60405162461bcd60e51b815260206004820152602660248201527f4f776e61626c653a206e6577206f776e657220697320746865207a65726f206160448201526564647265737360d01b6064820152608490fd5b34610100576060366003190112610100576000602061020d6101dd6113fd565b6101e5611413565b6101ed61147f565b60405194858094819363a9059cbb60e01b83526044359060048401611707565b03926001600160a01b03165af190811561029d5760009161026f575b501561023157005b60405162461bcd60e51b815260206004820152601660248201527514995cd8dd59481d1c985b9cd9995c8819985a5b195960521b6044820152606490fd5b610290915060203d8111610296575b61028881836112f4565b810190611672565b81610229565b503d61027e565b6040513d6000823e3d90fd5b34610100576020366003190112610100576102c26113fd565b6102ca61147f565b6001600160a01b03166102de81151561150e565b606780546001600160a01b031916919091179055005b346101005760208060031936011261010057606754600435916001600160a01b039161032390831633146115f8565b82600052606681526040600020916006830160ff815416600581101561046f5761034d9015611638565b8160088501541693841561043a5760028101928354918215610404578592916064915416600060405198899485936323b872dd60e01b8552600485015230602485015260448401525af193841561029d577f911052e1be46242b46bf3c2762227ff37c000e5fe38727638096f3a17fbfe170946103d2916000916103e7575b5061168a565b805460ff1916600117905554604051908152a2005b6103fe9150853d87116102965761028881836112f4565b876103cc565b60405162461bcd60e51b815260048101879052600e60248201526d105b5bdd5b9d081b9bdd081cd95d60921b6044820152606490fd5b60405162461bcd60e51b815260048101859052600d60248201526c151bdad95b881b9bdd081cd95d609a1b6044820152606490fd5b634e487b7160e01b600052602160045260246000fd5b34610100576000366003190112610100576033546040516001600160a01b039091168152602090f35b34610100576000366003190112610100576020606554604051908152f35b34610100576020366003190112610100576104e56113fd565b6104ed61147f565b6001600160a01b0316610501811515611552565b606880546001600160a01b031916919091179055005b346101005760003660031901126101005761053061147f565b603380546001600160a01b031981169091556000906001600160a01b03166000805160206117638339815191528280a3005b34610100576040366003190112610100576004356024356001600160401b03811161010057610595903690600401611429565b6105aa60018060a01b036067541633146115f8565b8160005260666020526040600020600681019182549160ff831690600582101561046f576105dc6001600393146116ce565b0154421015610633577fc523357a17c19a0da11b08e9f4d7e4fbed304cbe1be1d3583e4d5a677d75d70992600361062e9360ff19161790556040519182913383526040602084015260408301906113bd565b0390a2005b60405162461bcd60e51b815260206004820152600f60248201526e111958591b1a5b99481c185cdcd959608a1b6044820152606490fd5b3461010057610100366003190112610100576106846113fd565b61068c611413565b90604435906001600160a01b03821682036101005760a4356001600160401b038111610100576106c0903690600401611429565b9260c4356001600160401b038111610100576106e0903690600401611429565b9060e4356001600160401b03811161010057610700903690600401611429565b61071560018060a01b036067541633146115f8565b6001600160a01b03821615610d16576001600160a01b03841615610ce15760643515610cab57426084351115610c7357606554946000198614610c5d5760018601606555604051916001600160401b03610120840190811190841117610aac57610120830160409081526001600160a01b038781168552858116602080870191825260643584880190815260843560608901908152608089018e815260a08a018c9052600060c08b0181905260e08b01989098529785166101008a01528c8752606690925293909420865181549084166001600160a01b0319918216178255915160018201805491909416921691909117909155905160028201559051600382015590518051906001600160401b038211610aac57819061083960048501546112ba565b601f8111610c0a575b50602090601f8311600114610b9857600092610b8d575b50508160011b916000199060031b1c19161760048201555b60a08201518051906001600160401b038211610aac57819061089660058501546112ba565b601f8111610b3a575b50602090601f8311600114610acd57600092610ac2575b50508160011b916000199060031b1c19161760058201555b6006810160c0830151600581101561046f5760ff8019835416911617905560e082015180519060018060401b038211610aac5761090e60078401546112ba565b601f8111610a65575b509160209893918895938a90601f83116001146109d9576109c393836109a697946000805160206117438339815191529997946008946000926109ce575b50508160011b916000199060031b1c19161760078201555b019061010060018060a01b039101511660018060a01b0319825416179055604051938493606435855260608c86015260608501906113bd565b83810360408501526001600160a01b0391821698909116966113bd565b0390a4604051908152f35b015190508f80610955565b90600784016000528b6000209160005b601f1985168110610a4b5750936001846000805160206117438339815191529997946008946109c3986109a69b98601f19811610610a32575b505050811b01600782015561096d565b015160001960f88460031b161c191690558f8080610a22565b8183015184558c9950600190930192918d01918d016109e9565b600784016000526020600020601f840160051c810160208510610aa5575b601f830160051c82018110610a99575050610917565b60008155600101610a83565b5080610a83565b634e487b7160e01b600052604160045260246000fd5b0151905089806108b6565b600585016000908152602081209350601f198516905b818110610b225750908460019594939210610b09575b505050811b0160058201556108ce565b015160001960f88460031b161c19169055898080610af9565b92936020600181928786015181550195019301610ae3565b909150600584016000526020600020601f840160051c810160208510610b86575b90849392915b601f830160051c82018110610b7757505061089f565b60008155859450600101610b61565b5080610b5b565b015190508980610859565b9250600484016000526020600020906000935b601f1984168510610bef576001945083601f19811610610bd6575b505050811b016004820155610871565b015160001960f88460031b161c19169055898080610bc6565b81810151835560209485019460019093019290910190610bab565b909150600484016000526020600020601f840160051c810160208510610c56575b90849392915b601f830160051c82018110610c47575050610842565b60008155859450600101610c31565b5080610c2b565b634e487b7160e01b600052601160045260246000fd5b60405162461bcd60e51b815260206004820152601060248201526f496e76616c696420646561646c696e6560801b6044820152606490fd5b60405162461bcd60e51b815260206004820152600e60248201526d125b9d985b1a5908185b5bdd5b9d60921b6044820152606490fd5b60405162461bcd60e51b815260206004820152600d60248201526c24b73b30b634b2103830bcb2b960991b6044820152606490fd5b60405162461bcd60e51b815260206004820152600d60248201526c496e76616c696420706179656560981b6044820152606490fd5b3461010057604036600319011261010057610d646113fd565b610d6c611413565b6000549160ff8360081c161592838094610ec8575b8015610eb1575b15610e555760ff19811660011760005583610e43575b50610db960ff60005460081c16610db481611598565b611598565b610dc2336114d7565b6001600160a01b0390811691610dd983151561150e565b1690610de6821515611552565b60018060a01b03199081606754161760675560685416176068556001606555610e0b57005b61ff0019600054166000557f7f26b83ff96e1f2b6a682f133852f6798a09c465da95921460cefb3847402498602060405160018152a1005b61ffff19166101011760005583610d9e565b60405162461bcd60e51b815260206004820152602e60248201527f496e697469616c697a61626c653a20636f6e747261637420697320616c72656160448201526d191e481a5b9a5d1a585b1a5e995960921b6064820152608490fd5b50303b158015610d885750600160ff821614610d88565b50600160ff821610610d81565b3461010057602036600319011261010057600435610efe60018060a01b036067541633146115f8565b8060005260666020526006604060002001805460ff811690600582101561046f57610f2b60049215611638565b60ff19161790557f0d977c6b1a383ac5ce532b4a668d0ef9ad38478e1a5ff28abb221f4b682b2643600080a2005b346101005760203660031901126101005760043560018060a01b03610f83816067541633146115f8565b816000526066602052604060002090600682019182549160ff831693600585101561046f576002602094610fbc6001610ff398146116ce565b60ff1916179055600281600884015416916067541692015491600060405180968195829463a9059cbb60e01b845260048401611707565b03925af1801561029d5761100e91600091611035575061168a565b7f69833829d5691ae09424af7d16f73adf033451149ea9c2fc6fcb4c44108eef67600080a2005b61104d915060203d81116102965761028881836112f4565b836103cc565b3461010057604036600319011261010057600435602435801515808203610100576067546001600160a01b03919061108e90831633146115f8565b83600052602091606683526040600020600681019182549560ff8716600581101561046f576003036111aa57156110e7575050805460ff1916600117905560008051602061172383398151915292505b604051908152a2005b849592600461112995969460ff1916179055600281600884015416916068541692015491600060405180968195829463a9059cbb60e01b845260048401611707565b03925af190811561029d5760009161118d575b50156111585790600080516020611723833981519152916110de565b60405162461bcd60e51b815260048101839052600d60248201526c1499599d5b990819985a5b1959609a1b6044820152606490fd5b6111a49150833d85116102965761028881836112f4565b8461113c565b60405162461bcd60e51b815260048101879052600c60248201526b139bdd08191a5cdc1d5d195960a21b6044820152606490fd5b34610100576020366003190112610100576004356000526066602052604060002060018060a01b03908181541691806001830154169061128e6002840154611280600386015461123060048801611317565b9061123d60058901611317565b9360ff60068a01541696600861125560078c01611317565b9a015416976040519a8b5260208b015260408a015260608901526101208060808a01528801906113bd565b9086820360a08801526113bd565b600582101561046f5784936112af9260c086015284820360e08601526113bd565b906101008301520390f35b90600182811c921680156112ea575b60208310146112d457565b634e487b7160e01b600052602260045260246000fd5b91607f16916112c9565b601f909101601f19168101906001600160401b03821190821017610aac57604052565b906040519182600082549261132b846112ba565b90818452600194858116908160001461139a5750600114611357575b5050611355925003836112f4565b565b9093915060005260209081600020936000915b81831061138257505061135593508201013880611347565b8554888401850152948501948794509183019161136a565b91505061135594506020925060ff191682840152151560051b8201013880611347565b919082519283825260005b8481106113e9575050826000602080949584010152601f8019910116010190565b6020818301810151848301820152016113c8565b600435906001600160a01b038216820361010057565b602435906001600160a01b038216820361010057565b81601f82011215610100578035906001600160401b038211610aac576040519261145d601f8401601f1916602001856112f4565b8284526020838301011161010057816000926020809301838601378301015290565b6033546001600160a01b0316330361149357565b606460405162461bcd60e51b815260206004820152602060248201527f4f776e61626c653a2063616c6c6572206973206e6f7420746865206f776e65726044820152fd5b603380546001600160a01b039283166001600160a01b031982168117909255909116600080516020611763833981519152600080a3565b1561151557565b60405162461bcd60e51b8152602060048201526015602482015274125b9d985b1a5908189c9a5919d9481dd85b1b195d605a1b6044820152606490fd5b1561155957565b60405162461bcd60e51b8152602060048201526017602482015276125b9d985b1a59081c1b185d199bdc9b481dd85b1b195d604a1b6044820152606490fd5b1561159f57565b60405162461bcd60e51b815260206004820152602b60248201527f496e697469616c697a61626c653a20636f6e7472616374206973206e6f74206960448201526a6e697469616c697a696e6760a81b6064820152608490fd5b156115ff57565b60405162461bcd60e51b8152602060048201526011602482015270139bdd08189c9a5919d9481dd85b1b195d607a1b6044820152606490fd5b1561163f57565b60405162461bcd60e51b815260206004820152600b60248201526a4e6f742070656e64696e6760a81b6044820152606490fd5b90816020910312610100575180151581036101005790565b1561169157565b60405162461bcd60e51b8152602060048201526015602482015274151bdad95b881d1c985b9cd9995c8819985a5b1959605a1b6044820152606490fd5b156116d557565b60405162461bcd60e51b815260206004820152600a602482015269139bdd08199d5b99195960b21b6044820152606490fd5b6001600160a01b03909116815260208101919091526040019056fe694013e1c7c934eef6ed1a5776d4008895769844a7fced962b0bddb002fff6240bcf1e4a8179b3db7b841fac86f1eea3a6a1bce099a9502f05257ee5efecdffe8be0079c531659141344cd1fd0a4f28419497f9722a3daafe3b4186f6b6457e0a2646970667358221220f4934edc2aad8b4d2636e82ab127fa2959fb1e19491f1696e4a79ca80341f46164736f6c63430008140033",
  "linkReferences": {},
  "deployedLinkReferences": {}
}