{
  "_format": "hh-sol-artifact-1",
  "contractName": "KustodiaEscrow3_0",
  "sourceName": "contracts/KustodiaEscrow3_0.sol",
  "abi": [
    {
      "anonymous": false,
      "inputs": [
        {
          "indexed": true,
          "internalType": "uint256",
          "name": "escrowId",
          "type": "uint256"
        },
        {
          "indexed": true,
          "internalType": "address",
          "name": "to",
          "type": "address"
        }
      ],
      "name": "CustodyReleased",
      "type": "event"
    },
    {
      "anonymous": false,
      "inputs": [
        {
          "indexed": true,
          "internalType": "uint256",
          "name": "escrowId",
          "type": "uint256"
        },
        {
          "indexed": true,
          "internalType": "address",
          "name": "payer",
          "type": "address"
        },
        {
          "indexed": true,
          "internalType": "address",
          "name": "seller",
          "type": "address"
        },
        {
          "indexed": false,
          "internalType": "uint256",
          "name": "amount",
          "type": "uint256"
        },
        {
          "indexed": false,
          "internalType": "uint256",
          "name": "custodyAmount",
          "type": "uint256"
        },
        {
          "indexed": false,
          "internalType": "address",
          "name": "userCommissionBeneficiary",
          "type": "address"
        },
        {
          "indexed": false,
          "internalType": "address",
          "name": "platformCommissionBeneficiary",
          "type": "address"
        }
      ],
      "name": "EscrowCreated",
      "type": "event"
    },
    {
      "anonymous": false,
      "inputs": [
        {
          "indexed": true,
          "internalType": "uint256",
          "name": "escrowId",
          "type": "uint256"
        },
        {
          "indexed": true,
          "internalType": "address",
          "name": "by",
          "type": "address"
        }
      ],
      "name": "EscrowDisputed",
      "type": "event"
    },
    {
      "anonymous": false,
      "inputs": [
        {
          "indexed": true,
          "internalType": "uint256",
          "name": "escrowId",
          "type": "uint256"
        },
        {
          "indexed": true,
          "internalType": "address",
          "name": "to",
          "type": "address"
        }
      ],
      "name": "EscrowReleased",
      "type": "event"
    },
    {
      "anonymous": false,
      "inputs": [
        {
          "indexed": true,
          "internalType": "uint256",
          "name": "escrowId",
          "type": "uint256"
        },
        {
          "indexed": true,
          "internalType": "address",
          "name": "winner",
          "type": "address"
        }
      ],
      "name": "EscrowResolved",
      "type": "event"
    },
    {
      "anonymous": false,
      "inputs": [
        {
          "indexed": false,
          "internalType": "uint8",
          "name": "version",
          "type": "uint8"
        }
      ],
      "name": "Initialized",
      "type": "event"
    },
    {
      "anonymous": false,
      "inputs": [
        {
          "indexed": true,
          "internalType": "address",
          "name": "previousOwner",
          "type": "address"
        },
        {
          "indexed": true,
          "internalType": "address",
          "name": "newOwner",
          "type": "address"
        }
      ],
      "name": "OwnershipTransferred",
      "type": "event"
    },
    {
      "inputs": [
        {
          "internalType": "address",
          "name": "seller",
          "type": "address"
        },
        {
          "internalType": "uint256",
          "name": "amount",
          "type": "uint256"
        },
        {
          "internalType": "uint256",
          "name": "custodyAmount",
          "type": "uint256"
        },
        {
          "internalType": "uint256",
          "name": "custodyPeriod",
          "type": "uint256"
        },
        {
          "internalType": "address",
          "name": "userCommissionBeneficiary",
          "type": "address"
        },
        {
          "internalType": "uint256",
          "name": "userCommissionAmount",
          "type": "uint256"
        },
        {
          "internalType": "address",
          "name": "platformCommissionBeneficiary",
          "type": "address"
        },
        {
          "internalType": "uint256",
          "name": "platformCommissionAmount",
          "type": "uint256"
        }
      ],
      "name": "createEscrow",
      "outputs": [
        {
          "internalType": "uint256",
          "name": "",
          "type": "uint256"
        }
      ],
      "stateMutability": "nonpayable",
      "type": "function"
    },
    {
      "inputs": [
        {
          "internalType": "uint256",
          "name": "escrowId",
          "type": "uint256"
        }
      ],
      "name": "disputeEscrow",
      "outputs": [],
      "stateMutability": "nonpayable",
      "type": "function"
    },
    {
      "inputs": [],
      "name": "escrowCount",
      "outputs": [
        {
          "internalType": "uint256",
          "name": "",
          "type": "uint256"
        }
      ],
      "stateMutability": "view",
      "type": "function"
    },
    {
      "inputs": [
        {
          "internalType": "uint256",
          "name": "",
          "type": "uint256"
        }
      ],
      "name": "escrows",
      "outputs": [
        {
          "internalType": "address",
          "name": "payer",
          "type": "address"
        },
        {
          "internalType": "address",
          "name": "seller",
          "type": "address"
        },
        {
          "internalType": "uint256",
          "name": "amount",
          "type": "uint256"
        },
        {
          "internalType": "uint256",
          "name": "custodyAmount",
          "type": "uint256"
        },
        {
          "internalType": "uint256",
          "name": "createdAt",
          "type": "uint256"
        },
        {
          "internalType": "uint256",
          "name": "custodyPeriod",
          "type": "uint256"
        },
        {
          "internalType": "enum KustodiaEscrow3_0.Status",
          "name": "status",
          "type": "uint8"
        },
        {
          "internalType": "address",
          "name": "userCommissionBeneficiary",
          "type": "address"
        },
        {
          "internalType": "uint256",
          "name": "userCommissionAmount",
          "type": "uint256"
        },
        {
          "internalType": "address",
          "name": "platformCommissionBeneficiary",
          "type": "address"
        },
        {
          "internalType": "uint256",
          "name": "platformCommissionAmount",
          "type": "uint256"
        }
      ],
      "stateMutability": "view",
      "type": "function"
    },
    {
      "inputs": [
        {
          "internalType": "address",
          "name": "_mxnbs",
          "type": "address"
        }
      ],
      "name": "initialize",
      "outputs": [],
      "stateMutability": "nonpayable",
      "type": "function"
    },
    {
      "inputs": [],
      "name": "mxnbs",
      "outputs": [
        {
          "internalType": "contract IERC20Upgradeable",
          "name": "",
          "type": "address"
        }
      ],
      "stateMutability": "view",
      "type": "function"
    },
    {
      "inputs": [],
      "name": "owner",
      "outputs": [
        {
          "internalType": "address",
          "name": "",
          "type": "address"
        }
      ],
      "stateMutability": "view",
      "type": "function"
    },
    {
      "inputs": [
        {
          "internalType": "uint256",
          "name": "escrowId",
          "type": "uint256"
        }
      ],
      "name": "releaseCustody",
      "outputs": [],
      "stateMutability": "nonpayable",
      "type": "function"
    },
    {
      "inputs": [
        {
          "internalType": "uint256",
          "name": "escrowId",
          "type": "uint256"
        }
      ],
      "name": "releaseEscrow",
      "outputs": [],
      "stateMutability": "nonpayable",
      "type": "function"
    },
    {
      "inputs": [],
      "name": "renounceOwnership",
      "outputs": [],
      "stateMutability": "nonpayable",
      "type": "function"
    },
    {
      "inputs": [
        {
          "internalType": "uint256",
          "name": "escrowId",
          "type": "uint256"
        },
        {
          "internalType": "address",
          "name": "winner",
          "type": "address"
        }
      ],
      "name": "resolveDispute",
      "outputs": [],
      "stateMutability": "nonpayable",
      "type": "function"
    },
    {
      "inputs": [
        {
          "internalType": "address",
          "name": "newOwner",
          "type": "address"
        }
      ],
      "name": "transferOwnership",
      "outputs": [],
      "stateMutability": "nonpayable",
      "type": "function"
    }
  ],
  "bytecode": "0x6080806040523461001657611127908161001c8239f35b600080fdfe608080604052600436101561001357600080fd5b60003560e01c908163012f52ee14610e7c575080630e33599d14610d125780633ba63c3314610ce957806342eea5cb146108f1578063675ac67a146108d3578063715018a6146108885780638da5cb5b1461085f5780639526592f146106ff578063b563153c14610628578063c4d66de8146104c9578063ed653164146101375763f2fde38b146100a357600080fd5b34610132576020366003190112610132576100bc610f30565b6100c4610f46565b6001600160a01b038116156100de576100dc90610f9e565b005b60405162461bcd60e51b815260206004820152602660248201527f4f776e61626c653a206e6577206f776e657220697320746865207a65726f206160448201526564647265737360d01b6064820152608490fd5b600080fd5b3461013257602080600319360112610132576004359081600052606781526040600020600681019182549260ff841660068110156104b357600161017b9114611070565b82546001600160a01b039490851633036104755760ff191660021790819055600783015460098401805482019182811161045f57866101cd86946101c860028a015460038b0154906110a9565b6110a9565b9460081c1680151580610456575b6103a7575b505085600886015416908115158061039d575b6102e3575b505061022a916001866065541695019486865416600060405180968195829463a9059cbb60e01b8452600484016110b6565b03925af19081156102d7576000916102aa575b501561026e57505416907fefc7f1f15becfaec7a3c17eec78be3fa7adb45698f26fcfd25efe1754c242331600080a3005b6064906040519062461bcd60e51b82526004820152601560248201527414d95b1b195c881c185e5b595b9d0819985a5b1959605a1b6044820152fd5b6102ca9150823d84116102d0575b6102c28183611035565b810190611058565b8561023d565b503d6102b8565b6040513d6000823e3d90fd5b9061030f92918760655416905491600060405180968195829463a9059cbb60e01b8452600484016110b6565b03925af19081156102d757600091610380575b5015610330578186806101f8565b60405162461bcd60e51b815260048101839052602260248201527f506c6174666f726d20636f6d6d697373696f6e207061796d656e74206661696c604482015261195960f21b6064820152608490fd5b6103979150833d85116102d0576102c28183611035565b86610322565b50805415156101f3565b906103d2929391886065541690600060405180968195829463a9059cbb60e01b8452600484016110b6565b03925af19081156102d757600091610439575b50156103f457829087806101e0565b60405162461bcd60e51b815260048101849052601e60248201527f5573657220636f6d6d697373696f6e207061796d656e74206661696c656400006044820152606490fd5b6104509150843d86116102d0576102c28183611035565b876103e5565b508115156101db565b634e487b7160e01b600052601160045260246000fd5b60405162461bcd60e51b81526004810184905260166024820152754f6e6c792070617965722063616e2072656c6561736560501b6044820152606490fd5b634e487b7160e01b600052602160045260246000fd5b34610132576020366003190112610132576104e2610f30565b6000549060ff8260081c16159182809361061b575b8015610604575b156105a85760ff19811660011760005582610596575b5061052f60ff60005460081c1661052a81610fd5565b610fd5565b61053833610f9e565b606580546001600160a01b0319166001600160a01b039290921691909117905561055e57005b61ff0019600054166000557f7f26b83ff96e1f2b6a682f133852f6798a09c465da95921460cefb3847402498602060405160018152a1005b61ffff19166101011760005582610514565b60405162461bcd60e51b815260206004820152602e60248201527f496e697469616c697a61626c653a20636f6e747261637420697320616c72656160448201526d191e481a5b9a5d1a585b1a5e995960921b6064820152608490fd5b50303b1580156104fe5750600160ff8216146104fe565b50600160ff8216106104f7565b34610132576020366003190112610132576004358060005260676020526040600020600681019081549060ff821660068110156104b357600161066b9114611070565b8054336001600160a01b03918216149182156106ee575b5050156106bb5760ff1916600317905533907fc25e2b14e82d9713d1570e77d6549051cc07e59f7f354600ce0e0c0f2aa29b0e600080a3005b60405162461bcd60e51b815260206004820152600b60248201526a139bdd08185b1b1bddd95960aa1b6044820152606490fd5b600191925001541633148480610682565b3461013257602080600319360112610132576004359061071d610f46565b8160005260678152604060002060068101805460ff811660068110156104b35760020361082b5760049060ff191617905560018060a01b039161078d81846065541693600181019460038787541692015491600060405180968195829463a9059cbb60e01b8452600484016110b6565b03925af19081156102d75760009161080e575b50156107d157505416907f3d95aa7e5f663e75b67f82d65583738fe2bdcdaf52aba19bc26d2d64f868d014600080a3005b6064906040519062461bcd60e51b82526004820152601660248201527510dd5cdd1bd91e481c185e5b595b9d0819985a5b195960521b6044820152fd5b6108259150823d84116102d0576102c28183611035565b856107a0565b60405162461bcd60e51b815260048101859052600c60248201526b139bdd081c995b19585cd95960a21b6044820152606490fd5b34610132576000366003190112610132576033546040516001600160a01b039091168152602090f35b34610132576000366003190112610132576108a1610f46565b603380546001600160a01b031981169091556000906001600160a01b03166000805160206110d28339815191528280a3005b34610132576000366003190112610132576020606654604051908152f35b3461013257610100806003193601126101325761090c610f30565b6084356001600160a01b03811681036101325760c435916001600160a01b03831683036101325760243515610cb2576001600160a01b03811615610c7b57606554604051636eb1769f60e11b81523360048201523060248201526001600160a01b0390911690602081604481855afa9081156102d757600091610c49575b5060243511610c0d5760206000916064604051809481936323b872dd60e01b835233600484015230602484015260243560448401525af19081156102d757600091610bee575b5015610bb15760405161016081016001600160401b03811182821017610b9b5760409081523382526001600160a01b03838116602084015260243591830191909152604435606083015242608083015260643560a0830152600160c083015283811660e083015260a43586830152841661012082015260e435610140820152606654600019811461045f5760010180606655600052606760205260406000209060018060a01b0381511660018060a01b031990818454161783556001830160018060a01b036020840151168282541617905560408201516002840155606082015160038401556080820151600484015560a08201516005840155600683019160c08101519160068310156104b35760209884610140946009965460ff610100600160a81b0360e088015160081b1692169060018060a81b031916171790558201516007860155600885019060018060a01b0361012084015116908254161790550151910155606654926040519260243584526044358685015260018060a01b0316604084015260018060a01b0316606083015260018060a01b031690827f74d18a51942aaca5f0ca557a59edd4fff1fb1a04e1dfb01f1cb8f99cd9c70f2660803393a4604051908152f35b634e487b7160e01b600052604160045260246000fd5b60405162461bcd60e51b8152602060048201526015602482015274151bdad95b881d1c985b9cd9995c8819985a5b1959605a1b6044820152606490fd5b610c07915060203d6020116102d0576102c28183611035565b856109d0565b60405162461bcd60e51b8152602060048201526014602482015273105c1c1c9bdd99481d1bdad95b9cc8199a5c9cdd60621b6044820152606490fd5b90506020813d602011610c73575b81610c6460209383611035565b8101031261013257518661098a565b3d9150610c57565b60405162461bcd60e51b815260206004820152600f60248201526e14d95b1b195c881c995c5d5a5c9959608a1b6044820152606490fd5b60405162461bcd60e51b815260206004820152600f60248201526e105b5bdd5b9d081c995c5d5a5c9959608a1b6044820152606490fd5b34610132576000366003190112610132576065546040516001600160a01b039091168152602090f35b34610132576040366003190112610132576001600160a01b03602435818116916004359183810361013257610d45610f46565b826000526020916067835260406000209060068201805460ff811660068110156104b357600303610e4857610daa9492869492600460029360ff19161790556065541691015491600060405180968195829463a9059cbb60e01b8452600484016110b6565b03925af19081156102d757600091610e2b575b5015610deb57507f4a2cd567213de7ff091338b2015c37beb9851bb38025b3b663447764b0fe5495600080a3005b6064906040519062461bcd60e51b82526004820152601960248201527814995cdbdb1d5d1a5bdb881c185e5b595b9d0819985a5b1959603a1b6044820152fd5b610e429150823d84116102d0576102c28183611035565b84610dbd565b60405162461bcd60e51b815260048101879052600c60248201526b139bdd08191a5cdc1d5d195960a21b6044820152606490fd5b3461013257602036600319011261013257600435600052606760205260406000209060018060a01b03918281541690836001820154166002820154946003830154600484015460058501549060068601549260ff84169960078801549660098760088b015416990154998b5260208b015260408a01526060890152608088015260a087015260068710156104b3576101609660c087015260081c1660e0850152610100840152610120830152610140820152f35b600435906001600160a01b038216820361013257565b6033546001600160a01b03163303610f5a57565b606460405162461bcd60e51b815260206004820152602060248201527f4f776e61626c653a2063616c6c6572206973206e6f7420746865206f776e65726044820152fd5b603380546001600160a01b039283166001600160a01b0319821681179092559091166000805160206110d2833981519152600080a3565b15610fdc57565b60405162461bcd60e51b815260206004820152602b60248201527f496e697469616c697a61626c653a20636f6e7472616374206973206e6f74206960448201526a6e697469616c697a696e6760a81b6064820152608490fd5b601f909101601f19168101906001600160401b03821190821017610b9b57604052565b90816020910312610132575180151581036101325790565b1561107757565b60405162461bcd60e51b815260206004820152600a602482015269139bdd08199d5b99195960b21b6044820152606490fd5b9190820391821161045f57565b6001600160a01b03909116815260208101919091526040019056fe8be0079c531659141344cd1fd0a4f28419497f9722a3daafe3b4186f6b6457e0a2646970667358221220877c18eb22304f5cec5a27d5dba33b2b404769c2adce9254b30357107de612de64736f6c63430008140033",
  "linkReferences": {},
  "deployedLinkReferences": {}
}