{
  "_format": "hh-sol-artifact-1",
  "contractName": "KustodiaEscrow3_0",
  "sourceName": "contracts/KustodiaEscrow3_0.sol",
  "abi": [
    {
      "anonymous": false,
      "inputs": [
        {
          "indexed": true,
          "internalType": "uint256",
          "name": "escrowId",
          "type": "uint256"
        },
        {
          "indexed": true,
          "internalType": "address",
          "name": "to",
          "type": "address"
        }
      ],
      "name": "CustodyReleased",
      "type": "event"
    },
    {
      "anonymous": false,
      "inputs": [
        {
          "indexed": true,
          "internalType": "uint256",
          "name": "escrowId",
          "type": "uint256"
        },
        {
          "indexed": true,
          "internalType": "address",
          "name": "payer",
          "type": "address"
        },
        {
          "indexed": true,
          "internalType": "address",
          "name": "seller",
          "type": "address"
        },
        {
          "indexed": false,
          "internalType": "uint256",
          "name": "amount",
          "type": "uint256"
        },
        {
          "indexed": false,
          "internalType": "uint256",
          "name": "custodyAmount",
          "type": "uint256"
        },
        {
          "indexed": false,
          "internalType": "address",
          "name": "commission",
          "type": "address"
        }
      ],
      "name": "EscrowCreated",
      "type": "event"
    },
    {
      "anonymous": false,
      "inputs": [
        {
          "indexed": true,
          "internalType": "uint256",
          "name": "escrowId",
          "type": "uint256"
        },
        {
          "indexed": true,
          "internalType": "address",
          "name": "by",
          "type": "address"
        }
      ],
      "name": "EscrowDisputed",
      "type": "event"
    },
    {
      "anonymous": false,
      "inputs": [
        {
          "indexed": true,
          "internalType": "uint256",
          "name": "escrowId",
          "type": "uint256"
        },
        {
          "indexed": true,
          "internalType": "address",
          "name": "to",
          "type": "address"
        }
      ],
      "name": "EscrowReleased",
      "type": "event"
    },
    {
      "anonymous": false,
      "inputs": [
        {
          "indexed": true,
          "internalType": "uint256",
          "name": "escrowId",
          "type": "uint256"
        },
        {
          "indexed": true,
          "internalType": "address",
          "name": "winner",
          "type": "address"
        }
      ],
      "name": "EscrowResolved",
      "type": "event"
    },
    {
      "anonymous": false,
      "inputs": [
        {
          "indexed": false,
          "internalType": "uint8",
          "name": "version",
          "type": "uint8"
        }
      ],
      "name": "Initialized",
      "type": "event"
    },
    {
      "anonymous": false,
      "inputs": [
        {
          "indexed": true,
          "internalType": "address",
          "name": "previousOwner",
          "type": "address"
        },
        {
          "indexed": true,
          "internalType": "address",
          "name": "newOwner",
          "type": "address"
        }
      ],
      "name": "OwnershipTransferred",
      "type": "event"
    },
    {
      "inputs": [
        {
          "internalType": "address",
          "name": "seller",
          "type": "address"
        },
        {
          "internalType": "address",
          "name": "commission",
          "type": "address"
        },
        {
          "internalType": "uint256",
          "name": "amount",
          "type": "uint256"
        },
        {
          "internalType": "uint256",
          "name": "custodyAmount",
          "type": "uint256"
        },
        {
          "internalType": "uint256",
          "name": "custodyPeriod",
          "type": "uint256"
        }
      ],
      "name": "createEscrow",
      "outputs": [
        {
          "internalType": "uint256",
          "name": "",
          "type": "uint256"
        }
      ],
      "stateMutability": "nonpayable",
      "type": "function"
    },
    {
      "inputs": [
        {
          "internalType": "uint256",
          "name": "escrowId",
          "type": "uint256"
        }
      ],
      "name": "disputeEscrow",
      "outputs": [],
      "stateMutability": "nonpayable",
      "type": "function"
    },
    {
      "inputs": [],
      "name": "escrowCount",
      "outputs": [
        {
          "internalType": "uint256",
          "name": "",
          "type": "uint256"
        }
      ],
      "stateMutability": "view",
      "type": "function"
    },
    {
      "inputs": [
        {
          "internalType": "uint256",
          "name": "",
          "type": "uint256"
        }
      ],
      "name": "escrows",
      "outputs": [
        {
          "internalType": "address",
          "name": "payer",
          "type": "address"
        },
        {
          "internalType": "address",
          "name": "seller",
          "type": "address"
        },
        {
          "internalType": "address",
          "name": "commission",
          "type": "address"
        },
        {
          "internalType": "uint256",
          "name": "amount",
          "type": "uint256"
        },
        {
          "internalType": "uint256",
          "name": "custodyAmount",
          "type": "uint256"
        },
        {
          "internalType": "uint256",
          "name": "createdAt",
          "type": "uint256"
        },
        {
          "internalType": "uint256",
          "name": "custodyPeriod",
          "type": "uint256"
        },
        {
          "internalType": "enum KustodiaEscrow3_0.Status",
          "name": "status",
          "type": "uint8"
        }
      ],
      "stateMutability": "view",
      "type": "function"
    },
    {
      "inputs": [
        {
          "internalType": "address",
          "name": "_mxnbs",
          "type": "address"
        }
      ],
      "name": "initialize",
      "outputs": [],
      "stateMutability": "nonpayable",
      "type": "function"
    },
    {
      "inputs": [],
      "name": "mxnbs",
      "outputs": [
        {
          "internalType": "contract IERC20Upgradeable",
          "name": "",
          "type": "address"
        }
      ],
      "stateMutability": "view",
      "type": "function"
    },
    {
      "inputs": [],
      "name": "owner",
      "outputs": [
        {
          "internalType": "address",
          "name": "",
          "type": "address"
        }
      ],
      "stateMutability": "view",
      "type": "function"
    },
    {
      "inputs": [
        {
          "internalType": "uint256",
          "name": "escrowId",
          "type": "uint256"
        }
      ],
      "name": "releaseCustody",
      "outputs": [],
      "stateMutability": "nonpayable",
      "type": "function"
    },
    {
      "inputs": [
        {
          "internalType": "uint256",
          "name": "escrowId",
          "type": "uint256"
        }
      ],
      "name": "releaseEscrow",
      "outputs": [],
      "stateMutability": "nonpayable",
      "type": "function"
    },
    {
      "inputs": [],
      "name": "renounceOwnership",
      "outputs": [],
      "stateMutability": "nonpayable",
      "type": "function"
    },
    {
      "inputs": [
        {
          "internalType": "uint256",
          "name": "escrowId",
          "type": "uint256"
        },
        {
          "internalType": "address",
          "name": "winner",
          "type": "address"
        }
      ],
      "name": "resolveDispute",
      "outputs": [],
      "stateMutability": "nonpayable",
      "type": "function"
    },
    {
      "inputs": [
        {
          "internalType": "address",
          "name": "newOwner",
          "type": "address"
        }
      ],
      "name": "transferOwnership",
      "outputs": [],
      "stateMutability": "nonpayable",
      "type": "function"
    }
  ],
  "bytecode": "0x608060405234801561001057600080fd5b506122c0806100206000396000f3fe608060405234801561001057600080fd5b50600436106100b45760003560e01c80638da5cb5b116100715780638da5cb5b146101825780639526592f146101a0578063b563153c146101bc578063c4d66de8146101d8578063ed653164146101f4578063f2fde38b14610210576100b4565b8063012f52ee146100b95780630e33599d146100f05780633ba63c331461010c5780633bf3110f1461012a578063675ac67a1461015a578063715018a614610178575b600080fd5b6100d360048036038101906100ce919061159c565b61022c565b6040516100e7989796959493929190611690565b60405180910390f35b61010a6004803603810190610105919061173a565b6102e1565b005b6101146104d1565b60405161012191906117d9565b60405180910390f35b610144600480360381019061013f91906117f4565b6104f7565b604051610151919061186f565b60405180910390f35b6101626109cb565b60405161016f919061186f565b60405180910390f35b6101806109d1565b005b61018a6109e5565b604051610197919061188a565b60405180910390f35b6101ba60048036038101906101b5919061159c565b610a0f565b005b6101d660048036038101906101d1919061159c565b610c46565b005b6101f260048036038101906101ed91906118a5565b610e36565b005b61020e6004803603810190610209919061159c565b610fb6565b005b61022a600480360381019061022591906118a5565b6112b5565b005b60676020528060005260406000206000915090508060000160009054906101000a900473ffffffffffffffffffffffffffffffffffffffff16908060010160009054906101000a900473ffffffffffffffffffffffffffffffffffffffff16908060020160009054906101000a900473ffffffffffffffffffffffffffffffffffffffff16908060030154908060040154908060050154908060060154908060070160009054906101000a900460ff16905088565b6102e9611338565b60006067600084815260200190815260200160002090506003600581111561031457610313611619565b5b8160070160009054906101000a900460ff16600581111561033857610337611619565b5b14610378576040517f08c379a000000000000000000000000000000000000000000000000000000000815260040161036f9061192f565b60405180910390fd5b60048160070160006101000a81548160ff021916908360058111156103a05761039f611619565b5b0217905550606560009054906101000a900473ffffffffffffffffffffffffffffffffffffffff1673ffffffffffffffffffffffffffffffffffffffff1663a9059cbb8383600301546040518363ffffffff1660e01b815260040161040692919061194f565b6020604051808303816000875af1158015610425573d6000803e3d6000fd5b505050506040513d601f19601f8201168201806040525081019061044991906119b0565b610488576040517f08c379a000000000000000000000000000000000000000000000000000000000815260040161047f90611a29565b60405180910390fd5b8173ffffffffffffffffffffffffffffffffffffffff16837f4a2cd567213de7ff091338b2015c37beb9851bb38025b3b663447764b0fe549560405160405180910390a3505050565b606560009054906101000a900473ffffffffffffffffffffffffffffffffffffffff1681565b600080841161053b576040517f08c379a000000000000000000000000000000000000000000000000000000000815260040161053290611a95565b60405180910390fd5b600073ffffffffffffffffffffffffffffffffffffffff168673ffffffffffffffffffffffffffffffffffffffff16036105aa576040517f08c379a00000000000000000000000000000000000000000000000000000000081526004016105a190611b01565b60405180910390fd5b83606560009054906101000a900473ffffffffffffffffffffffffffffffffffffffff1673ffffffffffffffffffffffffffffffffffffffff1663dd62ed3e33306040518363ffffffff1660e01b8152600401610608929190611b21565b602060405180830381865afa158015610625573d6000803e3d6000fd5b505050506040513d601f19601f820116820180604052508101906106499190611b5f565b101561068a576040517f08c379a000000000000000000000000000000000000000000000000000000000815260040161068190611bd8565b60405180910390fd5b606560009054906101000a900473ffffffffffffffffffffffffffffffffffffffff1673ffffffffffffffffffffffffffffffffffffffff166323b872dd3330876040518463ffffffff1660e01b81526004016106e993929190611bf8565b6020604051808303816000875af1158015610708573d6000803e3d6000fd5b505050506040513d601f19601f8201168201806040525081019061072c91906119b0565b61076b576040517f08c379a000000000000000000000000000000000000000000000000000000000815260040161076290611c7b565b60405180910390fd5b6040518061010001604052803373ffffffffffffffffffffffffffffffffffffffff1681526020018773ffffffffffffffffffffffffffffffffffffffff1681526020018673ffffffffffffffffffffffffffffffffffffffff168152602001858152602001848152602001428152602001838152602001600160058111156107f7576107f6611619565b5b8152506067600060666000815461080d90611cca565b919050819055815260200190815260200160002060008201518160000160006101000a81548173ffffffffffffffffffffffffffffffffffffffff021916908373ffffffffffffffffffffffffffffffffffffffff16021790555060208201518160010160006101000a81548173ffffffffffffffffffffffffffffffffffffffff021916908373ffffffffffffffffffffffffffffffffffffffff16021790555060408201518160020160006101000a81548173ffffffffffffffffffffffffffffffffffffffff021916908373ffffffffffffffffffffffffffffffffffffffff160217905550606082015181600301556080820151816004015560a0820151816005015560c0820151816006015560e08201518160070160006101000a81548160ff0219169083600581111561094957610948611619565b5b02179055509050508573ffffffffffffffffffffffffffffffffffffffff163373ffffffffffffffffffffffffffffffffffffffff166066547fc74eacceba2e61e3a12f6efe836a97068ff990882e14fb3887033b6fcac1b82087878a6040516109b593929190611d12565b60405180910390a4606654905095945050505050565b60665481565b6109d9611338565b6109e360006113b6565b565b6000603360009054906101000a900473ffffffffffffffffffffffffffffffffffffffff16905090565b610a17611338565b600060676000838152602001908152602001600020905060026005811115610a4257610a41611619565b5b8160070160009054906101000a900460ff166005811115610a6657610a65611619565b5b14610aa6576040517f08c379a0000000000000000000000000000000000000000000000000000000008152600401610a9d90611d95565b60405180910390fd5b60048160070160006101000a81548160ff02191690836005811115610ace57610acd611619565b5b0217905550606560009054906101000a900473ffffffffffffffffffffffffffffffffffffffff1673ffffffffffffffffffffffffffffffffffffffff1663a9059cbb8260010160009054906101000a900473ffffffffffffffffffffffffffffffffffffffff1683600401546040518363ffffffff1660e01b8152600401610b5892919061194f565b6020604051808303816000875af1158015610b77573d6000803e3d6000fd5b505050506040513d601f19601f82011682018060405250810190610b9b91906119b0565b610bda576040517f08c379a0000000000000000000000000000000000000000000000000000000008152600401610bd190611e01565b60405180910390fd5b8060010160009054906101000a900473ffffffffffffffffffffffffffffffffffffffff1673ffffffffffffffffffffffffffffffffffffffff16827f3d95aa7e5f663e75b67f82d65583738fe2bdcdaf52aba19bc26d2d64f868d01460405160405180910390a35050565b600060676000838152602001908152602001600020905060016005811115610c7157610c70611619565b5b8160070160009054906101000a900460ff166005811115610c9557610c94611619565b5b14610cd5576040517f08c379a0000000000000000000000000000000000000000000000000000000008152600401610ccc90611e6d565b60405180910390fd5b8060000160009054906101000a900473ffffffffffffffffffffffffffffffffffffffff1673ffffffffffffffffffffffffffffffffffffffff163373ffffffffffffffffffffffffffffffffffffffff161480610d8257508060010160009054906101000a900473ffffffffffffffffffffffffffffffffffffffff1673ffffffffffffffffffffffffffffffffffffffff163373ffffffffffffffffffffffffffffffffffffffff16145b610dc1576040517f08c379a0000000000000000000000000000000000000000000000000000000008152600401610db890611ed9565b60405180910390fd5b60038160070160006101000a81548160ff02191690836005811115610de957610de8611619565b5b02179055503373ffffffffffffffffffffffffffffffffffffffff16827fc25e2b14e82d9713d1570e77d6549051cc07e59f7f354600ce0e0c0f2aa29b0e60405160405180910390a35050565b60008060019054906101000a900460ff16159050808015610e675750600160008054906101000a900460ff1660ff16105b80610e945750610e763061147c565b158015610e935750600160008054906101000a900460ff1660ff16145b5b610ed3576040517f08c379a0000000000000000000000000000000000000000000000000000000008152600401610eca90611f6b565b60405180910390fd5b60016000806101000a81548160ff021916908360ff1602179055508015610f10576001600060016101000a81548160ff0219169083151502179055505b610f1861149f565b81606560006101000a81548173ffffffffffffffffffffffffffffffffffffffff021916908373ffffffffffffffffffffffffffffffffffffffff1602179055508015610fb25760008060016101000a81548160ff0219169083151502179055507f7f26b83ff96e1f2b6a682f133852f6798a09c465da95921460cefb38474024986001604051610fa99190611fd3565b60405180910390a15b5050565b600060676000838152602001908152602001600020905060016005811115610fe157610fe0611619565b5b8160070160009054906101000a900460ff16600581111561100557611004611619565b5b14611045576040517f08c379a000000000000000000000000000000000000000000000000000000000815260040161103c90611e6d565b60405180910390fd5b8060000160009054906101000a900473ffffffffffffffffffffffffffffffffffffffff1673ffffffffffffffffffffffffffffffffffffffff163373ffffffffffffffffffffffffffffffffffffffff16146110d7576040517f08c379a00000000000000000000000000000000000000000000000000000000081526004016110ce9061203a565b60405180910390fd5b60028160070160006101000a81548160ff021916908360058111156110ff576110fe611619565b5b021790555060008160040154826003015461111a919061205a565b9050600073ffffffffffffffffffffffffffffffffffffffff168260020160009054906101000a90505050606560009054906101000a900473ffffffffffffffffffffffffffffffffffffffff1673ffffffffffffffffffffffffffffffffffffffff1663a9059cbb8360010160009054906101000a900473ffffffffffffffffffffffffffffffffffffffff16836040518363ffffffff1660e01b81526004016111c692919061194f565b6020604051808303816000875af11580156111e5573d6000803e3d6000fd5b505050506040513d601f19601f8201168201806040525081019061120991906119b0565b611248576040517f08c379a000000000000000000000000000000000000000000000000000000000815260040161123f906120da565b60405180910390fd5b8160010160009054906101000a900473ffffffffffffffffffffffffffffffffffffffff1673ffffffffffffffffffffffffffffffffffffffff16837fefc7f1f15becfaec7a3c17eec78be3fa7adb45698f26fcfd25efe1754c24233160405160405180910390a3505050565b6112bd611338565b600073ffffffffffffffffffffffffffffffffffffffff168173ffffffffffffffffffffffffffffffffffffffff160361132c576040517f08c379a00000000000000000000000000000000000000000000000000000000081526004016113239061216c565b60405180910390fd5b611335816113b6565b50565b6113406114f8565b73ffffffffffffffffffffffffffffffffffffffff1661135e6109e5565b73ffffffffffffffffffffffffffffffffffffffff16146113b4576040517f08c379a00000000000000000000000000000000000000000000000000000000081526004016113ab906121d8565b60405180910390fd5b565b6000603360009054906101000a900473ffffffffffffffffffffffffffffffffffffffff16905081603360006101000a81548173ffffffffffffffffffffffffffffffffffffffff021916908373ffffffffffffffffffffffffffffffffffffffff1602179055508173ffffffffffffffffffffffffffffffffffffffff168173ffffffffffffffffffffffffffffffffffffffff167f8be0079c531659141344cd1fd0a4f28419497f9722a3daafe3b4186f6b6457e060405160405180910390a35050565b6000808273ffffffffffffffffffffffffffffffffffffffff163b119050919050565b600060019054906101000a900460ff166114ee576040517f08c379a00000000000000000000000000000000000000000000000000000000081526004016114e59061226a565b60405180910390fd5b6114f6611500565b565b600033905090565b600060019054906101000a900460ff1661154f576040517f08c379a00000000000000000000000000000000000000000000000000000000081526004016115469061226a565b60405180910390fd5b61155f61155a6114f8565b6113b6565b565b600080fd5b6000819050919050565b61157981611566565b811461158457600080fd5b50565b60008135905061159681611570565b92915050565b6000602082840312156115b2576115b1611561565b5b60006115c084828501611587565b91505092915050565b600073ffffffffffffffffffffffffffffffffffffffff82169050919050565b60006115f4826115c9565b9050919050565b611604816115e9565b82525050565b61161381611566565b82525050565b7f4e487b7100000000000000000000000000000000000000000000000000000000600052602160045260246000fd5b6006811061165957611658611619565b5b50565b600081905061166a82611648565b919050565b600061167a8261165c565b9050919050565b61168a8161166f565b82525050565b6000610100820190506116a6600083018b6115fb565b6116b3602083018a6115fb565b6116c060408301896115fb565b6116cd606083018861160a565b6116da608083018761160a565b6116e760a083018661160a565b6116f460c083018561160a565b61170160e0830184611681565b9998505050505050505050565b611717816115e9565b811461172257600080fd5b50565b6000813590506117348161170e565b92915050565b6000806040838503121561175157611750611561565b5b600061175f85828601611587565b925050602061177085828601611725565b9150509250929050565b6000819050919050565b600061179f61179a611795846115c9565b61177a565b6115c9565b9050919050565b60006117b182611784565b9050919050565b60006117c3826117a6565b9050919050565b6117d3816117b8565b82525050565b60006020820190506117ee60008301846117ca565b92915050565b600080600080600060a086880312156118105761180f611561565b5b600061181e88828901611725565b955050602061182f88828901611725565b945050604061184088828901611587565b935050606061185188828901611587565b925050608061186288828901611587565b9150509295509295909350565b6000602082019050611884600083018461160a565b92915050565b600060208201905061189f60008301846115fb565b92915050565b6000602082840312156118bb576118ba611561565b5b60006118c984828501611725565b91505092915050565b600082825260208201905092915050565b7f4e6f742064697370757465640000000000000000000000000000000000000000600082015250565b6000611919600c836118d2565b9150611924826118e3565b602082019050919050565b600060208201905081810360008301526119488161190c565b9050919050565b600060408201905061196460008301856115fb565b611971602083018461160a565b9392505050565b60008115159050919050565b61198d81611978565b811461199857600080fd5b50565b6000815190506119aa81611984565b92915050565b6000602082840312156119c6576119c5611561565b5b60006119d48482850161199b565b91505092915050565b7f5265736f6c7574696f6e207061796d656e74206661696c656400000000000000600082015250565b6000611a136019836118d2565b9150611a1e826119dd565b602082019050919050565b60006020820190508181036000830152611a4281611a06565b9050919050565b7f416d6f756e742072657175697265640000000000000000000000000000000000600082015250565b6000611a7f600f836118d2565b9150611a8a82611a49565b602082019050919050565b60006020820190508181036000830152611aae81611a72565b9050919050565b7f53656c6c65722072657175697265640000000000000000000000000000000000600082015250565b6000611aeb600f836118d2565b9150611af682611ab5565b602082019050919050565b60006020820190508181036000830152611b1a81611ade565b9050919050565b6000604082019050611b3660008301856115fb565b611b4360208301846115fb565b9392505050565b600081519050611b5981611570565b92915050565b600060208284031215611b7557611b74611561565b5b6000611b8384828501611b4a565b91505092915050565b7f417070726f766520746f6b656e73206669727374000000000000000000000000600082015250565b6000611bc26014836118d2565b9150611bcd82611b8c565b602082019050919050565b60006020820190508181036000830152611bf181611bb5565b9050919050565b6000606082019050611c0d60008301866115fb565b611c1a60208301856115fb565b611c27604083018461160a565b949350505050565b7f546f6b656e207472616e73666572206661696c65640000000000000000000000600082015250565b6000611c656015836118d2565b9150611c7082611c2f565b602082019050919050565b60006020820190508181036000830152611c9481611c58565b9050919050565b7f4e487b7100000000000000000000000000000000000000000000000000000000600052601160045260246000fd5b6000611cd582611566565b91507fffffffffffffffffffffffffffffffffffffffffffffffffffffffffffffffff8203611d0757611d06611c9b565b5b600182019050919050565b6000606082019050611d27600083018661160a565b611d34602083018561160a565b611d4160408301846115fb565b949350505050565b7f4e6f742072656c65617365640000000000000000000000000000000000000000600082015250565b6000611d7f600c836118d2565b9150611d8a82611d49565b602082019050919050565b60006020820190508181036000830152611dae81611d72565b9050919050565b7f437573746f6479207061796d656e74206661696c656400000000000000000000600082015250565b6000611deb6016836118d2565b9150611df682611db5565b602082019050919050565b60006020820190508181036000830152611e1a81611dde565b9050919050565b7f4e6f742066756e64656400000000000000000000000000000000000000000000600082015250565b6000611e57600a836118d2565b9150611e6282611e21565b602082019050919050565b60006020820190508181036000830152611e8681611e4a565b9050919050565b7f4e6f7420616c6c6f776564000000000000000000000000000000000000000000600082015250565b6000611ec3600b836118d2565b9150611ece82611e8d565b602082019050919050565b60006020820190508181036000830152611ef281611eb6565b9050919050565b7f496e697469616c697a61626c653a20636f6e747261637420697320616c72656160008201527f647920696e697469616c697a6564000000000000000000000000000000000000602082015250565b6000611f55602e836118d2565b9150611f6082611ef9565b604082019050919050565b60006020820190508181036000830152611f8481611f48565b9050919050565b6000819050919050565b600060ff82169050919050565b6000611fbd611fb8611fb384611f8b565b61177a565b611f95565b9050919050565b611fcd81611fa2565b82525050565b6000602082019050611fe86000830184611fc4565b92915050565b7f4f6e6c792070617965722063616e2072656c6561736500000000000000000000600082015250565b60006120246016836118d2565b915061202f82611fee565b602082019050919050565b6000602082019050818103600083015261205381612017565b9050919050565b600061206582611566565b915061207083611566565b925082820390508181111561208857612087611c9b565b5b92915050565b7f53656c6c6572207061796d656e74206661696c65640000000000000000000000600082015250565b60006120c46015836118d2565b91506120cf8261208e565b602082019050919050565b600060208201905081810360008301526120f3816120b7565b9050919050565b7f4f776e61626c653a206e6577206f776e657220697320746865207a65726f206160008201527f6464726573730000000000000000000000000000000000000000000000000000602082015250565b60006121566026836118d2565b9150612161826120fa565b604082019050919050565b6000602082019050818103600083015261218581612149565b9050919050565b7f4f776e61626c653a2063616c6c6572206973206e6f7420746865206f776e6572600082015250565b60006121c26020836118d2565b91506121cd8261218c565b602082019050919050565b600060208201905081810360008301526121f1816121b5565b9050919050565b7f496e697469616c697a61626c653a20636f6e7472616374206973206e6f74206960008201527f6e697469616c697a696e67000000000000000000000000000000000000000000602082015250565b6000612254602b836118d2565b915061225f826121f8565b604082019050919050565b6000602082019050818103600083015261228381612247565b905091905056fea26469706673582212208aa25298fb2e88fb93f07bd86fc7f0f47b3db78bae63637b1c5d8d903f619e5764736f6c63430008140033",
  "linkReferences": {},
  "deployedLinkReferences": {}
}