{
  "_format": "hh-sol-artifact-1",
  "contractName": "KustodiaEscrow3_0",
  "sourceName": "contracts/KustodiaEscrow3_0.sol",
  "abi": [
    {
      "anonymous": false,
      "inputs": [
        {
          "indexed": true,
          "internalType": "uint256",
          "name": "escrowId",
          "type": "uint256"
        },
        {
          "indexed": true,
          "internalType": "address",
          "name": "to",
          "type": "address"
        }
      ],
      "name": "CustodyReleased",
      "type": "event"
    },
    {
      "anonymous": false,
      "inputs": [
        {
          "indexed": true,
          "internalType": "uint256",
          "name": "escrowId",
          "type": "uint256"
        },
        {
          "indexed": true,
          "internalType": "address",
          "name": "payer",
          "type": "address"
        },
        {
          "indexed": true,
          "internalType": "address",
          "name": "seller",
          "type": "address"
        },
        {
          "indexed": false,
          "internalType": "uint256",
          "name": "amount",
          "type": "uint256"
        },
        {
          "indexed": false,
          "internalType": "uint256",
          "name": "custodyAmount",
          "type": "uint256"
        },
        {
          "indexed": false,
          "internalType": "address",
          "name": "userCommissionBeneficiary",
          "type": "address"
        },
        {
          "indexed": false,
          "internalType": "address",
          "name": "platformCommissionBeneficiary",
          "type": "address"
        }
      ],
      "name": "EscrowCreated",
      "type": "event"
    },
    {
      "anonymous": false,
      "inputs": [
        {
          "indexed": true,
          "internalType": "uint256",
          "name": "escrowId",
          "type": "uint256"
        },
        {
          "indexed": true,
          "internalType": "address",
          "name": "by",
          "type": "address"
        }
      ],
      "name": "EscrowDisputed",
      "type": "event"
    },
    {
      "anonymous": false,
      "inputs": [
        {
          "indexed": true,
          "internalType": "uint256",
          "name": "escrowId",
          "type": "uint256"
        },
        {
          "indexed": true,
          "internalType": "address",
          "name": "to",
          "type": "address"
        }
      ],
      "name": "EscrowReleased",
      "type": "event"
    },
    {
      "anonymous": false,
      "inputs": [
        {
          "indexed": true,
          "internalType": "uint256",
          "name": "escrowId",
          "type": "uint256"
        },
        {
          "indexed": true,
          "internalType": "address",
          "name": "winner",
          "type": "address"
        }
      ],
      "name": "EscrowResolved",
      "type": "event"
    },
    {
      "anonymous": false,
      "inputs": [
        {
          "indexed": false,
          "internalType": "uint8",
          "name": "version",
          "type": "uint8"
        }
      ],
      "name": "Initialized",
      "type": "event"
    },
    {
      "anonymous": false,
      "inputs": [
        {
          "indexed": true,
          "internalType": "address",
          "name": "previousOwner",
          "type": "address"
        },
        {
          "indexed": true,
          "internalType": "address",
          "name": "newOwner",
          "type": "address"
        }
      ],
      "name": "OwnershipTransferred",
      "type": "event"
    },
    {
      "inputs": [
        {
          "internalType": "address",
          "name": "seller",
          "type": "address"
        },
        {
          "internalType": "uint256",
          "name": "amount",
          "type": "uint256"
        },
        {
          "internalType": "uint256",
          "name": "custodyAmount",
          "type": "uint256"
        },
        {
          "internalType": "uint256",
          "name": "custodyPeriod",
          "type": "uint256"
        },
        {
          "internalType": "address",
          "name": "userCommissionBeneficiary",
          "type": "address"
        },
        {
          "internalType": "uint256",
          "name": "userCommissionAmount",
          "type": "uint256"
        },
        {
          "internalType": "address",
          "name": "platformCommissionBeneficiary",
          "type": "address"
        },
        {
          "internalType": "uint256",
          "name": "platformCommissionAmount",
          "type": "uint256"
        }
      ],
      "name": "createEscrow",
      "outputs": [
        {
          "internalType": "uint256",
          "name": "",
          "type": "uint256"
        }
      ],
      "stateMutability": "nonpayable",
      "type": "function"
    },
    {
      "inputs": [
        {
          "internalType": "uint256",
          "name": "escrowId",
          "type": "uint256"
        }
      ],
      "name": "disputeEscrow",
      "outputs": [],
      "stateMutability": "nonpayable",
      "type": "function"
    },
    {
      "inputs": [],
      "name": "escrowCount",
      "outputs": [
        {
          "internalType": "uint256",
          "name": "",
          "type": "uint256"
        }
      ],
      "stateMutability": "view",
      "type": "function"
    },
    {
      "inputs": [
        {
          "internalType": "uint256",
          "name": "",
          "type": "uint256"
        }
      ],
      "name": "escrows",
      "outputs": [
        {
          "internalType": "address",
          "name": "payer",
          "type": "address"
        },
        {
          "internalType": "address",
          "name": "seller",
          "type": "address"
        },
        {
          "internalType": "uint256",
          "name": "amount",
          "type": "uint256"
        },
        {
          "internalType": "uint256",
          "name": "custodyAmount",
          "type": "uint256"
        },
        {
          "internalType": "uint256",
          "name": "createdAt",
          "type": "uint256"
        },
        {
          "internalType": "uint256",
          "name": "custodyPeriod",
          "type": "uint256"
        },
        {
          "internalType": "enum KustodiaEscrow3_0.Status",
          "name": "status",
          "type": "uint8"
        },
        {
          "internalType": "address",
          "name": "userCommissionBeneficiary",
          "type": "address"
        },
        {
          "internalType": "uint256",
          "name": "userCommissionAmount",
          "type": "uint256"
        },
        {
          "internalType": "address",
          "name": "platformCommissionBeneficiary",
          "type": "address"
        },
        {
          "internalType": "uint256",
          "name": "platformCommissionAmount",
          "type": "uint256"
        }
      ],
      "stateMutability": "view",
      "type": "function"
    },
    {
      "inputs": [
        {
          "internalType": "address",
          "name": "_mxnbs",
          "type": "address"
        }
      ],
      "name": "initialize",
      "outputs": [],
      "stateMutability": "nonpayable",
      "type": "function"
    },
    {
      "inputs": [],
      "name": "mxnbs",
      "outputs": [
        {
          "internalType": "contract IERC20Upgradeable",
          "name": "",
          "type": "address"
        }
      ],
      "stateMutability": "view",
      "type": "function"
    },
    {
      "inputs": [],
      "name": "owner",
      "outputs": [
        {
          "internalType": "address",
          "name": "",
          "type": "address"
        }
      ],
      "stateMutability": "view",
      "type": "function"
    },
    {
      "inputs": [
        {
          "internalType": "uint256",
          "name": "escrowId",
          "type": "uint256"
        }
      ],
      "name": "releaseCustody",
      "outputs": [],
      "stateMutability": "nonpayable",
      "type": "function"
    },
    {
      "inputs": [
        {
          "internalType": "uint256",
          "name": "escrowId",
          "type": "uint256"
        }
      ],
      "name": "releaseEscrow",
      "outputs": [],
      "stateMutability": "nonpayable",
      "type": "function"
    },
    {
      "inputs": [],
      "name": "renounceOwnership",
      "outputs": [],
      "stateMutability": "nonpayable",
      "type": "function"
    },
    {
      "inputs": [
        {
          "internalType": "uint256",
          "name": "escrowId",
          "type": "uint256"
        },
        {
          "internalType": "address",
          "name": "winner",
          "type": "address"
        }
      ],
      "name": "resolveDispute",
      "outputs": [],
      "stateMutability": "nonpayable",
      "type": "function"
    },
    {
      "inputs": [
        {
          "internalType": "address",
          "name": "newOwner",
          "type": "address"
        }
      ],
      "name": "transferOwnership",
      "outputs": [],
      "stateMutability": "nonpayable",
      "type": "function"
    }
  ],
  "bytecode": "0x608060405234801561001057600080fd5b50612807806100206000396000f3fe608060405234801561001057600080fd5b50600436106100b45760003560e01c80638da5cb5b116100715780638da5cb5b146101855780639526592f146101a3578063b563153c146101bf578063c4d66de8146101db578063ed653164146101f7578063f2fde38b14610213576100b4565b8063012f52ee146100b95780630e33599d146100f35780633ba63c331461010f57806342eea5cb1461012d578063675ac67a1461015d578063715018a61461017b575b600080fd5b6100d360048036038101906100ce919061193b565b61022f565b6040516100ea9b9a99989796959493929190611a2f565b60405180910390f35b61010d60048036038101906101089190611b06565b610316565b005b610117610506565b6040516101249190611ba5565b60405180910390f35b61014760048036038101906101429190611bc0565b61052c565b6040516101549190611c76565b60405180910390f35b610165610a8b565b6040516101729190611c76565b60405180910390f35b610183610a91565b005b61018d610aa5565b60405161019a9190611c91565b60405180910390f35b6101bd60048036038101906101b8919061193b565b610acf565b005b6101d960048036038101906101d4919061193b565b610d06565b005b6101f560048036038101906101f09190611cac565b610ef6565b005b610211600480360381019061020c919061193b565b611076565b005b61022d60048036038101906102289190611cac565b611654565b005b60676020528060005260406000206000915090508060000160009054906101000a900473ffffffffffffffffffffffffffffffffffffffff16908060010160009054906101000a900473ffffffffffffffffffffffffffffffffffffffff16908060020154908060030154908060040154908060050154908060060160009054906101000a900460ff16908060060160019054906101000a900473ffffffffffffffffffffffffffffffffffffffff16908060070154908060080160009054906101000a900473ffffffffffffffffffffffffffffffffffffffff1690806009015490508b565b61031e6116d7565b600060676000848152602001908152602001600020905060036005811115610349576103486119b8565b5b8160060160009054906101000a900460ff16600581111561036d5761036c6119b8565b5b146103ad576040517f08c379a00000000000000000000000000000000000000000000000000000000081526004016103a490611d36565b60405180910390fd5b60048160060160006101000a81548160ff021916908360058111156103d5576103d46119b8565b5b0217905550606560009054906101000a900473ffffffffffffffffffffffffffffffffffffffff1673ffffffffffffffffffffffffffffffffffffffff1663a9059cbb8383600201546040518363ffffffff1660e01b815260040161043b929190611d56565b6020604051808303816000875af115801561045a573d6000803e3d6000fd5b505050506040513d601f19601f8201168201806040525081019061047e9190611db7565b6104bd576040517f08c379a00000000000000000000000000000000000000000000000000000000081526004016104b490611e30565b60405180910390fd5b8173ffffffffffffffffffffffffffffffffffffffff16837f4a2cd567213de7ff091338b2015c37beb9851bb38025b3b663447764b0fe549560405160405180910390a3505050565b606560009054906101000a900473ffffffffffffffffffffffffffffffffffffffff1681565b6000808811610570576040517f08c379a000000000000000000000000000000000000000000000000000000000815260040161056790611e9c565b60405180910390fd5b600073ffffffffffffffffffffffffffffffffffffffff168973ffffffffffffffffffffffffffffffffffffffff16036105df576040517f08c379a00000000000000000000000000000000000000000000000000000000081526004016105d690611f08565b60405180910390fd5b87606560009054906101000a900473ffffffffffffffffffffffffffffffffffffffff1673ffffffffffffffffffffffffffffffffffffffff1663dd62ed3e33306040518363ffffffff1660e01b815260040161063d929190611f28565b602060405180830381865afa15801561065a573d6000803e3d6000fd5b505050506040513d601f19601f8201168201806040525081019061067e9190611f66565b10156106bf576040517f08c379a00000000000000000000000000000000000000000000000000000000081526004016106b690611fdf565b60405180910390fd5b606560009054906101000a900473ffffffffffffffffffffffffffffffffffffffff1673ffffffffffffffffffffffffffffffffffffffff166323b872dd33308b6040518463ffffffff1660e01b815260040161071e93929190611fff565b6020604051808303816000875af115801561073d573d6000803e3d6000fd5b505050506040513d601f19601f820116820180604052508101906107619190611db7565b6107a0576040517f08c379a000000000000000000000000000000000000000000000000000000000815260040161079790612082565b60405180910390fd5b6040518061016001604052803373ffffffffffffffffffffffffffffffffffffffff1681526020018a73ffffffffffffffffffffffffffffffffffffffff168152602001898152602001888152602001428152602001878152602001600160058111156108105761080f6119b8565b5b81526020018673ffffffffffffffffffffffffffffffffffffffff1681526020018581526020018473ffffffffffffffffffffffffffffffffffffffff168152602001838152506067600060666000815461086a906120d1565b919050819055815260200190815260200160002060008201518160000160006101000a81548173ffffffffffffffffffffffffffffffffffffffff021916908373ffffffffffffffffffffffffffffffffffffffff16021790555060208201518160010160006101000a81548173ffffffffffffffffffffffffffffffffffffffff021916908373ffffffffffffffffffffffffffffffffffffffff16021790555060408201518160020155606082015181600301556080820151816004015560a0820151816005015560c08201518160060160006101000a81548160ff0219169083600581111561095f5761095e6119b8565b5b021790555060e08201518160060160016101000a81548173ffffffffffffffffffffffffffffffffffffffff021916908373ffffffffffffffffffffffffffffffffffffffff16021790555061010082015181600701556101208201518160080160006101000a81548173ffffffffffffffffffffffffffffffffffffffff021916908373ffffffffffffffffffffffffffffffffffffffff16021790555061014082015181600901559050508873ffffffffffffffffffffffffffffffffffffffff163373ffffffffffffffffffffffffffffffffffffffff166066547f74d18a51942aaca5f0ca557a59edd4fff1fb1a04e1dfb01f1cb8f99cd9c70f268b8b8a89604051610a729493929190612119565b60405180910390a4606654905098975050505050505050565b60665481565b610a996116d7565b610aa36000611755565b565b6000603360009054906101000a900473ffffffffffffffffffffffffffffffffffffffff16905090565b610ad76116d7565b600060676000838152602001908152602001600020905060026005811115610b0257610b016119b8565b5b8160060160009054906101000a900460ff166005811115610b2657610b256119b8565b5b14610b66576040517f08c379a0000000000000000000000000000000000000000000000000000000008152600401610b5d906121aa565b60405180910390fd5b60048160060160006101000a81548160ff02191690836005811115610b8e57610b8d6119b8565b5b0217905550606560009054906101000a900473ffffffffffffffffffffffffffffffffffffffff1673ffffffffffffffffffffffffffffffffffffffff1663a9059cbb8260010160009054906101000a900473ffffffffffffffffffffffffffffffffffffffff1683600301546040518363ffffffff1660e01b8152600401610c18929190611d56565b6020604051808303816000875af1158015610c37573d6000803e3d6000fd5b505050506040513d601f19601f82011682018060405250810190610c5b9190611db7565b610c9a576040517f08c379a0000000000000000000000000000000000000000000000000000000008152600401610c9190612216565b60405180910390fd5b8060010160009054906101000a900473ffffffffffffffffffffffffffffffffffffffff1673ffffffffffffffffffffffffffffffffffffffff16827f3d95aa7e5f663e75b67f82d65583738fe2bdcdaf52aba19bc26d2d64f868d01460405160405180910390a35050565b600060676000838152602001908152602001600020905060016005811115610d3157610d306119b8565b5b8160060160009054906101000a900460ff166005811115610d5557610d546119b8565b5b14610d95576040517f08c379a0000000000000000000000000000000000000000000000000000000008152600401610d8c90612282565b60405180910390fd5b8060000160009054906101000a900473ffffffffffffffffffffffffffffffffffffffff1673ffffffffffffffffffffffffffffffffffffffff163373ffffffffffffffffffffffffffffffffffffffff161480610e4257508060010160009054906101000a900473ffffffffffffffffffffffffffffffffffffffff1673ffffffffffffffffffffffffffffffffffffffff163373ffffffffffffffffffffffffffffffffffffffff16145b610e81576040517f08c379a0000000000000000000000000000000000000000000000000000000008152600401610e78906122ee565b60405180910390fd5b60038160060160006101000a81548160ff02191690836005811115610ea957610ea86119b8565b5b02179055503373ffffffffffffffffffffffffffffffffffffffff16827fc25e2b14e82d9713d1570e77d6549051cc07e59f7f354600ce0e0c0f2aa29b0e60405160405180910390a35050565b60008060019054906101000a900460ff16159050808015610f275750600160008054906101000a900460ff1660ff16105b80610f545750610f363061181b565b158015610f535750600160008054906101000a900460ff1660ff16145b5b610f93576040517f08c379a0000000000000000000000000000000000000000000000000000000008152600401610f8a90612380565b60405180910390fd5b60016000806101000a81548160ff021916908360ff1602179055508015610fd0576001600060016101000a81548160ff0219169083151502179055505b610fd861183e565b81606560006101000a81548173ffffffffffffffffffffffffffffffffffffffff021916908373ffffffffffffffffffffffffffffffffffffffff16021790555080156110725760008060016101000a81548160ff0219169083151502179055507f7f26b83ff96e1f2b6a682f133852f6798a09c465da95921460cefb3847402498600160405161106991906123e8565b60405180910390a15b5050565b6000606760008381526020019081526020016000209050600160058111156110a1576110a06119b8565b5b8160060160009054906101000a900460ff1660058111156110c5576110c46119b8565b5b14611105576040517f08c379a00000000000000000000000000000000000000000000000000000000081526004016110fc90612282565b60405180910390fd5b8060000160009054906101000a900473ffffffffffffffffffffffffffffffffffffffff1673ffffffffffffffffffffffffffffffffffffffff163373ffffffffffffffffffffffffffffffffffffffff1614611197576040517f08c379a000000000000000000000000000000000000000000000000000000000815260040161118e9061244f565b60405180910390fd5b60028160060160006101000a81548160ff021916908360058111156111bf576111be6119b8565b5b02179055506000816009015482600701546111da919061246f565b9050600081836003015484600201546111f391906124a3565b6111fd91906124a3565b9050600073ffffffffffffffffffffffffffffffffffffffff168360060160019054906101000a900473ffffffffffffffffffffffffffffffffffffffff1673ffffffffffffffffffffffffffffffffffffffff1614158015611264575060008360070154115b1561137157606560009054906101000a900473ffffffffffffffffffffffffffffffffffffffff1673ffffffffffffffffffffffffffffffffffffffff1663a9059cbb8460060160019054906101000a900473ffffffffffffffffffffffffffffffffffffffff1685600701546040518363ffffffff1660e01b81526004016112ee929190611d56565b6020604051808303816000875af115801561130d573d6000803e3d6000fd5b505050506040513d601f19601f820116820180604052508101906113319190611db7565b611370576040517f08c379a000000000000000000000000000000000000000000000000000000000815260040161136790612523565b60405180910390fd5b5b600073ffffffffffffffffffffffffffffffffffffffff168360080160009054906101000a900473ffffffffffffffffffffffffffffffffffffffff1673ffffffffffffffffffffffffffffffffffffffff16141580156113d6575060008360090154115b156114e357606560009054906101000a900473ffffffffffffffffffffffffffffffffffffffff1673ffffffffffffffffffffffffffffffffffffffff1663a9059cbb8460080160009054906101000a900473ffffffffffffffffffffffffffffffffffffffff1685600901546040518363ffffffff1660e01b8152600401611460929190611d56565b6020604051808303816000875af115801561147f573d6000803e3d6000fd5b505050506040513d601f19601f820116820180604052508101906114a39190611db7565b6114e2576040517f08c379a00000000000000000000000000000000000000000000000000000000081526004016114d9906125b5565b60405180910390fd5b5b606560009054906101000a900473ffffffffffffffffffffffffffffffffffffffff1673ffffffffffffffffffffffffffffffffffffffff1663a9059cbb8460010160009054906101000a900473ffffffffffffffffffffffffffffffffffffffff16836040518363ffffffff1660e01b8152600401611564929190611d56565b6020604051808303816000875af1158015611583573d6000803e3d6000fd5b505050506040513d601f19601f820116820180604052508101906115a79190611db7565b6115e6576040517f08c379a00000000000000000000000000000000000000000000000000000000081526004016115dd90612621565b60405180910390fd5b8260010160009054906101000a900473ffffffffffffffffffffffffffffffffffffffff1673ffffffffffffffffffffffffffffffffffffffff16847fefc7f1f15becfaec7a3c17eec78be3fa7adb45698f26fcfd25efe1754c24233160405160405180910390a350505050565b61165c6116d7565b600073ffffffffffffffffffffffffffffffffffffffff168173ffffffffffffffffffffffffffffffffffffffff16036116cb576040517f08c379a00000000000000000000000000000000000000000000000000000000081526004016116c2906126b3565b60405180910390fd5b6116d481611755565b50565b6116df611897565b73ffffffffffffffffffffffffffffffffffffffff166116fd610aa5565b73ffffffffffffffffffffffffffffffffffffffff1614611753576040517f08c379a000000000000000000000000000000000000000000000000000000000815260040161174a9061271f565b60405180910390fd5b565b6000603360009054906101000a900473ffffffffffffffffffffffffffffffffffffffff16905081603360006101000a81548173ffffffffffffffffffffffffffffffffffffffff021916908373ffffffffffffffffffffffffffffffffffffffff1602179055508173ffffffffffffffffffffffffffffffffffffffff168173ffffffffffffffffffffffffffffffffffffffff167f8be0079c531659141344cd1fd0a4f28419497f9722a3daafe3b4186f6b6457e060405160405180910390a35050565b6000808273ffffffffffffffffffffffffffffffffffffffff163b119050919050565b600060019054906101000a900460ff1661188d576040517f08c379a0000000000000000000000000000000000000000000000000000000008152600401611884906127b1565b60405180910390fd5b61189561189f565b565b600033905090565b600060019054906101000a900460ff166118ee576040517f08c379a00000000000000000000000000000000000000000000000000000000081526004016118e5906127b1565b60405180910390fd5b6118fe6118f9611897565b611755565b565b600080fd5b6000819050919050565b61191881611905565b811461192357600080fd5b50565b6000813590506119358161190f565b92915050565b60006020828403121561195157611950611900565b5b600061195f84828501611926565b91505092915050565b600073ffffffffffffffffffffffffffffffffffffffff82169050919050565b600061199382611968565b9050919050565b6119a381611988565b82525050565b6119b281611905565b82525050565b7f4e487b7100000000000000000000000000000000000000000000000000000000600052602160045260246000fd5b600681106119f8576119f76119b8565b5b50565b6000819050611a09826119e7565b919050565b6000611a19826119fb565b9050919050565b611a2981611a0e565b82525050565b600061016082019050611a45600083018e61199a565b611a52602083018d61199a565b611a5f604083018c6119a9565b611a6c606083018b6119a9565b611a79608083018a6119a9565b611a8660a08301896119a9565b611a9360c0830188611a20565b611aa060e083018761199a565b611aae6101008301866119a9565b611abc61012083018561199a565b611aca6101408301846119a9565b9c9b505050505050505050505050565b611ae381611988565b8114611aee57600080fd5b50565b600081359050611b0081611ada565b92915050565b60008060408385031215611b1d57611b1c611900565b5b6000611b2b85828601611926565b9250506020611b3c85828601611af1565b9150509250929050565b6000819050919050565b6000611b6b611b66611b6184611968565b611b46565b611968565b9050919050565b6000611b7d82611b50565b9050919050565b6000611b8f82611b72565b9050919050565b611b9f81611b84565b82525050565b6000602082019050611bba6000830184611b96565b92915050565b600080600080600080600080610100898b031215611be157611be0611900565b5b6000611bef8b828c01611af1565b9850506020611c008b828c01611926565b9750506040611c118b828c01611926565b9650506060611c228b828c01611926565b9550506080611c338b828c01611af1565b94505060a0611c448b828c01611926565b93505060c0611c558b828c01611af1565b92505060e0611c668b828c01611926565b9150509295985092959890939650565b6000602082019050611c8b60008301846119a9565b92915050565b6000602082019050611ca6600083018461199a565b92915050565b600060208284031215611cc257611cc1611900565b5b6000611cd084828501611af1565b91505092915050565b600082825260208201905092915050565b7f4e6f742064697370757465640000000000000000000000000000000000000000600082015250565b6000611d20600c83611cd9565b9150611d2b82611cea565b602082019050919050565b60006020820190508181036000830152611d4f81611d13565b9050919050565b6000604082019050611d6b600083018561199a565b611d7860208301846119a9565b9392505050565b60008115159050919050565b611d9481611d7f565b8114611d9f57600080fd5b50565b600081519050611db181611d8b565b92915050565b600060208284031215611dcd57611dcc611900565b5b6000611ddb84828501611da2565b91505092915050565b7f5265736f6c7574696f6e207061796d656e74206661696c656400000000000000600082015250565b6000611e1a601983611cd9565b9150611e2582611de4565b602082019050919050565b60006020820190508181036000830152611e4981611e0d565b9050919050565b7f416d6f756e742072657175697265640000000000000000000000000000000000600082015250565b6000611e86600f83611cd9565b9150611e9182611e50565b602082019050919050565b60006020820190508181036000830152611eb581611e79565b9050919050565b7f53656c6c65722072657175697265640000000000000000000000000000000000600082015250565b6000611ef2600f83611cd9565b9150611efd82611ebc565b602082019050919050565b60006020820190508181036000830152611f2181611ee5565b9050919050565b6000604082019050611f3d600083018561199a565b611f4a602083018461199a565b9392505050565b600081519050611f608161190f565b92915050565b600060208284031215611f7c57611f7b611900565b5b6000611f8a84828501611f51565b91505092915050565b7f417070726f766520746f6b656e73206669727374000000000000000000000000600082015250565b6000611fc9601483611cd9565b9150611fd482611f93565b602082019050919050565b60006020820190508181036000830152611ff881611fbc565b9050919050565b6000606082019050612014600083018661199a565b612021602083018561199a565b61202e60408301846119a9565b949350505050565b7f546f6b656e207472616e73666572206661696c65640000000000000000000000600082015250565b600061206c601583611cd9565b915061207782612036565b602082019050919050565b6000602082019050818103600083015261209b8161205f565b9050919050565b7f4e487b7100000000000000000000000000000000000000000000000000000000600052601160045260246000fd5b60006120dc82611905565b91507fffffffffffffffffffffffffffffffffffffffffffffffffffffffffffffffff820361210e5761210d6120a2565b5b600182019050919050565b600060808201905061212e60008301876119a9565b61213b60208301866119a9565b612148604083018561199a565b612155606083018461199a565b95945050505050565b7f4e6f742072656c65617365640000000000000000000000000000000000000000600082015250565b6000612194600c83611cd9565b915061219f8261215e565b602082019050919050565b600060208201905081810360008301526121c381612187565b9050919050565b7f437573746f6479207061796d656e74206661696c656400000000000000000000600082015250565b6000612200601683611cd9565b915061220b826121ca565b602082019050919050565b6000602082019050818103600083015261222f816121f3565b9050919050565b7f4e6f742066756e64656400000000000000000000000000000000000000000000600082015250565b600061226c600a83611cd9565b915061227782612236565b602082019050919050565b6000602082019050818103600083015261229b8161225f565b9050919050565b7f4e6f7420616c6c6f776564000000000000000000000000000000000000000000600082015250565b60006122d8600b83611cd9565b91506122e3826122a2565b602082019050919050565b60006020820190508181036000830152612307816122cb565b9050919050565b7f496e697469616c697a61626c653a20636f6e747261637420697320616c72656160008201527f647920696e697469616c697a6564000000000000000000000000000000000000602082015250565b600061236a602e83611cd9565b91506123758261230e565b604082019050919050565b600060208201905081810360008301526123998161235d565b9050919050565b6000819050919050565b600060ff82169050919050565b60006123d26123cd6123c8846123a0565b611b46565b6123aa565b9050919050565b6123e2816123b7565b82525050565b60006020820190506123fd60008301846123d9565b92915050565b7f4f6e6c792070617965722063616e2072656c6561736500000000000000000000600082015250565b6000612439601683611cd9565b915061244482612403565b602082019050919050565b600060208201905081810360008301526124688161242c565b9050919050565b600061247a82611905565b915061248583611905565b925082820190508082111561249d5761249c6120a2565b5b92915050565b60006124ae82611905565b91506124b983611905565b92508282039050818111156124d1576124d06120a2565b5b92915050565b7f5573657220636f6d6d697373696f6e207061796d656e74206661696c65640000600082015250565b600061250d601e83611cd9565b9150612518826124d7565b602082019050919050565b6000602082019050818103600083015261253c81612500565b9050919050565b7f506c6174666f726d20636f6d6d697373696f6e207061796d656e74206661696c60008201527f6564000000000000000000000000000000000000000000000000000000000000602082015250565b600061259f602283611cd9565b91506125aa82612543565b604082019050919050565b600060208201905081810360008301526125ce81612592565b9050919050565b7f53656c6c6572207061796d656e74206661696c65640000000000000000000000600082015250565b600061260b601583611cd9565b9150612616826125d5565b602082019050919050565b6000602082019050818103600083015261263a816125fe565b9050919050565b7f4f776e61626c653a206e6577206f776e657220697320746865207a65726f206160008201527f6464726573730000000000000000000000000000000000000000000000000000602082015250565b600061269d602683611cd9565b91506126a882612641565b604082019050919050565b600060208201905081810360008301526126cc81612690565b9050919050565b7f4f776e61626c653a2063616c6c6572206973206e6f7420746865206f776e6572600082015250565b6000612709602083611cd9565b9150612714826126d3565b602082019050919050565b60006020820190508181036000830152612738816126fc565b9050919050565b7f496e697469616c697a61626c653a20636f6e7472616374206973206e6f74206960008201527f6e697469616c697a696e67000000000000000000000000000000000000000000602082015250565b600061279b602b83611cd9565b91506127a68261273f565b604082019050919050565b600060208201905081810360008301526127ca8161278e565b905091905056fea2646970667358221220aa0aa103c2e258ca5d3094366c68d5753e485a328565be73d5692815838238d264736f6c63430008140033",
  "linkReferences": {},
  "deployedLinkReferences": {}
}