{
  "_format": "hh-sol-artifact-1",
  "contractName": "PropertyAssetNFT",
  "sourceName": "contracts/PropertyAssetNFT.sol",
  "abi": [
    {
      "inputs": [],
      "stateMutability": "nonpayable",
      "type": "constructor"
    },
    {
      "anonymous": false,
      "inputs": [
        {
          "indexed": true,
          "internalType": "address",
          "name": "owner",
          "type": "address"
        },
        {
          "indexed": true,
          "internalType": "address",
          "name": "approved",
          "type": "address"
        },
        {
          "indexed": true,
          "internalType": "uint256",
          "name": "tokenId",
          "type": "uint256"
        }
      ],
      "name": "Approval",
      "type": "event"
    },
    {
      "anonymous": false,
      "inputs": [
        {
          "indexed": true,
          "internalType": "address",
          "name": "owner",
          "type": "address"
        },
        {
          "indexed": true,
          "internalType": "address",
          "name": "operator",
          "type": "address"
        },
        {
          "indexed": false,
          "internalType": "bool",
          "name": "approved",
          "type": "bool"
        }
      ],
      "name": "ApprovalForAll",
      "type": "event"
    },
    {
      "anonymous": false,
      "inputs": [
        {
          "indexed": true,
          "internalType": "uint256",
          "name": "tokenId",
          "type": "uint256"
        },
        {
          "indexed": false,
          "internalType": "string",
          "name": "assetId",
          "type": "string"
        },
        {
          "indexed": false,
          "internalType": "enum UniversalAssetNFT.AssetType",
          "name": "assetType",
          "type": "uint8"
        },
        {
          "indexed": false,
          "internalType": "address",
          "name": "owner",
          "type": "address"
        }
      ],
      "name": "AssetCreated",
      "type": "event"
    },
    {
      "anonymous": false,
      "inputs": [
        {
          "indexed": true,
          "internalType": "uint256",
          "name": "tokenId",
          "type": "uint256"
        },
        {
          "indexed": false,
          "internalType": "enum UniversalAssetNFT.EventType",
          "name": "eventType",
          "type": "uint8"
        },
        {
          "indexed": false,
          "internalType": "string",
          "name": "description",
          "type": "string"
        }
      ],
      "name": "AssetEventAdded",
      "type": "event"
    },
    {
      "anonymous": false,
      "inputs": [
        {
          "indexed": true,
          "internalType": "uint256",
          "name": "tokenId",
          "type": "uint256"
        },
        {
          "indexed": false,
          "internalType": "string",
          "name": "key",
          "type": "string"
        },
        {
          "indexed": false,
          "internalType": "string",
          "name": "value",
          "type": "string"
        }
      ],
      "name": "AssetMetadataUpdated",
      "type": "event"
    },
    {
      "anonymous": false,
      "inputs": [
        {
          "indexed": true,
          "internalType": "uint256",
          "name": "tokenId",
          "type": "uint256"
        },
        {
          "indexed": false,
          "internalType": "address",
          "name": "from",
          "type": "address"
        },
        {
          "indexed": false,
          "internalType": "address",
          "name": "to",
          "type": "address"
        },
        {
          "indexed": false,
          "internalType": "uint256",
          "name": "amount",
          "type": "uint256"
        }
      ],
      "name": "AssetTransferred",
      "type": "event"
    },
    {
      "anonymous": false,
      "inputs": [
        {
          "indexed": true,
          "internalType": "uint256",
          "name": "tokenId",
          "type": "uint256"
        },
        {
          "indexed": false,
          "internalType": "address",
          "name": "verifier",
          "type": "address"
        }
      ],
      "name": "AssetVerified",
      "type": "event"
    },
    {
      "anonymous": false,
      "inputs": [
        {
          "indexed": false,
          "internalType": "uint256",
          "name": "_fromTokenId",
          "type": "uint256"
        },
        {
          "indexed": false,
          "internalType": "uint256",
          "name": "_toTokenId",
          "type": "uint256"
        }
      ],
      "name": "BatchMetadataUpdate",
      "type": "event"
    },
    {
      "anonymous": false,
      "inputs": [
        {
          "indexed": true,
          "internalType": "uint256",
          "name": "tokenId",
          "type": "uint256"
        },
        {
          "indexed": false,
          "internalType": "string",
          "name": "lienType",
          "type": "string"
        },
        {
          "indexed": false,
          "internalType": "uint256",
          "name": "amount",
          "type": "uint256"
        },
        {
          "indexed": false,
          "internalType": "address",
          "name": "lienholder",
          "type": "address"
        }
      ],
      "name": "LienAdded",
      "type": "event"
    },
    {
      "anonymous": false,
      "inputs": [
        {
          "indexed": true,
          "internalType": "uint256",
          "name": "tokenId",
          "type": "uint256"
        },
        {
          "indexed": false,
          "internalType": "uint256",
          "name": "lienIndex",
          "type": "uint256"
        }
      ],
      "name": "LienReleased",
      "type": "event"
    },
    {
      "anonymous": false,
      "inputs": [
        {
          "indexed": false,
          "internalType": "uint256",
          "name": "_tokenId",
          "type": "uint256"
        }
      ],
      "name": "MetadataUpdate",
      "type": "event"
    },
    {
      "anonymous": false,
      "inputs": [
        {
          "indexed": true,
          "internalType": "uint256",
          "name": "tokenId",
          "type": "uint256"
        },
        {
          "indexed": false,
          "internalType": "uint256",
          "name": "appraisalValue",
          "type": "uint256"
        },
        {
          "indexed": false,
          "internalType": "address",
          "name": "appraiser",
          "type": "address"
        }
      ],
      "name": "PropertyAppraised",
      "type": "event"
    },
    {
      "anonymous": false,
      "inputs": [
        {
          "indexed": true,
          "internalType": "uint256",
          "name": "tokenId",
          "type": "uint256"
        },
        {
          "indexed": false,
          "internalType": "string",
          "name": "cadastralId",
          "type": "string"
        },
        {
          "indexed": false,
          "internalType": "enum PropertyAssetNFT.PropertyType",
          "name": "propertyType",
          "type": "uint8"
        },
        {
          "indexed": false,
          "internalType": "string",
          "name": "fullAddress",
          "type": "string"
        }
      ],
      "name": "PropertyCreated",
      "type": "event"
    },
    {
      "anonymous": false,
      "inputs": [
        {
          "indexed": true,
          "internalType": "uint256",
          "name": "tokenId",
          "type": "uint256"
        },
        {
          "indexed": false,
          "internalType": "address",
          "name": "from",
          "type": "address"
        },
        {
          "indexed": false,
          "internalType": "address",
          "name": "to",
          "type": "address"
        },
        {
          "indexed": false,
          "internalType": "uint256",
          "name": "salePrice",
          "type": "uint256"
        }
      ],
      "name": "PropertyTransferred",
      "type": "event"
    },
    {
      "anonymous": false,
      "inputs": [
        {
          "indexed": true,
          "internalType": "bytes32",
          "name": "role",
          "type": "bytes32"
        },
        {
          "indexed": true,
          "internalType": "bytes32",
          "name": "previousAdminRole",
          "type": "bytes32"
        },
        {
          "indexed": true,
          "internalType": "bytes32",
          "name": "newAdminRole",
          "type": "bytes32"
        }
      ],
      "name": "RoleAdminChanged",
      "type": "event"
    },
    {
      "anonymous": false,
      "inputs": [
        {
          "indexed": true,
          "internalType": "bytes32",
          "name": "role",
          "type": "bytes32"
        },
        {
          "indexed": true,
          "internalType": "address",
          "name": "account",
          "type": "address"
        },
        {
          "indexed": true,
          "internalType": "address",
          "name": "sender",
          "type": "address"
        }
      ],
      "name": "RoleGranted",
      "type": "event"
    },
    {
      "anonymous": false,
      "inputs": [
        {
          "indexed": true,
          "internalType": "bytes32",
          "name": "role",
          "type": "bytes32"
        },
        {
          "indexed": true,
          "internalType": "address",
          "name": "account",
          "type": "address"
        },
        {
          "indexed": true,
          "internalType": "address",
          "name": "sender",
          "type": "address"
        }
      ],
      "name": "RoleRevoked",
      "type": "event"
    },
    {
      "anonymous": false,
      "inputs": [
        {
          "indexed": true,
          "internalType": "address",
          "name": "from",
          "type": "address"
        },
        {
          "indexed": true,
          "internalType": "address",
          "name": "to",
          "type": "address"
        },
        {
          "indexed": true,
          "internalType": "uint256",
          "name": "tokenId",
          "type": "uint256"
        }
      ],
      "name": "Transfer",
      "type": "event"
    },
    {
      "inputs": [],
      "name": "DEFAULT_ADMIN_ROLE",
      "outputs": [
        {
          "internalType": "bytes32",
          "name": "",
          "type": "bytes32"
        }
      ],
      "stateMutability": "view",
      "type": "function"
    },
    {
      "inputs": [],
      "name": "KUSTODIA_ROLE",
      "outputs": [
        {
          "internalType": "bytes32",
          "name": "",
          "type": "bytes32"
        }
      ],
      "stateMutability": "view",
      "type": "function"
    },
    {
      "inputs": [],
      "name": "UPDATER_ROLE",
      "outputs": [
        {
          "internalType": "bytes32",
          "name": "",
          "type": "bytes32"
        }
      ],
      "stateMutability": "view",
      "type": "function"
    },
    {
      "inputs": [],
      "name": "VERIFIER_ROLE",
      "outputs": [
        {
          "internalType": "bytes32",
          "name": "",
          "type": "bytes32"
        }
      ],
      "stateMutability": "view",
      "type": "function"
    },
    {
      "inputs": [
        {
          "internalType": "uint256",
          "name": "tokenId",
          "type": "uint256"
        },
        {
          "internalType": "uint256",
          "name": "appraisalValue",
          "type": "uint256"
        },
        {
          "internalType": "string",
          "name": "appraiserName",
          "type": "string"
        },
        {
          "internalType": "string",
          "name": "appraisalReportHash",
          "type": "string"
        },
        {
          "internalType": "string[]",
          "name": "supportingDocs",
          "type": "string[]"
        }
      ],
      "name": "addAppraisal",
      "outputs": [],
      "stateMutability": "nonpayable",
      "type": "function"
    },
    {
      "inputs": [
        {
          "internalType": "uint256",
          "name": "tokenId",
          "type": "uint256"
        },
        {
          "internalType": "enum UniversalAssetNFT.EventType",
          "name": "eventType",
          "type": "uint8"
        },
        {
          "internalType": "string",
          "name": "description",
          "type": "string"
        },
        {
          "internalType": "uint256",
          "name": "transactionAmount",
          "type": "uint256"
        },
        {
          "internalType": "string[]",
          "name": "supportingDocs",
          "type": "string[]"
        },
        {
          "internalType": "string[]",
          "name": "customFieldKeys",
          "type": "string[]"
        },
        {
          "internalType": "string[]",
          "name": "customFieldValues",
          "type": "string[]"
        }
      ],
      "name": "addAssetEvent",
      "outputs": [],
      "stateMutability": "nonpayable",
      "type": "function"
    },
    {
      "inputs": [
        {
          "internalType": "uint256",
          "name": "tokenId",
          "type": "uint256"
        },
        {
          "internalType": "string",
          "name": "lienType",
          "type": "string"
        },
        {
          "internalType": "uint256",
          "name": "amount",
          "type": "uint256"
        },
        {
          "internalType": "address",
          "name": "lienholder",
          "type": "address"
        },
        {
          "internalType": "string",
          "name": "documentHash",
          "type": "string"
        }
      ],
      "name": "addLien",
      "outputs": [],
      "stateMutability": "nonpayable",
      "type": "function"
    },
    {
      "inputs": [
        {
          "internalType": "address",
          "name": "to",
          "type": "address"
        },
        {
          "internalType": "uint256",
          "name": "tokenId",
          "type": "uint256"
        }
      ],
      "name": "approve",
      "outputs": [],
      "stateMutability": "nonpayable",
      "type": "function"
    },
    {
      "inputs": [
        {
          "internalType": "uint256",
          "name": "",
          "type": "uint256"
        },
        {
          "internalType": "uint256",
          "name": "",
          "type": "uint256"
        }
      ],
      "name": "assetHistory",
      "outputs": [
        {
          "internalType": "enum UniversalAssetNFT.EventType",
          "name": "eventType",
          "type": "uint8"
        },
        {
          "internalType": "uint256",
          "name": "timestamp",
          "type": "uint256"
        },
        {
          "internalType": "address",
          "name": "authorizedBy",
          "type": "address"
        },
        {
          "internalType": "string",
          "name": "description",
          "type": "string"
        },
        {
          "internalType": "uint256",
          "name": "transactionAmount",
          "type": "uint256"
        }
      ],
      "stateMutability": "view",
      "type": "function"
    },
    {
      "inputs": [
        {
          "internalType": "string",
          "name": "",
          "type": "string"
        }
      ],
      "name": "assetIdToTokenId",
      "outputs": [
        {
          "internalType": "uint256",
          "name": "",
          "type": "uint256"
        }
      ],
      "stateMutability": "view",
      "type": "function"
    },
    {
      "inputs": [
        {
          "internalType": "uint256",
          "name": "",
          "type": "uint256"
        }
      ],
      "name": "assets",
      "outputs": [
        {
          "internalType": "string",
          "name": "assetId",
          "type": "string"
        },
        {
          "internalType": "enum UniversalAssetNFT.AssetType",
          "name": "assetType",
          "type": "uint8"
        },
        {
          "internalType": "address",
          "name": "currentOwner",
          "type": "address"
        },
        {
          "internalType": "uint256",
          "name": "creationDate",
          "type": "uint256"
        },
        {
          "internalType": "bool",
          "name": "isVerified",
          "type": "bool"
        },
        {
          "internalType": "bool",
          "name": "isActive",
          "type": "bool"
        },
        {
          "internalType": "uint256",
          "name": "lastUpdated",
          "type": "uint256"
        }
      ],
      "stateMutability": "view",
      "type": "function"
    },
    {
      "inputs": [
        {
          "internalType": "address",
          "name": "owner",
          "type": "address"
        }
      ],
      "name": "balanceOf",
      "outputs": [
        {
          "internalType": "uint256",
          "name": "",
          "type": "uint256"
        }
      ],
      "stateMutability": "view",
      "type": "function"
    },
    {
      "inputs": [
        {
          "internalType": "string",
          "name": "",
          "type": "string"
        }
      ],
      "name": "cadastralIdToTokenId",
      "outputs": [
        {
          "internalType": "uint256",
          "name": "",
          "type": "uint256"
        }
      ],
      "stateMutability": "view",
      "type": "function"
    },
    {
      "inputs": [
        {
          "internalType": "string",
          "name": "assetId",
          "type": "string"
        },
        {
          "internalType": "enum UniversalAssetNFT.AssetType",
          "name": "assetType",
          "type": "uint8"
        },
        {
          "internalType": "address",
          "name": "owner",
          "type": "address"
        },
        {
          "internalType": "string",
          "name": "_tokenURI",
          "type": "string"
        },
        {
          "internalType": "string[]",
          "name": "metadataKeys",
          "type": "string[]"
        },
        {
          "internalType": "string[]",
          "name": "metadataValues",
          "type": "string[]"
        }
      ],
      "name": "createAsset",
      "outputs": [
        {
          "internalType": "uint256",
          "name": "",
          "type": "uint256"
        }
      ],
      "stateMutability": "nonpayable",
      "type": "function"
    },
    {
      "inputs": [
        {
          "internalType": "string",
          "name": "cadastralId",
          "type": "string"
        },
        {
          "internalType": "address",
          "name": "owner",
          "type": "address"
        },
        {
          "internalType": "string",
          "name": "fullAddress",
          "type": "string"
        },
        {
          "internalType": "string",
          "name": "city",
          "type": "string"
        },
        {
          "internalType": "string",
          "name": "state",
          "type": "string"
        },
        {
          "internalType": "string",
          "name": "postalCode",
          "type": "string"
        },
        {
          "internalType": "string",
          "name": "country",
          "type": "string"
        },
        {
          "internalType": "enum PropertyAssetNFT.PropertyType",
          "name": "propertyType",
          "type": "uint8"
        },
        {
          "internalType": "uint256",
          "name": "squareMeters",
          "type": "uint256"
        },
        {
          "internalType": "uint256",
          "name": "builtArea",
          "type": "uint256"
        },
        {
          "internalType": "uint256",
          "name": "bedrooms",
          "type": "uint256"
        },
        {
          "internalType": "uint256",
          "name": "bathrooms",
          "type": "uint256"
        },
        {
          "internalType": "uint256",
          "name": "parkingSpaces",
          "type": "uint256"
        },
        {
          "internalType": "uint256",
          "name": "yearBuilt",
          "type": "uint256"
        },
        {
          "internalType": "string",
          "name": "legalDescription",
          "type": "string"
        },
        {
          "internalType": "string",
          "name": "tokenURI",
          "type": "string"
        }
      ],
      "name": "createProperty",
      "outputs": [
        {
          "internalType": "uint256",
          "name": "",
          "type": "uint256"
        }
      ],
      "stateMutability": "nonpayable",
      "type": "function"
    },
    {
      "inputs": [
        {
          "internalType": "uint256",
          "name": "tokenId",
          "type": "uint256"
        }
      ],
      "name": "getAppraisalHistory",
      "outputs": [
        {
          "internalType": "uint256[]",
          "name": "values",
          "type": "uint256[]"
        },
        {
          "internalType": "uint256[]",
          "name": "dates",
          "type": "uint256[]"
        }
      ],
      "stateMutability": "view",
      "type": "function"
    },
    {
      "inputs": [
        {
          "internalType": "uint256",
          "name": "tokenId",
          "type": "uint256"
        }
      ],
      "name": "getApproved",
      "outputs": [
        {
          "internalType": "address",
          "name": "",
          "type": "address"
        }
      ],
      "stateMutability": "view",
      "type": "function"
    },
    {
      "inputs": [
        {
          "internalType": "uint256",
          "name": "tokenId",
          "type": "uint256"
        },
        {
          "internalType": "uint256",
          "name": "eventIndex",
          "type": "uint256"
        }
      ],
      "name": "getAssetEvent",
      "outputs": [
        {
          "internalType": "enum UniversalAssetNFT.EventType",
          "name": "eventType",
          "type": "uint8"
        },
        {
          "internalType": "uint256",
          "name": "timestamp",
          "type": "uint256"
        },
        {
          "internalType": "address",
          "name": "authorizedBy",
          "type": "address"
        },
        {
          "internalType": "string",
          "name": "description",
          "type": "string"
        },
        {
          "internalType": "uint256",
          "name": "transactionAmount",
          "type": "uint256"
        },
        {
          "internalType": "string[]",
          "name": "supportingDocs",
          "type": "string[]"
        }
      ],
      "stateMutability": "view",
      "type": "function"
    },
    {
      "inputs": [
        {
          "internalType": "uint256",
          "name": "tokenId",
          "type": "uint256"
        }
      ],
      "name": "getAssetHistoryLength",
      "outputs": [
        {
          "internalType": "uint256",
          "name": "",
          "type": "uint256"
        }
      ],
      "stateMutability": "view",
      "type": "function"
    },
    {
      "inputs": [
        {
          "internalType": "uint256",
          "name": "tokenId",
          "type": "uint256"
        },
        {
          "internalType": "string",
          "name": "key",
          "type": "string"
        }
      ],
      "name": "getAssetMetadata",
      "outputs": [
        {
          "internalType": "string",
          "name": "",
          "type": "string"
        }
      ],
      "stateMutability": "view",
      "type": "function"
    },
    {
      "inputs": [
        {
          "internalType": "uint256",
          "name": "tokenId",
          "type": "uint256"
        },
        {
          "internalType": "uint256",
          "name": "lienIndex",
          "type": "uint256"
        }
      ],
      "name": "getLienDetails",
      "outputs": [
        {
          "internalType": "string",
          "name": "lienType",
          "type": "string"
        },
        {
          "internalType": "uint256",
          "name": "amount",
          "type": "uint256"
        },
        {
          "internalType": "address",
          "name": "lienholder",
          "type": "address"
        },
        {
          "internalType": "uint256",
          "name": "dateRecorded",
          "type": "uint256"
        },
        {
          "internalType": "bool",
          "name": "isActive",
          "type": "bool"
        },
        {
          "internalType": "string",
          "name": "documentHash",
          "type": "string"
        }
      ],
      "stateMutability": "view",
      "type": "function"
    },
    {
      "inputs": [
        {
          "internalType": "address",
          "name": "owner",
          "type": "address"
        }
      ],
      "name": "getOwnerAssets",
      "outputs": [
        {
          "internalType": "uint256[]",
          "name": "",
          "type": "uint256[]"
        }
      ],
      "stateMutability": "view",
      "type": "function"
    },
    {
      "inputs": [
        {
          "internalType": "string",
          "name": "cadastralId",
          "type": "string"
        }
      ],
      "name": "getPropertyByCadastralId",
      "outputs": [
        {
          "internalType": "uint256",
          "name": "",
          "type": "uint256"
        }
      ],
      "stateMutability": "view",
      "type": "function"
    },
    {
      "inputs": [
        {
          "internalType": "uint256",
          "name": "tokenId",
          "type": "uint256"
        }
      ],
      "name": "getPropertyData",
      "outputs": [
        {
          "internalType": "string",
          "name": "cadastralId",
          "type": "string"
        },
        {
          "internalType": "string",
          "name": "fullAddress",
          "type": "string"
        },
        {
          "internalType": "string",
          "name": "city",
          "type": "string"
        },
        {
          "internalType": "string",
          "name": "state",
          "type": "string"
        },
        {
          "internalType": "enum PropertyAssetNFT.PropertyType",
          "name": "propertyType",
          "type": "uint8"
        },
        {
          "internalType": "uint256",
          "name": "squareMeters",
          "type": "uint256"
        },
        {
          "internalType": "uint256",
          "name": "builtArea",
          "type": "uint256"
        },
        {
          "internalType": "uint256",
          "name": "bedrooms",
          "type": "uint256"
        },
        {
          "internalType": "uint256",
          "name": "bathrooms",
          "type": "uint256"
        },
        {
          "internalType": "uint256",
          "name": "yearBuilt",
          "type": "uint256"
        },
        {
          "internalType": "bool",
          "name": "hasLiens",
          "type": "bool"
        },
        {
          "internalType": "uint256",
          "name": "lastAppraisal",
          "type": "uint256"
        }
      ],
      "stateMutability": "view",
      "type": "function"
    },
    {
      "inputs": [
        {
          "internalType": "uint256",
          "name": "tokenId",
          "type": "uint256"
        }
      ],
      "name": "getPropertyLiens",
      "outputs": [
        {
          "internalType": "uint256",
          "name": "",
          "type": "uint256"
        }
      ],
      "stateMutability": "view",
      "type": "function"
    },
    {
      "inputs": [
        {
          "internalType": "bytes32",
          "name": "role",
          "type": "bytes32"
        }
      ],
      "name": "getRoleAdmin",
      "outputs": [
        {
          "internalType": "bytes32",
          "name": "",
          "type": "bytes32"
        }
      ],
      "stateMutability": "view",
      "type": "function"
    },
    {
      "inputs": [
        {
          "internalType": "bytes32",
          "name": "role",
          "type": "bytes32"
        },
        {
          "internalType": "address",
          "name": "account",
          "type": "address"
        }
      ],
      "name": "grantRole",
      "outputs": [],
      "stateMutability": "nonpayable",
      "type": "function"
    },
    {
      "inputs": [
        {
          "internalType": "bytes32",
          "name": "role",
          "type": "bytes32"
        },
        {
          "internalType": "address",
          "name": "account",
          "type": "address"
        }
      ],
      "name": "hasRole",
      "outputs": [
        {
          "internalType": "bool",
          "name": "",
          "type": "bool"
        }
      ],
      "stateMutability": "view",
      "type": "function"
    },
    {
      "inputs": [
        {
          "internalType": "address",
          "name": "owner",
          "type": "address"
        },
        {
          "internalType": "address",
          "name": "operator",
          "type": "address"
        }
      ],
      "name": "isApprovedForAll",
      "outputs": [
        {
          "internalType": "bool",
          "name": "",
          "type": "bool"
        }
      ],
      "stateMutability": "view",
      "type": "function"
    },
    {
      "inputs": [],
      "name": "name",
      "outputs": [
        {
          "internalType": "string",
          "name": "",
          "type": "string"
        }
      ],
      "stateMutability": "view",
      "type": "function"
    },
    {
      "inputs": [
        {
          "internalType": "address",
          "name": "",
          "type": "address"
        },
        {
          "internalType": "uint256",
          "name": "",
          "type": "uint256"
        }
      ],
      "name": "ownerAssets",
      "outputs": [
        {
          "internalType": "uint256",
          "name": "",
          "type": "uint256"
        }
      ],
      "stateMutability": "view",
      "type": "function"
    },
    {
      "inputs": [
        {
          "internalType": "uint256",
          "name": "tokenId",
          "type": "uint256"
        }
      ],
      "name": "ownerOf",
      "outputs": [
        {
          "internalType": "address",
          "name": "",
          "type": "address"
        }
      ],
      "stateMutability": "view",
      "type": "function"
    },
    {
      "inputs": [
        {
          "internalType": "uint256",
          "name": "",
          "type": "uint256"
        },
        {
          "internalType": "uint256",
          "name": "",
          "type": "uint256"
        }
      ],
      "name": "propertyAppraisalDates",
      "outputs": [
        {
          "internalType": "uint256",
          "name": "",
          "type": "uint256"
        }
      ],
      "stateMutability": "view",
      "type": "function"
    },
    {
      "inputs": [
        {
          "internalType": "uint256",
          "name": "",
          "type": "uint256"
        },
        {
          "internalType": "uint256",
          "name": "",
          "type": "uint256"
        }
      ],
      "name": "propertyAppraisalHistory",
      "outputs": [
        {
          "internalType": "uint256",
          "name": "",
          "type": "uint256"
        }
      ],
      "stateMutability": "view",
      "type": "function"
    },
    {
      "inputs": [
        {
          "internalType": "uint256",
          "name": "",
          "type": "uint256"
        }
      ],
      "name": "propertyData",
      "outputs": [
        {
          "internalType": "string",
          "name": "cadastralId",
          "type": "string"
        },
        {
          "internalType": "string",
          "name": "fullAddress",
          "type": "string"
        },
        {
          "internalType": "string",
          "name": "city",
          "type": "string"
        },
        {
          "internalType": "string",
          "name": "state",
          "type": "string"
        },
        {
          "internalType": "string",
          "name": "postalCode",
          "type": "string"
        },
        {
          "internalType": "string",
          "name": "country",
          "type": "string"
        },
        {
          "internalType": "enum PropertyAssetNFT.PropertyType",
          "name": "propertyType",
          "type": "uint8"
        },
        {
          "internalType": "uint256",
          "name": "squareMeters",
          "type": "uint256"
        },
        {
          "internalType": "uint256",
          "name": "builtArea",
          "type": "uint256"
        },
        {
          "internalType": "uint256",
          "name": "bedrooms",
          "type": "uint256"
        },
        {
          "internalType": "uint256",
          "name": "bathrooms",
          "type": "uint256"
        },
        {
          "internalType": "uint256",
          "name": "parkingSpaces",
          "type": "uint256"
        },
        {
          "internalType": "uint256",
          "name": "yearBuilt",
          "type": "uint256"
        },
        {
          "internalType": "string",
          "name": "legalDescription",
          "type": "string"
        },
        {
          "internalType": "bool",
          "name": "hasLiens",
          "type": "bool"
        },
        {
          "internalType": "uint256",
          "name": "lastAppraisal",
          "type": "uint256"
        },
        {
          "internalType": "uint256",
          "name": "appraisalDate",
          "type": "uint256"
        }
      ],
      "stateMutability": "view",
      "type": "function"
    },
    {
      "inputs": [
        {
          "internalType": "uint256",
          "name": "",
          "type": "uint256"
        },
        {
          "internalType": "uint256",
          "name": "",
          "type": "uint256"
        }
      ],
      "name": "propertyLiens",
      "outputs": [
        {
          "internalType": "string",
          "name": "lienType",
          "type": "string"
        },
        {
          "internalType": "uint256",
          "name": "amount",
          "type": "uint256"
        },
        {
          "internalType": "address",
          "name": "lienholder",
          "type": "address"
        },
        {
          "internalType": "uint256",
          "name": "dateRecorded",
          "type": "uint256"
        },
        {
          "internalType": "bool",
          "name": "isActive",
          "type": "bool"
        },
        {
          "internalType": "string",
          "name": "documentHash",
          "type": "string"
        }
      ],
      "stateMutability": "view",
      "type": "function"
    },
    {
      "inputs": [
        {
          "internalType": "uint256",
          "name": "tokenId",
          "type": "uint256"
        },
        {
          "internalType": "uint256",
          "name": "lienIndex",
          "type": "uint256"
        },
        {
          "internalType": "string",
          "name": "releaseDocumentHash",
          "type": "string"
        }
      ],
      "name": "releaseLien",
      "outputs": [],
      "stateMutability": "nonpayable",
      "type": "function"
    },
    {
      "inputs": [
        {
          "internalType": "bytes32",
          "name": "role",
          "type": "bytes32"
        },
        {
          "internalType": "address",
          "name": "account",
          "type": "address"
        }
      ],
      "name": "renounceRole",
      "outputs": [],
      "stateMutability": "nonpayable",
      "type": "function"
    },
    {
      "inputs": [
        {
          "internalType": "bytes32",
          "name": "role",
          "type": "bytes32"
        },
        {
          "internalType": "address",
          "name": "account",
          "type": "address"
        }
      ],
      "name": "revokeRole",
      "outputs": [],
      "stateMutability": "nonpayable",
      "type": "function"
    },
    {
      "inputs": [
        {
          "internalType": "address",
          "name": "from",
          "type": "address"
        },
        {
          "internalType": "address",
          "name": "to",
          "type": "address"
        },
        {
          "internalType": "uint256",
          "name": "tokenId",
          "type": "uint256"
        }
      ],
      "name": "safeTransferFrom",
      "outputs": [],
      "stateMutability": "nonpayable",
      "type": "function"
    },
    {
      "inputs": [
        {
          "internalType": "address",
          "name": "from",
          "type": "address"
        },
        {
          "internalType": "address",
          "name": "to",
          "type": "address"
        },
        {
          "internalType": "uint256",
          "name": "tokenId",
          "type": "uint256"
        },
        {
          "internalType": "bytes",
          "name": "data",
          "type": "bytes"
        }
      ],
      "name": "safeTransferFrom",
      "outputs": [],
      "stateMutability": "nonpayable",
      "type": "function"
    },
    {
      "inputs": [
        {
          "internalType": "address",
          "name": "operator",
          "type": "address"
        },
        {
          "internalType": "bool",
          "name": "approved",
          "type": "bool"
        }
      ],
      "name": "setApprovalForAll",
      "outputs": [],
      "stateMutability": "nonpayable",
      "type": "function"
    },
    {
      "inputs": [
        {
          "internalType": "bytes4",
          "name": "interfaceId",
          "type": "bytes4"
        }
      ],
      "name": "supportsInterface",
      "outputs": [
        {
          "internalType": "bool",
          "name": "",
          "type": "bool"
        }
      ],
      "stateMutability": "view",
      "type": "function"
    },
    {
      "inputs": [],
      "name": "symbol",
      "outputs": [
        {
          "internalType": "string",
          "name": "",
          "type": "string"
        }
      ],
      "stateMutability": "view",
      "type": "function"
    },
    {
      "inputs": [
        {
          "internalType": "uint256",
          "name": "tokenId",
          "type": "uint256"
        }
      ],
      "name": "tokenURI",
      "outputs": [
        {
          "internalType": "string",
          "name": "",
          "type": "string"
        }
      ],
      "stateMutability": "view",
      "type": "function"
    },
    {
      "inputs": [
        {
          "internalType": "uint256",
          "name": "tokenId",
          "type": "uint256"
        },
        {
          "internalType": "address",
          "name": "to",
          "type": "address"
        },
        {
          "internalType": "uint256",
          "name": "salePrice",
          "type": "uint256"
        },
        {
          "internalType": "string",
          "name": "escrowId",
          "type": "string"
        }
      ],
      "name": "transferAssetWithEscrow",
      "outputs": [],
      "stateMutability": "nonpayable",
      "type": "function"
    },
    {
      "inputs": [
        {
          "internalType": "address",
          "name": "from",
          "type": "address"
        },
        {
          "internalType": "address",
          "name": "to",
          "type": "address"
        },
        {
          "internalType": "uint256",
          "name": "tokenId",
          "type": "uint256"
        }
      ],
      "name": "transferFrom",
      "outputs": [],
      "stateMutability": "nonpayable",
      "type": "function"
    },
    {
      "inputs": [
        {
          "internalType": "uint256",
          "name": "tokenId",
          "type": "uint256"
        },
        {
          "internalType": "string",
          "name": "key",
          "type": "string"
        },
        {
          "internalType": "string",
          "name": "value",
          "type": "string"
        }
      ],
      "name": "updateAssetMetadata",
      "outputs": [],
      "stateMutability": "nonpayable",
      "type": "function"
    },
    {
      "inputs": [
        {
          "internalType": "uint256",
          "name": "tokenId",
          "type": "uint256"
        }
      ],
      "name": "verifyAsset",
      "outputs": [],
      "stateMutability": "nonpayable",
      "type": "function"
    }
  ],
  "bytecode": "0x6080346200034f576001600160401b03906040908082018381118282101762000339578252601881526020927f4b7573746f64696120556e6976657273616c2041737365740000000000000000848301528251838101818110838211176200033957845260038152624b554160e81b85820152825190828211620003395760008054926001958685811c951680156200032e575b898610146200031a578190601f95868111620002c7575b5089908683116001146200026357849262000257575b5050600019600383901b1c191690861b1781555b8151938411620002435784548581811c9116801562000238575b888210146200022457838111620001dc575b508692841160011462000176578394959650926200016a575b5050600019600383901b1c191690821b1781555b6008556200013b3362000354565b6200014633620003d3565b620001513362000354565b6200015c33620003d3565b516176769081620004758239f35b01519050388062000119565b9190601f1984169685845280842093905b888210620001c45750508385969710620001aa575b505050811b0181556200012d565b015160001960f88460031b161c191690553880806200019c565b80878596829496860151815501950193019062000187565b8582528782208480870160051c8201928a88106200021a575b0160051c019086905b8281106200020e57505062000100565b838155018690620001fe565b92508192620001f5565b634e487b7160e01b82526022600452602482fd5b90607f1690620000ee565b634e487b7160e01b81526041600452602490fd5b015190503880620000c0565b8480528a85208994509190601f198416865b8d828210620002b0575050841162000296575b505050811b018155620000d4565b015160001960f88460031b161c1916905538808062000288565b8385015186558c9790950194938401930162000275565b9091508380528984208680850160051c8201928c861062000310575b918a91869594930160051c01915b82811062000301575050620000aa565b8681558594508a9101620002f1565b92508192620002e3565b634e487b7160e01b83526022600452602483fd5b94607f169462000093565b634e487b7160e01b600052604160045260246000fd5b600080fd5b6001600160a01b031660008181527f6d5257204ebe7d88fd91ae87941cb2dd9d8062b64ae5a2bd2d28ec40b9fbf6df602052604081205490919060ff16156200039b575050565b81805260076020526040822081835260205260408220600160ff19825416179055339160008051602062007aeb8339815191528180a4565b6001600160a01b031660008181527f963cba417b6349c72e41d1f4ceb490135a07f0124085613db031b1d53b12038260205260408120549091907ff3dbd55030dd16e8ccaca9e44af740ec8b918b9d031f90f4cc45bfb2c3a05f519060ff16156200043d57505050565b80835260076020526040832082845260205260408320600160ff1982541617905560008051602062007aeb833981519152339380a456fe61010080604052600436101561001457600080fd5b60e0600035811c91826301ffc9a714615d6a5750816302115d6c146148bb57816303ba349014611cfe57816306fdde0314614818578163081812fc146147fa578163095ea7b31461468057816323b872dd1461465c578163248a9ca31461462d57816324b44d6f14613f1957816325779d9014613e965781632d38f89b14613e485781632df9109114613e1f5781632f2ff15d14613d6c57816336568abe14613cda57816337d7393414613b335781633c2fd9501461396a57816342842e0e14613937578163455bd951146138ed57816347e63380146138c457816356722c531461318a57816359fd285c14612c265781636352211e14612bf65781636743638b1461206557816370a0823114611fce5781637a82350c14611f5d578163886c98bc14611f2c57816391d1485414611edf57816395d89b4114611e2e578163a217fddf14611e12578163a22cb46514611d47578163b6eacaa614611cfe578163b88d4fde14611c79578163bb632ab814611b32578163bb6d85cb14611588578163bd96be171461154b578163c87b56dd146114eb578163cf35bdd01461144a578163d04ec72a146113ee578163d11cd1fb14610e5d578163d547741f14610e1c578163d803aacc14610c6057508063d834419c146104c2578063e078e9c81461048a578063e7705db614610461578063e985e9c51461040b578063ec1a8dab1461038d578063ee6723221461034e578063f11f6891146102bc5763fe3515bf1461023d57600080fd5b346102b75761024b36615fd7565b90600052600f60205260406000209081548110156102b75761026c91616244565b5061027681616182565b6102b360018301549260018060a01b036002820154169060038101546102a6600560ff6004850154169301616182565b9260405196879687615fed565b0390f35b600080fd5b346102b7576102ca36615fd7565b90600052600b602052604060002080548210156102b757610329916102ee91616228565b5060ff8154169061034460018201549160018060a01b03600282015416600461031960038401616182565b920154936040519687809761606c565b6020860152604085015260a0606085015260a0840190615f7d565b9060808301520390f35b346102b75761035c36615fd7565b906000526012602052604060002080548210156102b75760209161037f9161608f565b90546040519160031b1c8152f35b346102b75760403660031901126102b7576024356004356001600160401b0382116102b7576103f26103f7916103ca6102b3943690600401615eea565b906103dc6103d7826169f5565b617444565b600052600a602052600560406000200190615f57565b616182565b604051918291602083526020830190615f7d565b346102b75760403660031901126102b757610424615f1e565b61042c615f08565b9060018060a01b03809116600052600560205260406000209116600052602052602060ff604060002054166040519015158152f35b346102b75760003660031901126102b75760206040516000805160206176018339815191528152f35b346102b75760203660031901126102b7576004356104aa6103d7826169f5565b600052600b6020526020604060002054604051908152f35b346102b75760c03660031901126102b7576004356001600160401b0381116102b7576104f2903690600401615eea565b600a60243510156102b7576044356001600160a01b03811690036102b7576064356001600160401b0381116102b75761052f903690600401615eea565b6084356001600160401b0381116102b75761054e9036906004016160be565b60a4356001600160401b0381116102b75761056d9036906004016160be565b610575616260565b61058184511515617005565b6105976044356001600160a01b0316151561704c565b6105c060405160208187516105af8183858c01615f34565b8101600c8152030190205415617097565b6105cd82518251146170dd565b6105ed60095493600185016009556105e78560443561717b565b8461729b565b6000838152600a6020526040902084519094906001600160401b0381116107da576106188654616148565b601f8111610c2e575b50806020601f8211600114610bc757600091610bbc575b508160011b916000199060031b1c19161785555b6106766001860161065e60243561613e565b60ff1981541660ff6024351617815560443590617129565b4260028601556003850161010061ffff1982541617905542600486015560005b83518110156107f0576106a98184616dc9565b516106c1600588016106bb8488616dc9565b51615f57565b815190916001600160401b0382116107da576106dd8354616148565b601f811161079d575b50602090601f831160011461072e5761071e9493929160009183610723575b50508160011b916000199060031b1c1916179055616ee7565b610696565b015190508a80610705565b908360005260206000209160005b601f1985168110610785575091839160019361071e979695601f1981161061076c575b505050811b019055616ee7565b015160001960f88460031b161c191690558a808061075f565b9192602060018192868501518155019401920161073c565b6107ca90846000526020600020601f850160051c810191602086106107d0575b601f0160051c0190616ddd565b896106e6565b90915081906107bd565b634e487b7160e01b600052604160045260246000fd5b50838060405160208185516108088183858a01615f34565b8101600c8152030190205560018060a01b0360443516600052600d602052610834816040600020616e7d565b60405161084081615e24565b6000815261084c61714e565b9082600052600b60205261086360406000206174df565b50805460ff191681554260018201556002810180546001600160a01b03191633179055825190926001600160401b0382116107da5781906108a76003860154616148565b601f8111610b87575b50602090601f8311600114610b1557600092610b0a575b50508160011b916000199060031b1c19161760038301555b60006004830155805190600160401b82116107da576005830154826005850155808310610a92575b5060206005910192016000526020600020916000905b82821061097d57602085806000805160206175e183398151915261094f8a604051918291606083526060830190615f7d565b61095a60243561613e565b602435828801526044356001600160a01b031660408301520390a2604051908152f35b80518051906001600160401b0382116107da5761099a8654616148565b601f8111610a60575b50602090601f83116001146109f05792826001949360209386956000926109e5575b5050600019600383901b1c191690841b1787555b0194019101909261091d565b015190508b806109c5565b908660005260206000209160005b601f1985168110610a48575083602093600196938796938794601f19811610610a2f575b505050811b0187556109d9565b015160001960f88460031b161c191690558b8080610a22565b919260206001819286850151815501940192016109fe565b610a8c90876000526020600020601f850160051c810191602086106107d057601f0160051c0190616ddd565b886109a3565b600584016000526020600020908382015b8183018110610ab3575050610907565b80610ac060019254616148565b80610acd575b5001610aa3565b601f81118314610ae35750600081555b89610ac6565b600090828252610b01601f60208420920160051c8201858301616ddd565b81835555610add565b0151905086806108c7565b9250600385016000526020600020906000935b601f1984168510610b6c576001945083601f19811610610b53575b505050811b0160038301556108df565b015160001960f88460031b161c19169055868080610b43565b81810151835560209485019460019093019290910190610b28565b610bb690600387016000526020600020601f850160051c810191602086106107d057601f0160051c0190616ddd565b876108b0565b905082015187610638565b91508660005260206000206000925b601f1983168410610c16576001935082601f19811610610bfd575b5050811b01855561064c565b84015160001960f88460031b161c191690558780610bf1565b84810151825560209384019360019092019101610bd6565b610c5a90876000526020600020601f840160051c810191602085106107d057601f0160051c0190616ddd565b86610621565b346102b75760203660031901126102b757600435600052600e602052604060002090610c8b82616182565b90610c9860018401616182565b60c052610ca760028401616182565b8152610cb560038401616182565b90610cc260048501616182565b610cce60058601616182565b600686015460ff169260078701546008880154600989015491600a8a015493600b8b015495600c8c015497600d8d01610d0690616182565b9a8d600e81015460ff16608052600f01549d601001549c6040518060a05261022080915260a05101610d3791615f7d565b60a051808203906020015260c05190610d4f91615f7d565b60a0518082039060400152845190610d6691615f7d565b60a0518082039060600152610d7a91615f7d565b60a0518082039060800152610d8e91615f7d565b60a0518082039060a00152610da291615f7d565b97610dac8161613e565b60a05160c0015260a051015260a051610100015260a051610120015260a051610140015260a051610160015260a051610180015260a051808203906101a00152610df591615f7d565b91608051151560a0516101c0015260a0516101e0015260a051610200015260a05180910390f35b346102b75760403660031901126102b757610e5b600435610e3b615f08565b90806000526007602052610e56600160406000200154616545565b616655565b005b346102b75760803660031901126102b757610e76615f08565b6064356001600160401b0381116102b757610e95903690600401615eea565b610e9d616260565b610eab6103d76004356169f5565b6001600160a01b03828116156113a957610ec6600435616712565b92600435600052600a602052610ee3816001604060002001617129565b818416600052600d60205260406000209260005b84548082101561139e57610f0b828761608f565b905460039291831b1c60043514610f2c575050610f2790616ee7565b610ef7565b600096929193949596199182820191821161138857610f5e610f51610f77938661608f565b905490871b1c918561608f565b90919082549060031b91821b91600019901b1916179055565b8154801561137257810192610f8c848461608f565b81939154921b1b19169055555b828216600052600d602052610fb46004356040600020616e7d565b610fc160043583866168f9565b610fc9616cc6565b90610fd382616d29565b52610fdd81616d29565b5060405190610feb82615e3f565b602282527f417373657420736f6c64207468726f756768204b7573746f64696120657363726020830152616f7760f01b6040830152600435600052600b60205261103860406000206174df565b50805460ff19166001908117825542908201556002810180546001600160a01b03191633179055825190926003840191906001600160401b0382116107da5781906110838454616148565b601f8111611340575b50602090601f83116001146112da576000926112cf575b50508160011b916000199060031b1c19161790555b6044356004830155805190600160401b82116107da576005830154826005850155808310611257575b5060206005910192016000526020600020916000905b8282106111425750505050816040519316835216602082015260443560408201527ff3ece9284d33275d9c297a27c91c816d5543b99eb1a60525f3cee810ed720091606060043592a2005b80518051906001600160401b0382116107da5761115f8654616148565b601f8111611225575b50602090601f83116001146111b55792826001949360209386956000926111aa575b5050600019600383901b1c191690841b1787555b019401910190926110f7565b015190508c8061118a565b908660005260206000209160005b601f198516811061120d575083602093600196938796938794601f198116106111f4575b505050811b01875561119e565b015160001960f88460031b161c191690558c80806111e7565b919260206001819286850151815501940192016111c3565b61125190876000526020600020601f850160051c810191602086106107d057601f0160051c0190616ddd565b89611168565b600584016000526020600020908382015b81830181106112785750506110e1565b8061128560019254616148565b80611292575b5001611268565b601f811183146112a85750600081555b8a61128b565b6000908282526112c6601f60208420920160051c8201858301616ddd565b818355556112a2565b0151905088806110a3565b6000858152602081209350601f198516905b818110611328575090846001959493921061130f575b505050811b0190556110b8565b015160001960f88460031b161c19169055888080611302565b929360206001819287860151815501950193016112ec565b61136c90856000526020600020601f850160051c810191602086106107d057601f0160051c0190616ddd565b8961108c565b634e487b7160e01b600052603160045260246000fd5b634e487b7160e01b600052601160045260246000fd5b505090919250610f99565b60405162461bcd60e51b815260206004820152601f60248201527f43616e6e6f74207472616e7366657220746f207a65726f2061646472657373006044820152606490fd5b346102b75760203660031901126102b7576004356001600160401b0381116102b757611437602061142481933690600401615eea565b8160405193828580945193849201615f34565b8101600c81520301902054604051908152f35b346102b75760203660031901126102b757600435600052600a60205260406000209061147582616182565b91600181015460ff80821692600281015460046003830154920154936114a560405198888a998a52890190615f7d565b956114af8161613e565b6020880152600890811c6001600160a01b031660408801526060870191909152818316151560808701521c16151560a084015260c08301520390f35b346102b75760203660031901126102b75760043561151061150b826169f5565b6166cb565b60005260066020526102b36115286040600020616182565b600060405161153681615e24565b52604051918291602083526020830190615f7d565b346102b75760203660031901126102b75760043561157061156b826169f5565b616df4565b600052600f6020526020604060002054604051908152f35b346102b7573660031901126102b757600e60243510156102b7576044356001600160401b0381116102b7576115c1903690600401615eea565b6084356001600160401b0381116102b7576115e09036906004016160be565b9060a4356001600160401b0381116102b7576116009036906004016160be565b60c4356001600160401b0381116102b75761161f9036906004016160be565b9261162861641e565b6116366103d76004356169f5565b6116438251855114617487565b600435600052600b60205261165b60406000206174df565b50805460ff191660ff60243516178155426001820155600281018054336001600160a01b031990911617905583519091906001600160401b0381116107da576116a76003840154616148565b601f8111611afd575b50806020601f8211600114611a9057600091611a85575b508160011b916000199060031b1c19161760038301555b6064356004830155805190600160401b82116107da576005830154826005850155808310611a0d575b5060206005910192016000526020600020916000905b8282106118f85750505050600435600052600b60205260406000205460001981019081116113885761175e90600435600052600b6020526040600020616228565b509260005b8251811015611894576117768183616dc9565b51611788600687016106bb8487616dc9565b815190916001600160401b0382116107da576117a48354616148565b601f8111611862575b50602090601f83116001146117f4576117e494939291600091836117e95750508160011b916000199060031b1c1916179055616ee7565b611763565b015190508980610705565b908360005260206000209160005b601f198516811061184a57509183916001936117e4979695601f1981161061183157505050811b019055616ee7565b015160001960f88460031b161c1916905589808061075f565b91926020600181928685015181550194019201611802565b61188e90846000526020600020601f850160051c810191602086106107d057601f0160051c0190616ddd565b886117ad565b83600435600052600a602052426004604060002001557fb378ed08a835f303cf82a1165775e4784b00762bd617d9c9d170559927f9d95c6040516118da8160243561606c565b60406020820152806118f3600435946040830190615f7d565b0390a2005b80518051906001600160401b0382116107da576119158654616148565b601f81116119db575b50602090601f831160011461196b579282600194936020938695600092611960575b5050600019600383901b1c191690841b1787555b0194019101909261171d565b015190508c80611940565b908660005260206000209160005b601f19851681106119c3575083602093600196938796938794601f198116106119aa575b505050811b018755611954565b015160001960f88460031b161c191690558c808061199d565b91926020600181928685015181550194019201611979565b611a0790876000526020600020601f850160051c810191602086106107d057601f0160051c0190616ddd565b8961191e565b600584016000526020600020908382015b8183018110611a2e575050611707565b80611a3b60019254616148565b80611a48575b5001611a1e565b601f81118314611a5e5750600081555b8a611a41565b600090828252611a7c601f60208420920160051c8201858301616ddd565b81835555611a58565b9050850151876116c7565b91506003840160005260206000206000925b601f1983168410611ae5576001935082601f19811610611acc575b5050811b0160038301556116de565b87015160001960f88460031b161c191690558780611abd565b87810151825560209384019360019092019101611aa2565b611b2c90600385016000526020600020601f840160051c810191602085106107d057601f0160051c0190616ddd565b866116b0565b346102b75760203660031901126102b757600435611b4f816169f5565b611b5890616df4565b80600052600a60205260406000206001015460ff16611b768161613e565b600114611b8290616e3a565b600052600e602052604060002090600682015460ff166007830154916008840154906009850154600a860154600c87015491600e88015460ff1693600f89015495611bcc8a616182565b98611bd960018c01616182565b9a611be660028201616182565b90600301611bf390616182565b906040519c8d9c8d6101809081815201611c0c91615f7d565b8d810360208f0152611c1d91615f7d565b8c810360408e0152611c2e91615f7d565b8b810360608d0152611c3f91615f7d565b98611c498161613e565b60808b015260a08a015260c089015287015261010086015261012085015215156101408401526101608301520390f35b346102b75760803660031901126102b757611c92615f1e565b611c9a615f08565b90606435906044356001600160401b0383116102b757366023840112156102b757610e5b93611cd6611cf9943690602481600401359101615eb3565b92611ce9611ce48433616831565b61675c565b611cf48383836168f9565b616b30565b616811565b346102b75760203660031901126102b7576004356001600160401b0381116102b757611d34602061142481933690600401615eea565b8101601081520301902054604051908152f35b346102b75760403660031901126102b757611d60615f1e565b60243590811515908183036102b7576001600160a01b031691338314611dd157611da3903360005260056020526040600020846000526020526040600020616644565b6040519081527f17307eab39ab6107e8899845ad3d59bd9653f200f220920489ca2b5937696c3160203392a3005b60405162461bcd60e51b815260206004820152601960248201527822a9219b99189d1030b8383937bb32903a379031b0b63632b960391b6044820152606490fd5b346102b75760003660031901126102b757602060405160008152f35b346102b75760003660031901126102b75760405160009060018054611e5281616148565b80845290828116908115611eb75750600114611e79575b6102b3836103f781870382615e75565b92508060005260209283600020916000925b828410611ea4575050508101909101906103f781611e69565b8054858501870152928501928101611e8b565b6102b395506103f793506020915091849260ff191682840152151560051b8201019350611e69565b346102b75760403660031901126102b757611ef8615f08565b600435600052600760205260406000209060018060a01b0316600052602052602060ff604060002054166040519015158152f35b346102b757611f3a36615fd7565b906000526011602052604060002080548210156102b75760209161037f9161608f565b346102b75760203660031901126102b757600435611f7d61156b826169f5565b6000526011602052611fc0604060002060126020526102b3611fac611fa6604060002093616ef6565b92616ef6565b604051938493604085526040850190616038565b908382036020850152616038565b346102b75760203660031901126102b7576001600160a01b03611fef615f1e565b16801561200e5760005260036020526020604060002054604051908152f35b60405162461bcd60e51b815260206004820152602960248201527f4552433732313a2061646472657373207a65726f206973206e6f7420612076616044820152683634b21037bbb732b960b91b6064820152608490fd5b346102b75760a03660031901126102b7576024356001600160401b0381116102b757612095903690600401615eea565b606435906001600160a01b03821682036102b7576084356001600160401b0381116102b7576120c8903690600401615eea565b6120d061641e565b6120de61156b6004356169f5565b600435600052600a602052612108600160ff8160406000200154166121028161613e565b14616e3a565b60443515612ba6576001600160a01b03831615612b575760405160c081016001600160401b038111828210176107da57604052828152604435602082015260018060a01b0384166040820152426060820152600160808201528160a0820152600435600052600f60205260406000208054600160401b8110156107da5761219491600182018155616244565b919091612b415780518051906001600160401b0382116107da576121b88454616148565b601f8111612b0f575b50602090601f8311600114612aa25760a093929160009183612a97575b50508160011b916000199060031b1c19161783555b6020810151600184015560028301600180841b03604083015116600180851b0319825416179055606081015160038401556122376080820151151560048501616644565b01518051906001600160401b0382116107da576122576005840154616148565b601f8111612a62575b50602090601f83116001146129f25760059291600091836129e7575b50508160011b916000199060031b1c1916179101555b600435600052600e602052600e604060002001600160ff198254161790556122bb604435616f45565b9261231a6034604051809686516122d9816020850160208b01615f34565b820173081b1a595b881c9958dbdc99195908199bdc880960621b602082015261230b8251809360208785019101615f34565b01036014810187520185615e75565b612322616cc6565b9161232c83616d29565b5261233682616d29565b5061233f616cf5565b93612348616cf5565b9260405161235581615e09565b60088152676c69656e5479706560c01b602082015261237387616d29565b5261237d86616d29565b508461238885616d29565b5261239284616d29565b5060405161239f81615e09565b600a8152693634b2b73437b63232b960b11b60208201526123bf87616d36565b526123c986616d36565b506040516123d681615e09565b601081526f181899199a1a9b1b9c1cb0b131b232b360811b60208201526040519061240082615e3f565b602a825260403660208401378151156129d157603060208301538151600110156129d1576078602183015360005b6014811061290857505061244185616d36565b5261244b84616d36565b506124598651855114617487565b600435600052600b60205261247160406000206174df565b50805460ff1916600b1781554260018201556002810180546001600160a01b03191633179055825190926001600160401b0382116107da5781906124b86003860154616148565b601f81116128d3575b50602090601f831160011461286157600092612856575b50508160011b916000199060031b1c19161760038301555b6044356004830155805190600160401b82116107da5760058301548260058501558083106127de575b5060206005910192016000526020600020916000905b8282106126c9575050505060005b8451811015612659576125508184616dc9565b51600435600052600a60205261257160056040600020016106bb8489616dc9565b815190916001600160401b0382116107da5761258d8354616148565b601f8111612627575b50602090601f83116001146125d2576125cd94939291600091836117e95750508160011b916000199060031b1c1916179055616ee7565b61253d565b908360005260206000209160005b601f198516811061260f57509183916001936125cd979695601f1981161061183157505050811b019055616ee7565b919260206001819286850151815501940192016125e0565b61265390846000526020600020601f850160051c810191602086106107d057601f0160051c0190616ddd565b88612596565b507fc1ed4ed7cf89398c27ac2d018926c76347cdb44f47e8777a8949f66ea43e97db83600435600052600a602052426004604060002001556126a660405191606083526060830190615f7d565b60443560208301526001600160a01b0390931660408201526004359281900390a2005b80518051906001600160401b0382116107da576126e68654616148565b601f81116127ac575b50602090601f831160011461273c579282600194936020938695600092612731575b5050600019600383901b1c191690841b1787555b0194019101909261252f565b015190508d80612711565b908660005260206000209160005b601f1985168110612794575083602093600196938796938794601f1981161061277b575b505050811b018755612725565b015160001960f88460031b161c191690558d808061276e565b9192602060018192868501518155019401920161274a565b6127d890876000526020600020601f850160051c810191602086106107d057601f0160051c0190616ddd565b8a6126ef565b600584016000526020600020908382015b81830181106127ff575050612519565b8061280c60019254616148565b80612819575b50016127ef565b601f8111831461282f5750600081555b8b612812565b60009082825261284d601f60208420920160051c8201858301616ddd565b81835555612829565b0151905088806124d8565b9250600385016000526020600020906000935b601f19841685106128b8576001945083601f1981161061289f575b505050811b0160038301556124f0565b015160001960f88460031b161c1916905588808061288f565b81810151835560209485019460019093019290910190612874565b61290290600387016000526020600020601f850160051c810191602086106107d057601f0160051c0190616ddd565b896124c1565b600c81018111611388576020600c820110156129d1576001600160f81b03196129456001600160a01b038816600c84011a60041c600f1684616bb7565b5116818060011b0460021482151715611388578160011b6002016002116113885760001a6129798260011b60020185616bb7565b536001600160f81b031961299e6001600160a01b038816600c84011a600f1684616bb7565b5116908060011b600301600311611388576129cc9160001a6129c68260011b60030186616bb7565b53616ee7565b61242e565b634e487b7160e01b600052603260045260246000fd5b01519050878061227c565b906005840160005260206000209160005b601f1985168110612a4a5750918391600193600595601f19811610612a31575b505050811b01910155612292565b015160001960f88460031b161c19169055878080612a23565b91926020600181928685015181550194019201612a03565b612a9190600585016000526020600020601f850160051c810191602086106107d057601f0160051c0190616ddd565b86612260565b0151905088806121de565b908460005260206000209160005b601f1985168110612af7575091839160019360a09695601f19811610612ade575b505050811b0183556121f3565b015160001960f88460031b161c19169055888080612ad1565b91926020600181928685015181550194019201612ab0565b612b3b90856000526020600020601f850160051c810191602086106107d057601f0160051c0190616ddd565b876121c1565b634e487b7160e01b600052600060045260246000fd5b60405162461bcd60e51b815260206004820152602160248201527f4c69656e686f6c6465722063616e6e6f74206265207a65726f206164647265736044820152607360f81b6064820152608490fd5b60405162461bcd60e51b815260206004820152602260248201527f4c69656e20616d6f756e74206d7573742062652067726561746572207468616e604482015261020360f41b6064820152608490fd5b346102b75760203660031901126102b7576020612c14600435616712565b6040516001600160a01b039091168152f35b346102b75760203660031901126102b7573360009081527f68cfe6f8c4a0a51fa498a36243209c54367e0b93d1a273c9f15bac776a478d016020526040902054600435906000805160206176018339815191529060ff16156130295750612c8f6103d7826169f5565b80600052600a6020526040600020600381019060ff1991600183825416179055600442910155604051612cc181615e24565b60008152604051612cd181615e09565b601a8152794173736574207665726966696564206279204b7573746f64696160301b602082015283600052600b602052600c612d1060406000206174df565b5080549094161783554260018401556002830180546001600160a01b03191633179055805160038401916001600160401b0382116107da578190612d548454616148565b601f8111612ff7575b50602090601f8311600114612f9157600092612f86575b50508160011b916000199060031b1c19161790555b600060048301556005809201815191600160401b83116107da578154838355808410612f13575b506020019060005260206000206000915b838310612df557857f5bd81a4d257100f5fe7df72a9e528a7aaf33871f8258739a331d2627a83f0aac6020604051338152a2005b80518051906001600160401b0382116107da57612e128454616148565b601f8111612ed8575b50602090601f8311600114612e68579282600194936020938695600092612e5d575b5050600019600383901b1c191690841b1785555b01920192019190612dc1565b015190508b80612e3d565b908460005260206000209160005b601f1985168110612ec0575083602093600196938796938794601f19811610612ea7575b505050811b018555612e51565b015160001960f88460031b161c191690558b8080612e9a565b91926020600181928685015181550194019201612e76565b612f0390856000526020600020601f85018a1c81019160208610612f09575b601f018a1c0190616ddd565b88612e1b565b9091508190612ef7565b8260005283602060002091820191015b818110612f305750612db0565b80612f3d60019254616148565b80612f4a575b5001612f23565b601f81118314612f605750600081555b88612f43565b600090828252612f7d601f6020842092018a1c8201858301616ddd565b81835555612f5a565b015190508680612d74565b6000858152602081209350601f198516905b818110612fdf5750908460019594939210612fc6575b505050811b019055612d89565b015160001960f88460031b161c19169055868080612fb9565b92936020600181928786015181550195019301612fa3565b61302390856000526020600020601f850160051c810191602086106107d057601f0160051c0190616ddd565b87612d5d565b61303233616bc8565b6040519161303f83615e5a565b60428352602083019060603683378351156129d1576030825383516001908110156129d157607860218601536041905b8082116131465750506131145760486130e1926130f0926131109560405195869360008051602061758183398151915260208601526130b8815180926020603789019101615f34565b8401917001034b99036b4b9b9b4b733903937b6329607d1b603784015251809386840190615f34565b01036028810184520182615e75565b60405162461bcd60e51b8152602060048201529182916024830190615f7d565b0390fd5b606460405162461bcd60e51b815260206004820152602060248201526000805160206175218339815191526044820152fd5b9091600f811660108110156129d1576f181899199a1a9b1b9c1cb0b131b232b360811b901a6131758488616bb7565b5360041c91801561138857600019019061306f565b346102b75760a03660031901126102b7576044356001600160401b0381116102b7576131ba903690600401615eea565b6064356001600160401b0381116102b7576131d9903690600401615eea565b906084356001600160401b0381116102b7576131f99036906004016160be565b61320161641e565b61320f61156b6004356169f5565b600435600052600a602052613233600160ff8160406000200154166121028161613e565b6024351561387057600435600052600e6020526040600020602435600f820155601042910155601160205261326e6024356040600020616e7d565b6004356000526012602052613287426040600020616e7d565b613292602435616f45565b90613302603b604051809476141c9bdc195c9d1e48185c1c1c985a5cd95908185d0809604a1b60208301526132d1815180926020603786019101615f34565b810163010313c960e51b60378201528651906132f38285830160208b01615f34565b0103601b810185520183615e75565b61330a616cf5565b93613313616cf5565b9360405161332081615e09565b600d81526c6170707261697365724e616d6560981b602082015261334387616d29565b5261334d86616d29565b5061335785616d29565b5261336184616d29565b5060405161336e81615e09565b600f81526e185c1c1c985a5cd85b14995c1bdc9d608a1b602082015261339386616d36565b5261339d85616d36565b506133a784616d36565b526133b183616d36565b506133bf8451845114617487565b600435600052600b6020526133d760406000206174df565b50805460ff1916600c1781554260018201556002810180546001600160a01b03191633179055825190926001600160401b0382116107da57819061341e6003860154616148565b601f811161383b575b50602090601f83116001146137c9576000926137be575b50508160011b916000199060031b1c19161760038301555b6024356004830155805190600160401b82116107da576005830154826005850155808310613746575b5060206005910192016000526020600020916000905b82821061363157600086865b81518310156135e4576134b48382616dc9565b5192600435600052600a6020526134d660056040600020016106bb8386616dc9565b8451946001600160401b0386116107da576134f18254616148565b601f81116135b2575b50602090601f8711600114613544579580916135329596976000926135395750508160011b916000199060031b1c1916179055616ee7565b91906134a1565b015190508780610705565b908260005260206000209160005b601f198916811061359a5750918791600193613532979899601f1981161061358157505050811b019055616ee7565b015160001960f88460031b161c1916905587808061075f565b91926020600181928685015181550194019201613552565b6135de90836000526020600020601f890160051c81019160208a106107d057601f0160051c0190616ddd565b866134fa565b600435600052600a6020524260046040600020015560405160243581523360208201527fced9b112c0f0d28d67be5fe291840ff76bd7a3e1adad7f4c9492414f2f730726604060043592a2005b80518051906001600160401b0382116107da5761364e8654616148565b601f8111613714575b50602090601f83116001146136a4579282600194936020938695600092613699575b5050600019600383901b1c191690841b1787555b01940191019092613495565b015190508b80613679565b908660005260206000209160005b601f19851681106136fc575083602093600196938796938794601f198116106136e3575b505050811b01875561368d565b015160001960f88460031b161c191690558b80806136d6565b919260206001819286850151815501940192016136b2565b61374090876000526020600020601f850160051c810191602086106107d057601f0160051c0190616ddd565b88613657565b600584016000526020600020908382015b818301811061376757505061347f565b8061377460019254616148565b80613781575b5001613757565b601f811183146137975750600081555b8961377a565b6000908282526137b5601f60208420920160051c8201858301616ddd565b81835555613791565b01519050868061343e565b9250600385016000526020600020906000935b601f1984168510613820576001945083601f19811610613807575b505050811b016003830155613456565b015160001960f88460031b161c191690558680806137f7565b818101518355602094850194600190930192909101906137dc565b61386a90600387016000526020600020601f850160051c810191602086106107d057601f0160051c0190616ddd565b87613427565b60405162461bcd60e51b815260206004820152602660248201527f41707072616973616c2076616c7565206d75737420626520677265617465722060448201526507468616e20360d41b6064820152608490fd5b346102b75760003660031901126102b75760206040516000805160206175a18339815191528152f35b346102b75760403660031901126102b757613906615f1e565b6001600160a01b03166000908152600d60205260409020805460243591908210156102b75760209161037f9161608f565b346102b757610e5b611cf961394b36615fa2565b906040519261395984615e24565b60008452611ce9611ce48433616831565b346102b75760603660031901126102b7576004356001600160401b036024358181116102b75761399e903690600401615eea565b906044358181116102b7576139b7903690600401615eea565b6139bf61641e565b6139cb6103d7856169f5565b83600052602091600a83526139e7600560406000200185615f57565b9082519081116107da576139fb8254616148565b601f8111613b03575b5083601f8211600114613a8757926118f39282613a6f96936000805160206175418339815191529896600091613a7c575b508160011b916000199060031b1c19161790555b86600052600a825242600460406000200155604051948594604086526040860190615f7d565b9184830390850152615f7d565b90508301518a613a35565b601f1982169083600052856000209160005b818110613aec5750836000805160206175418339815191529896936118f39693613a6f999660019410613ad3575b5050811b019055613a49565b85015160001960f88460031b161c191690558a80613ac7565b91928760018192868a015181550194019201613a99565b613b2d908360005285600020601f840160051c8101918785106107d057601f0160051c0190616ddd565b86613a04565b346102b757613b4136615fd7565b613b4d6103d7836169f5565b81600052602091600b8352604060002054821015613c995790613b7b91600052600b83526040600020616228565b509060ff82541690600190818401549060018060a01b0360028601541691600486015492613baf6003600589019801616182565b90875492613bbc846160a7565b93613bca6040519586615e75565b808552858501809a600052866000206000915b838310613c76575050505090613c159291613bfb604051809a61606c565b85890152604088015260c0606088015260c0870190615f7d565b92608086015284830360a0860152519081835280830192818360051b82010196936000915b848310613c475787890388f35b9091929394958480613c64839b601f198682030187528a51615f7d565b9a980196959491909101920190613c3a565b908a808a819f9d9594613c8885616182565b8152019201920192509b999b613bdd565b60405162461bcd60e51b81526004810184905260196024820152784576656e7420696e646578206f7574206f6620626f756e647360381b6044820152606490fd5b346102b75760403660031901126102b757613cf3615f08565b336001600160a01b03821603613d0f57610e5b90600435616655565b60405162461bcd60e51b815260206004820152602f60248201527f416363657373436f6e74726f6c3a2063616e206f6e6c792072656e6f756e636560448201526e103937b632b9903337b91039b2b63360891b6064820152608490fd5b346102b75760403660031901126102b757600435613d88615f08565b816000526007602052613da2600160406000200154616545565b81600052600760205260406000209060018060a01b0316908160005260205260ff6040600020541615613dd157005b8160005260076020526040600020816000526020526040600020600160ff1982541617905533917f2f8788117e7eff1d82e926ec794901d17c78024a50270940304540a733656f0d600080a4005b346102b75760003660031901126102b75760206040516000805160206175018339815191528152f35b346102b75760203660031901126102b7576001600160a01b03613e69615f1e565b16600052600d6020526102b3613e826040600020616ef6565b604051918291602083526020830190616038565b346102b757613edf613ea736615fd7565b90613eb461156b826169f5565b80600052600f602052613ecd6040600020548310616ea0565b600052600f6020526040600020616244565b506001810154906102b360018060a01b03600283015416600383015460ff600485015416906102a66005613f1287616182565b9601616182565b346102b75760603660031901126102b7576044356001600160401b0381116102b757613f49903690600401615eea565b613f5161641e565b613f5f61156b6004356169f5565b600435600052600f602052613f7c60406000205460243510616ea0565b600435600052600f60205260ff6004613f9b6024356040600020616244565b50015416156145f057600435600052600f602052613fbf6024356040600020616244565b5060048101805460ff1916905590600090815b600435600052600f602052604060002080548210156145e4576004613ff98360ff93616244565b5001541661400f5761400a90616ee7565b613fd2565b50905061403060015b600435600052600e602052600e604060002001616644565b61403d6001830154616f45565b604051809360009080549061405182616148565b91600181169081156145be575060011461457d575b5050906140ad928273081b1a595b881c995b19585cd95908199bdc880960621b6014945261409d8251809360208785019101615f34565b0103600b19810185520183615e75565b6140b5616cc6565b906140bf82616d29565b526140c981616d29565b50604051916140d783615e24565b60008352604051916140e883615e24565b600083526140f7845115617487565b600435600052600b60205261410f60406000206174df565b50805460ff1916600b1781554260018201556002810180546001600160a01b03191633179055825190926001600160401b0382116107da5781906141566003860154616148565b601f8111614548575b50602090601f83116001146144d6576000926144cb575b50508160011b916000199060031b1c19161760038301555b60006004830155805190600160401b82116107da576005830154826005850155808310614453575b5060206005910192016000526020600020916000905b82821061433e57600086865b81518310156142f7576141eb8382616dc9565b5192600435600052600a60205261420d60056040600020016106bb8386616dc9565b8451946001600160401b0386116107da576142288254616148565b601f81116142c5575b50602090601f8711600114614270579580916142699596976000926135395750508160011b916000199060031b1c1916179055616ee7565b91906141d8565b908260005260206000209160005b601f19891681106142ad5750918791600193614269979899601f1981161061358157505050811b019055616ee7565b9192602060018192868501518155019401920161427e565b6142f190836000526020600020601f890160051c81019160208a106107d057601f0160051c0190616ddd565b86614231565b600435600052600a6020524260046040600020015560405160243581527f826cf37d548a015e11e3e939759a7fa469e7e76c05ba4bffe6beb1747e79b85b602060043592a2005b80518051906001600160401b0382116107da5761435b8654616148565b601f8111614421575b50602090601f83116001146143b15792826001949360209386956000926143a6575b5050600019600383901b1c191690841b1787555b019401910190926141cc565b015190508b80614386565b908660005260206000209160005b601f1985168110614409575083602093600196938796938794601f198116106143f0575b505050811b01875561439a565b015160001960f88460031b161c191690558b80806143e3565b919260206001819286850151815501940192016143bf565b61444d90876000526020600020601f850160051c810191602086106107d057601f0160051c0190616ddd565b88614364565b600584016000526020600020908382015b81830181106144745750506141b6565b8061448160019254616148565b8061448e575b5001614464565b601f811183146144a45750600081555b89614487565b6000908282526144c2601f60208420920160051c8201858301616ddd565b8183555561449e565b015190508680614176565b9250600385016000526020600020906000935b601f198416851061452d576001945083601f19811610614514575b505050811b01600383015561418e565b015160001960f88460031b161c19169055868080614504565b818101518355602094850194600190930192909101906144e9565b61457790600387016000526020600020601f850160051c810191602086106107d057601f0160051c0190616ddd565b8761415f565b90915060005260206000206000905b8282106145a25750508101602001826014614066565b602091929350806001915483858a01015201910185929161458c565b60ff19166020808701919091528315159093028501909201925084915060149050614066565b50509061403090614018565b60405162461bcd60e51b8152602060048201526015602482015274131a595b88185b1c9958591e481c995b19585cd959605a1b6044820152606490fd5b346102b75760203660031901126102b75760043560005260076020526020600160406000200154604051908152f35b346102b757610e5b61466d36615fa2565b9161467b611ce48433616831565b6168f9565b346102b75760403660031901126102b757614699615f1e565b602435906001600160a01b0380806146b085616712565b169216918083146147ab57803314908115614786575b501561471b57600083815260046020526040902080546001600160a01b031916831790556146f383616712565b167f8c5be1e5ebec7d5bd14f71427d1e84f3dd0314c0f7b2291e5b200ac8c7c3b925600080a4005b60405162461bcd60e51b815260206004820152603d60248201527f4552433732313a20617070726f76652063616c6c6572206973206e6f7420746f60448201527f6b656e206f776e6572206f7220617070726f76656420666f7220616c6c0000006064820152608490fd5b9050600052600560205260406000203360005260205260ff60406000205416846146c6565b60405162461bcd60e51b815260206004820152602160248201527f4552433732313a20617070726f76616c20746f2063757272656e74206f776e656044820152603960f91b6064820152608490fd5b346102b75760203660031901126102b7576020612c14600435616735565b346102b75760003660031901126102b75760405160009060005461483b81616148565b808352600191808316908115611eb75750600114614863576102b3836103f781870382615e75565b600080805260209450917f290decd9548b62a8d60345a988386fc84ba6bc95484008f6362f93160ef3e5635b8284106148a8575050508101909101906103f781611e69565b805485850187015292850192810161488f565b346102b7576102003660031901126102b7576004356001600160401b0381116102b7576148ec903690600401615eea565b6148f4615f08565b6044356001600160401b0381116102b757614913903690600401615eea565b916064356001600160401b0381116102b757614933903690600401615eea565b926084356001600160401b0381116102b757614953903690600401615eea565b9360a4356001600160401b0381116102b757614973903690600401615eea565b9160c4356001600160401b0381116102b757614993903690600401615eea565b93600a60e43510156102b7576101c4356001600160401b0381116102b7576149bf903690600401615eea565b906101e4356001600160401b0381116102b7576149e0903690600401615eea565b926149e9616260565b815115615d26576040516020818451614a058183858901615f34565b8101601081520301902054615ce3576101043515615c92576107086101a4351180615c73575b15615c3957614a38616c82565b96614a41616c82565b96604051614a4e81615e09565b60078152666164647265737360c81b6020820152614a6b8a616d29565b52614a7589616d29565b5082614a8089616d29565b52614a8a88616d29565b50604051614a9781615e09565b60048152636369747960e01b6020820152614ab18a616d36565b52614abb89616d36565b5086614ac689616d36565b52614ad088616d36565b50604051614add81615e09565b6005815264737461746560d81b6020820152614af88a616d46565b52614b0289616d46565b508a614b0d89616d46565b52614b1788616d46565b50604051614b2481615e09565b600a815269706f7374616c436f646560b01b6020820152614b448a616d56565b52614b4e89616d56565b5080614b5989616d56565b52614b6388616d56565b50604051614b7081615e09565b6007815266636f756e74727960c81b6020820152614b8d8a616d66565b52614b9789616d66565b5081614ba289616d66565b52614bac88616d66565b50604051614bb981615e09565b600c81526b7371756172654d657465727360a01b6020820152614bdb8a616d76565b52614be589616d76565b50614bf261010435616f45565b614bfb89616d76565b52614c0588616d76565b50604051614c1281615e09565b60098152686275696c744172656160b81b6020820152614c318a616d86565b52614c3b89616d86565b50614c4861012435616f45565b614c5189616d86565b52614c5b88616d86565b50604051614c6881615e09565b6008815267626564726f6f6d7360c01b6020820152614c868a616d96565b52614c9089616d96565b50614c9d61014435616f45565b614ca689616d96565b52614cb088616d96565b50604051614cbd81615e09565b600981526862617468726f6f6d7360b81b6020820152614cdc8a616da7565b52614ce689616da7565b50614cf361016435616f45565b614cfc89616da7565b52614d0688616da7565b50604051614d1381615e09565b60098152681e59585c909d5a5b1d60ba1b6020820152614d328a616db8565b52614d3c89616db8565b50614d496101a435616f45565b614d5289616db8565b52614d5c88616db8565b50614d6984511515617005565b614d7d6001600160a01b038b16151561704c565b614d9560405160208187516105af8183858c01615f34565b614da289518951146170dd565b614dc06009549660018801600955614dba888d61717b565b8761729b565b6000868152600a602052604090208451909b906001600160401b0381116107da578c614dec8154616148565b601f8111615c07575b50508b8d6020601f8411600114615b94579083614e3c94600193600091615b89575b50600019600383901b1c191690831b1781555b8101805460ff19169091178155617129565b4260028d015560038c0161010061ffff198254161790554260048d015560005b8a51811015614f90578c614e848c6106bb8460058f82614e7b91616dc9565b51950192616dc9565b815190916001600160401b0382116107da57614ea08354616148565b601f8111614f5e575b50602090601f8311600114614ef057614ee09493929160009183614ee55750508160011b916000199060031b1c1916179055616ee7565b614e5c565b015190503880610705565b908360005260206000209160005b601f1985168110614f465750918391600193614ee0979695601f19811610614f2d57505050811b019055616ee7565b015160001960f88460031b161c1916905538808061075f565b91926020600181928685015181550194019201614efe565b614f8a90846000526020600020601f850160051c810191602086106107d057601f0160051c0190616ddd565b38614ea9565b508a8760405160208181614faa8b83815193849201615f34565b8101600c8152030190205560018060a01b038116600052600d602052614fd4886040600020616e7d565b604051614fe081615e24565b60008152614fec61714e565b9089600052600b60205261500360406000206174df565b50805460ff191681554260018201556002810180546001600160a01b03191633179055825190926001600160401b0382116107da5781906150476003860154616148565b601f8111615b54575b50602090601f8311600114615ae257600092615ad7575b50508160011b916000199060031b1c19161760038301555b60006004830155805190600160401b82116107da576005830154826005850155808310615a5f575b5090600560208c9594930192016000526020600020916000905b82821061594157505050506000805160206175e1833981519152906040518091606082526150f2606083018b615f7d565b600160208401526001600160a01b0390911660408301520390a26000878152600e6020526040902085519098906001600160401b0381116107da576151378a54616148565b601f811161590f575b50806020601f82116001146158a85760009161589d575b508160011b916000199060031b1c19161789555b84516001600160401b0381116107da5761518860018b0154616148565b601f8111615868575b50806020601f82116001146157fb576000916157f0575b508160011b916000199060031b1c19161760018a01555b8051906001600160401b0382116107da5781906151df60028c0154616148565b601f81116157bb575b50602090601f83116001146157495760009261573e575b50508160011b916000199060031b1c19161760028901555b8051906001600160401b0382116107da57819061523760038b0154616148565b601f8111615709575b50602090601f83116001146156975760009261568c575b50508160011b916000199060031b1c19161760038801555b8051906001600160401b0382116107da57819061528f60048a0154616148565b601f8111615657575b50602090601f83116001146155e5576000926155da575b50508160011b916000199060031b1c19161760048701555b8051906001600160401b0382116107da5781906152e76005890154616148565b601f81116155a5575b50602090601f831160011461553357600092615528575b50508160011b916000199060031b1c19161760058601555b6006850161532e60e43561613e565b805460ff191660ff60e4351617905561010435600786015561012435600886015561014435600986015561016435600a86015561018435600b8601556101a435600c8601558251946001600160401b0386116107da576020958594615396600d840154616148565b601f81116154f5575b508790601f8311600114615469576010600080516020617561833981519152969484615453956154339895600095869261545e575b50508160011b9185199060031b1c191617600d8201555b600e810160ff19815416905582600f820155015585604051898186516154148183858b01615f34565b8101601081520301902055604051938493606085526060850190615f7d565b9061543f60e43561613e565b60e435898501528382036040850152615f7d565b0390a2604051908152f35b015190508d806153d4565b90600d8401600052886000209160005b601f19851681106154db57506000805160206175618339815191529694600185615433989560009560109561545399601f198116106154c3575b505050811b01600d8201556153eb565b0151861960f88460031b161c191690558d80806154b3565b818301518455899850600190930192918a01918a01615479565b61552290600d850160005289600020601f850160051c8101918b86106107d057601f0160051c0190616ddd565b8861539f565b015190508780615307565b9250600588016000526020600020906000935b601f198416851061558a576001945083601f19811610615571575b505050811b01600586015561531f565b015160001960f88460031b161c19169055878080615561565b81810151835560209485019460019093019290910190615546565b6155d49060058a016000526020600020601f850160051c810191602086106107d057601f0160051c0190616ddd565b886152f0565b0151905088806152af565b9250600489016000526020600020906000935b601f198416851061563c576001945083601f19811610615623575b505050811b0160048701556152c7565b015160001960f88460031b161c19169055888080615613565b818101518355602094850194600190930192909101906155f8565b6156869060048b016000526020600020601f850160051c810191602086106107d057601f0160051c0190616ddd565b89615298565b015190508980615257565b925060038a016000526020600020906000935b601f19841685106156ee576001945083601f198116106156d5575b505050811b01600388015561526f565b015160001960f88460031b161c191690558980806156c5565b818101518355602094850194600190930192909101906156aa565b6157389060038c016000526020600020601f850160051c810191602086106107d057601f0160051c0190616ddd565b8a615240565b015190508a806151ff565b925060028b016000526020600020906000935b601f19841685106157a0576001945083601f19811610615787575b505050811b016002890155615217565b015160001960f88460031b161c191690558a8080615777565b8181015183556020948501946001909301929091019061575c565b6157ea9060028d016000526020600020601f850160051c810191602086106107d057601f0160051c0190616ddd565b8b6151e8565b90508601518b6151a8565b915060018b0160005260206000206000925b601f1983168410615850576001935082601f19811610615837575b5050811b0160018a01556151bf565b88015160001960f88460031b161c191690558b80615828565b8881015182556020938401936001909201910161580d565b6158979060018c016000526020600020601f840160051c810191602085106107d057601f0160051c0190616ddd565b8a615191565b90508701518b615157565b91508a60005260206000206000925b601f19831684106158f7576001935082601f198116106158de575b5050811b01895561516b565b89015160001960f88460031b161c191690558b806158d2565b898101518255602093840193600190920191016158b7565b61593b908b6000526020600020601f840160051c810191602085106107d057601f0160051c0190616ddd565b8a615140565b809192939495505180519060018060401b0382116107da576159638654616148565b601f8111615a2d575b50602090601f83116001146159bd5792826001949360209386956000926159b2575b5050600019600383901b1c191690841b1787555b01940191018b94939291926150c1565b01519050388061598e565b908660005260206000209160005b601f1985168110615a15575083602093600196938796938794601f198116106159fc575b505050811b0187556159a2565b015160001960f88460031b161c191690553880806159ef565b919260206001819286850151815501940192016159cb565b615a5990876000526020600020601f850160051c810191602086106107d057601f0160051c0190616ddd565b8f61596c565b600584016000526020600020908382015b8183018110615a805750506150a7565b80615a8d60019254616148565b80615a9a575b5001615a70565b601f81118314615ab05750600081555b38615a93565b600090828252615ace601f60208420920160051c8201858301616ddd565b81835555615aaa565b015190508d80615067565b9250600385016000526020600020906000935b601f1984168510615b39576001945083601f19811610615b20575b505050811b01600383015561507f565b015160001960f88460031b161c191690558d8080615b10565b81810151835560209485019460019093019290910190615af5565b615b8390600387016000526020600020601f850160051c810191602086106107d057601f0160051c0190616ddd565b8e615050565b90508a015138614e17565b8160005260206000209060005b601f1986168110615be8575084600193928492614e3c97601f19811610615bcf575b5050811b018155614e2a565b8c015160001960f88460031b161c191690553880615bc3565b92509250602060018192858c015181550193019101918f918f93615ba1565b615c32916000526020600020601f840160051c810191602085106107d057601f0160051c0190616ddd565b8c8e614df5565b60405162461bcd60e51b8152602060048201526012602482015271125b9d985b1a59081e59585c88189d5a5b1d60721b6044820152606490fd5b506301e1338042046107b28101809111611388576101a4351115614a2b565b60405162461bcd60e51b8152602060048201526024808201527f537175617265206d6574657273206d75737420626520677265617465722074686044820152630616e20360e41b6064820152608490fd5b60405162461bcd60e51b815260206004820152601b60248201527a43616461737472616c20494420616c72656164792065786973747360281b6044820152606490fd5b60405162461bcd60e51b815260206004820152601c60248201527b43616461737472616c2049442063616e6e6f7420626520656d70747960201b6044820152606490fd5b346102b75760203660031901126102b7576004359063ffffffff60e01b82168092036102b757602091637965db0b60e01b8114908115615dac575b5015158152f35b632483248360e11b811491508115615dc6575b5083615da5565b6380ac58cd60e01b811491508115615df8575b8115615de7575b5083615dbf565b6301ffc9a760e01b14905083615de0565b635b5e139f60e01b81149150615dd9565b604081019081106001600160401b038211176107da57604052565b602081019081106001600160401b038211176107da57604052565b606081019081106001600160401b038211176107da57604052565b608081019081106001600160401b038211176107da57604052565b601f909101601f19168101906001600160401b038211908210176107da57604052565b6001600160401b0381116107da57601f01601f191660200190565b929192615ebf82615e98565b91615ecd6040519384615e75565b8294818452818301116102b7578281602093846000960137010152565b9080601f830112156102b757816020615f0593359101615eb3565b90565b602435906001600160a01b03821682036102b757565b600435906001600160a01b03821682036102b757565b60005b838110615f475750506000910152565b8181015183820152602001615f37565b602090615f71928260405194838680955193849201615f34565b82019081520301902090565b90602091615f9681518092818552858086019101615f34565b601f01601f1916010190565b60609060031901126102b7576001600160a01b039060043582811681036102b7579160243590811681036102b7579060443590565b60409060031901126102b7576004359060243590565b92616008615f0597959296939660c0865260c0860190615f7d565b60208501969096526001600160a01b0316604084015260608301521515608082015280830360a090910152615f7d565b90815180825260208080930193019160005b828110616058575050505090565b83518552938101939281019260010161604a565b90600e8210156160795752565b634e487b7160e01b600052602160045260246000fd5b80548210156129d15760005260206000200190600090565b6001600160401b0381116107da5760051b60200190565b9080601f830112156102b7578135906160d6826160a7565b926160e46040519485615e75565b828452602092838086019160051b830101928084116102b757848301915b8483106161125750505050505090565b82356001600160401b0381116102b757869161613384848094890101615eea565b815201920191616102565b600a111561607957565b90600182811c92168015616178575b602083101461616257565b634e487b7160e01b600052602260045260246000fd5b91607f1691616157565b906040519182600082549261619684616148565b90818452600194858116908160001461620557506001146161c2575b50506161c092500383615e75565b565b9093915060005260209081600020936000915b8183106161ed5750506161c0935082010138806161b2565b855488840185015294850194879450918301916161d5565b9150506161c094506020925060ff191682840152151560051b82010138806161b2565b80548210156129d1576000526007602060002091020190600090565b80548210156129d1576000526006602060002091020190600090565b3360009081527f963cba417b6349c72e41d1f4ceb490135a07f0124085613db031b1d53b120382602090815260408083205490926000805160206175018339815191529160ff16156162b25750505050565b6162bb33616bc8565b918451906162c882615e5a565b6042825284820192606036853782511561640a576030845382519060019182101561640a5790607860218501536041915b81831161639c5750505061636c5760486131109386936163509361634198519889936000805160206175818339815191528a8601526130b8815180928c603789019101615f34565b01036028810187520185615e75565b5192839262461bcd60e51b845260048401526024830190615f7d565b60648486519062461bcd60e51b825280600483015260248201526000805160206175218339815191526044820152fd5b909192600f811660108110156163f6576f181899199a1a9b1b9c1cb0b131b232b360811b901a6163cc8587616bb7565b5360041c9280156163e2576000190191906162f9565b634e487b7160e01b82526011600452602482fd5b634e487b7160e01b83526032600452602483fd5b634e487b7160e01b81526032600452602490fd5b3360009081527feac5c60f35588055bbb86ef7f5a30bb5677c3d590e5c178a26cb24e83190b2b9602090815260408083205490926000805160206175a18339815191529160ff16156164705750505050565b61647933616bc8565b9184519061648682615e5a565b6042825284820192606036853782511561640a576030845382519060019182101561640a5790607860218501536041915b8183116164ff5750505061636c5760486131109386936163509361634198519889936000805160206175818339815191528a8601526130b8815180928c603789019101615f34565b909192600f811660108110156163f6576f181899199a1a9b1b9c1cb0b131b232b360811b901a61652f8587616bb7565b5360041c9280156163e2576000190191906164b7565b60009080825260209060078252604092838120338252835260ff84822054161561656f5750505050565b61657833616bc8565b9184519061658582615e5a565b6042825284820192606036853782511561640a576030845382519060019182101561640a5790607860218501536041915b8183116165fe5750505061636c5760486131109386936163509361634198519889936000805160206175818339815191528a8601526130b8815180928c603789019101615f34565b909192600f811660108110156163f6576f181899199a1a9b1b9c1cb0b131b232b360811b901a61662e8587616bb7565b5360041c9280156163e2576000190191906165b6565b9060ff801983541691151516179055565b906000918083526007602052604083209160018060a01b03169182845260205260ff60408420541661668657505050565b8083526007602052604083208284526020526040832060ff1981541690557ff6391f5c32d9c69d2a47ea670b442974b53935d1edc7fd64eb21e047a839171b339380a4565b156166d257565b60405162461bcd60e51b8152602060048201526018602482015277115490cdcc8c4e881a5b9d985b1a59081d1bdad95b88125160421b6044820152606490fd5b6000908152600260205260409020546001600160a01b0316615f058115156166cb565b61674161150b826169f5565b6000908152600460205260409020546001600160a01b031690565b1561676357565b60405162461bcd60e51b815260206004820152602d60248201527f4552433732313a2063616c6c6572206973206e6f7420746f6b656e206f776e6560448201526c1c881bdc88185c1c1c9bdd9959609a1b6064820152608490fd5b60809060208152603260208201527f4552433732313a207472616e7366657220746f206e6f6e20455243373231526560408201527131b2b4bb32b91034b6b83632b6b2b73a32b960711b60608201520190565b1561681857565b60405162461bcd60e51b815280613110600482016167be565b906001600160a01b03808061684584616712565b16931691838314938415616878575b508315616862575b50505090565b61686e91929350616735565b161438808061685c565b909350600052600560205260406000208260005260205260ff604060002054169238616854565b156168a657565b60405162461bcd60e51b815260206004820152602560248201527f4552433732313a207472616e736665722066726f6d20696e636f72726563742060448201526437bbb732b960d91b6064820152608490fd5b906169219161690784616712565b6001600160a01b039391841692849290918316841461689f565b169182156169a4578161693e9161693786616712565b161461689f565b6000805160206175c1833981519152600084815260046020526040812060018060a01b03199081815416905583825260036020526040822060001981540190558482526040822060018154019055858252600260205284604083209182541617905580a4565b60405162461bcd60e51b8152602060048201526024808201527f4552433732313a207472616e7366657220746f20746865207a65726f206164646044820152637265737360e01b6064820152608490fd5b6000908152600260205260409020546001600160a01b0316151590565b91929091803b15616b2757616a5f936040519081630a85bd0160e11b9384825233600483015260009687602484015260448301526080606483015281878160209a8b966084830190615f7d565b03926001600160a01b03165af1849181616ae3575b50616ad2575050503d600014616aca573d616a8e81615e98565b90616a9c6040519283615e75565b81528091833d92013e5b80519182616ac75760405162461bcd60e51b815280613110600482016167be565b01fd5b506060616aa6565b6001600160e01b0319161492509050565b9091508581813d8311616b20575b616afb8183615e75565b81010312616b1c57516001600160e01b031981168103616b1c579038616a74565b8480fd5b503d616af1565b50915050600190565b92939190803b15616bad57616b82946040518092630a85bd0160e11b9485835233600484015260018060a01b03809816602484015260448301526080606483015281806020998a956084830190615f7d565b03916000988991165af1849181616ae35750616ad2575050503d600014616aca573d616a8e81615e98565b5050915050600190565b9081518110156129d1570160200190565b60405190616bd582615e3f565b602a82526020820160403682378251156129d1576030905381516001908110156129d157607860218401536029905b808211616c145750506131145790565b9091600f81166010811015616c6d576f181899199a1a9b1b9c1cb0b131b232b360811b901a616c438486616bb7565b5360041c918015616c58576000190190616c04565b60246000634e487b7160e01b81526011600452fd5b60246000634e487b7160e01b81526032600452fd5b6040519061016082016001600160401b038111838210176107da57604052600a82528160005b6101408110616cb5575050565b806060602080938501015201616ca8565b604051616cd281615e09565b600181528060005b60208082101561685c57906060602092828501015201616cda565b604090815191616d0483615e3f565b600283528260005b828110616d1857505050565b806060602080938501015201616d0c565b8051156129d15760200190565b8051600110156129d15760400190565b8051600210156129d15760600190565b8051600310156129d15760800190565b8051600410156129d15760a00190565b8051600510156129d15760c00190565b8051600610156129d15760e00190565b8051600710156129d1576101000190565b8051600810156129d1576101200190565b8051600910156129d1576101400190565b80518210156129d15760209160051b010190565b818110616de8575050565b60008155600101616ddd565b15616dfb57565b60405162461bcd60e51b8152602060048201526017602482015276141c9bdc195c9d1e48191bd95cc81b9bdd08195e1a5cdd604a1b6044820152606490fd5b15616e4157565b60405162461bcd60e51b8152602060048201526014602482015273139bdd0818481c1c9bdc195c9d1e48185cdcd95d60621b6044820152606490fd5b80549190600160401b8310156107da5782610f5e9160016161c09501815561608f565b15616ea757565b60405162461bcd60e51b81526020600482015260186024820152774c69656e20696e646578206f7574206f6620626f756e647360401b6044820152606490fd5b60001981146113885760010190565b9060405191828154918282526020928383019160005283600020936000905b828210616f2b575050506161c092500383615e75565b855484526001958601958895509381019390910190616f15565b8015616fe75780816000925b616fd15750616f5f82615e98565b91616f6d6040519384615e75565b80835281601f19616f7d83615e98565b013660208601375b616f8e57505090565b6000198101908111611388578091600a91603083830681018091116113885760f81b6001600160f81b03191660001a90616fc89086616bb7565b53049081616f85565b9091616fde600a91616ee7565b92910480616f51565b50604051616ff481615e09565b60018152600360fc1b602082015290565b1561700c57565b60405162461bcd60e51b815260206004820152601860248201527741737365742049442063616e6e6f7420626520656d70747960401b6044820152606490fd5b1561705357565b60405162461bcd60e51b815260206004820152601c60248201527b4f776e65722063616e6e6f74206265207a65726f206164647265737360201b6044820152606490fd5b1561709e57565b60405162461bcd60e51b8152602060048201526017602482015276417373657420494420616c72656164792065786973747360481b6044820152606490fd5b156170e457565b60405162461bcd60e51b815260206004820152601f60248201527f4d6574616461746120617272617973206c656e677468206d69736d61746368006044820152606490fd5b8054610100600160a81b03191660089290921b610100600160a81b0316919091179055565b6040519061715b82615e09565b6011825270105cdcd95d081391950818dc99585d1959607a1b6020830152565b60405161718781615e24565b6000808252926001600160a01b03831692831561720c5781611cf9946161c0966171b96171b3846169f5565b15617250565b6171c56171b3846169f5565b818152600360209081526040808320805460010190558483526002909152812080546001600160a01b031916831790556000805160206175c18339815191528180a4616a12565b606460405162461bcd60e51b815260206004820152602060248201527f4552433732313a206d696e7420746f20746865207a65726f20616464726573736044820152fd5b1561725757565b60405162461bcd60e51b815260206004820152601c60248201527b115490cdcc8c4e881d1bdad95b88185b1c9958591e481b5a5b9d195960221b6044820152606490fd5b9190916172a7816169f5565b156173e8576000818152600660209081526040822085519193929091906001600160401b0382116173d4576172dc8354616148565b601f81116173a6575b508490601f83116001146173345790600080516020617621833981519152969783617329575b50508160011b916000199060031b1c19161790555b604051908152a1565b01519050388061730b565b9196601f198816848452868420935b81811061738f5750916001939189600080516020617621833981519152999a9410617376575b505050811b019055617320565b015160001960f88460031b161c19169055388080617369565b929387600181928786015181550195019301617343565b6173ce90848352868320601f850160051c8101918886106107d057601f0160051c0190616ddd565b386172e5565b634e487b7160e01b81526041600452602490fd5b60405162461bcd60e51b815260206004820152602e60248201527f45524337323155524953746f726167653a2055524920736574206f66206e6f6e60448201526d32bc34b9ba32b73a103a37b5b2b760911b6064820152608490fd5b1561744b57565b60405162461bcd60e51b8152602060048201526014602482015273105cdcd95d08191bd95cc81b9bdd08195e1a5cdd60621b6044820152606490fd5b1561748e57565b60405162461bcd60e51b8152602060048201526024808201527f437573746f6d206669656c647320617272617973206c656e677468206d69736d6044820152630c2e8c6d60e31b6064820152608490fd5b8054600160401b8110156107da576174fc91600182018155616228565b909156fef3dbd55030dd16e8ccaca9e44af740ec8b918b9d031f90f4cc45bfb2c3a05f51537472696e67733a20686578206c656e67746820696e73756666696369656e74589f5f1b831c2b1bb6368f38c84e2a21507d083cfa73f4d227d7f3d4895df76603f5f34aae7ce4fb79bec38fbb216c4a81ce07585b08884c628a95dbea946e57416363657373436f6e74726f6c3a206163636f756e742000000000000000000073e573f9566d61418a34d5de3ff49360f9c51fec37f7486551670290f6285dabddf252ad1be2c89b69c2b068fc378daa952ba7f163c4a11628f55a4df523b3ef9e7a448dd8b77230ae8b9ea14d1b4e3246e353147bcd43e5abd7402e9ac373aa0ce23c3e399818cfee81a7ab0880f714e53d7672b08df0fa62f2843416e1ea09f8e1a15aba9398e019f0b49df1a4fde98ee17ae345cb5f6b5e2c27f5033e8ce7a2646970667358221220b80755ea01fa4d03001311afd3ff058799a56d5732d825faef298d29217e402c64736f6c634300081400332f8788117e7eff1d82e926ec794901d17c78024a50270940304540a733656f0d",
  "linkReferences": {},
  "deployedLinkReferences": {}
}