{"contracts/KustodiaEscrow.sol":{"KustodiaEscrow":{"abi":[{"inputs":[{"internalType":"address","name":"_mxnbToken","type":"address"},{"internalType":"address","name":"_platformWallet","type":"address"}],"stateMutability":"nonpayable","type":"constructor"},{"anonymous":false,"inputs":[{"indexed":true,"internalType":"uint256","name":"escrowId","type":"uint256"},{"indexed":false,"internalType":"uint256","name":"amount","type":"uint256"},{"indexed":false,"internalType":"address","name":"to","type":"address"}],"name":"CustodyReleased","type":"event"},{"anonymous":false,"inputs":[{"indexed":true,"internalType":"uint256","name":"escrowId","type":"uint256"},{"indexed":false,"internalType":"address","name":"by","type":"address"}],"name":"DisputeRaised","type":"event"},{"anonymous":false,"inputs":[{"indexed":true,"internalType":"uint256","name":"escrowId","type":"uint256"},{"indexed":false,"internalType":"bool","name":"releasedToSeller","type":"bool"}],"name":"DisputeResolved","type":"event"},{"anonymous":false,"inputs":[{"indexed":true,"internalType":"uint256","name":"escrowId","type":"uint256"},{"indexed":true,"internalType":"address","name":"buyer","type":"address"},{"indexed":true,"internalType":"address","name":"seller","type":"address"},{"indexed":false,"internalType":"uint256","name":"custodyAmount","type":"uint256"},{"indexed":false,"internalType":"uint256","name":"custodyEnd","type":"uint256"}],"name":"EscrowCreated","type":"event"},{"anonymous":false,"inputs":[{"indexed":true,"internalType":"uint256","name":"escrowId","type":"uint256"},{"indexed":false,"internalType":"uint256","name":"amount","type":"uint256"},{"indexed":false,"internalType":"address","name":"to","type":"address"}],"name":"ImmediateRelease","type":"event"},{"anonymous":false,"inputs":[{"indexed":true,"internalType":"address","name":"previousOwner","type":"address"},{"indexed":true,"internalType":"address","name":"newOwner","type":"address"}],"name":"OwnershipTransferred","type":"event"},{"inputs":[],"name":"FEE_BPS","outputs":[{"internalType":"uint256","name":"","type":"uint256"}],"stateMutability":"view","type":"function"},{"inputs":[{"internalType":"address","name":"seller","type":"address"},{"internalType":"uint256","name":"custodyAmount","type":"uint256"},{"internalType":"uint256","name":"custodyPeriod","type":"uint256"}],"name":"createEscrow","outputs":[],"stateMutability":"nonpayable","type":"function"},{"inputs":[],"name":"escrowCounter","outputs":[{"internalType":"uint256","name":"","type":"uint256"}],"stateMutability":"view","type":"function"},{"inputs":[{"internalType":"uint256","name":"","type":"uint256"}],"name":"escrows","outputs":[{"internalType":"address","name":"buyer","type":"address"},{"internalType":"address","name":"seller","type":"address"},{"internalType":"uint256","name":"custodyAmount","type":"uint256"},{"internalType":"uint256","name":"custodyEnd","type":"uint256"},{"internalType":"enum KustodiaEscrow.EscrowStatus","name":"status","type":"uint8"}],"stateMutability":"view","type":"function"},{"inputs":[],"name":"mxnbToken","outputs":[{"internalType":"contract IERC20","name":"","type":"address"}],"stateMutability":"view","type":"function"},{"inputs":[],"name":"owner","outputs":[{"internalType":"address","name":"","type":"address"}],"stateMutability":"view","type":"function"},{"inputs":[],"name":"platformWallet","outputs":[{"internalType":"address","name":"","type":"address"}],"stateMutability":"view","type":"function"},{"inputs":[{"internalType":"uint256","name":"escrowId","type":"uint256"}],"name":"raiseDispute","outputs":[],"stateMutability":"nonpayable","type":"function"},{"inputs":[{"internalType":"uint256","name":"escrowId","type":"uint256"}],"name":"releaseCustody","outputs":[],"stateMutability":"nonpayable","type":"function"},{"inputs":[],"name":"renounceOwnership","outputs":[],"stateMutability":"nonpayable","type":"function"},{"inputs":[{"internalType":"uint256","name":"escrowId","type":"uint256"},{"internalType":"bool","name":"releaseToSeller","type":"bool"}],"name":"resolveDispute","outputs":[],"stateMutability":"nonpayable","type":"function"},{"inputs":[{"internalType":"address","name":"newOwner","type":"address"}],"name":"transferOwnership","outputs":[],"stateMutability":"nonpayable","type":"function"}],"evm":{"bytecode":{"linkReferences":{},"object":"60806040523480156200001157600080fd5b5060405162001c1f38038062001c1f833981810160405281019062000037919062000217565b620000576200004b620000e160201b60201c565b620000e960201b60201c565b81600160006101000a81548173ffffffffffffffffffffffffffffffffffffffff021916908373ffffffffffffffffffffffffffffffffffffffff16021790555080600260006101000a81548173ffffffffffffffffffffffffffffffffffffffff021916908373ffffffffffffffffffffffffffffffffffffffff16021790555050506200025e565b600033905090565b60008060009054906101000a900473ffffffffffffffffffffffffffffffffffffffff169050816000806101000a81548173ffffffffffffffffffffffffffffffffffffffff021916908373ffffffffffffffffffffffffffffffffffffffff1602179055508173ffffffffffffffffffffffffffffffffffffffff168173ffffffffffffffffffffffffffffffffffffffff167f8be0079c531659141344cd1fd0a4f28419497f9722a3daafe3b4186f6b6457e060405160405180910390a35050565b600080fd5b600073ffffffffffffffffffffffffffffffffffffffff82169050919050565b6000620001df82620001b2565b9050919050565b620001f181620001d2565b8114620001fd57600080fd5b50565b6000815190506200021181620001e6565b92915050565b60008060408385031215620002315762000230620001ad565b5b6000620002418582860162000200565b9250506020620002548582860162000200565b9150509250929050565b6119b1806200026e6000396000f3fe608060405234801561001057600080fd5b50600436106100b45760003560e01c8063a5c1674e11610071578063a5c1674e1461016b578063bf333f2c14610187578063c7ceafea146101a5578063e2ecb311146101c3578063f2fde38b146101df578063fa2af9da146101fb576100b4565b8063012f52ee146100b957806334b25ee2146100ed5780634043cd9514610109578063715018a6146101275780638da5cb5b146101315780639526592f1461014f575b600080fd5b6100d360048036038101906100ce9190610fbc565b610219565b6040516100e49594939291906110b0565b60405180910390f35b6101076004803603810190610102919061113b565b61029c565b005b6101116105b7565b60405161011e91906111da565b60405180910390f35b61012f6105dd565b005b6101396105f1565b60405161014691906111f5565b60405180910390f35b61016960048036038101906101649190610fbc565b61061a565b005b61018560048036038101906101809190610fbc565b61088e565b005b61018f610a72565b60405161019c9190611210565b60405180910390f35b6101ad610a77565b6040516101ba9190611210565b60405180910390f35b6101dd60048036038101906101d89190611257565b610a7d565b005b6101f960048036038101906101f491906112aa565b610d8e565b005b610203610e11565b60405161021091906111f5565b60405180910390f35b60046020528060005260406000206000915090508060000160009054906101000a900473ffffffffffffffffffffffffffffffffffffffff16908060010160009054906101000a900473ffffffffffffffffffffffffffffffffffffffff16908060020154908060030154908060040160009054906101000a900460ff16905085565b6102a4610e37565b6000600460008481526020019081526020016000209050600260048111156102cf576102ce611039565b5b8160040160009054906101000a900460ff1660048111156102f3576102f2611039565b5b14610333576040517f08c379a000000000000000000000000000000000000000000000000000000000815260040161032a90611334565b60405180910390fd5b60038160040160006101000a81548160ff0219169083600481111561035b5761035a611039565b5b0217905550811561047257600160009054906101000a900473ffffffffffffffffffffffffffffffffffffffff1673ffffffffffffffffffffffffffffffffffffffff1663a9059cbb8260010160009054906101000a900473ffffffffffffffffffffffffffffffffffffffff1683600201546040518363ffffffff1660e01b81526004016103eb929190611354565b6020604051808303816000875af115801561040a573d6000803e3d6000fd5b505050506040513d601f19601f8201168201806040525081019061042e9190611392565b61046d576040517f08c379a00000000000000000000000000000000000000000000000000000000081526004016104649061140b565b60405180910390fd5b61057a565b600160009054906101000a900473ffffffffffffffffffffffffffffffffffffffff1673ffffffffffffffffffffffffffffffffffffffff1663a9059cbb8260000160009054906101000a900473ffffffffffffffffffffffffffffffffffffffff1683600201546040518363ffffffff1660e01b81526004016104f7929190611354565b6020604051808303816000875af1158015610516573d6000803e3d6000fd5b505050506040513d601f19601f8201168201806040525081019061053a9190611392565b610579576040517f08c379a000000000000000000000000000000000000000000000000000000000815260040161057090611477565b60405180910390fd5b5b827f5a87909bff68caaaaf0b3fd9c74eeccc928832f879315e5c6fb7a73612f26c0c836040516105aa91906114a6565b60405180910390a2505050565b600160009054906101000a900473ffffffffffffffffffffffffffffffffffffffff1681565b6105e5610e37565b6105ef6000610eb5565b565b60008060009054906101000a900473ffffffffffffffffffffffffffffffffffffffff16905090565b610622610e37565b60006004600083815260200190815260200160002090506000600481111561064d5761064c611039565b5b8160040160009054906101000a900460ff16600481111561067157610670611039565b5b146106b1576040517f08c379a00000000000000000000000000000000000000000000000000000000081526004016106a89061150d565b60405180910390fd5b80600301544210156106f8576040517f08c379a00000000000000000000000000000000000000000000000000000000081526004016106ef90611579565b60405180910390fd5b60018160040160006101000a81548160ff021916908360048111156107205761071f611039565b5b0217905550600160009054906101000a900473ffffffffffffffffffffffffffffffffffffffff1673ffffffffffffffffffffffffffffffffffffffff1663a9059cbb600260009054906101000a900473ffffffffffffffffffffffffffffffffffffffff1683600201546040518363ffffffff1660e01b81526004016107a8929190611354565b6020604051808303816000875af11580156107c7573d6000803e3d6000fd5b505050506040513d601f19601f820116820180604052508101906107eb9190611392565b61082a576040517f08c379a0000000000000000000000000000000000000000000000000000000008152600401610821906115e5565b60405180910390fd5b817f1ab7e153e445011096686e7d6cdde884e5b3a4c5c1e49b1087e4a64d6850e1308260020154600260009054906101000a900473ffffffffffffffffffffffffffffffffffffffff16604051610882929190611605565b60405180910390a25050565b60006004600083815260200190815260200160002090508060000160009054906101000a900473ffffffffffffffffffffffffffffffffffffffff1673ffffffffffffffffffffffffffffffffffffffff163373ffffffffffffffffffffffffffffffffffffffff16148061095257508060010160009054906101000a900473ffffffffffffffffffffffffffffffffffffffff1673ffffffffffffffffffffffffffffffffffffffff163373ffffffffffffffffffffffffffffffffffffffff16145b610991576040517f08c379a00000000000000000000000000000000000000000000000000000000081526004016109889061167a565b60405180910390fd5b600060048111156109a5576109a4611039565b5b8160040160009054906101000a900460ff1660048111156109c9576109c8611039565b5b14610a09576040517f08c379a0000000000000000000000000000000000000000000000000000000008152600401610a009061150d565b60405180910390fd5b60028160040160006101000a81548160ff02191690836004811115610a3157610a30611039565b5b0217905550817f84a477df8a28a4276ca6dee4458a06c3015f30c477d9c949ede4e13ff8a552b433604051610a6691906111f5565b60405180910390a25050565b609681565b60035481565b60008211610ac0576040517f08c379a0000000000000000000000000000000000000000000000000000000008152600401610ab7906116e6565b60405180910390fd5b600160009054906101000a900473ffffffffffffffffffffffffffffffffffffffff1673ffffffffffffffffffffffffffffffffffffffff166323b872dd3330856040518463ffffffff1660e01b8152600401610b1f93929190611706565b6020604051808303816000875af1158015610b3e573d6000803e3d6000fd5b505050506040513d601f19601f82011682018060405250810190610b629190611392565b610ba1576040517f08c379a0000000000000000000000000000000000000000000000000000000008152600401610b9890611789565b60405180910390fd5b6040518060a001604052803373ffffffffffffffffffffffffffffffffffffffff1681526020018473ffffffffffffffffffffffffffffffffffffffff1681526020018381526020018242610bf691906117d8565b815260200160006004811115610c0f57610c0e611039565b5b81525060046000600354815260200190815260200160002060008201518160000160006101000a81548173ffffffffffffffffffffffffffffffffffffffff021916908373ffffffffffffffffffffffffffffffffffffffff16021790555060208201518160010160006101000a81548173ffffffffffffffffffffffffffffffffffffffff021916908373ffffffffffffffffffffffffffffffffffffffff160217905550604082015181600201556060820151816003015560808201518160040160006101000a81548160ff02191690836004811115610cf457610cf3611039565b5b02179055509050508273ffffffffffffffffffffffffffffffffffffffff163373ffffffffffffffffffffffffffffffffffffffff166003547f59e4b8728799382406714f1c57de5c893d2772f9a8bf9950c5afe4397e648654858542610d5b91906117d8565b604051610d6992919061180c565b60405180910390a460036000815480929190610d8490611835565b9190505550505050565b610d96610e37565b600073ffffffffffffffffffffffffffffffffffffffff168173ffffffffffffffffffffffffffffffffffffffff1603610e05576040517f08c379a0000000000000000000000000000000000000000000000000000000008152600401610dfc906118ef565b60405180910390fd5b610e0e81610eb5565b50565b600260009054906101000a900473ffffffffffffffffffffffffffffffffffffffff1681565b610e3f610f79565b73ffffffffffffffffffffffffffffffffffffffff16610e5d6105f1565b73ffffffffffffffffffffffffffffffffffffffff1614610eb3576040517f08c379a0000000000000000000000000000000000000000000000000000000008152600401610eaa9061195b565b60405180910390fd5b565b60008060009054906101000a900473ffffffffffffffffffffffffffffffffffffffff169050816000806101000a81548173ffffffffffffffffffffffffffffffffffffffff021916908373ffffffffffffffffffffffffffffffffffffffff1602179055508173ffffffffffffffffffffffffffffffffffffffff168173ffffffffffffffffffffffffffffffffffffffff167f8be0079c531659141344cd1fd0a4f28419497f9722a3daafe3b4186f6b6457e060405160405180910390a35050565b600033905090565b600080fd5b6000819050919050565b610f9981610f86565b8114610fa457600080fd5b50565b600081359050610fb681610f90565b92915050565b600060208284031215610fd257610fd1610f81565b5b6000610fe084828501610fa7565b91505092915050565b600073ffffffffffffffffffffffffffffffffffffffff82169050919050565b600061101482610fe9565b9050919050565b61102481611009565b82525050565b61103381610f86565b82525050565b7f4e487b7100000000000000000000000000000000000000000000000000000000600052602160045260246000fd5b6005811061107957611078611039565b5b50565b600081905061108a82611068565b919050565b600061109a8261107c565b9050919050565b6110aa8161108f565b82525050565b600060a0820190506110c5600083018861101b565b6110d2602083018761101b565b6110df604083018661102a565b6110ec606083018561102a565b6110f960808301846110a1565b9695505050505050565b60008115159050919050565b61111881611103565b811461112357600080fd5b50565b6000813590506111358161110f565b92915050565b6000806040838503121561115257611151610f81565b5b600061116085828601610fa7565b925050602061117185828601611126565b9150509250929050565b6000819050919050565b60006111a061119b61119684610fe9565b61117b565b610fe9565b9050919050565b60006111b282611185565b9050919050565b60006111c4826111a7565b9050919050565b6111d4816111b9565b82525050565b60006020820190506111ef60008301846111cb565b92915050565b600060208201905061120a600083018461101b565b92915050565b6000602082019050611225600083018461102a565b92915050565b61123481611009565b811461123f57600080fd5b50565b6000813590506112518161122b565b92915050565b6000806000606084860312156112705761126f610f81565b5b600061127e86828701611242565b935050602061128f86828701610fa7565b92505060406112a086828701610fa7565b9150509250925092565b6000602082840312156112c0576112bf610f81565b5b60006112ce84828501611242565b91505092915050565b600082825260208201905092915050565b7f4e6f742064697370757465640000000000000000000000000000000000000000600082015250565b600061131e600c836112d7565b9150611329826112e8565b602082019050919050565b6000602082019050818103600083015261134d81611311565b9050919050565b6000604082019050611369600083018561101b565b611376602083018461102a565b9392505050565b60008151905061138c8161110f565b92915050565b6000602082840312156113a8576113a7610f81565b5b60006113b68482850161137d565b91505092915050565b7f52656c65617365206661696c6564000000000000000000000000000000000000600082015250565b60006113f5600e836112d7565b9150611400826113bf565b602082019050919050565b60006020820190508181036000830152611424816113e8565b9050919050565b7f526566756e64206661696c656400000000000000000000000000000000000000600082015250565b6000611461600d836112d7565b915061146c8261142b565b602082019050919050565b6000602082019050818103600083015261149081611454565b9050919050565b6114a081611103565b82525050565b60006020820190506114bb6000830184611497565b92915050565b7f4e6f742061637469766500000000000000000000000000000000000000000000600082015250565b60006114f7600a836112d7565b9150611502826114c1565b602082019050919050565b60006020820190508181036000830152611526816114ea565b9050919050565b7f437573746f647920706572696f64206e6f7420656e6465640000000000000000600082015250565b60006115636018836112d7565b915061156e8261152d565b602082019050919050565b6000602082019050818103600083015261159281611556565b9050919050565b7f437573746f64792072656c65617365206661696c656400000000000000000000600082015250565b60006115cf6016836112d7565b91506115da82611599565b602082019050919050565b600060208201905081810360008301526115fe816115c2565b9050919050565b600060408201905061161a600083018561102a565b611627602083018461101b565b9392505050565b7f4e6f74207061727469636970616e740000000000000000000000000000000000600082015250565b6000611664600f836112d7565b915061166f8261162e565b602082019050919050565b6000602082019050818103600083015261169381611657565b9050919050565b7f416d6f756e74206d757374206265203e20300000000000000000000000000000600082015250565b60006116d06012836112d7565b91506116db8261169a565b602082019050919050565b600060208201905081810360008301526116ff816116c3565b9050919050565b600060608201905061171b600083018661101b565b611728602083018561101b565b611735604083018461102a565b949350505050565b7f546f6b656e207472616e73666572206661696c65640000000000000000000000600082015250565b60006117736015836112d7565b915061177e8261173d565b602082019050919050565b600060208201905081810360008301526117a281611766565b9050919050565b7f4e487b7100000000000000000000000000000000000000000000000000000000600052601160045260246000fd5b60006117e382610f86565b91506117ee83610f86565b9250828201905080821115611806576118056117a9565b5b92915050565b6000604082019050611821600083018561102a565b61182e602083018461102a565b9392505050565b600061184082610f86565b91507fffffffffffffffffffffffffffffffffffffffffffffffffffffffffffffffff8203611872576118716117a9565b5b600182019050919050565b7f4f776e61626c653a206e6577206f776e657220697320746865207a65726f206160008201527f6464726573730000000000000000000000000000000000000000000000000000602082015250565b60006118d96026836112d7565b91506118e48261187d565b604082019050919050565b60006020820190508181036000830152611908816118cc565b9050919050565b7f4f776e61626c653a2063616c6c6572206973206e6f7420746865206f776e6572600082015250565b60006119456020836112d7565b91506119508261190f565b602082019050919050565b6000602082019050818103600083015261197481611938565b905091905056fea2646970667358221220afea540b90258d82e1a257f226153e97743b23d689fafe331f5df610145a239164736f6c63430008140033","opcodes":"PUSH1 0x80 PUSH1 0x40 MSTORE CALLVALUE DUP1 ISZERO PUSH3 0x11 JUMPI PUSH1 0x0 DUP1 REVERT JUMPDEST POP PUSH1 0x40 MLOAD PUSH3 0x1C1F CODESIZE SUB DUP1 PUSH3 0x1C1F DUP4 CODECOPY DUP2 DUP2 ADD PUSH1 0x40 MSTORE DUP2 ADD SWAP1 PUSH3 0x37 SWAP2 SWAP1 PUSH3 0x217 JUMP JUMPDEST PUSH3 0x57 PUSH3 0x4B PUSH3 0xE1 PUSH1 0x20 SHL PUSH1 0x20 SHR JUMP JUMPDEST PUSH3 0xE9 PUSH1 0x20 SHL PUSH1 0x20 SHR JUMP JUMPDEST DUP2 PUSH1 0x1 PUSH1 0x0 PUSH2 0x100 EXP DUP2 SLOAD DUP2 PUSH20 0xFFFFFFFFFFFFFFFFFFFFFFFFFFFFFFFFFFFFFFFF MUL NOT AND SWAP1 DUP4 PUSH20 0xFFFFFFFFFFFFFFFFFFFFFFFFFFFFFFFFFFFFFFFF AND MUL OR SWAP1 SSTORE POP DUP1 PUSH1 0x2 PUSH1 0x0 PUSH2 0x100 EXP DUP2 SLOAD DUP2 PUSH20 0xFFFFFFFFFFFFFFFFFFFFFFFFFFFFFFFFFFFFFFFF MUL NOT AND SWAP1 DUP4 PUSH20 0xFFFFFFFFFFFFFFFFFFFFFFFFFFFFFFFFFFFFFFFF AND MUL OR SWAP1 SSTORE POP POP POP PUSH3 0x25E JUMP JUMPDEST PUSH1 0x0 CALLER SWAP1 POP SWAP1 JUMP JUMPDEST PUSH1 0x0 DUP1 PUSH1 0x0 SWAP1 SLOAD SWAP1 PUSH2 0x100 EXP SWAP1 DIV PUSH20 0xFFFFFFFFFFFFFFFFFFFFFFFFFFFFFFFFFFFFFFFF AND SWAP1 POP DUP2 PUSH1 0x0 DUP1 PUSH2 0x100 EXP DUP2 SLOAD DUP2 PUSH20 0xFFFFFFFFFFFFFFFFFFFFFFFFFFFFFFFFFFFFFFFF MUL NOT AND SWAP1 DUP4 PUSH20 0xFFFFFFFFFFFFFFFFFFFFFFFFFFFFFFFFFFFFFFFF AND MUL OR SWAP1 SSTORE POP DUP2 PUSH20 0xFFFFFFFFFFFFFFFFFFFFFFFFFFFFFFFFFFFFFFFF AND DUP2 PUSH20 0xFFFFFFFFFFFFFFFFFFFFFFFFFFFFFFFFFFFFFFFF AND PUSH32 0x8BE0079C531659141344CD1FD0A4F28419497F9722A3DAAFE3B4186F6B6457E0 PUSH1 0x40 MLOAD PUSH1 0x40 MLOAD DUP1 SWAP2 SUB SWAP1 LOG3 POP POP JUMP JUMPDEST PUSH1 0x0 DUP1 REVERT JUMPDEST PUSH1 0x0 PUSH20 0xFFFFFFFFFFFFFFFFFFFFFFFFFFFFFFFFFFFFFFFF DUP3 AND SWAP1 POP SWAP2 SWAP1 POP JUMP JUMPDEST PUSH1 0x0 PUSH3 0x1DF DUP3 PUSH3 0x1B2 JUMP JUMPDEST SWAP1 POP SWAP2 SWAP1 POP JUMP JUMPDEST PUSH3 0x1F1 DUP2 PUSH3 0x1D2 JUMP JUMPDEST DUP2 EQ PUSH3 0x1FD JUMPI PUSH1 0x0 DUP1 REVERT JUMPDEST POP JUMP JUMPDEST PUSH1 0x0 DUP2 MLOAD SWAP1 POP PUSH3 0x211 DUP2 PUSH3 0x1E6 JUMP JUMPDEST SWAP3 SWAP2 POP POP JUMP JUMPDEST PUSH1 0x0 DUP1 PUSH1 0x40 DUP4 DUP6 SUB SLT ISZERO PUSH3 0x231 JUMPI PUSH3 0x230 PUSH3 0x1AD JUMP JUMPDEST JUMPDEST PUSH1 0x0 PUSH3 0x241 DUP6 DUP3 DUP7 ADD PUSH3 0x200 JUMP JUMPDEST SWAP3 POP POP PUSH1 0x20 PUSH3 0x254 DUP6 DUP3 DUP7 ADD PUSH3 0x200 JUMP JUMPDEST SWAP2 POP POP SWAP3 POP SWAP3 SWAP1 POP JUMP JUMPDEST PUSH2 0x19B1 DUP1 PUSH3 0x26E PUSH1 0x0 CODECOPY PUSH1 0x0 RETURN INVALID PUSH1 0x80 PUSH1 0x40 MSTORE CALLVALUE DUP1 ISZERO PUSH2 0x10 JUMPI PUSH1 0x0 DUP1 REVERT JUMPDEST POP PUSH1 0x4 CALLDATASIZE LT PUSH2 0xB4 JUMPI PUSH1 0x0 CALLDATALOAD PUSH1 0xE0 SHR DUP1 PUSH4 0xA5C1674E GT PUSH2 0x71 JUMPI DUP1 PUSH4 0xA5C1674E EQ PUSH2 0x16B JUMPI DUP1 PUSH4 0xBF333F2C EQ PUSH2 0x187 JUMPI DUP1 PUSH4 0xC7CEAFEA EQ PUSH2 0x1A5 JUMPI DUP1 PUSH4 0xE2ECB311 EQ PUSH2 0x1C3 JUMPI DUP1 PUSH4 0xF2FDE38B EQ PUSH2 0x1DF JUMPI DUP1 PUSH4 0xFA2AF9DA EQ PUSH2 0x1FB JUMPI PUSH2 0xB4 JUMP JUMPDEST DUP1 PUSH4 0x12F52EE EQ PUSH2 0xB9 JUMPI DUP1 PUSH4 0x34B25EE2 EQ PUSH2 0xED JUMPI DUP1 PUSH4 0x4043CD95 EQ PUSH2 0x109 JUMPI DUP1 PUSH4 0x715018A6 EQ PUSH2 0x127 JUMPI DUP1 PUSH4 0x8DA5CB5B EQ PUSH2 0x131 JUMPI DUP1 PUSH4 0x9526592F EQ PUSH2 0x14F JUMPI JUMPDEST PUSH1 0x0 DUP1 REVERT JUMPDEST PUSH2 0xD3 PUSH1 0x4 DUP1 CALLDATASIZE SUB DUP2 ADD SWAP1 PUSH2 0xCE SWAP2 SWAP1 PUSH2 0xFBC JUMP JUMPDEST PUSH2 0x219 JUMP JUMPDEST PUSH1 0x40 MLOAD PUSH2 0xE4 SWAP6 SWAP5 SWAP4 SWAP3 SWAP2 SWAP1 PUSH2 0x10B0 JUMP JUMPDEST PUSH1 0x40 MLOAD DUP1 SWAP2 SUB SWAP1 RETURN JUMPDEST PUSH2 0x107 PUSH1 0x4 DUP1 CALLDATASIZE SUB DUP2 ADD SWAP1 PUSH2 0x102 SWAP2 SWAP1 PUSH2 0x113B JUMP JUMPDEST PUSH2 0x29C JUMP JUMPDEST STOP JUMPDEST PUSH2 0x111 PUSH2 0x5B7 JUMP JUMPDEST PUSH1 0x40 MLOAD PUSH2 0x11E SWAP2 SWAP1 PUSH2 0x11DA JUMP JUMPDEST PUSH1 0x40 MLOAD DUP1 SWAP2 SUB SWAP1 RETURN JUMPDEST PUSH2 0x12F PUSH2 0x5DD JUMP JUMPDEST STOP JUMPDEST PUSH2 0x139 PUSH2 0x5F1 JUMP JUMPDEST PUSH1 0x40 MLOAD PUSH2 0x146 SWAP2 SWAP1 PUSH2 0x11F5 JUMP JUMPDEST PUSH1 0x40 MLOAD DUP1 SWAP2 SUB SWAP1 RETURN JUMPDEST PUSH2 0x169 PUSH1 0x4 DUP1 CALLDATASIZE SUB DUP2 ADD SWAP1 PUSH2 0x164 SWAP2 SWAP1 PUSH2 0xFBC JUMP JUMPDEST PUSH2 0x61A JUMP JUMPDEST STOP JUMPDEST PUSH2 0x185 PUSH1 0x4 DUP1 CALLDATASIZE SUB DUP2 ADD SWAP1 PUSH2 0x180 SWAP2 SWAP1 PUSH2 0xFBC JUMP JUMPDEST PUSH2 0x88E JUMP JUMPDEST STOP JUMPDEST PUSH2 0x18F PUSH2 0xA72 JUMP JUMPDEST PUSH1 0x40 MLOAD PUSH2 0x19C SWAP2 SWAP1 PUSH2 0x1210 JUMP JUMPDEST PUSH1 0x40 MLOAD DUP1 SWAP2 SUB SWAP1 RETURN JUMPDEST PUSH2 0x1AD PUSH2 0xA77 JUMP JUMPDEST PUSH1 0x40 MLOAD PUSH2 0x1BA SWAP2 SWAP1 PUSH2 0x1210 JUMP JUMPDEST PUSH1 0x40 MLOAD DUP1 SWAP2 SUB SWAP1 RETURN JUMPDEST PUSH2 0x1DD PUSH1 0x4 DUP1 CALLDATASIZE SUB DUP2 ADD SWAP1 PUSH2 0x1D8 SWAP2 SWAP1 PUSH2 0x1257 JUMP JUMPDEST PUSH2 0xA7D JUMP JUMPDEST STOP JUMPDEST PUSH2 0x1F9 PUSH1 0x4 DUP1 CALLDATASIZE SUB DUP2 ADD SWAP1 PUSH2 0x1F4 SWAP2 SWAP1 PUSH2 0x12AA JUMP JUMPDEST PUSH2 0xD8E JUMP JUMPDEST STOP JUMPDEST PUSH2 0x203 PUSH2 0xE11 JUMP JUMPDEST PUSH1 0x40 MLOAD PUSH2 0x210 SWAP2 SWAP1 PUSH2 0x11F5 JUMP JUMPDEST PUSH1 0x40 MLOAD DUP1 SWAP2 SUB SWAP1 RETURN JUMPDEST PUSH1 0x4 PUSH1 0x20 MSTORE DUP1 PUSH1 0x0 MSTORE PUSH1 0x40 PUSH1 0x0 KECCAK256 PUSH1 0x0 SWAP2 POP SWAP1 POP DUP1 PUSH1 0x0 ADD PUSH1 0x0 SWAP1 SLOAD SWAP1 PUSH2 0x100 EXP SWAP1 DIV PUSH20 0xFFFFFFFFFFFFFFFFFFFFFFFFFFFFFFFFFFFFFFFF AND SWAP1 DUP1 PUSH1 0x1 ADD PUSH1 0x0 SWAP1 SLOAD SWAP1 PUSH2 0x100 EXP SWAP1 DIV PUSH20 0xFFFFFFFFFFFFFFFFFFFFFFFFFFFFFFFFFFFFFFFF AND SWAP1 DUP1 PUSH1 0x2 ADD SLOAD SWAP1 DUP1 PUSH1 0x3 ADD SLOAD SWAP1 DUP1 PUSH1 0x4 ADD PUSH1 0x0 SWAP1 SLOAD SWAP1 PUSH2 0x100 EXP SWAP1 DIV PUSH1 0xFF AND SWAP1 POP DUP6 JUMP JUMPDEST PUSH2 0x2A4 PUSH2 0xE37 JUMP JUMPDEST PUSH1 0x0 PUSH1 0x4 PUSH1 0x0 DUP5 DUP2 MSTORE PUSH1 0x20 ADD SWAP1 DUP2 MSTORE PUSH1 0x20 ADD PUSH1 0x0 KECCAK256 SWAP1 POP PUSH1 0x2 PUSH1 0x4 DUP2 GT ISZERO PUSH2 0x2CF JUMPI PUSH2 0x2CE PUSH2 0x1039 JUMP JUMPDEST JUMPDEST DUP2 PUSH1 0x4 ADD PUSH1 0x0 SWAP1 SLOAD SWAP1 PUSH2 0x100 EXP SWAP1 DIV PUSH1 0xFF AND PUSH1 0x4 DUP2 GT ISZERO PUSH2 0x2F3 JUMPI PUSH2 0x2F2 PUSH2 0x1039 JUMP JUMPDEST JUMPDEST EQ PUSH2 0x333 JUMPI PUSH1 0x40 MLOAD PUSH32 0x8C379A000000000000000000000000000000000000000000000000000000000 DUP2 MSTORE PUSH1 0x4 ADD PUSH2 0x32A SWAP1 PUSH2 0x1334 JUMP JUMPDEST PUSH1 0x40 MLOAD DUP1 SWAP2 SUB SWAP1 REVERT JUMPDEST PUSH1 0x3 DUP2 PUSH1 0x4 ADD PUSH1 0x0 PUSH2 0x100 EXP DUP2 SLOAD DUP2 PUSH1 0xFF MUL NOT AND SWAP1 DUP4 PUSH1 0x4 DUP2 GT ISZERO PUSH2 0x35B JUMPI PUSH2 0x35A PUSH2 0x1039 JUMP JUMPDEST JUMPDEST MUL OR SWAP1 SSTORE POP DUP2 ISZERO PUSH2 0x472 JUMPI PUSH1 0x1 PUSH1 0x0 SWAP1 SLOAD SWAP1 PUSH2 0x100 EXP SWAP1 DIV PUSH20 0xFFFFFFFFFFFFFFFFFFFFFFFFFFFFFFFFFFFFFFFF AND PUSH20 0xFFFFFFFFFFFFFFFFFFFFFFFFFFFFFFFFFFFFFFFF AND PUSH4 0xA9059CBB DUP3 PUSH1 0x1 ADD PUSH1 0x0 SWAP1 SLOAD SWAP1 PUSH2 0x100 EXP SWAP1 DIV PUSH20 0xFFFFFFFFFFFFFFFFFFFFFFFFFFFFFFFFFFFFFFFF AND DUP4 PUSH1 0x2 ADD SLOAD PUSH1 0x40 MLOAD DUP4 PUSH4 0xFFFFFFFF AND PUSH1 0xE0 SHL DUP2 MSTORE PUSH1 0x4 ADD PUSH2 0x3EB SWAP3 SWAP2 SWAP1 PUSH2 0x1354 JUMP JUMPDEST PUSH1 0x20 PUSH1 0x40 MLOAD DUP1 DUP4 SUB DUP2 PUSH1 0x0 DUP8 GAS CALL ISZERO DUP1 ISZERO PUSH2 0x40A JUMPI RETURNDATASIZE PUSH1 0x0 DUP1 RETURNDATACOPY RETURNDATASIZE PUSH1 0x0 REVERT JUMPDEST POP POP POP POP PUSH1 0x40 MLOAD RETURNDATASIZE PUSH1 0x1F NOT PUSH1 0x1F DUP3 ADD AND DUP3 ADD DUP1 PUSH1 0x40 MSTORE POP DUP2 ADD SWAP1 PUSH2 0x42E SWAP2 SWAP1 PUSH2 0x1392 JUMP JUMPDEST PUSH2 0x46D JUMPI PUSH1 0x40 MLOAD PUSH32 0x8C379A000000000000000000000000000000000000000000000000000000000 DUP2 MSTORE PUSH1 0x4 ADD PUSH2 0x464 SWAP1 PUSH2 0x140B JUMP JUMPDEST PUSH1 0x40 MLOAD DUP1 SWAP2 SUB SWAP1 REVERT JUMPDEST PUSH2 0x57A JUMP JUMPDEST PUSH1 0x1 PUSH1 0x0 SWAP1 SLOAD SWAP1 PUSH2 0x100 EXP SWAP1 DIV PUSH20 0xFFFFFFFFFFFFFFFFFFFFFFFFFFFFFFFFFFFFFFFF AND PUSH20 0xFFFFFFFFFFFFFFFFFFFFFFFFFFFFFFFFFFFFFFFF AND PUSH4 0xA9059CBB DUP3 PUSH1 0x0 ADD PUSH1 0x0 SWAP1 SLOAD SWAP1 PUSH2 0x100 EXP SWAP1 DIV PUSH20 0xFFFFFFFFFFFFFFFFFFFFFFFFFFFFFFFFFFFFFFFF AND DUP4 PUSH1 0x2 ADD SLOAD PUSH1 0x40 MLOAD DUP4 PUSH4 0xFFFFFFFF AND PUSH1 0xE0 SHL DUP2 MSTORE PUSH1 0x4 ADD PUSH2 0x4F7 SWAP3 SWAP2 SWAP1 PUSH2 0x1354 JUMP JUMPDEST PUSH1 0x20 PUSH1 0x40 MLOAD DUP1 DUP4 SUB DUP2 PUSH1 0x0 DUP8 GAS CALL ISZERO DUP1 ISZERO PUSH2 0x516 JUMPI RETURNDATASIZE PUSH1 0x0 DUP1 RETURNDATACOPY RETURNDATASIZE PUSH1 0x0 REVERT JUMPDEST POP POP POP POP PUSH1 0x40 MLOAD RETURNDATASIZE PUSH1 0x1F NOT PUSH1 0x1F DUP3 ADD AND DUP3 ADD DUP1 PUSH1 0x40 MSTORE POP DUP2 ADD SWAP1 PUSH2 0x53A SWAP2 SWAP1 PUSH2 0x1392 JUMP JUMPDEST PUSH2 0x579 JUMPI PUSH1 0x40 MLOAD PUSH32 0x8C379A000000000000000000000000000000000000000000000000000000000 DUP2 MSTORE PUSH1 0x4 ADD PUSH2 0x570 SWAP1 PUSH2 0x1477 JUMP JUMPDEST PUSH1 0x40 MLOAD DUP1 SWAP2 SUB SWAP1 REVERT JUMPDEST JUMPDEST DUP3 PUSH32 0x5A87909BFF68CAAAAF0B3FD9C74EECCC928832F879315E5C6FB7A73612F26C0C DUP4 PUSH1 0x40 MLOAD PUSH2 0x5AA SWAP2 SWAP1 PUSH2 0x14A6 JUMP JUMPDEST PUSH1 0x40 MLOAD DUP1 SWAP2 SUB SWAP1 LOG2 POP POP POP JUMP JUMPDEST PUSH1 0x1 PUSH1 0x0 SWAP1 SLOAD SWAP1 PUSH2 0x100 EXP SWAP1 DIV PUSH20 0xFFFFFFFFFFFFFFFFFFFFFFFFFFFFFFFFFFFFFFFF AND DUP2 JUMP JUMPDEST PUSH2 0x5E5 PUSH2 0xE37 JUMP JUMPDEST PUSH2 0x5EF PUSH1 0x0 PUSH2 0xEB5 JUMP JUMPDEST JUMP JUMPDEST PUSH1 0x0 DUP1 PUSH1 0x0 SWAP1 SLOAD SWAP1 PUSH2 0x100 EXP SWAP1 DIV PUSH20 0xFFFFFFFFFFFFFFFFFFFFFFFFFFFFFFFFFFFFFFFF AND SWAP1 POP SWAP1 JUMP JUMPDEST PUSH2 0x622 PUSH2 0xE37 JUMP JUMPDEST PUSH1 0x0 PUSH1 0x4 PUSH1 0x0 DUP4 DUP2 MSTORE PUSH1 0x20 ADD SWAP1 DUP2 MSTORE PUSH1 0x20 ADD PUSH1 0x0 KECCAK256 SWAP1 POP PUSH1 0x0 PUSH1 0x4 DUP2 GT ISZERO PUSH2 0x64D JUMPI PUSH2 0x64C PUSH2 0x1039 JUMP JUMPDEST JUMPDEST DUP2 PUSH1 0x4 ADD PUSH1 0x0 SWAP1 SLOAD SWAP1 PUSH2 0x100 EXP SWAP1 DIV PUSH1 0xFF AND PUSH1 0x4 DUP2 GT ISZERO PUSH2 0x671 JUMPI PUSH2 0x670 PUSH2 0x1039 JUMP JUMPDEST JUMPDEST EQ PUSH2 0x6B1 JUMPI PUSH1 0x40 MLOAD PUSH32 0x8C379A000000000000000000000000000000000000000000000000000000000 DUP2 MSTORE PUSH1 0x4 ADD PUSH2 0x6A8 SWAP1 PUSH2 0x150D JUMP JUMPDEST PUSH1 0x40 MLOAD DUP1 SWAP2 SUB SWAP1 REVERT JUMPDEST DUP1 PUSH1 0x3 ADD SLOAD TIMESTAMP LT ISZERO PUSH2 0x6F8 JUMPI PUSH1 0x40 MLOAD PUSH32 0x8C379A000000000000000000000000000000000000000000000000000000000 DUP2 MSTORE PUSH1 0x4 ADD PUSH2 0x6EF SWAP1 PUSH2 0x1579 JUMP JUMPDEST PUSH1 0x40 MLOAD DUP1 SWAP2 SUB SWAP1 REVERT JUMPDEST PUSH1 0x1 DUP2 PUSH1 0x4 ADD PUSH1 0x0 PUSH2 0x100 EXP DUP2 SLOAD DUP2 PUSH1 0xFF MUL NOT AND SWAP1 DUP4 PUSH1 0x4 DUP2 GT ISZERO PUSH2 0x720 JUMPI PUSH2 0x71F PUSH2 0x1039 JUMP JUMPDEST JUMPDEST MUL OR SWAP1 SSTORE POP PUSH1 0x1 PUSH1 0x0 SWAP1 SLOAD SWAP1 PUSH2 0x100 EXP SWAP1 DIV PUSH20 0xFFFFFFFFFFFFFFFFFFFFFFFFFFFFFFFFFFFFFFFF AND PUSH20 0xFFFFFFFFFFFFFFFFFFFFFFFFFFFFFFFFFFFFFFFF AND PUSH4 0xA9059CBB PUSH1 0x2 PUSH1 0x0 SWAP1 SLOAD SWAP1 PUSH2 0x100 EXP SWAP1 DIV PUSH20 0xFFFFFFFFFFFFFFFFFFFFFFFFFFFFFFFFFFFFFFFF AND DUP4 PUSH1 0x2 ADD SLOAD PUSH1 0x40 MLOAD DUP4 PUSH4 0xFFFFFFFF AND PUSH1 0xE0 SHL DUP2 MSTORE PUSH1 0x4 ADD PUSH2 0x7A8 SWAP3 SWAP2 SWAP1 PUSH2 0x1354 JUMP JUMPDEST PUSH1 0x20 PUSH1 0x40 MLOAD DUP1 DUP4 SUB DUP2 PUSH1 0x0 DUP8 GAS CALL ISZERO DUP1 ISZERO PUSH2 0x7C7 JUMPI RETURNDATASIZE PUSH1 0x0 DUP1 RETURNDATACOPY RETURNDATASIZE PUSH1 0x0 REVERT JUMPDEST POP POP POP POP PUSH1 0x40 MLOAD RETURNDATASIZE PUSH1 0x1F NOT PUSH1 0x1F DUP3 ADD AND DUP3 ADD DUP1 PUSH1 0x40 MSTORE POP DUP2 ADD SWAP1 PUSH2 0x7EB SWAP2 SWAP1 PUSH2 0x1392 JUMP JUMPDEST PUSH2 0x82A JUMPI PUSH1 0x40 MLOAD PUSH32 0x8C379A000000000000000000000000000000000000000000000000000000000 DUP2 MSTORE PUSH1 0x4 ADD PUSH2 0x821 SWAP1 PUSH2 0x15E5 JUMP JUMPDEST PUSH1 0x40 MLOAD DUP1 SWAP2 SUB SWAP1 REVERT JUMPDEST DUP2 PUSH32 0x1AB7E153E445011096686E7D6CDDE884E5B3A4C5C1E49B1087E4A64D6850E130 DUP3 PUSH1 0x2 ADD SLOAD PUSH1 0x2 PUSH1 0x0 SWAP1 SLOAD SWAP1 PUSH2 0x100 EXP SWAP1 DIV PUSH20 0xFFFFFFFFFFFFFFFFFFFFFFFFFFFFFFFFFFFFFFFF AND PUSH1 0x40 MLOAD PUSH2 0x882 SWAP3 SWAP2 SWAP1 PUSH2 0x1605 JUMP JUMPDEST PUSH1 0x40 MLOAD DUP1 SWAP2 SUB SWAP1 LOG2 POP POP JUMP JUMPDEST PUSH1 0x0 PUSH1 0x4 PUSH1 0x0 DUP4 DUP2 MSTORE PUSH1 0x20 ADD SWAP1 DUP2 MSTORE PUSH1 0x20 ADD PUSH1 0x0 KECCAK256 SWAP1 POP DUP1 PUSH1 0x0 ADD PUSH1 0x0 SWAP1 SLOAD SWAP1 PUSH2 0x100 EXP SWAP1 DIV PUSH20 0xFFFFFFFFFFFFFFFFFFFFFFFFFFFFFFFFFFFFFFFF AND PUSH20 0xFFFFFFFFFFFFFFFFFFFFFFFFFFFFFFFFFFFFFFFF AND CALLER PUSH20 0xFFFFFFFFFFFFFFFFFFFFFFFFFFFFFFFFFFFFFFFF AND EQ DUP1 PUSH2 0x952 JUMPI POP DUP1 PUSH1 0x1 ADD PUSH1 0x0 SWAP1 SLOAD SWAP1 PUSH2 0x100 EXP SWAP1 DIV PUSH20 0xFFFFFFFFFFFFFFFFFFFFFFFFFFFFFFFFFFFFFFFF AND PUSH20 0xFFFFFFFFFFFFFFFFFFFFFFFFFFFFFFFFFFFFFFFF AND CALLER PUSH20 0xFFFFFFFFFFFFFFFFFFFFFFFFFFFFFFFFFFFFFFFF AND EQ JUMPDEST PUSH2 0x991 JUMPI PUSH1 0x40 MLOAD PUSH32 0x8C379A000000000000000000000000000000000000000000000000000000000 DUP2 MSTORE PUSH1 0x4 ADD PUSH2 0x988 SWAP1 PUSH2 0x167A JUMP JUMPDEST PUSH1 0x40 MLOAD DUP1 SWAP2 SUB SWAP1 REVERT JUMPDEST PUSH1 0x0 PUSH1 0x4 DUP2 GT ISZERO PUSH2 0x9A5 JUMPI PUSH2 0x9A4 PUSH2 0x1039 JUMP JUMPDEST JUMPDEST DUP2 PUSH1 0x4 ADD PUSH1 0x0 SWAP1 SLOAD SWAP1 PUSH2 0x100 EXP SWAP1 DIV PUSH1 0xFF AND PUSH1 0x4 DUP2 GT ISZERO PUSH2 0x9C9 JUMPI PUSH2 0x9C8 PUSH2 0x1039 JUMP JUMPDEST JUMPDEST EQ PUSH2 0xA09 JUMPI PUSH1 0x40 MLOAD PUSH32 0x8C379A000000000000000000000000000000000000000000000000000000000 DUP2 MSTORE PUSH1 0x4 ADD PUSH2 0xA00 SWAP1 PUSH2 0x150D JUMP JUMPDEST PUSH1 0x40 MLOAD DUP1 SWAP2 SUB SWAP1 REVERT JUMPDEST PUSH1 0x2 DUP2 PUSH1 0x4 ADD PUSH1 0x0 PUSH2 0x100 EXP DUP2 SLOAD DUP2 PUSH1 0xFF MUL NOT AND SWAP1 DUP4 PUSH1 0x4 DUP2 GT ISZERO PUSH2 0xA31 JUMPI PUSH2 0xA30 PUSH2 0x1039 JUMP JUMPDEST JUMPDEST MUL OR SWAP1 SSTORE POP DUP2 PUSH32 0x84A477DF8A28A4276CA6DEE4458A06C3015F30C477D9C949EDE4E13FF8A552B4 CALLER PUSH1 0x40 MLOAD PUSH2 0xA66 SWAP2 SWAP1 PUSH2 0x11F5 JUMP JUMPDEST PUSH1 0x40 MLOAD DUP1 SWAP2 SUB SWAP1 LOG2 POP POP JUMP JUMPDEST PUSH1 0x96 DUP2 JUMP JUMPDEST PUSH1 0x3 SLOAD DUP2 JUMP JUMPDEST PUSH1 0x0 DUP3 GT PUSH2 0xAC0 JUMPI PUSH1 0x40 MLOAD PUSH32 0x8C379A000000000000000000000000000000000000000000000000000000000 DUP2 MSTORE PUSH1 0x4 ADD PUSH2 0xAB7 SWAP1 PUSH2 0x16E6 JUMP JUMPDEST PUSH1 0x40 MLOAD DUP1 SWAP2 SUB SWAP1 REVERT JUMPDEST PUSH1 0x1 PUSH1 0x0 SWAP1 SLOAD SWAP1 PUSH2 0x100 EXP SWAP1 DIV PUSH20 0xFFFFFFFFFFFFFFFFFFFFFFFFFFFFFFFFFFFFFFFF AND PUSH20 0xFFFFFFFFFFFFFFFFFFFFFFFFFFFFFFFFFFFFFFFF AND PUSH4 0x23B872DD CALLER ADDRESS DUP6 PUSH1 0x40 MLOAD DUP5 PUSH4 0xFFFFFFFF AND PUSH1 0xE0 SHL DUP2 MSTORE PUSH1 0x4 ADD PUSH2 0xB1F SWAP4 SWAP3 SWAP2 SWAP1 PUSH2 0x1706 JUMP JUMPDEST PUSH1 0x20 PUSH1 0x40 MLOAD DUP1 DUP4 SUB DUP2 PUSH1 0x0 DUP8 GAS CALL ISZERO DUP1 ISZERO PUSH2 0xB3E JUMPI RETURNDATASIZE PUSH1 0x0 DUP1 RETURNDATACOPY RETURNDATASIZE PUSH1 0x0 REVERT JUMPDEST POP POP POP POP PUSH1 0x40 MLOAD RETURNDATASIZE PUSH1 0x1F NOT PUSH1 0x1F DUP3 ADD AND DUP3 ADD DUP1 PUSH1 0x40 MSTORE POP DUP2 ADD SWAP1 PUSH2 0xB62 SWAP2 SWAP1 PUSH2 0x1392 JUMP JUMPDEST PUSH2 0xBA1 JUMPI PUSH1 0x40 MLOAD PUSH32 0x8C379A000000000000000000000000000000000000000000000000000000000 DUP2 MSTORE PUSH1 0x4 ADD PUSH2 0xB98 SWAP1 PUSH2 0x1789 JUMP JUMPDEST PUSH1 0x40 MLOAD DUP1 SWAP2 SUB SWAP1 REVERT JUMPDEST PUSH1 0x40 MLOAD DUP1 PUSH1 0xA0 ADD PUSH1 0x40 MSTORE DUP1 CALLER PUSH20 0xFFFFFFFFFFFFFFFFFFFFFFFFFFFFFFFFFFFFFFFF AND DUP2 MSTORE PUSH1 0x20 ADD DUP5 PUSH20 0xFFFFFFFFFFFFFFFFFFFFFFFFFFFFFFFFFFFFFFFF AND DUP2 MSTORE PUSH1 0x20 ADD DUP4 DUP2 MSTORE PUSH1 0x20 ADD DUP3 TIMESTAMP PUSH2 0xBF6 SWAP2 SWAP1 PUSH2 0x17D8 JUMP JUMPDEST DUP2 MSTORE PUSH1 0x20 ADD PUSH1 0x0 PUSH1 0x4 DUP2 GT ISZERO PUSH2 0xC0F JUMPI PUSH2 0xC0E PUSH2 0x1039 JUMP JUMPDEST JUMPDEST DUP2 MSTORE POP PUSH1 0x4 PUSH1 0x0 PUSH1 0x3 SLOAD DUP2 MSTORE PUSH1 0x20 ADD SWAP1 DUP2 MSTORE PUSH1 0x20 ADD PUSH1 0x0 KECCAK256 PUSH1 0x0 DUP3 ADD MLOAD DUP2 PUSH1 0x0 ADD PUSH1 0x0 PUSH2 0x100 EXP DUP2 SLOAD DUP2 PUSH20 0xFFFFFFFFFFFFFFFFFFFFFFFFFFFFFFFFFFFFFFFF MUL NOT AND SWAP1 DUP4 PUSH20 0xFFFFFFFFFFFFFFFFFFFFFFFFFFFFFFFFFFFFFFFF AND MUL OR SWAP1 SSTORE POP PUSH1 0x20 DUP3 ADD MLOAD DUP2 PUSH1 0x1 ADD PUSH1 0x0 PUSH2 0x100 EXP DUP2 SLOAD DUP2 PUSH20 0xFFFFFFFFFFFFFFFFFFFFFFFFFFFFFFFFFFFFFFFF MUL NOT AND SWAP1 DUP4 PUSH20 0xFFFFFFFFFFFFFFFFFFFFFFFFFFFFFFFFFFFFFFFF AND MUL OR SWAP1 SSTORE POP PUSH1 0x40 DUP3 ADD MLOAD DUP2 PUSH1 0x2 ADD SSTORE PUSH1 0x60 DUP3 ADD MLOAD DUP2 PUSH1 0x3 ADD SSTORE PUSH1 0x80 DUP3 ADD MLOAD DUP2 PUSH1 0x4 ADD PUSH1 0x0 PUSH2 0x100 EXP DUP2 SLOAD DUP2 PUSH1 0xFF MUL NOT AND SWAP1 DUP4 PUSH1 0x4 DUP2 GT ISZERO PUSH2 0xCF4 JUMPI PUSH2 0xCF3 PUSH2 0x1039 JUMP JUMPDEST JUMPDEST MUL OR SWAP1 SSTORE POP SWAP1 POP POP DUP3 PUSH20 0xFFFFFFFFFFFFFFFFFFFFFFFFFFFFFFFFFFFFFFFF AND CALLER PUSH20 0xFFFFFFFFFFFFFFFFFFFFFFFFFFFFFFFFFFFFFFFF AND PUSH1 0x3 SLOAD PUSH32 0x59E4B8728799382406714F1C57DE5C893D2772F9A8BF9950C5AFE4397E648654 DUP6 DUP6 TIMESTAMP PUSH2 0xD5B SWAP2 SWAP1 PUSH2 0x17D8 JUMP JUMPDEST PUSH1 0x40 MLOAD PUSH2 0xD69 SWAP3 SWAP2 SWAP1 PUSH2 0x180C JUMP JUMPDEST PUSH1 0x40 MLOAD DUP1 SWAP2 SUB SWAP1 LOG4 PUSH1 0x3 PUSH1 0x0 DUP2 SLOAD DUP1 SWAP3 SWAP2 SWAP1 PUSH2 0xD84 SWAP1 PUSH2 0x1835 JUMP JUMPDEST SWAP2 SWAP1 POP SSTORE POP POP POP POP JUMP JUMPDEST PUSH2 0xD96 PUSH2 0xE37 JUMP JUMPDEST PUSH1 0x0 PUSH20 0xFFFFFFFFFFFFFFFFFFFFFFFFFFFFFFFFFFFFFFFF AND DUP2 PUSH20 0xFFFFFFFFFFFFFFFFFFFFFFFFFFFFFFFFFFFFFFFF AND SUB PUSH2 0xE05 JUMPI PUSH1 0x40 MLOAD PUSH32 0x8C379A000000000000000000000000000000000000000000000000000000000 DUP2 MSTORE PUSH1 0x4 ADD PUSH2 0xDFC SWAP1 PUSH2 0x18EF JUMP JUMPDEST PUSH1 0x40 MLOAD DUP1 SWAP2 SUB SWAP1 REVERT JUMPDEST PUSH2 0xE0E DUP2 PUSH2 0xEB5 JUMP JUMPDEST POP JUMP JUMPDEST PUSH1 0x2 PUSH1 0x0 SWAP1 SLOAD SWAP1 PUSH2 0x100 EXP SWAP1 DIV PUSH20 0xFFFFFFFFFFFFFFFFFFFFFFFFFFFFFFFFFFFFFFFF AND DUP2 JUMP JUMPDEST PUSH2 0xE3F PUSH2 0xF79 JUMP JUMPDEST PUSH20 0xFFFFFFFFFFFFFFFFFFFFFFFFFFFFFFFFFFFFFFFF AND PUSH2 0xE5D PUSH2 0x5F1 JUMP JUMPDEST PUSH20 0xFFFFFFFFFFFFFFFFFFFFFFFFFFFFFFFFFFFFFFFF AND EQ PUSH2 0xEB3 JUMPI PUSH1 0x40 MLOAD PUSH32 0x8C379A000000000000000000000000000000000000000000000000000000000 DUP2 MSTORE PUSH1 0x4 ADD PUSH2 0xEAA SWAP1 PUSH2 0x195B JUMP JUMPDEST PUSH1 0x40 MLOAD DUP1 SWAP2 SUB SWAP1 REVERT JUMPDEST JUMP JUMPDEST PUSH1 0x0 DUP1 PUSH1 0x0 SWAP1 SLOAD SWAP1 PUSH2 0x100 EXP SWAP1 DIV PUSH20 0xFFFFFFFFFFFFFFFFFFFFFFFFFFFFFFFFFFFFFFFF AND SWAP1 POP DUP2 PUSH1 0x0 DUP1 PUSH2 0x100 EXP DUP2 SLOAD DUP2 PUSH20 0xFFFFFFFFFFFFFFFFFFFFFFFFFFFFFFFFFFFFFFFF MUL NOT AND SWAP1 DUP4 PUSH20 0xFFFFFFFFFFFFFFFFFFFFFFFFFFFFFFFFFFFFFFFF AND MUL OR SWAP1 SSTORE POP DUP2 PUSH20 0xFFFFFFFFFFFFFFFFFFFFFFFFFFFFFFFFFFFFFFFF AND DUP2 PUSH20 0xFFFFFFFFFFFFFFFFFFFFFFFFFFFFFFFFFFFFFFFF AND PUSH32 0x8BE0079C531659141344CD1FD0A4F28419497F9722A3DAAFE3B4186F6B6457E0 PUSH1 0x40 MLOAD PUSH1 0x40 MLOAD DUP1 SWAP2 SUB SWAP1 LOG3 POP POP JUMP JUMPDEST PUSH1 0x0 CALLER SWAP1 POP SWAP1 JUMP JUMPDEST PUSH1 0x0 DUP1 REVERT JUMPDEST PUSH1 0x0 DUP2 SWAP1 POP SWAP2 SWAP1 POP JUMP JUMPDEST PUSH2 0xF99 DUP2 PUSH2 0xF86 JUMP JUMPDEST DUP2 EQ PUSH2 0xFA4 JUMPI PUSH1 0x0 DUP1 REVERT JUMPDEST POP JUMP JUMPDEST PUSH1 0x0 DUP2 CALLDATALOAD SWAP1 POP PUSH2 0xFB6 DUP2 PUSH2 0xF90 JUMP JUMPDEST SWAP3 SWAP2 POP POP JUMP JUMPDEST PUSH1 0x0 PUSH1 0x20 DUP3 DUP5 SUB SLT ISZERO PUSH2 0xFD2 JUMPI PUSH2 0xFD1 PUSH2 0xF81 JUMP JUMPDEST JUMPDEST PUSH1 0x0 PUSH2 0xFE0 DUP5 DUP3 DUP6 ADD PUSH2 0xFA7 JUMP JUMPDEST SWAP2 POP POP SWAP3 SWAP2 POP POP JUMP JUMPDEST PUSH1 0x0 PUSH20 0xFFFFFFFFFFFFFFFFFFFFFFFFFFFFFFFFFFFFFFFF DUP3 AND SWAP1 POP SWAP2 SWAP1 POP JUMP JUMPDEST PUSH1 0x0 PUSH2 0x1014 DUP3 PUSH2 0xFE9 JUMP JUMPDEST SWAP1 POP SWAP2 SWAP1 POP JUMP JUMPDEST PUSH2 0x1024 DUP2 PUSH2 0x1009 JUMP JUMPDEST DUP3 MSTORE POP POP JUMP JUMPDEST PUSH2 0x1033 DUP2 PUSH2 0xF86 JUMP JUMPDEST DUP3 MSTORE POP POP JUMP JUMPDEST PUSH32 0x4E487B7100000000000000000000000000000000000000000000000000000000 PUSH1 0x0 MSTORE PUSH1 0x21 PUSH1 0x4 MSTORE PUSH1 0x24 PUSH1 0x0 REVERT JUMPDEST PUSH1 0x5 DUP2 LT PUSH2 0x1079 JUMPI PUSH2 0x1078 PUSH2 0x1039 JUMP JUMPDEST JUMPDEST POP JUMP JUMPDEST PUSH1 0x0 DUP2 SWAP1 POP PUSH2 0x108A DUP3 PUSH2 0x1068 JUMP JUMPDEST SWAP2 SWAP1 POP JUMP JUMPDEST PUSH1 0x0 PUSH2 0x109A DUP3 PUSH2 0x107C JUMP JUMPDEST SWAP1 POP SWAP2 SWAP1 POP JUMP JUMPDEST PUSH2 0x10AA DUP2 PUSH2 0x108F JUMP JUMPDEST DUP3 MSTORE POP POP JUMP JUMPDEST PUSH1 0x0 PUSH1 0xA0 DUP3 ADD SWAP1 POP PUSH2 0x10C5 PUSH1 0x0 DUP4 ADD DUP9 PUSH2 0x101B JUMP JUMPDEST PUSH2 0x10D2 PUSH1 0x20 DUP4 ADD DUP8 PUSH2 0x101B JUMP JUMPDEST PUSH2 0x10DF PUSH1 0x40 DUP4 ADD DUP7 PUSH2 0x102A JUMP JUMPDEST PUSH2 0x10EC PUSH1 0x60 DUP4 ADD DUP6 PUSH2 0x102A JUMP JUMPDEST PUSH2 0x10F9 PUSH1 0x80 DUP4 ADD DUP5 PUSH2 0x10A1 JUMP JUMPDEST SWAP7 SWAP6 POP POP POP POP POP POP JUMP JUMPDEST PUSH1 0x0 DUP2 ISZERO ISZERO SWAP1 POP SWAP2 SWAP1 POP JUMP JUMPDEST PUSH2 0x1118 DUP2 PUSH2 0x1103 JUMP JUMPDEST DUP2 EQ PUSH2 0x1123 JUMPI PUSH1 0x0 DUP1 REVERT JUMPDEST POP JUMP JUMPDEST PUSH1 0x0 DUP2 CALLDATALOAD SWAP1 POP PUSH2 0x1135 DUP2 PUSH2 0x110F JUMP JUMPDEST SWAP3 SWAP2 POP POP JUMP JUMPDEST PUSH1 0x0 DUP1 PUSH1 0x40 DUP4 DUP6 SUB SLT ISZERO PUSH2 0x1152 JUMPI PUSH2 0x1151 PUSH2 0xF81 JUMP JUMPDEST JUMPDEST PUSH1 0x0 PUSH2 0x1160 DUP6 DUP3 DUP7 ADD PUSH2 0xFA7 JUMP JUMPDEST SWAP3 POP POP PUSH1 0x20 PUSH2 0x1171 DUP6 DUP3 DUP7 ADD PUSH2 0x1126 JUMP JUMPDEST SWAP2 POP POP SWAP3 POP SWAP3 SWAP1 POP JUMP JUMPDEST PUSH1 0x0 DUP2 SWAP1 POP SWAP2 SWAP1 POP JUMP JUMPDEST PUSH1 0x0 PUSH2 0x11A0 PUSH2 0x119B PUSH2 0x1196 DUP5 PUSH2 0xFE9 JUMP JUMPDEST PUSH2 0x117B JUMP JUMPDEST PUSH2 0xFE9 JUMP JUMPDEST SWAP1 POP SWAP2 SWAP1 POP JUMP JUMPDEST PUSH1 0x0 PUSH2 0x11B2 DUP3 PUSH2 0x1185 JUMP JUMPDEST SWAP1 POP SWAP2 SWAP1 POP JUMP JUMPDEST PUSH1 0x0 PUSH2 0x11C4 DUP3 PUSH2 0x11A7 JUMP JUMPDEST SWAP1 POP SWAP2 SWAP1 POP JUMP JUMPDEST PUSH2 0x11D4 DUP2 PUSH2 0x11B9 JUMP JUMPDEST DUP3 MSTORE POP POP JUMP JUMPDEST PUSH1 0x0 PUSH1 0x20 DUP3 ADD SWAP1 POP PUSH2 0x11EF PUSH1 0x0 DUP4 ADD DUP5 PUSH2 0x11CB JUMP JUMPDEST SWAP3 SWAP2 POP POP JUMP JUMPDEST PUSH1 0x0 PUSH1 0x20 DUP3 ADD SWAP1 POP PUSH2 0x120A PUSH1 0x0 DUP4 ADD DUP5 PUSH2 0x101B JUMP JUMPDEST SWAP3 SWAP2 POP POP JUMP JUMPDEST PUSH1 0x0 PUSH1 0x20 DUP3 ADD SWAP1 POP PUSH2 0x1225 PUSH1 0x0 DUP4 ADD DUP5 PUSH2 0x102A JUMP JUMPDEST SWAP3 SWAP2 POP POP JUMP JUMPDEST PUSH2 0x1234 DUP2 PUSH2 0x1009 JUMP JUMPDEST DUP2 EQ PUSH2 0x123F JUMPI PUSH1 0x0 DUP1 REVERT JUMPDEST POP JUMP JUMPDEST PUSH1 0x0 DUP2 CALLDATALOAD SWAP1 POP PUSH2 0x1251 DUP2 PUSH2 0x122B JUMP JUMPDEST SWAP3 SWAP2 POP POP JUMP JUMPDEST PUSH1 0x0 DUP1 PUSH1 0x0 PUSH1 0x60 DUP5 DUP7 SUB SLT ISZERO PUSH2 0x1270 JUMPI PUSH2 0x126F PUSH2 0xF81 JUMP JUMPDEST JUMPDEST PUSH1 0x0 PUSH2 0x127E DUP7 DUP3 DUP8 ADD PUSH2 0x1242 JUMP JUMPDEST SWAP4 POP POP PUSH1 0x20 PUSH2 0x128F DUP7 DUP3 DUP8 ADD PUSH2 0xFA7 JUMP JUMPDEST SWAP3 POP POP PUSH1 0x40 PUSH2 0x12A0 DUP7 DUP3 DUP8 ADD PUSH2 0xFA7 JUMP JUMPDEST SWAP2 POP POP SWAP3 POP SWAP3 POP SWAP3 JUMP JUMPDEST PUSH1 0x0 PUSH1 0x20 DUP3 DUP5 SUB SLT ISZERO PUSH2 0x12C0 JUMPI PUSH2 0x12BF PUSH2 0xF81 JUMP JUMPDEST JUMPDEST PUSH1 0x0 PUSH2 0x12CE DUP5 DUP3 DUP6 ADD PUSH2 0x1242 JUMP JUMPDEST SWAP2 POP POP SWAP3 SWAP2 POP POP JUMP JUMPDEST PUSH1 0x0 DUP3 DUP3 MSTORE PUSH1 0x20 DUP3 ADD SWAP1 POP SWAP3 SWAP2 POP POP JUMP JUMPDEST PUSH32 0x4E6F742064697370757465640000000000000000000000000000000000000000 PUSH1 0x0 DUP3 ADD MSTORE POP JUMP JUMPDEST PUSH1 0x0 PUSH2 0x131E PUSH1 0xC DUP4 PUSH2 0x12D7 JUMP JUMPDEST SWAP2 POP PUSH2 0x1329 DUP3 PUSH2 0x12E8 JUMP JUMPDEST PUSH1 0x20 DUP3 ADD SWAP1 POP SWAP2 SWAP1 POP JUMP JUMPDEST PUSH1 0x0 PUSH1 0x20 DUP3 ADD SWAP1 POP DUP2 DUP2 SUB PUSH1 0x0 DUP4 ADD MSTORE PUSH2 0x134D DUP2 PUSH2 0x1311 JUMP JUMPDEST SWAP1 POP SWAP2 SWAP1 POP JUMP JUMPDEST PUSH1 0x0 PUSH1 0x40 DUP3 ADD SWAP1 POP PUSH2 0x1369 PUSH1 0x0 DUP4 ADD DUP6 PUSH2 0x101B JUMP JUMPDEST PUSH2 0x1376 PUSH1 0x20 DUP4 ADD DUP5 PUSH2 0x102A JUMP JUMPDEST SWAP4 SWAP3 POP POP POP JUMP JUMPDEST PUSH1 0x0 DUP2 MLOAD SWAP1 POP PUSH2 0x138C DUP2 PUSH2 0x110F JUMP JUMPDEST SWAP3 SWAP2 POP POP JUMP JUMPDEST PUSH1 0x0 PUSH1 0x20 DUP3 DUP5 SUB SLT ISZERO PUSH2 0x13A8 JUMPI PUSH2 0x13A7 PUSH2 0xF81 JUMP JUMPDEST JUMPDEST PUSH1 0x0 PUSH2 0x13B6 DUP5 DUP3 DUP6 ADD PUSH2 0x137D JUMP JUMPDEST SWAP2 POP POP SWAP3 SWAP2 POP POP JUMP JUMPDEST PUSH32 0x52656C65617365206661696C6564000000000000000000000000000000000000 PUSH1 0x0 DUP3 ADD MSTORE POP JUMP JUMPDEST PUSH1 0x0 PUSH2 0x13F5 PUSH1 0xE DUP4 PUSH2 0x12D7 JUMP JUMPDEST SWAP2 POP PUSH2 0x1400 DUP3 PUSH2 0x13BF JUMP JUMPDEST PUSH1 0x20 DUP3 ADD SWAP1 POP SWAP2 SWAP1 POP JUMP JUMPDEST PUSH1 0x0 PUSH1 0x20 DUP3 ADD SWAP1 POP DUP2 DUP2 SUB PUSH1 0x0 DUP4 ADD MSTORE PUSH2 0x1424 DUP2 PUSH2 0x13E8 JUMP JUMPDEST SWAP1 POP SWAP2 SWAP1 POP JUMP JUMPDEST PUSH32 0x526566756E64206661696C656400000000000000000000000000000000000000 PUSH1 0x0 DUP3 ADD MSTORE POP JUMP JUMPDEST PUSH1 0x0 PUSH2 0x1461 PUSH1 0xD DUP4 PUSH2 0x12D7 JUMP JUMPDEST SWAP2 POP PUSH2 0x146C DUP3 PUSH2 0x142B JUMP JUMPDEST PUSH1 0x20 DUP3 ADD SWAP1 POP SWAP2 SWAP1 POP JUMP JUMPDEST PUSH1 0x0 PUSH1 0x20 DUP3 ADD SWAP1 POP DUP2 DUP2 SUB PUSH1 0x0 DUP4 ADD MSTORE PUSH2 0x1490 DUP2 PUSH2 0x1454 JUMP JUMPDEST SWAP1 POP SWAP2 SWAP1 POP JUMP JUMPDEST PUSH2 0x14A0 DUP2 PUSH2 0x1103 JUMP JUMPDEST DUP3 MSTORE POP POP JUMP JUMPDEST PUSH1 0x0 PUSH1 0x20 DUP3 ADD SWAP1 POP PUSH2 0x14BB PUSH1 0x0 DUP4 ADD DUP5 PUSH2 0x1497 JUMP JUMPDEST SWAP3 SWAP2 POP POP JUMP JUMPDEST PUSH32 0x4E6F742061637469766500000000000000000000000000000000000000000000 PUSH1 0x0 DUP3 ADD MSTORE POP JUMP JUMPDEST PUSH1 0x0 PUSH2 0x14F7 PUSH1 0xA DUP4 PUSH2 0x12D7 JUMP JUMPDEST SWAP2 POP PUSH2 0x1502 DUP3 PUSH2 0x14C1 JUMP JUMPDEST PUSH1 0x20 DUP3 ADD SWAP1 POP SWAP2 SWAP1 POP JUMP JUMPDEST PUSH1 0x0 PUSH1 0x20 DUP3 ADD SWAP1 POP DUP2 DUP2 SUB PUSH1 0x0 DUP4 ADD MSTORE PUSH2 0x1526 DUP2 PUSH2 0x14EA JUMP JUMPDEST SWAP1 POP SWAP2 SWAP1 POP JUMP JUMPDEST PUSH32 0x437573746F647920706572696F64206E6F7420656E6465640000000000000000 PUSH1 0x0 DUP3 ADD MSTORE POP JUMP JUMPDEST PUSH1 0x0 PUSH2 0x1563 PUSH1 0x18 DUP4 PUSH2 0x12D7 JUMP JUMPDEST SWAP2 POP PUSH2 0x156E DUP3 PUSH2 0x152D JUMP JUMPDEST PUSH1 0x20 DUP3 ADD SWAP1 POP SWAP2 SWAP1 POP JUMP JUMPDEST PUSH1 0x0 PUSH1 0x20 DUP3 ADD SWAP1 POP DUP2 DUP2 SUB PUSH1 0x0 DUP4 ADD MSTORE PUSH2 0x1592 DUP2 PUSH2 0x1556 JUMP JUMPDEST SWAP1 POP SWAP2 SWAP1 POP JUMP JUMPDEST PUSH32 0x437573746F64792072656C65617365206661696C656400000000000000000000 PUSH1 0x0 DUP3 ADD MSTORE POP JUMP JUMPDEST PUSH1 0x0 PUSH2 0x15CF PUSH1 0x16 DUP4 PUSH2 0x12D7 JUMP JUMPDEST SWAP2 POP PUSH2 0x15DA DUP3 PUSH2 0x1599 JUMP JUMPDEST PUSH1 0x20 DUP3 ADD SWAP1 POP SWAP2 SWAP1 POP JUMP JUMPDEST PUSH1 0x0 PUSH1 0x20 DUP3 ADD SWAP1 POP DUP2 DUP2 SUB PUSH1 0x0 DUP4 ADD MSTORE PUSH2 0x15FE DUP2 PUSH2 0x15C2 JUMP JUMPDEST SWAP1 POP SWAP2 SWAP1 POP JUMP JUMPDEST PUSH1 0x0 PUSH1 0x40 DUP3 ADD SWAP1 POP PUSH2 0x161A PUSH1 0x0 DUP4 ADD DUP6 PUSH2 0x102A JUMP JUMPDEST PUSH2 0x1627 PUSH1 0x20 DUP4 ADD DUP5 PUSH2 0x101B JUMP JUMPDEST SWAP4 SWAP3 POP POP POP JUMP JUMPDEST PUSH32 0x4E6F74207061727469636970616E740000000000000000000000000000000000 PUSH1 0x0 DUP3 ADD MSTORE POP JUMP JUMPDEST PUSH1 0x0 PUSH2 0x1664 PUSH1 0xF DUP4 PUSH2 0x12D7 JUMP JUMPDEST SWAP2 POP PUSH2 0x166F DUP3 PUSH2 0x162E JUMP JUMPDEST PUSH1 0x20 DUP3 ADD SWAP1 POP SWAP2 SWAP1 POP JUMP JUMPDEST PUSH1 0x0 PUSH1 0x20 DUP3 ADD SWAP1 POP DUP2 DUP2 SUB PUSH1 0x0 DUP4 ADD MSTORE PUSH2 0x1693 DUP2 PUSH2 0x1657 JUMP JUMPDEST SWAP1 POP SWAP2 SWAP1 POP JUMP JUMPDEST PUSH32 0x416D6F756E74206D757374206265203E20300000000000000000000000000000 PUSH1 0x0 DUP3 ADD MSTORE POP JUMP JUMPDEST PUSH1 0x0 PUSH2 0x16D0 PUSH1 0x12 DUP4 PUSH2 0x12D7 JUMP JUMPDEST SWAP2 POP PUSH2 0x16DB DUP3 PUSH2 0x169A JUMP JUMPDEST PUSH1 0x20 DUP3 ADD SWAP1 POP SWAP2 SWAP1 POP JUMP JUMPDEST PUSH1 0x0 PUSH1 0x20 DUP3 ADD SWAP1 POP DUP2 DUP2 SUB PUSH1 0x0 DUP4 ADD MSTORE PUSH2 0x16FF DUP2 PUSH2 0x16C3 JUMP JUMPDEST SWAP1 POP SWAP2 SWAP1 POP JUMP JUMPDEST PUSH1 0x0 PUSH1 0x60 DUP3 ADD SWAP1 POP PUSH2 0x171B PUSH1 0x0 DUP4 ADD DUP7 PUSH2 0x101B JUMP JUMPDEST PUSH2 0x1728 PUSH1 0x20 DUP4 ADD DUP6 PUSH2 0x101B JUMP JUMPDEST PUSH2 0x1735 PUSH1 0x40 DUP4 ADD DUP5 PUSH2 0x102A JUMP JUMPDEST SWAP5 SWAP4 POP POP POP POP JUMP JUMPDEST PUSH32 0x546F6B656E207472616E73666572206661696C65640000000000000000000000 PUSH1 0x0 DUP3 ADD MSTORE POP JUMP JUMPDEST PUSH1 0x0 PUSH2 0x1773 PUSH1 0x15 DUP4 PUSH2 0x12D7 JUMP JUMPDEST SWAP2 POP PUSH2 0x177E DUP3 PUSH2 0x173D JUMP JUMPDEST PUSH1 0x20 DUP3 ADD SWAP1 POP SWAP2 SWAP1 POP JUMP JUMPDEST PUSH1 0x0 PUSH1 0x20 DUP3 ADD SWAP1 POP DUP2 DUP2 SUB PUSH1 0x0 DUP4 ADD MSTORE PUSH2 0x17A2 DUP2 PUSH2 0x1766 JUMP JUMPDEST SWAP1 POP SWAP2 SWAP1 POP JUMP JUMPDEST PUSH32 0x4E487B7100000000000000000000000000000000000000000000000000000000 PUSH1 0x0 MSTORE PUSH1 0x11 PUSH1 0x4 MSTORE PUSH1 0x24 PUSH1 0x0 REVERT JUMPDEST PUSH1 0x0 PUSH2 0x17E3 DUP3 PUSH2 0xF86 JUMP JUMPDEST SWAP2 POP PUSH2 0x17EE DUP4 PUSH2 0xF86 JUMP JUMPDEST SWAP3 POP DUP3 DUP3 ADD SWAP1 POP DUP1 DUP3 GT ISZERO PUSH2 0x1806 JUMPI PUSH2 0x1805 PUSH2 0x17A9 JUMP JUMPDEST JUMPDEST SWAP3 SWAP2 POP POP JUMP JUMPDEST PUSH1 0x0 PUSH1 0x40 DUP3 ADD SWAP1 POP PUSH2 0x1821 PUSH1 0x0 DUP4 ADD DUP6 PUSH2 0x102A JUMP JUMPDEST PUSH2 0x182E PUSH1 0x20 DUP4 ADD DUP5 PUSH2 0x102A JUMP JUMPDEST SWAP4 SWAP3 POP POP POP JUMP JUMPDEST PUSH1 0x0 PUSH2 0x1840 DUP3 PUSH2 0xF86 JUMP JUMPDEST SWAP2 POP PUSH32 0xFFFFFFFFFFFFFFFFFFFFFFFFFFFFFFFFFFFFFFFFFFFFFFFFFFFFFFFFFFFFFFFF DUP3 SUB PUSH2 0x1872 JUMPI PUSH2 0x1871 PUSH2 0x17A9 JUMP JUMPDEST JUMPDEST PUSH1 0x1 DUP3 ADD SWAP1 POP SWAP2 SWAP1 POP JUMP JUMPDEST PUSH32 0x4F776E61626C653A206E6577206F776E657220697320746865207A65726F2061 PUSH1 0x0 DUP3 ADD MSTORE PUSH32 0x6464726573730000000000000000000000000000000000000000000000000000 PUSH1 0x20 DUP3 ADD MSTORE POP JUMP JUMPDEST PUSH1 0x0 PUSH2 0x18D9 PUSH1 0x26 DUP4 PUSH2 0x12D7 JUMP JUMPDEST SWAP2 POP PUSH2 0x18E4 DUP3 PUSH2 0x187D JUMP JUMPDEST PUSH1 0x40 DUP3 ADD SWAP1 POP SWAP2 SWAP1 POP JUMP JUMPDEST PUSH1 0x0 PUSH1 0x20 DUP3 ADD SWAP1 POP DUP2 DUP2 SUB PUSH1 0x0 DUP4 ADD MSTORE PUSH2 0x1908 DUP2 PUSH2 0x18CC JUMP JUMPDEST SWAP1 POP SWAP2 SWAP1 POP JUMP JUMPDEST PUSH32 0x4F776E61626C653A2063616C6C6572206973206E6F7420746865206F776E6572 PUSH1 0x0 DUP3 ADD MSTORE POP JUMP JUMPDEST PUSH1 0x0 PUSH2 0x1945 PUSH1 0x20 DUP4 PUSH2 0x12D7 JUMP JUMPDEST SWAP2 POP PUSH2 0x1950 DUP3 PUSH2 0x190F JUMP JUMPDEST PUSH1 0x20 DUP3 ADD SWAP1 POP SWAP2 SWAP1 POP JUMP JUMPDEST PUSH1 0x0 PUSH1 0x20 DUP3 ADD SWAP1 POP DUP2 DUP2 SUB PUSH1 0x0 DUP4 ADD MSTORE PUSH2 0x1974 DUP2 PUSH2 0x1938 JUMP JUMPDEST SWAP1 POP SWAP2 SWAP1 POP JUMP INVALID LOG2 PUSH5 0x6970667358 0x22 SLT KECCAK256 0xAF 0xEA SLOAD SIGNEXTEND SWAP1 0x25 DUP14 DUP3 0xE1 LOG2 JUMPI CALLCODE 0x26 ISZERO RETURNDATACOPY SWAP8 PUSH21 0x3B23D689FAFE331F5DF610145A239164736F6C6343 STOP ADDMOD EQ STOP CALLER "},"methodIdentifiers":{"FEE_BPS()":"bf333f2c","createEscrow(address,uint256,uint256)":"e2ecb311","escrowCounter()":"c7ceafea","escrows(uint256)":"012f52ee","mxnbToken()":"4043cd95","owner()":"8da5cb5b","platformWallet()":"fa2af9da","raiseDispute(uint256)":"a5c1674e","releaseCustody(uint256)":"9526592f","renounceOwnership()":"715018a6","resolveDispute(uint256,bool)":"34b25ee2","transferOwnership(address)":"f2fde38b"}},"storageLayout":{"storage":[{"astId":680,"contract":"contracts/KustodiaEscrow.sol:KustodiaEscrow","label":"_owner","offset":0,"slot":"0","type":"t_address"},{"astId":1514,"contract":"contracts/KustodiaEscrow.sol:KustodiaEscrow","label":"mxnbToken","offset":0,"slot":"1","type":"t_contract(IERC20)1450"},{"astId":1516,"contract":"contracts/KustodiaEscrow.sol:KustodiaEscrow","label":"platformWallet","offset":0,"slot":"2","type":"t_address"},{"astId":1539,"contract":"contracts/KustodiaEscrow.sol:KustodiaEscrow","label":"escrowCounter","offset":0,"slot":"3","type":"t_uint256"},{"astId":1544,"contract":"contracts/KustodiaEscrow.sol:KustodiaEscrow","label":"escrows","offset":0,"slot":"4","type":"t_mapping(t_uint256,t_struct(Escrow)1537_storage)"}],"types":{"t_address":{"encoding":"inplace","label":"address","numberOfBytes":"20"},"t_contract(IERC20)1450":{"encoding":"inplace","label":"contract IERC20","numberOfBytes":"20"},"t_enum(EscrowStatus)1525":{"encoding":"inplace","label":"enum KustodiaEscrow.EscrowStatus","numberOfBytes":"1"},"t_mapping(t_uint256,t_struct(Escrow)1537_storage)":{"encoding":"mapping","key":"t_uint256","label":"mapping(uint256 => struct KustodiaEscrow.Escrow)","numberOfBytes":"32","value":"t_struct(Escrow)1537_storage"},"t_struct(Escrow)1537_storage":{"encoding":"inplace","label":"struct KustodiaEscrow.Escrow","members":[{"astId":1527,"contract":"contracts/KustodiaEscrow.sol:KustodiaEscrow","label":"buyer","offset":0,"slot":"0","type":"t_address"},{"astId":1529,"contract":"contracts/KustodiaEscrow.sol:KustodiaEscrow","label":"seller","offset":0,"slot":"1","type":"t_address"},{"astId":1531,"contract":"contracts/KustodiaEscrow.sol:KustodiaEscrow","label":"custodyAmount","offset":0,"slot":"2","type":"t_uint256"},{"astId":1533,"contract":"contracts/KustodiaEscrow.sol:KustodiaEscrow","label":"custodyEnd","offset":0,"slot":"3","type":"t_uint256"},{"astId":1536,"contract":"contracts/KustodiaEscrow.sol:KustodiaEscrow","label":"status","offset":0,"slot":"4","type":"t_enum(EscrowStatus)1525"}],"numberOfBytes":"160"},"t_uint256":{"encoding":"inplace","label":"uint256","numberOfBytes":"32"}}}}}}