{
  "_format": "hh-sol-artifact-1",
  "contractName": "KustodiaEscrow2_0Pausable",
  "sourceName": "contracts/KustodiaEscrow2_0Pausable.sol",
  "abi": [
    {
      "inputs": [],
      "stateMutability": "nonpayable",
      "type": "constructor"
    },
    {
      "anonymous": false,
      "inputs": [
        {
          "indexed": false,
          "internalType": "address",
          "name": "previousAdmin",
          "type": "address"
        },
        {
          "indexed": false,
          "internalType": "address",
          "name": "newAdmin",
          "type": "address"
        }
      ],
      "name": "AdminChanged",
      "type": "event"
    },
    {
      "anonymous": false,
      "inputs": [
        {
          "indexed": true,
          "internalType": "address",
          "name": "beacon",
          "type": "address"
        }
      ],
      "name": "BeaconUpgraded",
      "type": "event"
    },
    {
      "anonymous": false,
      "inputs": [
        {
          "indexed": true,
          "internalType": "address",
          "name": "oldBridge",
          "type": "address"
        },
        {
          "indexed": true,
          "internalType": "address",
          "name": "newBridge",
          "type": "address"
        }
      ],
      "name": "BridgeWalletUpdated",
      "type": "event"
    },
    {
      "anonymous": false,
      "inputs": [
        {
          "indexed": true,
          "internalType": "uint256",
          "name": "escrowId",
          "type": "uint256"
        }
      ],
      "name": "EscrowCancelled",
      "type": "event"
    },
    {
      "anonymous": false,
      "inputs": [
        {
          "indexed": true,
          "internalType": "uint256",
          "name": "escrowId",
          "type": "uint256"
        },
        {
          "indexed": true,
          "internalType": "address",
          "name": "payer",
          "type": "address"
        },
        {
          "indexed": true,
          "internalType": "address",
          "name": "payee",
          "type": "address"
        },
        {
          "indexed": false,
          "internalType": "uint256",
          "name": "amount",
          "type": "uint256"
        },
        {
          "indexed": false,
          "internalType": "string",
          "name": "vertical",
          "type": "string"
        },
        {
          "indexed": false,
          "internalType": "string",
          "name": "clabe",
          "type": "string"
        }
      ],
      "name": "EscrowCreated",
      "type": "event"
    },
    {
      "anonymous": false,
      "inputs": [
        {
          "indexed": true,
          "internalType": "uint256",
          "name": "escrowId",
          "type": "uint256"
        },
        {
          "indexed": false,
          "internalType": "address",
          "name": "by",
          "type": "address"
        },
        {
          "indexed": false,
          "internalType": "string",
          "name": "reason",
          "type": "string"
        }
      ],
      "name": "EscrowDisputed",
      "type": "event"
    },
    {
      "anonymous": false,
      "inputs": [
        {
          "indexed": true,
          "internalType": "uint256",
          "name": "escrowId",
          "type": "uint256"
        },
        {
          "indexed": false,
          "internalType": "uint256",
          "name": "amount",
          "type": "uint256"
        }
      ],
      "name": "EscrowFunded",
      "type": "event"
    },
    {
      "anonymous": false,
      "inputs": [
        {
          "indexed": true,
          "internalType": "uint256",
          "name": "escrowId",
          "type": "uint256"
        }
      ],
      "name": "EscrowReleased",
      "type": "event"
    },
    {
      "anonymous": false,
      "inputs": [
        {
          "indexed": false,
          "internalType": "uint8",
          "name": "version",
          "type": "uint8"
        }
      ],
      "name": "Initialized",
      "type": "event"
    },
    {
      "anonymous": false,
      "inputs": [
        {
          "indexed": true,
          "internalType": "address",
          "name": "previousOwner",
          "type": "address"
        },
        {
          "indexed": true,
          "internalType": "address",
          "name": "newOwner",
          "type": "address"
        }
      ],
      "name": "OwnershipTransferred",
      "type": "event"
    },
    {
      "anonymous": false,
      "inputs": [
        {
          "indexed": false,
          "internalType": "address",
          "name": "account",
          "type": "address"
        }
      ],
      "name": "Paused",
      "type": "event"
    },
    {
      "anonymous": false,
      "inputs": [
        {
          "indexed": true,
          "internalType": "address",
          "name": "pauser",
          "type": "address"
        }
      ],
      "name": "PauserAdded",
      "type": "event"
    },
    {
      "anonymous": false,
      "inputs": [
        {
          "indexed": true,
          "internalType": "address",
          "name": "pauser",
          "type": "address"
        }
      ],
      "name": "PauserRemoved",
      "type": "event"
    },
    {
      "anonymous": false,
      "inputs": [
        {
          "indexed": true,
          "internalType": "address",
          "name": "oldPlatform",
          "type": "address"
        },
        {
          "indexed": true,
          "internalType": "address",
          "name": "newPlatform",
          "type": "address"
        }
      ],
      "name": "PlatformWalletUpdated",
      "type": "event"
    },
    {
      "anonymous": false,
      "inputs": [
        {
          "indexed": false,
          "internalType": "address",
          "name": "account",
          "type": "address"
        }
      ],
      "name": "Unpaused",
      "type": "event"
    },
    {
      "anonymous": false,
      "inputs": [
        {
          "indexed": true,
          "internalType": "address",
          "name": "implementation",
          "type": "address"
        }
      ],
      "name": "Upgraded",
      "type": "event"
    },
    {
      "inputs": [
        {
          "internalType": "address",
          "name": "pauser",
          "type": "address"
        }
      ],
      "name": "addPauser",
      "outputs": [],
      "stateMutability": "nonpayable",
      "type": "function"
    },
    {
      "inputs": [],
      "name": "bridgeWallet",
      "outputs": [
        {
          "internalType": "address",
          "name": "",
          "type": "address"
        }
      ],
      "stateMutability": "view",
      "type": "function"
    },
    {
      "inputs": [
        {
          "internalType": "uint256",
          "name": "escrowId",
          "type": "uint256"
        }
      ],
      "name": "cancelEscrow",
      "outputs": [],
      "stateMutability": "nonpayable",
      "type": "function"
    },
    {
      "inputs": [
        {
          "internalType": "address",
          "name": "payer",
          "type": "address"
        },
        {
          "internalType": "address",
          "name": "payee",
          "type": "address"
        },
        {
          "internalType": "uint256",
          "name": "amount",
          "type": "uint256"
        },
        {
          "internalType": "uint256",
          "name": "deadline",
          "type": "uint256"
        },
        {
          "internalType": "string",
          "name": "vertical",
          "type": "string"
        },
        {
          "internalType": "string",
          "name": "clabe",
          "type": "string"
        },
        {
          "internalType": "string",
          "name": "conditions",
          "type": "string"
        },
        {
          "internalType": "address",
          "name": "token",
          "type": "address"
        }
      ],
      "name": "createEscrow",
      "outputs": [
        {
          "internalType": "uint256",
          "name": "",
          "type": "uint256"
        }
      ],
      "stateMutability": "nonpayable",
      "type": "function"
    },
    {
      "inputs": [
        {
          "internalType": "uint256",
          "name": "escrowId",
          "type": "uint256"
        },
        {
          "internalType": "string",
          "name": "reason",
          "type": "string"
        }
      ],
      "name": "disputeEscrow",
      "outputs": [],
      "stateMutability": "nonpayable",
      "type": "function"
    },
    {
      "inputs": [
        {
          "internalType": "uint256",
          "name": "",
          "type": "uint256"
        }
      ],
      "name": "escrows",
      "outputs": [
        {
          "internalType": "address",
          "name": "payer",
          "type": "address"
        },
        {
          "internalType": "address",
          "name": "payee",
          "type": "address"
        },
        {
          "internalType": "uint256",
          "name": "amount",
          "type": "uint256"
        },
        {
          "internalType": "uint256",
          "name": "deadline",
          "type": "uint256"
        },
        {
          "internalType": "string",
          "name": "vertical",
          "type": "string"
        },
        {
          "internalType": "string",
          "name": "clabe",
          "type": "string"
        },
        {
          "internalType": "enum KustodiaEscrow2_0Pausable.EscrowStatus",
          "name": "status",
          "type": "uint8"
        },
        {
          "internalType": "string",
          "name": "conditions",
          "type": "string"
        },
        {
          "internalType": "address",
          "name": "token",
          "type": "address"
        }
      ],
      "stateMutability": "view",
      "type": "function"
    },
    {
      "inputs": [
        {
          "internalType": "uint256",
          "name": "escrowId",
          "type": "uint256"
        }
      ],
      "name": "fundEscrow",
      "outputs": [],
      "stateMutability": "payable",
      "type": "function"
    },
    {
      "inputs": [
        {
          "internalType": "uint256",
          "name": "escrowId",
          "type": "uint256"
        }
      ],
      "name": "getEscrow",
      "outputs": [
        {
          "internalType": "address",
          "name": "payer",
          "type": "address"
        },
        {
          "internalType": "address",
          "name": "payee",
          "type": "address"
        },
        {
          "internalType": "uint256",
          "name": "amount",
          "type": "uint256"
        },
        {
          "internalType": "uint256",
          "name": "deadline",
          "type": "uint256"
        },
        {
          "internalType": "string",
          "name": "vertical",
          "type": "string"
        },
        {
          "internalType": "string",
          "name": "clabe",
          "type": "string"
        },
        {
          "internalType": "enum KustodiaEscrow2_0Pausable.EscrowStatus",
          "name": "status",
          "type": "uint8"
        },
        {
          "internalType": "string",
          "name": "conditions",
          "type": "string"
        },
        {
          "internalType": "address",
          "name": "token",
          "type": "address"
        }
      ],
      "stateMutability": "view",
      "type": "function"
    },
    {
      "inputs": [
        {
          "internalType": "address",
          "name": "_bridgeWallet",
          "type": "address"
        },
        {
          "internalType": "address",
          "name": "_platformWallet",
          "type": "address"
        }
      ],
      "name": "initialize",
      "outputs": [],
      "stateMutability": "nonpayable",
      "type": "function"
    },
    {
      "inputs": [],
      "name": "nextEscrowId",
      "outputs": [
        {
          "internalType": "uint256",
          "name": "",
          "type": "uint256"
        }
      ],
      "stateMutability": "view",
      "type": "function"
    },
    {
      "inputs": [],
      "name": "owner",
      "outputs": [
        {
          "internalType": "address",
          "name": "",
          "type": "address"
        }
      ],
      "stateMutability": "view",
      "type": "function"
    },
    {
      "inputs": [],
      "name": "pause",
      "outputs": [],
      "stateMutability": "nonpayable",
      "type": "function"
    },
    {
      "inputs": [],
      "name": "paused",
      "outputs": [
        {
          "internalType": "bool",
          "name": "",
          "type": "bool"
        }
      ],
      "stateMutability": "view",
      "type": "function"
    },
    {
      "inputs": [
        {
          "internalType": "address",
          "name": "",
          "type": "address"
        }
      ],
      "name": "pausers",
      "outputs": [
        {
          "internalType": "bool",
          "name": "",
          "type": "bool"
        }
      ],
      "stateMutability": "view",
      "type": "function"
    },
    {
      "inputs": [],
      "name": "platformWallet",
      "outputs": [
        {
          "internalType": "address",
          "name": "",
          "type": "address"
        }
      ],
      "stateMutability": "view",
      "type": "function"
    },
    {
      "inputs": [],
      "name": "proxiableUUID",
      "outputs": [
        {
          "internalType": "bytes32",
          "name": "",
          "type": "bytes32"
        }
      ],
      "stateMutability": "view",
      "type": "function"
    },
    {
      "inputs": [
        {
          "internalType": "uint256",
          "name": "escrowId",
          "type": "uint256"
        }
      ],
      "name": "releaseEscrow",
      "outputs": [],
      "stateMutability": "nonpayable",
      "type": "function"
    },
    {
      "inputs": [
        {
          "internalType": "address",
          "name": "pauser",
          "type": "address"
        }
      ],
      "name": "removePauser",
      "outputs": [],
      "stateMutability": "nonpayable",
      "type": "function"
    },
    {
      "inputs": [],
      "name": "renounceOwnership",
      "outputs": [],
      "stateMutability": "nonpayable",
      "type": "function"
    },
    {
      "inputs": [
        {
          "internalType": "address payable",
          "name": "to",
          "type": "address"
        },
        {
          "internalType": "uint256",
          "name": "amount",
          "type": "uint256"
        }
      ],
      "name": "rescueETH",
      "outputs": [],
      "stateMutability": "nonpayable",
      "type": "function"
    },
    {
      "inputs": [
        {
          "internalType": "address",
          "name": "token",
          "type": "address"
        },
        {
          "internalType": "address",
          "name": "to",
          "type": "address"
        },
        {
          "internalType": "uint256",
          "name": "amount",
          "type": "uint256"
        }
      ],
      "name": "rescueTokens",
      "outputs": [],
      "stateMutability": "nonpayable",
      "type": "function"
    },
    {
      "inputs": [
        {
          "internalType": "address",
          "name": "newOwner",
          "type": "address"
        }
      ],
      "name": "transferOwnership",
      "outputs": [],
      "stateMutability": "nonpayable",
      "type": "function"
    },
    {
      "inputs": [],
      "name": "unpause",
      "outputs": [],
      "stateMutability": "nonpayable",
      "type": "function"
    },
    {
      "inputs": [
        {
          "internalType": "address",
          "name": "newBridgeWallet",
          "type": "address"
        }
      ],
      "name": "updateBridgeWallet",
      "outputs": [],
      "stateMutability": "nonpayable",
      "type": "function"
    },
    {
      "inputs": [
        {
          "internalType": "address",
          "name": "newPlatformWallet",
          "type": "address"
        }
      ],
      "name": "updatePlatformWallet",
      "outputs": [],
      "stateMutability": "nonpayable",
      "type": "function"
    },
    {
      "inputs": [
        {
          "internalType": "address",
          "name": "newImplementation",
          "type": "address"
        }
      ],
      "name": "upgradeTo",
      "outputs": [],
      "stateMutability": "nonpayable",
      "type": "function"
    },
    {
      "inputs": [
        {
          "internalType": "address",
          "name": "newImplementation",
          "type": "address"
        },
        {
          "internalType": "bytes",
          "name": "data",
          "type": "bytes"
        }
      ],
      "name": "upgradeToAndCall",
      "outputs": [],
      "stateMutability": "payable",
      "type": "function"
    },
    {
      "stateMutability": "payable",
      "type": "receive"
    }
  ],
  "bytecode": "0x60a080604052346100dc57306080526000549060ff8260081c1661008a575060ff8082160361004f575b60405161284090816100e282396080518181816115440152818161163f0152611b510152f35b60ff90811916176000557f7f26b83ff96e1f2b6a682f133852f6798a09c465da95921460cefb3847402498602060405160ff8152a138610029565b62461bcd60e51b815260206004820152602760248201527f496e697469616c697a61626c653a20636f6e747261637420697320696e697469604482015266616c697a696e6760c81b6064820152608490fd5b600080fdfe6080604052600436101561001b575b361561001957600080fd5b005b60003560e01c8063012f52ee14611e29578063099a04e514611d575780633659cfe614611b2d5780633f4ba83a14611a99578063485cc9551461189f57806349c74bed1461182a5780634f1ef286146115f057806352d1902d146115315780635c975abb1461150e5780636b2c0f55146114a7578063715018a61461145c5780637d19e596146113d057806380f51c121461139057806382dc1ec4146112f35780638456cb591461122f57806389cb29dd146112105780638da5cb5b146111e75780639f5644fd146110ec578063ac31309d14610a2a578063ada4ef30146109b5578063c9c31af514610740578063cea9d26f14610661578063e01824361461040c578063ed6531641461022f578063f2fde38b146101a2578063fa2af9da146101785763fa89c1710361000e57346101735760003660031901126101735761012f546040516001600160a01b039091168152602090f35b600080fd5b3461017357600036600319011261017357610130546040516001600160a01b039091168152602090f35b34610173576020366003190112610173576101bb612085565b6101c3612121565b6001600160a01b038116156101db5761001990612179565b60405162461bcd60e51b815260206004820152602660248201527f4f776e61626c653a206e6577206f776e657220697320746865207a65726f206160448201526564647265737360d01b6064820152608490fd5b3461017357602080600319360112610173576004359060018060a01b0361025c8161012f54163314612495565b6102646124d5565b61026c612519565b8260005261012e8083526102888260406000205416151561256f565b8360005280835260ff6006604060002001541660058110156103f65760016102b0911461260f565b83600052825260406000209060068201600260ff198254161790558281600884015416801560001461036a57505060008083600282959460018496015416910154905af16102fc6122de565b501561033057505b7f69833829d5691ae09424af7d16f73adf033451149ea9c2fc6fcb4c44108eef67600080a26001609755005b6064906040519062461bcd60e51b825260048201526013602482015272115512081d1c985b9cd9995c8819985a5b1959606a1b6044820152fd5b6002849293600161039a9601541692015491600060405180968195829463a9059cbb60e01b84526004840161264f565b03925af19081156103ea576103b8926000926103bd575b50506125cb565b610304565b6103dc9250803d106103e3575b6103d48183611f03565b8101906125b3565b83806103b1565b503d6103ca565b6040513d6000823e3d90fd5b634e487b7160e01b600052602160045260246000fd5b3461017357602080600319360112610173576004359060018060a01b036104398161012f54163314612495565b6104416124d5565b610449612519565b8260005261012e8083526104658260406000205416151561256f565b8360005280835260ff6006604060002001541660058110156103f657600114801561063c575b156105e85783600052825260406000209060068201600460ff198254161790558281600884015416801560001461054557505060008083600282959483955416910154905af16104d96122de565b501561050d57505b7f0d977c6b1a383ac5ce532b4a668d0ef9ad38478e1a5ff28abb221f4b682b2643600080a26001609755005b6064906040519062461bcd60e51b825260048201526011602482015270115512081c99599d5b990819985a5b1959607a1b6044820152fd5b600284929361057295541692015491600060405180968195829463a9059cbb60e01b84526004840161264f565b03925af19081156103ea576000916105cb575b501561059157506104e1565b6064906040519062461bcd60e51b825260048201526013602482015272151bdad95b881c99599d5b990819985a5b1959606a1b6044820152fd5b6105e29150823d84116103e3576103d48183611f03565b83610585565b60405162461bcd60e51b815260048101849052602660248201527f43616e6e6f742063616e63656c20657363726f7720696e2063757272656e742060448201526573746174757360d01b6064820152608490fd5b508360005280835260ff6006604060002001541660058110156103f65760031461048b565b346101735760603660031901126101735761067a612085565b60206106c861068761209b565b92610690612121565b6001600160a01b03936106a6818616151561266a565b600060405195868095819463a9059cbb60e01b8352604435906004840161264f565b0393165af19081156103ea57600091610722575b50156106e457005b60405162461bcd60e51b815260206004820152601660248201527514995cd8dd59481d1c985b9cd9995c8819985a5b195960521b6044820152606490fd5b61073a915060203d81116103e3576103d48183611f03565b816106dc565b602080600319360112610173576004359060018060a01b036107688161012f54163314612495565b6107706124d5565b610778612519565b8260005261012e8083526107948260406000205416151561256f565b8360005280835260ff6006604060002001541660058110156103f657610971578360005280835260036040600020015442116109335783600052825260406000209060088201541680156000146108605750600281015434036108245790600260008051602061276b833981519152925b60068101805460ff191660011790550154604051908152a26001609755005b60405162461bcd60e51b8152600481018390526014602482015273125b98dbdc9c9958dd0811551208185b5bdd5b9d60621b6044820152606490fd5b346108e4579082600093926064600284015460405196879384926323b872dd60e01b845233600485015230602485015260448401525af19081156103ea576108c260029260008051602061276b833981519152956000916108c7575b506125cb565b610805565b6108de9150853d87116103e3576103d48183611f03565b876108bc565b60405162461bcd60e51b815260048101849052602160248201527f455448206e6f7420616363657074656420666f7220746f6b656e20657363726f6044820152607760f81b6064820152608490fd5b60405162461bcd60e51b8152600481018490526016602482015275115cd8dc9bddc8191958591b1a5b99481c185cdcd95960521b6044820152606490fd5b60405162461bcd60e51b815260048101849052601c60248201527b457363726f77206e6f7420696e2070656e64696e672073746174757360201b6044820152606490fd5b34610173576020366003190112610173576109ce612085565b6109d6612121565b6001600160a01b03908116906109ed8215156123ef565b61013080546001600160a01b031981168417909155167ff84f6b525c89a18c80bbbc0c62a7eb5390956d6b8432ab067b49963a98f8c38f600080a3005b346101735761010036600319011261017357610a44612085565b610a4c61209b565b6084356001600160401b03811161017357610a6b903690600401612103565b9160a4356001600160401b03811161017357610a8b903690600401612103565b60c4356001600160401b03811161017357610aaa903690600401612103565b926001600160a01b0360e435818116810361017357610acf8261012f54163314612495565b610ad76124d5565b610adf612519565b818516156110b75781831615611082576044351561103d57426064351115610ff857865115610fb857835115610f7b5761012d805496906000198814610f65576001888101909155600088815261012e6020526040902080546001600160a01b03199081168987161782559181018054909216868616179091556044356002820155606435600382015588519091906001600160401b038111610dd057610b896004840154611eae565b601f8111610f1e575b50806020601f8211600114610eb057600091610ea5575b508160011b916000199060031b1c19161760048301555b85516001600160401b038111610dd057610bdd6005840154611eae565b601f8111610e5e575b50806020601f8211600114610df157600091610de6575b508160011b916000199060031b1c19161760058301555b60068201805460ff191690558051906001600160401b038211610dd057610c3e6007840154611eae565b601f8111610d89575b50918895939160209a95938b90601f8311600114610cfa57946008610ccd9794848395610cdf989560008051602061270b8339815191529c9a600092610cef575b50508160011b916000199060031b1c19161760078201555b01911660018060a01b031982541617905580604051958695604435875260608e8801526060870190611fcc565b92858403604087015216981696611fcc565b0390a46001609755604051908152f35b015190503880610c88565b90600784016000528c6000209160005b601f1985168110610d6f5750610ccd9794600185610cdf98958a979560089560008051602061270b8339815191529e9c97601f19811610610d56575b505050811b016007820155610ca0565b015160001960f88460031b161c19169055388080610d46565b8183015184558d9a50600190930192918e01918e01610d0a565b600784016000526020600020601f840160051c810160208510610dc9575b601f830160051c82018110610dbd575050610c47565b60008155600101610da7565b5080610da7565b634e487b7160e01b600052604160045260246000fd5b90508701518b610bfd565b91506005840160005260206000206000925b601f1983168410610e46576001935082601f19811610610e2d575b5050811b016005830155610c14565b89015160001960f88460031b161c191690558b80610e1e565b89810151825560209384019360019092019101610e03565b600584016000526020600020601f830160051c810160208410610e9e575b601f830160051c82018110610e92575050610be6565b60008155600101610e7c565b5080610e7c565b90508a01518b610ba9565b91506004840160005260206000206000925b8c601f1984168510610f0757506001935082601f19811610610eee575b5050811b016004830155610bc0565b8c015160001960f88460031b161c191690558b80610edf565b810151825560209384019360019092019101610ec2565b600484016000526020600020601f830160051c810160208410610f5e575b601f830160051c82018110610f52575050610b92565b60008155600101610f3c565b5080610f3c565b634e487b7160e01b600052601160045260246000fd5b60405162461bcd60e51b8152602060048201526015602482015274434c4142452063616e6e6f7420626520656d70747960581b6044820152606490fd5b60405162461bcd60e51b8152602060048201526018602482015277566572746963616c2063616e6e6f7420626520656d70747960401b6044820152606490fd5b60405162461bcd60e51b815260206004820152601e60248201527f446561646c696e65206d75737420626520696e207468652066757475726500006044820152606490fd5b60405162461bcd60e51b815260206004820152601d60248201527f416d6f756e74206d7573742062652067726561746572207468616e20300000006044820152606490fd5b60405162461bcd60e51b815260206004820152600d60248201526c496e76616c696420706179656560981b6044820152606490fd5b60405162461bcd60e51b815260206004820152600d60248201526c24b73b30b634b2103830bcb2b960991b6044820152606490fd5b34610173576040366003190112610173576004356024356001600160401b0381116101735761111f903690600401612103565b61012f546001600160a01b03919061113a9083163314612495565b6111426124d5565b8260005261115f61012e928360205260406000205416151561256f565b826000528160205260ff600660406000200154169060058210156103f6577fc523357a17c19a0da11b08e9f4d7e4fbed304cbe1be1d3583e4d5a677d75d709926111ae60016111e2941461260f565b846000526020526006604060002001600360ff19825416179055604051918291338352604060208401526040830190611fcc565b0390a2005b34610173576000366003190112610173576033546040516001600160a01b039091168152602090f35b3461017357600036600319011261017357602061012d54604051908152f35b34610173576000366003190112610173573360005261013160205260ff6040600020541680156112df575b156112a0576112676124d5565b600160ff1960655416176065557f62e78cea01bee320cd4e420270b5ea74000d11b0c9f74754ebdbfc544b05a2586020604051338152a1005b60405162461bcd60e51b81526020600482015260176024820152764e6f7420617574686f72697a656420746f20706175736560481b6044820152606490fd5b506033546001600160a01b0316331461125a565b346101735760203660031901126101735761130c612085565b611314612121565b6001600160a01b0316801561135257806000526101316020526040600020600160ff1982541617905560008051602061278b833981519152600080a2005b60405162461bcd60e51b8152602060048201526016602482015275496e76616c696420706175736572206164647265737360501b6044820152606490fd5b34610173576020366003190112610173576001600160a01b036113b1612085565b16600052610131602052602060ff604060002054166040519015158152f35b346101735760203660031901126101735760043560005261012e602052604060002060018060a01b03906114588282541691836001820154169360028201549060038301549260ff600682015416916008820154169361143260048301611f26565b9061144b600761144460058601611f26565b9401611f26565b94604051998a998a61200c565b0390f35b3461017357600036600319011261017357611475612121565b603380546001600160a01b031981169091556000906001600160a01b031660008051602061272b8339815191528280a3005b34610173576020366003190112610173576114c0612085565b6114c8612121565b6001600160a01b0316600081815261013160205260408120805460ff191690557fcd265ebaf09df2871cc7bd4133404a235ba12eff2041bb89d9c714a2621c7c7e9080a2005b3461017357600036600319011261017357602060ff606554166040519015158152f35b34610173576000366003190112610173577f00000000000000000000000000000000000000000000000000000000000000006001600160a01b0316300361158a5760206040516000805160206126eb8339815191528152f35b60405162461bcd60e51b815260206004820152603860248201527f555550535570677261646561626c653a206d757374206e6f742062652063616c6044820152771b1959081d1a1c9bdd59da0819195b1959d85d1958d85b1b60421b6064820152608490fd5b604036600319011261017357611604612085565b6024356001600160401b0381116101735736602382011215610173576116349036906024816004013591016120cc565b906001600160a01b037f000000000000000000000000000000000000000000000000000000000000000081169061166d308314156121b0565b61168a6000805160206126eb8339815191529282845416146121ff565b611692612121565b6000805160206126ab8339815191525460ff16156116b6575050610019915061224e565b6040516352d1902d60e01b81526020939291831691908481600481865afa600091816117fb575b5061172c5760405162461bcd60e51b815260048101869052602e60248201526000805160206127eb83398151915260448201526d6f6e206973206e6f74205555505360901b6064820152608490fd5b036117b65761173a8261224e565b60008051602061274b833981519152600080a28251158015906117ae575b61175e57005b600080610019946040519461177286611ee8565b602786526000805160206127cb83398151915281870152660819985a5b195960ca1b604087015281519101845af46117a86122de565b9161230e565b506001611758565b60405162461bcd60e51b815260048101849052602960248201526000805160206127ab8339815191526044820152681a58589b195555525160ba1b6064820152608490fd5b9091508581813d8311611823575b6118138183611f03565b81010312610173575190876116dd565b503d611809565b3461017357602036600319011261017357611843612085565b61184b612121565b6001600160a01b03908116906118628215156123ab565b61012f80546001600160a01b031981168417909155167f91d457de561e4ff0286a9e52e9d55f256d473cf2ff4edb3988d8b17426927e8f600080a3005b34610173576040366003190112610173576118b8612085565b6118c061209b565b6000549060ff8260081c161592838094611a8c575b8015611a75575b15611a195760ff198381166001176000559284611a07575b5061190f60ff60005460081c1661190a81612435565b612435565b61191833612179565b61195a60ff60005460081c1661192d81612435565b61193681612435565b846065541660655561194781612435565b61195081612435565b6001609755612435565b6001600160a01b03908116916119718315156123ab565b1661197d8115156123ef565b60018060a01b03199161012f908382541617905561013091825416179055336000526101316020526001604060002091825416179055604051903360008051602061278b833981519152600080a26119d157005b60207f7f26b83ff96e1f2b6a682f133852f6798a09c465da95921460cefb38474024989161ff00196000541660005560018152a1005b61ffff191661010117600055846118f4565b60405162461bcd60e51b815260206004820152602e60248201527f496e697469616c697a61626c653a20636f6e747261637420697320616c72656160448201526d191e481a5b9a5d1a585b1a5e995960921b6064820152608490fd5b50303b1580156118dc5750600160ff8416146118dc565b50600160ff8416106118d5565b3461017357600036600319011261017357611ab2612121565b60655460ff811615611af15760ff19166065557f5db9ee0a495bf2e6ff9c91a7834c1ba4fdd244a5e8aa4e537bd38aeae4b073aa6020604051338152a1005b60405162461bcd60e51b815260206004820152601460248201527314185d5cd8589b194e881b9bdd081c185d5cd95960621b6044820152606490fd5b346101735760208060031936011261017357611b47612085565b6001600160a01b037f000000000000000000000000000000000000000000000000000000000000000081169290611b80308514156121b0565b611b9d6000805160206126eb8339815191529482865416146121ff565b611ba5612121565b60405193828501916001600160401b03831186841017610dd057826040526000865260ff6000805160206126ab8339815191525416600014611bef5750505050610019915061224e565b84939416906040516352d1902d60e01b81528581600481865afa60009181611d28575b50611c615760405162461bcd60e51b815260048101879052602e60248201526000805160206127eb83398151915260448201526d6f6e206973206e6f74205555505360901b6064820152608490fd5b03611ce357611c6f8361224e565b60008051602061274b833981519152600080a2835115801590611cdb575b611c9357005b60008091610019956000805160206127cb83398151915260405196611cb788611ee8565b60278852870152660819985a5b195960ca1b60408701525190845af46117a86122de565b506000611c8d565b60405162461bcd60e51b815260048101859052602960248201526000805160206127ab8339815191526044820152681a58589b195555525160ba1b6064820152608490fd5b9091508681813d8311611d50575b611d408183611f03565b8101031261017357519088611c12565b503d611d36565b34610173576040366003190112610173576004356001600160a01b038116908190036101735760243590611d89612121565b611d9481151561266a565b814710611ded57600080809381935af1611dac6122de565b5015611db457005b60405162461bcd60e51b8152602060048201526011602482015270115512081c995cd8dd594819985a5b1959607a1b6044820152606490fd5b60405162461bcd60e51b8152602060048201526014602482015273496e73756666696369656e742062616c616e636560601b6044820152606490fd5b346101735760203660031901126101735760043560005261012e602052604060002060018060a01b03611458818354169180600185015416936002810154916003820154611e7960048401611f26565b611e8560058501611f26565b9160ff600686015416936008611e9d60078801611f26565b9601541695604051998a998a61200c565b90600182811c92168015611ede575b6020831014611ec857565b634e487b7160e01b600052602260045260246000fd5b91607f1691611ebd565b606081019081106001600160401b03821117610dd057604052565b601f909101601f19168101906001600160401b03821190821017610dd057604052565b9060405191826000825492611f3a84611eae565b908184526001948581169081600014611fa95750600114611f66575b5050611f6492500383611f03565b565b9093915060005260209081600020936000915b818310611f91575050611f6493508201013880611f56565b85548884018501529485019487945091830191611f79565b915050611f6494506020925060ff191682840152151560051b8201013880611f56565b919082519283825260005b848110611ff8575050826000602080949584010152601f8019910116010190565b602081830181015184830182015201611fd7565b979694909361204d92969361205b959b9a9b60018060a01b0398898092168c521660208b015260408a015260608901526101208060808a0152880190611fcc565b9086820360a0880152611fcc565b60058210156103f6576101009361207e9260c087015285820360e0870152611fcc565b9416910152565b600435906001600160a01b038216820361017357565b602435906001600160a01b038216820361017357565b6001600160401b038111610dd057601f01601f191660200190565b9291926120d8826120b1565b916120e66040519384611f03565b829481845281830111610173578281602093846000960137010152565b9080601f830112156101735781602061211e933591016120cc565b90565b6033546001600160a01b0316330361213557565b606460405162461bcd60e51b815260206004820152602060248201527f4f776e61626c653a2063616c6c6572206973206e6f7420746865206f776e65726044820152fd5b603380546001600160a01b039283166001600160a01b03198216811790925590911660008051602061272b833981519152600080a3565b156121b757565b60405162461bcd60e51b815260206004820152602c60248201526000805160206126cb83398151915260448201526b19195b1959d85d1958d85b1b60a21b6064820152608490fd5b1561220657565b60405162461bcd60e51b815260206004820152602c60248201526000805160206126cb83398151915260448201526b6163746976652070726f787960a01b6064820152608490fd5b803b15612283576000805160206126eb83398151915280546001600160a01b0319166001600160a01b03909216919091179055565b60405162461bcd60e51b815260206004820152602d60248201527f455243313936373a206e657720696d706c656d656e746174696f6e206973206e60448201526c1bdd08184818dbdb9d1c9858dd609a1b6064820152608490fd5b3d15612309573d906122ef826120b1565b916122fd6040519384611f03565b82523d6000602084013e565b606090565b919290156123705750815115612322575090565b3b1561232b5790565b60405162461bcd60e51b815260206004820152601d60248201527f416464726573733a2063616c6c20746f206e6f6e2d636f6e74726163740000006044820152606490fd5b8251909150156123835750805190602001fd5b60405162461bcd60e51b8152602060048201529081906123a7906024830190611fcc565b0390fd5b156123b257565b60405162461bcd60e51b8152602060048201526015602482015274125b9d985b1a5908189c9a5919d9481dd85b1b195d605a1b6044820152606490fd5b156123f657565b60405162461bcd60e51b8152602060048201526017602482015276125b9d985b1a59081c1b185d199bdc9b481dd85b1b195d604a1b6044820152606490fd5b1561243c57565b60405162461bcd60e51b815260206004820152602b60248201527f496e697469616c697a61626c653a20636f6e7472616374206973206e6f74206960448201526a6e697469616c697a696e6760a81b6064820152608490fd5b1561249c57565b60405162461bcd60e51b8152602060048201526011602482015270139bdd08189c9a5919d9481dd85b1b195d607a1b6044820152606490fd5b60ff606554166124e157565b60405162461bcd60e51b815260206004820152601060248201526f14185d5cd8589b194e881c185d5cd95960821b6044820152606490fd5b60026097541461252a576002609755565b60405162461bcd60e51b815260206004820152601f60248201527f5265656e7472616e637947756172643a207265656e7472616e742063616c6c006044820152606490fd5b1561257657565b60405162461bcd60e51b8152602060048201526015602482015274115cd8dc9bddc8191bd95cc81b9bdd08195e1a5cdd605a1b6044820152606490fd5b90816020910312610173575180151581036101735790565b156125d257565b60405162461bcd60e51b8152602060048201526015602482015274151bdad95b881d1c985b9cd9995c8819985a5b1959605a1b6044820152606490fd5b1561261657565b60405162461bcd60e51b8152602060048201526011602482015270115cd8dc9bddc81b9bdd08199d5b991959607a1b6044820152606490fd5b6001600160a01b039091168152602081019190915260400190565b1561267157565b60405162461bcd60e51b8152602060048201526011602482015270125b9d985b1a59081c9958da5c1a595b9d607a1b6044820152606490fdfe4910fdfa16fed3260ed0e7147f7cc6da11a60208b5b9406d12a635614ffd914346756e6374696f6e206d7573742062652063616c6c6564207468726f75676820360894a13ba1a3210667c828492db98dca3e2076cc3735a920a3ca505d382bbc0bcf1e4a8179b3db7b841fac86f1eea3a6a1bce099a9502f05257ee5efecdffe8be0079c531659141344cd1fd0a4f28419497f9722a3daafe3b4186f6b6457e0bc7cd75a20ee27fd9adebab32041f755214dbc6bffa90cc0225b39da2e5c2d3b911052e1be46242b46bf3c2762227ff37c000e5fe38727638096f3a17fbfe1706719d08c1888103bea251a4ed56406bd0c3e69723c8a1686e017e7bbe159b6f845524331393637557067726164653a20756e737570706f727465642070726f78416464726573733a206c6f772d6c6576656c2064656c65676174652063616c6c45524331393637557067726164653a206e657720696d706c656d656e74617469a2646970667358221220de2f0084607b7e9952827fc78dbb6dca20c5746a7dbf0e5b159e13b3c67e5cad64736f6c63430008140033",
  "linkReferences": {},
  "deployedLinkReferences": {}
}