{
  "_format": "hh-sol-artifact-1",
  "contractName": "KustodiaEscrow2_0",
  "sourceName": "contracts/KustodiaEscrow2_0.sol",
  "abi": [
    {
      "anonymous": false,
      "inputs": [
        {
          "indexed": true,
          "internalType": "uint256",
          "name": "escrowId",
          "type": "uint256"
        }
      ],
      "name": "EscrowCancelled",
      "type": "event"
    },
    {
      "anonymous": false,
      "inputs": [
        {
          "indexed": true,
          "internalType": "uint256",
          "name": "escrowId",
          "type": "uint256"
        },
        {
          "indexed": true,
          "internalType": "address",
          "name": "payer",
          "type": "address"
        },
        {
          "indexed": true,
          "internalType": "address",
          "name": "payee",
          "type": "address"
        },
        {
          "indexed": false,
          "internalType": "uint256",
          "name": "amount",
          "type": "uint256"
        },
        {
          "indexed": false,
          "internalType": "string",
          "name": "vertical",
          "type": "string"
        },
        {
          "indexed": false,
          "internalType": "string",
          "name": "clabe",
          "type": "string"
        }
      ],
      "name": "EscrowCreated",
      "type": "event"
    },
    {
      "anonymous": false,
      "inputs": [
        {
          "indexed": true,
          "internalType": "uint256",
          "name": "escrowId",
          "type": "uint256"
        },
        {
          "indexed": false,
          "internalType": "bool",
          "name": "inFavorOfSeller",
          "type": "bool"
        }
      ],
      "name": "EscrowDisputeResolved",
      "type": "event"
    },
    {
      "anonymous": false,
      "inputs": [
        {
          "indexed": true,
          "internalType": "uint256",
          "name": "escrowId",
          "type": "uint256"
        },
        {
          "indexed": false,
          "internalType": "address",
          "name": "by",
          "type": "address"
        },
        {
          "indexed": false,
          "internalType": "string",
          "name": "reason",
          "type": "string"
        }
      ],
      "name": "EscrowDisputed",
      "type": "event"
    },
    {
      "anonymous": false,
      "inputs": [
        {
          "indexed": true,
          "internalType": "uint256",
          "name": "escrowId",
          "type": "uint256"
        },
        {
          "indexed": false,
          "internalType": "uint256",
          "name": "amount",
          "type": "uint256"
        }
      ],
      "name": "EscrowFunded",
      "type": "event"
    },
    {
      "anonymous": false,
      "inputs": [
        {
          "indexed": true,
          "internalType": "uint256",
          "name": "escrowId",
          "type": "uint256"
        }
      ],
      "name": "EscrowReleased",
      "type": "event"
    },
    {
      "anonymous": false,
      "inputs": [
        {
          "indexed": false,
          "internalType": "uint8",
          "name": "version",
          "type": "uint8"
        }
      ],
      "name": "Initialized",
      "type": "event"
    },
    {
      "anonymous": false,
      "inputs": [
        {
          "indexed": true,
          "internalType": "address",
          "name": "previousOwner",
          "type": "address"
        },
        {
          "indexed": true,
          "internalType": "address",
          "name": "newOwner",
          "type": "address"
        }
      ],
      "name": "OwnershipTransferred",
      "type": "event"
    },
    {
      "inputs": [],
      "name": "bridgeWallet",
      "outputs": [
        {
          "internalType": "address",
          "name": "",
          "type": "address"
        }
      ],
      "stateMutability": "view",
      "type": "function"
    },
    {
      "inputs": [
        {
          "internalType": "uint256",
          "name": "escrowId",
          "type": "uint256"
        }
      ],
      "name": "cancel",
      "outputs": [],
      "stateMutability": "nonpayable",
      "type": "function"
    },
    {
      "inputs": [
        {
          "internalType": "address",
          "name": "payer",
          "type": "address"
        },
        {
          "internalType": "address",
          "name": "payee",
          "type": "address"
        },
        {
          "internalType": "address",
          "name": "token",
          "type": "address"
        },
        {
          "internalType": "uint256",
          "name": "amount",
          "type": "uint256"
        },
        {
          "internalType": "uint256",
          "name": "deadline",
          "type": "uint256"
        },
        {
          "internalType": "string",
          "name": "vertical",
          "type": "string"
        },
        {
          "internalType": "string",
          "name": "clabe",
          "type": "string"
        },
        {
          "internalType": "string",
          "name": "conditions",
          "type": "string"
        }
      ],
      "name": "createEscrow",
      "outputs": [
        {
          "internalType": "uint256",
          "name": "",
          "type": "uint256"
        }
      ],
      "stateMutability": "nonpayable",
      "type": "function"
    },
    {
      "inputs": [
        {
          "internalType": "uint256",
          "name": "escrowId",
          "type": "uint256"
        },
        {
          "internalType": "string",
          "name": "reason",
          "type": "string"
        }
      ],
      "name": "dispute",
      "outputs": [],
      "stateMutability": "nonpayable",
      "type": "function"
    },
    {
      "inputs": [
        {
          "internalType": "uint256",
          "name": "",
          "type": "uint256"
        }
      ],
      "name": "escrows",
      "outputs": [
        {
          "internalType": "address",
          "name": "payer",
          "type": "address"
        },
        {
          "internalType": "address",
          "name": "payee",
          "type": "address"
        },
        {
          "internalType": "uint256",
          "name": "amount",
          "type": "uint256"
        },
        {
          "internalType": "uint256",
          "name": "deadline",
          "type": "uint256"
        },
        {
          "internalType": "string",
          "name": "vertical",
          "type": "string"
        },
        {
          "internalType": "string",
          "name": "clabe",
          "type": "string"
        },
        {
          "internalType": "enum KustodiaEscrow2_0.EscrowStatus",
          "name": "status",
          "type": "uint8"
        },
        {
          "internalType": "string",
          "name": "conditions",
          "type": "string"
        },
        {
          "internalType": "address",
          "name": "token",
          "type": "address"
        }
      ],
      "stateMutability": "view",
      "type": "function"
    },
    {
      "inputs": [
        {
          "internalType": "uint256",
          "name": "escrowId",
          "type": "uint256"
        }
      ],
      "name": "fundEscrow",
      "outputs": [],
      "stateMutability": "nonpayable",
      "type": "function"
    },
    {
      "inputs": [
        {
          "internalType": "address",
          "name": "_bridgeWallet",
          "type": "address"
        },
        {
          "internalType": "address",
          "name": "_platformWallet",
          "type": "address"
        }
      ],
      "name": "initialize",
      "outputs": [],
      "stateMutability": "nonpayable",
      "type": "function"
    },
    {
      "inputs": [],
      "name": "nextEscrowId",
      "outputs": [
        {
          "internalType": "uint256",
          "name": "",
          "type": "uint256"
        }
      ],
      "stateMutability": "view",
      "type": "function"
    },
    {
      "inputs": [],
      "name": "owner",
      "outputs": [
        {
          "internalType": "address",
          "name": "",
          "type": "address"
        }
      ],
      "stateMutability": "view",
      "type": "function"
    },
    {
      "inputs": [],
      "name": "platformWallet",
      "outputs": [
        {
          "internalType": "address",
          "name": "",
          "type": "address"
        }
      ],
      "stateMutability": "view",
      "type": "function"
    },
    {
      "inputs": [
        {
          "internalType": "uint256",
          "name": "escrowId",
          "type": "uint256"
        }
      ],
      "name": "release",
      "outputs": [],
      "stateMutability": "nonpayable",
      "type": "function"
    },
    {
      "inputs": [],
      "name": "renounceOwnership",
      "outputs": [],
      "stateMutability": "nonpayable",
      "type": "function"
    },
    {
      "inputs": [
        {
          "internalType": "address",
          "name": "token",
          "type": "address"
        },
        {
          "internalType": "address",
          "name": "to",
          "type": "address"
        },
        {
          "internalType": "uint256",
          "name": "amount",
          "type": "uint256"
        }
      ],
      "name": "rescueTokens",
      "outputs": [],
      "stateMutability": "nonpayable",
      "type": "function"
    },
    {
      "inputs": [
        {
          "internalType": "uint256",
          "name": "escrowId",
          "type": "uint256"
        },
        {
          "internalType": "bool",
          "name": "inFavorOfSeller",
          "type": "bool"
        }
      ],
      "name": "resolveDispute",
      "outputs": [],
      "stateMutability": "nonpayable",
      "type": "function"
    },
    {
      "inputs": [
        {
          "internalType": "address",
          "name": "_bridgeWallet",
          "type": "address"
        }
      ],
      "name": "setBridgeWallet",
      "outputs": [],
      "stateMutability": "nonpayable",
      "type": "function"
    },
    {
      "inputs": [
        {
          "internalType": "address",
          "name": "_platformWallet",
          "type": "address"
        }
      ],
      "name": "setPlatformWallet",
      "outputs": [],
      "stateMutability": "nonpayable",
      "type": "function"
    },
    {
      "inputs": [
        {
          "internalType": "address",
          "name": "newOwner",
          "type": "address"
        }
      ],
      "name": "transferOwnership",
      "outputs": [],
      "stateMutability": "nonpayable",
      "type": "function"
    }
  ],
  "bytecode": "0x608060405234801561001057600080fd5b506132dc806100206000396000f3fe608060405234801561001057600080fd5b506004361061010b5760003560e01c80638831e9cf116100a2578063cc9351b611610071578063cc9351b614610282578063cea9d26f1461029e578063f2fde38b146102ba578063fa2af9da146102d6578063fa89c171146102f45761010b565b80638831e9cf1461020e57806389cb29dd1461022a5780638da5cb5b14610248578063c9c31af5146102665761010b565b8063485cc955116100de578063485cc9551461019c578063488ec89e146101b857806366c85dee146101e8578063715018a6146102045761010b565b8063012f52ee1461011057806334b25ee21461014857806337bdc99b1461016457806340e58ee514610180575b600080fd5b61012a60048036038101906101259190611e70565b610312565b60405161013f99989796959493929190611ff4565b60405180910390f35b610162600480360381019061015d91906120ce565b610565565b005b61017e60048036038101906101799190611e70565b61082e565b005b61019a60048036038101906101959190611e70565b610ab2565b005b6101b660048036038101906101b1919061213a565b610c2f565b005b6101d260048036038101906101cd91906122af565b610ed7565b6040516101df91906123b9565b60405180910390f35b61020260048036038101906101fd91906123d4565b611368565b005b61020c611539565b005b61022860048036038101906102239190612430565b61154d565b005b610232611608565b60405161023f91906123b9565b60405180910390f35b61025061160e565b60405161025d919061245d565b60405180910390f35b610280600480360381019061027b9190611e70565b611638565b005b61029c60048036038101906102979190612430565b6119a9565b005b6102b860048036038101906102b39190612478565b611a64565b005b6102d460048036038101906102cf9190612430565b611b2e565b005b6102de611bb1565b6040516102eb919061245d565b60405180910390f35b6102fc611bd7565b604051610309919061245d565b60405180910390f35b60666020528060005260406000206000915090508060000160009054906101000a900473ffffffffffffffffffffffffffffffffffffffff16908060010160009054906101000a900473ffffffffffffffffffffffffffffffffffffffff169080600201549080600301549080600401805461038d906124fa565b80601f01602080910402602001604051908101604052809291908181526020018280546103b9906124fa565b80156104065780601f106103db57610100808354040283529160200191610406565b820191906000526020600020905b8154815290600101906020018083116103e957829003601f168201915b50505050509080600501805461041b906124fa565b80601f0160208091040260200160405190810160405280929190818152602001828054610447906124fa565b80156104945780601f1061046957610100808354040283529160200191610494565b820191906000526020600020905b81548152906001019060200180831161047757829003601f168201915b5050505050908060060160009054906101000a900460ff16908060070180546104bc906124fa565b80601f01602080910402602001604051908101604052809291908181526020018280546104e8906124fa565b80156105355780601f1061050a57610100808354040283529160200191610535565b820191906000526020600020905b81548152906001019060200180831161051857829003601f168201915b5050505050908060080160009054906101000a900473ffffffffffffffffffffffffffffffffffffffff16905089565b606760009054906101000a900473ffffffffffffffffffffffffffffffffffffffff1673ffffffffffffffffffffffffffffffffffffffff163373ffffffffffffffffffffffffffffffffffffffff16146105f5576040517f08c379a00000000000000000000000000000000000000000000000000000000081526004016105ec90612577565b60405180910390fd5b6000606660008481526020019081526020016000209050600360048111156106205761061f611f7d565b5b8160060160009054906101000a900460ff16600481111561064457610643611f7d565b5b14610684576040517f08c379a000000000000000000000000000000000000000000000000000000000815260040161067b906125e3565b60405180910390fd5b81156106bc5760018160060160006101000a81548160ff021916908360048111156106b2576106b1611f7d565b5b02179055506107f1565b60048160060160006101000a81548160ff021916908360048111156106e4576106e3611f7d565b5b02179055508060080160009054906101000a900473ffffffffffffffffffffffffffffffffffffffff1673ffffffffffffffffffffffffffffffffffffffff1663a9059cbb606860009054906101000a900473ffffffffffffffffffffffffffffffffffffffff1683600201546040518363ffffffff1660e01b815260040161076e929190612603565b6020604051808303816000875af115801561078d573d6000803e3d6000fd5b505050506040513d601f19601f820116820180604052508101906107b19190612641565b6107f0576040517f08c379a00000000000000000000000000000000000000000000000000000000081526004016107e7906126ba565b60405180910390fd5b5b827f694013e1c7c934eef6ed1a5776d4008895769844a7fced962b0bddb002fff6248360405161082191906126e9565b60405180910390a2505050565b606760009054906101000a900473ffffffffffffffffffffffffffffffffffffffff1673ffffffffffffffffffffffffffffffffffffffff163373ffffffffffffffffffffffffffffffffffffffff16146108be576040517f08c379a00000000000000000000000000000000000000000000000000000000081526004016108b590612577565b60405180910390fd5b6000606660008381526020019081526020016000209050600160048111156108e9576108e8611f7d565b5b8160060160009054906101000a900460ff16600481111561090d5761090c611f7d565b5b1461094d576040517f08c379a000000000000000000000000000000000000000000000000000000000815260040161094490612750565b60405180910390fd5b60028160060160006101000a81548160ff0219169083600481111561097557610974611f7d565b5b02179055508060080160009054906101000a900473ffffffffffffffffffffffffffffffffffffffff1673ffffffffffffffffffffffffffffffffffffffff1663a9059cbb606760009054906101000a900473ffffffffffffffffffffffffffffffffffffffff1683600201546040518363ffffffff1660e01b81526004016109ff929190612603565b6020604051808303816000875af1158015610a1e573d6000803e3d6000fd5b505050506040513d601f19601f82011682018060405250810190610a429190612641565b610a81576040517f08c379a0000000000000000000000000000000000000000000000000000000008152600401610a78906127bc565b60405180910390fd5b817f69833829d5691ae09424af7d16f73adf033451149ea9c2fc6fcb4c44108eef6760405160405180910390a25050565b606760009054906101000a900473ffffffffffffffffffffffffffffffffffffffff1673ffffffffffffffffffffffffffffffffffffffff163373ffffffffffffffffffffffffffffffffffffffff1614610b42576040517f08c379a0000000000000000000000000000000000000000000000000000000008152600401610b3990612577565b60405180910390fd5b600060666000838152602001908152602001600020905060006004811115610b6d57610b6c611f7d565b5b8160060160009054906101000a900460ff166004811115610b9157610b90611f7d565b5b14610bd1576040517f08c379a0000000000000000000000000000000000000000000000000000000008152600401610bc890612828565b60405180910390fd5b60048160060160006101000a81548160ff02191690836004811115610bf957610bf8611f7d565b5b0217905550817f0d977c6b1a383ac5ce532b4a668d0ef9ad38478e1a5ff28abb221f4b682b264360405160405180910390a25050565b60008060019054906101000a900460ff16159050808015610c605750600160008054906101000a900460ff1660ff16105b80610c8d5750610c6f30611bfd565b158015610c8c5750600160008054906101000a900460ff1660ff16145b5b610ccc576040517f08c379a0000000000000000000000000000000000000000000000000000000008152600401610cc3906128ba565b60405180910390fd5b60016000806101000a81548160ff021916908360ff1602179055508015610d09576001600060016101000a81548160ff0219169083151502179055505b610d11611c20565b600073ffffffffffffffffffffffffffffffffffffffff168373ffffffffffffffffffffffffffffffffffffffff1603610d80576040517f08c379a0000000000000000000000000000000000000000000000000000000008152600401610d7790612926565b60405180910390fd5b600073ffffffffffffffffffffffffffffffffffffffff168273ffffffffffffffffffffffffffffffffffffffff1603610def576040517f08c379a0000000000000000000000000000000000000000000000000000000008152600401610de690612992565b60405180910390fd5b82606760006101000a81548173ffffffffffffffffffffffffffffffffffffffff021916908373ffffffffffffffffffffffffffffffffffffffff16021790555081606860006101000a81548173ffffffffffffffffffffffffffffffffffffffff021916908373ffffffffffffffffffffffffffffffffffffffff16021790555060016065819055508015610ed25760008060016101000a81548160ff0219169083151502179055507f7f26b83ff96e1f2b6a682f133852f6798a09c465da95921460cefb38474024986001604051610ec99190612a04565b60405180910390a15b505050565b6000606760009054906101000a900473ffffffffffffffffffffffffffffffffffffffff1673ffffffffffffffffffffffffffffffffffffffff163373ffffffffffffffffffffffffffffffffffffffff1614610f69576040517f08c379a0000000000000000000000000000000000000000000000000000000008152600401610f6090612577565b60405180910390fd5b600073ffffffffffffffffffffffffffffffffffffffff168873ffffffffffffffffffffffffffffffffffffffff1603610fd8576040517f08c379a0000000000000000000000000000000000000000000000000000000008152600401610fcf90612a6b565b60405180910390fd5b600073ffffffffffffffffffffffffffffffffffffffff168973ffffffffffffffffffffffffffffffffffffffff1603611047576040517f08c379a000000000000000000000000000000000000000000000000000000000815260040161103e90612ad7565b60405180910390fd5b6000861161108a576040517f08c379a000000000000000000000000000000000000000000000000000000000815260040161108190612b43565b60405180910390fd5b4285116110cc576040517f08c379a00000000000000000000000000000000000000000000000000000000081526004016110c390612baf565b60405180910390fd5b6000606560008154809291906110e190612bfe565b9190505590506040518061012001604052808b73ffffffffffffffffffffffffffffffffffffffff1681526020018a73ffffffffffffffffffffffffffffffffffffffff1681526020018881526020018781526020018681526020018581526020016000600481111561115757611156611f7d565b5b81526020018481526020018973ffffffffffffffffffffffffffffffffffffffff168152506066600083815260200190815260200160002060008201518160000160006101000a81548173ffffffffffffffffffffffffffffffffffffffff021916908373ffffffffffffffffffffffffffffffffffffffff16021790555060208201518160010160006101000a81548173ffffffffffffffffffffffffffffffffffffffff021916908373ffffffffffffffffffffffffffffffffffffffff160217905550604082015181600201556060820151816003015560808201518160040190816112469190612de8565b5060a082015181600501908161125c9190612de8565b5060c08201518160060160006101000a81548160ff0219169083600481111561128857611287611f7d565b5b021790555060e08201518160070190816112a29190612de8565b506101008201518160080160006101000a81548173ffffffffffffffffffffffffffffffffffffffff021916908373ffffffffffffffffffffffffffffffffffffffff1602179055509050508873ffffffffffffffffffffffffffffffffffffffff168a73ffffffffffffffffffffffffffffffffffffffff16827f0bcf1e4a8179b3db7b841fac86f1eea3a6a1bce099a9502f05257ee5efecdffe8a898960405161135093929190612eba565b60405180910390a48091505098975050505050505050565b606760009054906101000a900473ffffffffffffffffffffffffffffffffffffffff1673ffffffffffffffffffffffffffffffffffffffff163373ffffffffffffffffffffffffffffffffffffffff16146113f8576040517f08c379a00000000000000000000000000000000000000000000000000000000081526004016113ef90612577565b60405180910390fd5b60006066600084815260200190815260200160002090506001600481111561142357611422611f7d565b5b8160060160009054906101000a900460ff16600481111561144757611446611f7d565b5b14611487576040517f08c379a000000000000000000000000000000000000000000000000000000000815260040161147e90612750565b60405180910390fd5b806003015442106114cd576040517f08c379a00000000000000000000000000000000000000000000000000000000081526004016114c490612f4b565b60405180910390fd5b60038160060160006101000a81548160ff021916908360048111156114f5576114f4611f7d565b5b0217905550827fc523357a17c19a0da11b08e9f4d7e4fbed304cbe1be1d3583e4d5a677d75d709338460405161152c929190612f6b565b60405180910390a2505050565b611541611c79565b61154b6000611cf7565b565b611555611c79565b600073ffffffffffffffffffffffffffffffffffffffff168173ffffffffffffffffffffffffffffffffffffffff16036115c4576040517f08c379a00000000000000000000000000000000000000000000000000000000081526004016115bb90612992565b60405180910390fd5b80606860006101000a81548173ffffffffffffffffffffffffffffffffffffffff021916908373ffffffffffffffffffffffffffffffffffffffff16021790555050565b60655481565b6000603360009054906101000a900473ffffffffffffffffffffffffffffffffffffffff16905090565b606760009054906101000a900473ffffffffffffffffffffffffffffffffffffffff1673ffffffffffffffffffffffffffffffffffffffff163373ffffffffffffffffffffffffffffffffffffffff16146116c8576040517f08c379a00000000000000000000000000000000000000000000000000000000081526004016116bf90612577565b60405180910390fd5b6000606660008381526020019081526020016000209050600060048111156116f3576116f2611f7d565b5b8160060160009054906101000a900460ff16600481111561171757611716611f7d565b5b14611757576040517f08c379a000000000000000000000000000000000000000000000000000000000815260040161174e90612828565b60405180910390fd5b600073ffffffffffffffffffffffffffffffffffffffff168160080160009054906101000a900473ffffffffffffffffffffffffffffffffffffffff1673ffffffffffffffffffffffffffffffffffffffff16036117ea576040517f08c379a00000000000000000000000000000000000000000000000000000000081526004016117e190612fe7565b60405180910390fd5b6000816002015411611831576040517f08c379a000000000000000000000000000000000000000000000000000000000815260040161182890613053565b60405180910390fd5b8060080160009054906101000a900473ffffffffffffffffffffffffffffffffffffffff1673ffffffffffffffffffffffffffffffffffffffff166323b872dd8260000160009054906101000a900473ffffffffffffffffffffffffffffffffffffffff163084600201546040518463ffffffff1660e01b81526004016118ba93929190613073565b6020604051808303816000875af11580156118d9573d6000803e3d6000fd5b505050506040513d601f19601f820116820180604052508101906118fd9190612641565b61193c576040517f08c379a0000000000000000000000000000000000000000000000000000000008152600401611933906127bc565b60405180910390fd5b60018160060160006101000a81548160ff0219169083600481111561196457611963611f7d565b5b0217905550817f911052e1be46242b46bf3c2762227ff37c000e5fe38727638096f3a17fbfe170826002015460405161199d91906123b9565b60405180910390a25050565b6119b1611c79565b600073ffffffffffffffffffffffffffffffffffffffff168173ffffffffffffffffffffffffffffffffffffffff1603611a20576040517f08c379a0000000000000000000000000000000000000000000000000000000008152600401611a1790612926565b60405180910390fd5b80606760006101000a81548173ffffffffffffffffffffffffffffffffffffffff021916908373ffffffffffffffffffffffffffffffffffffffff16021790555050565b611a6c611c79565b8273ffffffffffffffffffffffffffffffffffffffff1663a9059cbb83836040518363ffffffff1660e01b8152600401611aa7929190612603565b6020604051808303816000875af1158015611ac6573d6000803e3d6000fd5b505050506040513d601f19601f82011682018060405250810190611aea9190612641565b611b29576040517f08c379a0000000000000000000000000000000000000000000000000000000008152600401611b20906130f6565b60405180910390fd5b505050565b611b36611c79565b600073ffffffffffffffffffffffffffffffffffffffff168173ffffffffffffffffffffffffffffffffffffffff1603611ba5576040517f08c379a0000000000000000000000000000000000000000000000000000000008152600401611b9c90613188565b60405180910390fd5b611bae81611cf7565b50565b606860009054906101000a900473ffffffffffffffffffffffffffffffffffffffff1681565b606760009054906101000a900473ffffffffffffffffffffffffffffffffffffffff1681565b6000808273ffffffffffffffffffffffffffffffffffffffff163b119050919050565b600060019054906101000a900460ff16611c6f576040517f08c379a0000000000000000000000000000000000000000000000000000000008152600401611c669061321a565b60405180910390fd5b611c77611dbd565b565b611c81611e1e565b73ffffffffffffffffffffffffffffffffffffffff16611c9f61160e565b73ffffffffffffffffffffffffffffffffffffffff1614611cf5576040517f08c379a0000000000000000000000000000000000000000000000000000000008152600401611cec90613286565b60405180910390fd5b565b6000603360009054906101000a900473ffffffffffffffffffffffffffffffffffffffff16905081603360006101000a81548173ffffffffffffffffffffffffffffffffffffffff021916908373ffffffffffffffffffffffffffffffffffffffff1602179055508173ffffffffffffffffffffffffffffffffffffffff168173ffffffffffffffffffffffffffffffffffffffff167f8be0079c531659141344cd1fd0a4f28419497f9722a3daafe3b4186f6b6457e060405160405180910390a35050565b600060019054906101000a900460ff16611e0c576040517f08c379a0000000000000000000000000000000000000000000000000000000008152600401611e039061321a565b60405180910390fd5b611e1c611e17611e1e565b611cf7565b565b600033905090565b6000604051905090565b600080fd5b600080fd5b6000819050919050565b611e4d81611e3a565b8114611e5857600080fd5b50565b600081359050611e6a81611e44565b92915050565b600060208284031215611e8657611e85611e30565b5b6000611e9484828501611e5b565b91505092915050565b600073ffffffffffffffffffffffffffffffffffffffff82169050919050565b6000611ec882611e9d565b9050919050565b611ed881611ebd565b82525050565b611ee781611e3a565b82525050565b600081519050919050565b600082825260208201905092915050565b60005b83811015611f27578082015181840152602081019050611f0c565b60008484015250505050565b6000601f19601f8301169050919050565b6000611f4f82611eed565b611f598185611ef8565b9350611f69818560208601611f09565b611f7281611f33565b840191505092915050565b7f4e487b7100000000000000000000000000000000000000000000000000000000600052602160045260246000fd5b60058110611fbd57611fbc611f7d565b5b50565b6000819050611fce82611fac565b919050565b6000611fde82611fc0565b9050919050565b611fee81611fd3565b82525050565b60006101208201905061200a600083018c611ecf565b612017602083018b611ecf565b612024604083018a611ede565b6120316060830189611ede565b81810360808301526120438188611f44565b905081810360a08301526120578187611f44565b905061206660c0830186611fe5565b81810360e08301526120788185611f44565b9050612088610100830184611ecf565b9a9950505050505050505050565b60008115159050919050565b6120ab81612096565b81146120b657600080fd5b50565b6000813590506120c8816120a2565b92915050565b600080604083850312156120e5576120e4611e30565b5b60006120f385828601611e5b565b9250506020612104858286016120b9565b9150509250929050565b61211781611ebd565b811461212257600080fd5b50565b6000813590506121348161210e565b92915050565b6000806040838503121561215157612150611e30565b5b600061215f85828601612125565b925050602061217085828601612125565b9150509250929050565b600080fd5b600080fd5b7f4e487b7100000000000000000000000000000000000000000000000000000000600052604160045260246000fd5b6121bc82611f33565b810181811067ffffffffffffffff821117156121db576121da612184565b5b80604052505050565b60006121ee611e26565b90506121fa82826121b3565b919050565b600067ffffffffffffffff82111561221a57612219612184565b5b61222382611f33565b9050602081019050919050565b82818337600083830152505050565b600061225261224d846121ff565b6121e4565b90508281526020810184848401111561226e5761226d61217f565b5b612279848285612230565b509392505050565b600082601f8301126122965761229561217a565b5b81356122a684826020860161223f565b91505092915050565b600080600080600080600080610100898b0312156122d0576122cf611e30565b5b60006122de8b828c01612125565b98505060206122ef8b828c01612125565b97505060406123008b828c01612125565b96505060606123118b828c01611e5b565b95505060806123228b828c01611e5b565b94505060a089013567ffffffffffffffff81111561234357612342611e35565b5b61234f8b828c01612281565b93505060c089013567ffffffffffffffff8111156123705761236f611e35565b5b61237c8b828c01612281565b92505060e089013567ffffffffffffffff81111561239d5761239c611e35565b5b6123a98b828c01612281565b9150509295985092959890939650565b60006020820190506123ce6000830184611ede565b92915050565b600080604083850312156123eb576123ea611e30565b5b60006123f985828601611e5b565b925050602083013567ffffffffffffffff81111561241a57612419611e35565b5b61242685828601612281565b9150509250929050565b60006020828403121561244657612445611e30565b5b600061245484828501612125565b91505092915050565b60006020820190506124726000830184611ecf565b92915050565b60008060006060848603121561249157612490611e30565b5b600061249f86828701612125565b93505060206124b086828701612125565b92505060406124c186828701611e5b565b9150509250925092565b7f4e487b7100000000000000000000000000000000000000000000000000000000600052602260045260246000fd5b6000600282049050600182168061251257607f821691505b602082108103612525576125246124cb565b5b50919050565b7f4e6f74206272696467652077616c6c6574000000000000000000000000000000600082015250565b6000612561601183611ef8565b915061256c8261252b565b602082019050919050565b6000602082019050818103600083015261259081612554565b9050919050565b7f4e6f742064697370757465640000000000000000000000000000000000000000600082015250565b60006125cd600c83611ef8565b91506125d882612597565b602082019050919050565b600060208201905081810360008301526125fc816125c0565b9050919050565b60006040820190506126186000830185611ecf565b6126256020830184611ede565b9392505050565b60008151905061263b816120a2565b92915050565b60006020828403121561265757612656611e30565b5b60006126658482850161262c565b91505092915050565b7f526566756e64206661696c656400000000000000000000000000000000000000600082015250565b60006126a4600d83611ef8565b91506126af8261266e565b602082019050919050565b600060208201905081810360008301526126d381612697565b9050919050565b6126e381612096565b82525050565b60006020820190506126fe60008301846126da565b92915050565b7f4e6f742066756e64656400000000000000000000000000000000000000000000600082015250565b600061273a600a83611ef8565b915061274582612704565b602082019050919050565b600060208201905081810360008301526127698161272d565b9050919050565b7f546f6b656e207472616e73666572206661696c65640000000000000000000000600082015250565b60006127a6601583611ef8565b91506127b182612770565b602082019050919050565b600060208201905081810360008301526127d581612799565b9050919050565b7f4e6f742070656e64696e67000000000000000000000000000000000000000000600082015250565b6000612812600b83611ef8565b915061281d826127dc565b602082019050919050565b6000602082019050818103600083015261284181612805565b9050919050565b7f496e697469616c697a61626c653a20636f6e747261637420697320616c72656160008201527f647920696e697469616c697a6564000000000000000000000000000000000000602082015250565b60006128a4602e83611ef8565b91506128af82612848565b604082019050919050565b600060208201905081810360008301526128d381612897565b9050919050565b7f496e76616c6964206272696467652077616c6c65740000000000000000000000600082015250565b6000612910601583611ef8565b915061291b826128da565b602082019050919050565b6000602082019050818103600083015261293f81612903565b9050919050565b7f496e76616c696420706c6174666f726d2077616c6c6574000000000000000000600082015250565b600061297c601783611ef8565b915061298782612946565b602082019050919050565b600060208201905081810360008301526129ab8161296f565b9050919050565b6000819050919050565b600060ff82169050919050565b6000819050919050565b60006129ee6129e96129e4846129b2565b6129c9565b6129bc565b9050919050565b6129fe816129d3565b82525050565b6000602082019050612a1960008301846129f5565b92915050565b7f496e76616c696420706179656500000000000000000000000000000000000000600082015250565b6000612a55600d83611ef8565b9150612a6082612a1f565b602082019050919050565b60006020820190508181036000830152612a8481612a48565b9050919050565b7f496e76616c696420706179657200000000000000000000000000000000000000600082015250565b6000612ac1600d83611ef8565b9150612acc82612a8b565b602082019050919050565b60006020820190508181036000830152612af081612ab4565b9050919050565b7f496e76616c696420616d6f756e74000000000000000000000000000000000000600082015250565b6000612b2d600e83611ef8565b9150612b3882612af7565b602082019050919050565b60006020820190508181036000830152612b5c81612b20565b9050919050565b7f496e76616c696420646561646c696e6500000000000000000000000000000000600082015250565b6000612b99601083611ef8565b9150612ba482612b63565b602082019050919050565b60006020820190508181036000830152612bc881612b8c565b9050919050565b7f4e487b7100000000000000000000000000000000000000000000000000000000600052601160045260246000fd5b6000612c0982611e3a565b91507fffffffffffffffffffffffffffffffffffffffffffffffffffffffffffffffff8203612c3b57612c3a612bcf565b5b600182019050919050565b60008190508160005260206000209050919050565b60006020601f8301049050919050565b600082821b905092915050565b600060088302612ca87fffffffffffffffffffffffffffffffffffffffffffffffffffffffffffffffff82612c6b565b612cb28683612c6b565b95508019841693508086168417925050509392505050565b6000612ce5612ce0612cdb84611e3a565b6129c9565b611e3a565b9050919050565b6000819050919050565b612cff83612cca565b612d13612d0b82612cec565b848454612c78565b825550505050565b600090565b612d28612d1b565b612d33818484612cf6565b505050565b5b81811015612d5757612d4c600082612d20565b600181019050612d39565b5050565b601f821115612d9c57612d6d81612c46565b612d7684612c5b565b81016020851015612d85578190505b612d99612d9185612c5b565b830182612d38565b50505b505050565b600082821c905092915050565b6000612dbf60001984600802612da1565b1980831691505092915050565b6000612dd88383612dae565b9150826002028217905092915050565b612df182611eed565b67ffffffffffffffff811115612e0a57612e09612184565b5b612e1482546124fa565b612e1f828285612d5b565b600060209050601f831160018114612e525760008415612e40578287015190505b612e4a8582612dcc565b865550612eb2565b601f198416612e6086612c46565b60005b82811015612e8857848901518255600182019150602085019450602081019050612e63565b86831015612ea55784890151612ea1601f891682612dae565b8355505b6001600288020188555050505b505050505050565b6000606082019050612ecf6000830186611ede565b8181036020830152612ee18185611f44565b90508181036040830152612ef58184611f44565b9050949350505050565b7f446561646c696e65207061737365640000000000000000000000000000000000600082015250565b6000612f35600f83611ef8565b9150612f4082612eff565b602082019050919050565b60006020820190508181036000830152612f6481612f28565b9050919050565b6000604082019050612f806000830185611ecf565b8181036020830152612f928184611f44565b90509392505050565b7f546f6b656e206e6f742073657400000000000000000000000000000000000000600082015250565b6000612fd1600d83611ef8565b9150612fdc82612f9b565b602082019050919050565b6000602082019050818103600083015261300081612fc4565b9050919050565b7f416d6f756e74206e6f7420736574000000000000000000000000000000000000600082015250565b600061303d600e83611ef8565b915061304882613007565b602082019050919050565b6000602082019050818103600083015261306c81613030565b9050919050565b60006060820190506130886000830186611ecf565b6130956020830185611ecf565b6130a26040830184611ede565b949350505050565b7f526573637565207472616e73666572206661696c656400000000000000000000600082015250565b60006130e0601683611ef8565b91506130eb826130aa565b602082019050919050565b6000602082019050818103600083015261310f816130d3565b9050919050565b7f4f776e61626c653a206e6577206f776e657220697320746865207a65726f206160008201527f6464726573730000000000000000000000000000000000000000000000000000602082015250565b6000613172602683611ef8565b915061317d82613116565b604082019050919050565b600060208201905081810360008301526131a181613165565b9050919050565b7f496e697469616c697a61626c653a20636f6e7472616374206973206e6f74206960008201527f6e697469616c697a696e67000000000000000000000000000000000000000000602082015250565b6000613204602b83611ef8565b915061320f826131a8565b604082019050919050565b60006020820190508181036000830152613233816131f7565b9050919050565b7f4f776e61626c653a2063616c6c6572206973206e6f7420746865206f776e6572600082015250565b6000613270602083611ef8565b915061327b8261323a565b602082019050919050565b6000602082019050818103600083015261329f81613263565b905091905056fea2646970667358221220e20051e05011c091236933813eb8341e837139e046a16fb1cbfd1dbb24e4350d64736f6c63430008140033",
  "linkReferences": {},
  "deployedLinkReferences": {}
}