{
  "_format": "hh-sol-artifact-1",
  "contractName": "KustodiaEscrow",
  "sourceName": "contracts/KustodiaEscrow.sol",
  "abi": [
    {
      "inputs": [
        {
          "internalType": "address",
          "name": "_mxnbToken",
          "type": "address"
        },
        {
          "internalType": "address",
          "name": "_platformWallet",
          "type": "address"
        }
      ],
      "stateMutability": "nonpayable",
      "type": "constructor"
    },
    {
      "anonymous": false,
      "inputs": [
        {
          "indexed": true,
          "internalType": "uint256",
          "name": "escrowId",
          "type": "uint256"
        },
        {
          "indexed": false,
          "internalType": "uint256",
          "name": "amount",
          "type": "uint256"
        },
        {
          "indexed": false,
          "internalType": "address",
          "name": "to",
          "type": "address"
        }
      ],
      "name": "CustodyReleased",
      "type": "event"
    },
    {
      "anonymous": false,
      "inputs": [
        {
          "indexed": true,
          "internalType": "uint256",
          "name": "escrowId",
          "type": "uint256"
        },
        {
          "indexed": false,
          "internalType": "address",
          "name": "by",
          "type": "address"
        }
      ],
      "name": "DisputeRaised",
      "type": "event"
    },
    {
      "anonymous": false,
      "inputs": [
        {
          "indexed": true,
          "internalType": "uint256",
          "name": "escrowId",
          "type": "uint256"
        },
        {
          "indexed": false,
          "internalType": "bool",
          "name": "releasedToSeller",
          "type": "bool"
        }
      ],
      "name": "DisputeResolved",
      "type": "event"
    },
    {
      "anonymous": false,
      "inputs": [
        {
          "indexed": true,
          "internalType": "uint256",
          "name": "escrowId",
          "type": "uint256"
        },
        {
          "indexed": true,
          "internalType": "address",
          "name": "buyer",
          "type": "address"
        },
        {
          "indexed": true,
          "internalType": "address",
          "name": "seller",
          "type": "address"
        },
        {
          "indexed": false,
          "internalType": "uint256",
          "name": "custodyAmount",
          "type": "uint256"
        },
        {
          "indexed": false,
          "internalType": "uint256",
          "name": "custodyEnd",
          "type": "uint256"
        }
      ],
      "name": "EscrowCreated",
      "type": "event"
    },
    {
      "anonymous": false,
      "inputs": [
        {
          "indexed": true,
          "internalType": "uint256",
          "name": "escrowId",
          "type": "uint256"
        },
        {
          "indexed": false,
          "internalType": "uint256",
          "name": "amount",
          "type": "uint256"
        },
        {
          "indexed": false,
          "internalType": "address",
          "name": "to",
          "type": "address"
        }
      ],
      "name": "ImmediateRelease",
      "type": "event"
    },
    {
      "anonymous": false,
      "inputs": [
        {
          "indexed": true,
          "internalType": "address",
          "name": "previousOwner",
          "type": "address"
        },
        {
          "indexed": true,
          "internalType": "address",
          "name": "newOwner",
          "type": "address"
        }
      ],
      "name": "OwnershipTransferred",
      "type": "event"
    },
    {
      "inputs": [],
      "name": "FEE_BPS",
      "outputs": [
        {
          "internalType": "uint256",
          "name": "",
          "type": "uint256"
        }
      ],
      "stateMutability": "view",
      "type": "function"
    },
    {
      "inputs": [
        {
          "internalType": "address",
          "name": "seller",
          "type": "address"
        },
        {
          "internalType": "uint256",
          "name": "custodyAmount",
          "type": "uint256"
        },
        {
          "internalType": "uint256",
          "name": "custodyPeriod",
          "type": "uint256"
        }
      ],
      "name": "createEscrow",
      "outputs": [],
      "stateMutability": "nonpayable",
      "type": "function"
    },
    {
      "inputs": [],
      "name": "escrowCounter",
      "outputs": [
        {
          "internalType": "uint256",
          "name": "",
          "type": "uint256"
        }
      ],
      "stateMutability": "view",
      "type": "function"
    },
    {
      "inputs": [
        {
          "internalType": "uint256",
          "name": "",
          "type": "uint256"
        }
      ],
      "name": "escrows",
      "outputs": [
        {
          "internalType": "address",
          "name": "buyer",
          "type": "address"
        },
        {
          "internalType": "address",
          "name": "seller",
          "type": "address"
        },
        {
          "internalType": "uint256",
          "name": "custodyAmount",
          "type": "uint256"
        },
        {
          "internalType": "uint256",
          "name": "custodyEnd",
          "type": "uint256"
        },
        {
          "internalType": "enum KustodiaEscrow.EscrowStatus",
          "name": "status",
          "type": "uint8"
        }
      ],
      "stateMutability": "view",
      "type": "function"
    },
    {
      "inputs": [],
      "name": "mxnbToken",
      "outputs": [
        {
          "internalType": "contract IERC20",
          "name": "",
          "type": "address"
        }
      ],
      "stateMutability": "view",
      "type": "function"
    },
    {
      "inputs": [],
      "name": "owner",
      "outputs": [
        {
          "internalType": "address",
          "name": "",
          "type": "address"
        }
      ],
      "stateMutability": "view",
      "type": "function"
    },
    {
      "inputs": [],
      "name": "platformWallet",
      "outputs": [
        {
          "internalType": "address",
          "name": "",
          "type": "address"
        }
      ],
      "stateMutability": "view",
      "type": "function"
    },
    {
      "inputs": [
        {
          "internalType": "uint256",
          "name": "escrowId",
          "type": "uint256"
        }
      ],
      "name": "raiseDispute",
      "outputs": [],
      "stateMutability": "nonpayable",
      "type": "function"
    },
    {
      "inputs": [
        {
          "internalType": "uint256",
          "name": "escrowId",
          "type": "uint256"
        }
      ],
      "name": "releaseCustody",
      "outputs": [],
      "stateMutability": "nonpayable",
      "type": "function"
    },
    {
      "inputs": [],
      "name": "renounceOwnership",
      "outputs": [],
      "stateMutability": "nonpayable",
      "type": "function"
    },
    {
      "inputs": [
        {
          "internalType": "uint256",
          "name": "escrowId",
          "type": "uint256"
        },
        {
          "internalType": "bool",
          "name": "releaseToSeller",
          "type": "bool"
        }
      ],
      "name": "resolveDispute",
      "outputs": [],
      "stateMutability": "nonpayable",
      "type": "function"
    },
    {
      "inputs": [
        {
          "internalType": "address",
          "name": "newOwner",
          "type": "address"
        }
      ],
      "name": "transferOwnership",
      "outputs": [],
      "stateMutability": "nonpayable",
      "type": "function"
    }
  ],
  "bytecode": "0x60806040523480156200001157600080fd5b5060405162001c1f38038062001c1f833981810160405281019062000037919062000217565b620000576200004b620000e160201b60201c565b620000e960201b60201c565b81600160006101000a81548173ffffffffffffffffffffffffffffffffffffffff021916908373ffffffffffffffffffffffffffffffffffffffff16021790555080600260006101000a81548173ffffffffffffffffffffffffffffffffffffffff021916908373ffffffffffffffffffffffffffffffffffffffff16021790555050506200025e565b600033905090565b60008060009054906101000a900473ffffffffffffffffffffffffffffffffffffffff169050816000806101000a81548173ffffffffffffffffffffffffffffffffffffffff021916908373ffffffffffffffffffffffffffffffffffffffff1602179055508173ffffffffffffffffffffffffffffffffffffffff168173ffffffffffffffffffffffffffffffffffffffff167f8be0079c531659141344cd1fd0a4f28419497f9722a3daafe3b4186f6b6457e060405160405180910390a35050565b600080fd5b600073ffffffffffffffffffffffffffffffffffffffff82169050919050565b6000620001df82620001b2565b9050919050565b620001f181620001d2565b8114620001fd57600080fd5b50565b6000815190506200021181620001e6565b92915050565b60008060408385031215620002315762000230620001ad565b5b6000620002418582860162000200565b9250506020620002548582860162000200565b9150509250929050565b6119b1806200026e6000396000f3fe608060405234801561001057600080fd5b50600436106100b45760003560e01c8063a5c1674e11610071578063a5c1674e1461016b578063bf333f2c14610187578063c7ceafea146101a5578063e2ecb311146101c3578063f2fde38b146101df578063fa2af9da146101fb576100b4565b8063012f52ee146100b957806334b25ee2146100ed5780634043cd9514610109578063715018a6146101275780638da5cb5b146101315780639526592f1461014f575b600080fd5b6100d360048036038101906100ce9190610fbc565b610219565b6040516100e49594939291906110b0565b60405180910390f35b6101076004803603810190610102919061113b565b61029c565b005b6101116105b7565b60405161011e91906111da565b60405180910390f35b61012f6105dd565b005b6101396105f1565b60405161014691906111f5565b60405180910390f35b61016960048036038101906101649190610fbc565b61061a565b005b61018560048036038101906101809190610fbc565b61088e565b005b61018f610a72565b60405161019c9190611210565b60405180910390f35b6101ad610a77565b6040516101ba9190611210565b60405180910390f35b6101dd60048036038101906101d89190611257565b610a7d565b005b6101f960048036038101906101f491906112aa565b610d8e565b005b610203610e11565b60405161021091906111f5565b60405180910390f35b60046020528060005260406000206000915090508060000160009054906101000a900473ffffffffffffffffffffffffffffffffffffffff16908060010160009054906101000a900473ffffffffffffffffffffffffffffffffffffffff16908060020154908060030154908060040160009054906101000a900460ff16905085565b6102a4610e37565b6000600460008481526020019081526020016000209050600260048111156102cf576102ce611039565b5b8160040160009054906101000a900460ff1660048111156102f3576102f2611039565b5b14610333576040517f08c379a000000000000000000000000000000000000000000000000000000000815260040161032a90611334565b60405180910390fd5b60038160040160006101000a81548160ff0219169083600481111561035b5761035a611039565b5b0217905550811561047257600160009054906101000a900473ffffffffffffffffffffffffffffffffffffffff1673ffffffffffffffffffffffffffffffffffffffff1663a9059cbb8260010160009054906101000a900473ffffffffffffffffffffffffffffffffffffffff1683600201546040518363ffffffff1660e01b81526004016103eb929190611354565b6020604051808303816000875af115801561040a573d6000803e3d6000fd5b505050506040513d601f19601f8201168201806040525081019061042e9190611392565b61046d576040517f08c379a00000000000000000000000000000000000000000000000000000000081526004016104649061140b565b60405180910390fd5b61057a565b600160009054906101000a900473ffffffffffffffffffffffffffffffffffffffff1673ffffffffffffffffffffffffffffffffffffffff1663a9059cbb8260000160009054906101000a900473ffffffffffffffffffffffffffffffffffffffff1683600201546040518363ffffffff1660e01b81526004016104f7929190611354565b6020604051808303816000875af1158015610516573d6000803e3d6000fd5b505050506040513d601f19601f8201168201806040525081019061053a9190611392565b610579576040517f08c379a000000000000000000000000000000000000000000000000000000000815260040161057090611477565b60405180910390fd5b5b827f5a87909bff68caaaaf0b3fd9c74eeccc928832f879315e5c6fb7a73612f26c0c836040516105aa91906114a6565b60405180910390a2505050565b600160009054906101000a900473ffffffffffffffffffffffffffffffffffffffff1681565b6105e5610e37565b6105ef6000610eb5565b565b60008060009054906101000a900473ffffffffffffffffffffffffffffffffffffffff16905090565b610622610e37565b60006004600083815260200190815260200160002090506000600481111561064d5761064c611039565b5b8160040160009054906101000a900460ff16600481111561067157610670611039565b5b146106b1576040517f08c379a00000000000000000000000000000000000000000000000000000000081526004016106a89061150d565b60405180910390fd5b80600301544210156106f8576040517f08c379a00000000000000000000000000000000000000000000000000000000081526004016106ef90611579565b60405180910390fd5b60018160040160006101000a81548160ff021916908360048111156107205761071f611039565b5b0217905550600160009054906101000a900473ffffffffffffffffffffffffffffffffffffffff1673ffffffffffffffffffffffffffffffffffffffff1663a9059cbb600260009054906101000a900473ffffffffffffffffffffffffffffffffffffffff1683600201546040518363ffffffff1660e01b81526004016107a8929190611354565b6020604051808303816000875af11580156107c7573d6000803e3d6000fd5b505050506040513d601f19601f820116820180604052508101906107eb9190611392565b61082a576040517f08c379a0000000000000000000000000000000000000000000000000000000008152600401610821906115e5565b60405180910390fd5b817f1ab7e153e445011096686e7d6cdde884e5b3a4c5c1e49b1087e4a64d6850e1308260020154600260009054906101000a900473ffffffffffffffffffffffffffffffffffffffff16604051610882929190611605565b60405180910390a25050565b60006004600083815260200190815260200160002090508060000160009054906101000a900473ffffffffffffffffffffffffffffffffffffffff1673ffffffffffffffffffffffffffffffffffffffff163373ffffffffffffffffffffffffffffffffffffffff16148061095257508060010160009054906101000a900473ffffffffffffffffffffffffffffffffffffffff1673ffffffffffffffffffffffffffffffffffffffff163373ffffffffffffffffffffffffffffffffffffffff16145b610991576040517f08c379a00000000000000000000000000000000000000000000000000000000081526004016109889061167a565b60405180910390fd5b600060048111156109a5576109a4611039565b5b8160040160009054906101000a900460ff1660048111156109c9576109c8611039565b5b14610a09576040517f08c379a0000000000000000000000000000000000000000000000000000000008152600401610a009061150d565b60405180910390fd5b60028160040160006101000a81548160ff02191690836004811115610a3157610a30611039565b5b0217905550817f84a477df8a28a4276ca6dee4458a06c3015f30c477d9c949ede4e13ff8a552b433604051610a6691906111f5565b60405180910390a25050565b609681565b60035481565b60008211610ac0576040517f08c379a0000000000000000000000000000000000000000000000000000000008152600401610ab7906116e6565b60405180910390fd5b600160009054906101000a900473ffffffffffffffffffffffffffffffffffffffff1673ffffffffffffffffffffffffffffffffffffffff166323b872dd3330856040518463ffffffff1660e01b8152600401610b1f93929190611706565b6020604051808303816000875af1158015610b3e573d6000803e3d6000fd5b505050506040513d601f19601f82011682018060405250810190610b629190611392565b610ba1576040517f08c379a0000000000000000000000000000000000000000000000000000000008152600401610b9890611789565b60405180910390fd5b6040518060a001604052803373ffffffffffffffffffffffffffffffffffffffff1681526020018473ffffffffffffffffffffffffffffffffffffffff1681526020018381526020018242610bf691906117d8565b815260200160006004811115610c0f57610c0e611039565b5b81525060046000600354815260200190815260200160002060008201518160000160006101000a81548173ffffffffffffffffffffffffffffffffffffffff021916908373ffffffffffffffffffffffffffffffffffffffff16021790555060208201518160010160006101000a81548173ffffffffffffffffffffffffffffffffffffffff021916908373ffffffffffffffffffffffffffffffffffffffff160217905550604082015181600201556060820151816003015560808201518160040160006101000a81548160ff02191690836004811115610cf457610cf3611039565b5b02179055509050508273ffffffffffffffffffffffffffffffffffffffff163373ffffffffffffffffffffffffffffffffffffffff166003547f59e4b8728799382406714f1c57de5c893d2772f9a8bf9950c5afe4397e648654858542610d5b91906117d8565b604051610d6992919061180c565b60405180910390a460036000815480929190610d8490611835565b9190505550505050565b610d96610e37565b600073ffffffffffffffffffffffffffffffffffffffff168173ffffffffffffffffffffffffffffffffffffffff1603610e05576040517f08c379a0000000000000000000000000000000000000000000000000000000008152600401610dfc906118ef565b60405180910390fd5b610e0e81610eb5565b50565b600260009054906101000a900473ffffffffffffffffffffffffffffffffffffffff1681565b610e3f610f79565b73ffffffffffffffffffffffffffffffffffffffff16610e5d6105f1565b73ffffffffffffffffffffffffffffffffffffffff1614610eb3576040517f08c379a0000000000000000000000000000000000000000000000000000000008152600401610eaa9061195b565b60405180910390fd5b565b60008060009054906101000a900473ffffffffffffffffffffffffffffffffffffffff169050816000806101000a81548173ffffffffffffffffffffffffffffffffffffffff021916908373ffffffffffffffffffffffffffffffffffffffff1602179055508173ffffffffffffffffffffffffffffffffffffffff168173ffffffffffffffffffffffffffffffffffffffff167f8be0079c531659141344cd1fd0a4f28419497f9722a3daafe3b4186f6b6457e060405160405180910390a35050565b600033905090565b600080fd5b6000819050919050565b610f9981610f86565b8114610fa457600080fd5b50565b600081359050610fb681610f90565b92915050565b600060208284031215610fd257610fd1610f81565b5b6000610fe084828501610fa7565b91505092915050565b600073ffffffffffffffffffffffffffffffffffffffff82169050919050565b600061101482610fe9565b9050919050565b61102481611009565b82525050565b61103381610f86565b82525050565b7f4e487b7100000000000000000000000000000000000000000000000000000000600052602160045260246000fd5b6005811061107957611078611039565b5b50565b600081905061108a82611068565b919050565b600061109a8261107c565b9050919050565b6110aa8161108f565b82525050565b600060a0820190506110c5600083018861101b565b6110d2602083018761101b565b6110df604083018661102a565b6110ec606083018561102a565b6110f960808301846110a1565b9695505050505050565b60008115159050919050565b61111881611103565b811461112357600080fd5b50565b6000813590506111358161110f565b92915050565b6000806040838503121561115257611151610f81565b5b600061116085828601610fa7565b925050602061117185828601611126565b9150509250929050565b6000819050919050565b60006111a061119b61119684610fe9565b61117b565b610fe9565b9050919050565b60006111b282611185565b9050919050565b60006111c4826111a7565b9050919050565b6111d4816111b9565b82525050565b60006020820190506111ef60008301846111cb565b92915050565b600060208201905061120a600083018461101b565b92915050565b6000602082019050611225600083018461102a565b92915050565b61123481611009565b811461123f57600080fd5b50565b6000813590506112518161122b565b92915050565b6000806000606084860312156112705761126f610f81565b5b600061127e86828701611242565b935050602061128f86828701610fa7565b92505060406112a086828701610fa7565b9150509250925092565b6000602082840312156112c0576112bf610f81565b5b60006112ce84828501611242565b91505092915050565b600082825260208201905092915050565b7f4e6f742064697370757465640000000000000000000000000000000000000000600082015250565b600061131e600c836112d7565b9150611329826112e8565b602082019050919050565b6000602082019050818103600083015261134d81611311565b9050919050565b6000604082019050611369600083018561101b565b611376602083018461102a565b9392505050565b60008151905061138c8161110f565b92915050565b6000602082840312156113a8576113a7610f81565b5b60006113b68482850161137d565b91505092915050565b7f52656c65617365206661696c6564000000000000000000000000000000000000600082015250565b60006113f5600e836112d7565b9150611400826113bf565b602082019050919050565b60006020820190508181036000830152611424816113e8565b9050919050565b7f526566756e64206661696c656400000000000000000000000000000000000000600082015250565b6000611461600d836112d7565b915061146c8261142b565b602082019050919050565b6000602082019050818103600083015261149081611454565b9050919050565b6114a081611103565b82525050565b60006020820190506114bb6000830184611497565b92915050565b7f4e6f742061637469766500000000000000000000000000000000000000000000600082015250565b60006114f7600a836112d7565b9150611502826114c1565b602082019050919050565b60006020820190508181036000830152611526816114ea565b9050919050565b7f437573746f647920706572696f64206e6f7420656e6465640000000000000000600082015250565b60006115636018836112d7565b915061156e8261152d565b602082019050919050565b6000602082019050818103600083015261159281611556565b9050919050565b7f437573746f64792072656c65617365206661696c656400000000000000000000600082015250565b60006115cf6016836112d7565b91506115da82611599565b602082019050919050565b600060208201905081810360008301526115fe816115c2565b9050919050565b600060408201905061161a600083018561102a565b611627602083018461101b565b9392505050565b7f4e6f74207061727469636970616e740000000000000000000000000000000000600082015250565b6000611664600f836112d7565b915061166f8261162e565b602082019050919050565b6000602082019050818103600083015261169381611657565b9050919050565b7f416d6f756e74206d757374206265203e20300000000000000000000000000000600082015250565b60006116d06012836112d7565b91506116db8261169a565b602082019050919050565b600060208201905081810360008301526116ff816116c3565b9050919050565b600060608201905061171b600083018661101b565b611728602083018561101b565b611735604083018461102a565b949350505050565b7f546f6b656e207472616e73666572206661696c65640000000000000000000000600082015250565b60006117736015836112d7565b915061177e8261173d565b602082019050919050565b600060208201905081810360008301526117a281611766565b9050919050565b7f4e487b7100000000000000000000000000000000000000000000000000000000600052601160045260246000fd5b60006117e382610f86565b91506117ee83610f86565b9250828201905080821115611806576118056117a9565b5b92915050565b6000604082019050611821600083018561102a565b61182e602083018461102a565b9392505050565b600061184082610f86565b91507fffffffffffffffffffffffffffffffffffffffffffffffffffffffffffffffff8203611872576118716117a9565b5b600182019050919050565b7f4f776e61626c653a206e6577206f776e657220697320746865207a65726f206160008201527f6464726573730000000000000000000000000000000000000000000000000000602082015250565b60006118d96026836112d7565b91506118e48261187d565b604082019050919050565b60006020820190508181036000830152611908816118cc565b9050919050565b7f4f776e61626c653a2063616c6c6572206973206e6f7420746865206f776e6572600082015250565b60006119456020836112d7565b91506119508261190f565b602082019050919050565b6000602082019050818103600083015261197481611938565b905091905056fea264697066735822122063fe3f990177cd378f0118084ec422cff7b7d491ac35c6973d9d3d75fae6c67d64736f6c63430008140033",
  "linkReferences": {},
  "deployedLinkReferences": {}
}