{
  "_format": "hh-sol-artifact-1",
  "contractName": "UniversalAssetNFTPausable",
  "sourceName": "contracts/UniversalAssetNFTPausable.sol",
  "abi": [
    {
      "inputs": [],
      "stateMutability": "nonpayable",
      "type": "constructor"
    },
    {
      "anonymous": false,
      "inputs": [
        {
          "indexed": false,
          "internalType": "address",
          "name": "previousAdmin",
          "type": "address"
        },
        {
          "indexed": false,
          "internalType": "address",
          "name": "newAdmin",
          "type": "address"
        }
      ],
      "name": "AdminChanged",
      "type": "event"
    },
    {
      "anonymous": false,
      "inputs": [
        {
          "indexed": true,
          "internalType": "address",
          "name": "owner",
          "type": "address"
        },
        {
          "indexed": true,
          "internalType": "address",
          "name": "approved",
          "type": "address"
        },
        {
          "indexed": true,
          "internalType": "uint256",
          "name": "tokenId",
          "type": "uint256"
        }
      ],
      "name": "Approval",
      "type": "event"
    },
    {
      "anonymous": false,
      "inputs": [
        {
          "indexed": true,
          "internalType": "address",
          "name": "owner",
          "type": "address"
        },
        {
          "indexed": true,
          "internalType": "address",
          "name": "operator",
          "type": "address"
        },
        {
          "indexed": false,
          "internalType": "bool",
          "name": "approved",
          "type": "bool"
        }
      ],
      "name": "ApprovalForAll",
      "type": "event"
    },
    {
      "anonymous": false,
      "inputs": [
        {
          "indexed": true,
          "internalType": "uint256",
          "name": "tokenId",
          "type": "uint256"
        },
        {
          "indexed": false,
          "internalType": "string",
          "name": "assetId",
          "type": "string"
        },
        {
          "indexed": false,
          "internalType": "enum UniversalAssetNFTPausable.AssetType",
          "name": "assetType",
          "type": "uint8"
        },
        {
          "indexed": false,
          "internalType": "address",
          "name": "owner",
          "type": "address"
        }
      ],
      "name": "AssetCreated",
      "type": "event"
    },
    {
      "anonymous": false,
      "inputs": [
        {
          "indexed": true,
          "internalType": "uint256",
          "name": "tokenId",
          "type": "uint256"
        },
        {
          "indexed": false,
          "internalType": "string",
          "name": "reason",
          "type": "string"
        }
      ],
      "name": "AssetDeactivated",
      "type": "event"
    },
    {
      "anonymous": false,
      "inputs": [
        {
          "indexed": true,
          "internalType": "uint256",
          "name": "tokenId",
          "type": "uint256"
        },
        {
          "indexed": false,
          "internalType": "enum UniversalAssetNFTPausable.EventType",
          "name": "eventType",
          "type": "uint8"
        },
        {
          "indexed": false,
          "internalType": "string",
          "name": "description",
          "type": "string"
        }
      ],
      "name": "AssetEventAdded",
      "type": "event"
    },
    {
      "anonymous": false,
      "inputs": [
        {
          "indexed": true,
          "internalType": "uint256",
          "name": "tokenId",
          "type": "uint256"
        },
        {
          "indexed": true,
          "internalType": "uint256",
          "name": "escrowId",
          "type": "uint256"
        },
        {
          "indexed": false,
          "internalType": "string",
          "name": "vertical",
          "type": "string"
        }
      ],
      "name": "AssetLockedForEscrow",
      "type": "event"
    },
    {
      "anonymous": false,
      "inputs": [
        {
          "indexed": true,
          "internalType": "uint256",
          "name": "tokenId",
          "type": "uint256"
        },
        {
          "indexed": false,
          "internalType": "string",
          "name": "key",
          "type": "string"
        },
        {
          "indexed": false,
          "internalType": "string",
          "name": "value",
          "type": "string"
        }
      ],
      "name": "AssetMetadataUpdated",
      "type": "event"
    },
    {
      "anonymous": false,
      "inputs": [
        {
          "indexed": true,
          "internalType": "uint256",
          "name": "tokenId",
          "type": "uint256"
        },
        {
          "indexed": false,
          "internalType": "string",
          "name": "reason",
          "type": "string"
        }
      ],
      "name": "AssetReactivated",
      "type": "event"
    },
    {
      "anonymous": false,
      "inputs": [
        {
          "indexed": true,
          "internalType": "uint256",
          "name": "tokenId",
          "type": "uint256"
        },
        {
          "indexed": false,
          "internalType": "address",
          "name": "from",
          "type": "address"
        },
        {
          "indexed": false,
          "internalType": "address",
          "name": "to",
          "type": "address"
        },
        {
          "indexed": false,
          "internalType": "uint256",
          "name": "amount",
          "type": "uint256"
        }
      ],
      "name": "AssetTransferred",
      "type": "event"
    },
    {
      "anonymous": false,
      "inputs": [
        {
          "indexed": true,
          "internalType": "uint256",
          "name": "tokenId",
          "type": "uint256"
        },
        {
          "indexed": true,
          "internalType": "uint256",
          "name": "escrowId",
          "type": "uint256"
        },
        {
          "indexed": false,
          "internalType": "string",
          "name": "reason",
          "type": "string"
        }
      ],
      "name": "AssetUnlockedFromEscrow",
      "type": "event"
    },
    {
      "anonymous": false,
      "inputs": [
        {
          "indexed": true,
          "internalType": "uint256",
          "name": "tokenId",
          "type": "uint256"
        },
        {
          "indexed": false,
          "internalType": "address",
          "name": "verifier",
          "type": "address"
        }
      ],
      "name": "AssetVerified",
      "type": "event"
    },
    {
      "anonymous": false,
      "inputs": [
        {
          "indexed": false,
          "internalType": "uint256",
          "name": "_fromTokenId",
          "type": "uint256"
        },
        {
          "indexed": false,
          "internalType": "uint256",
          "name": "_toTokenId",
          "type": "uint256"
        }
      ],
      "name": "BatchMetadataUpdate",
      "type": "event"
    },
    {
      "anonymous": false,
      "inputs": [
        {
          "indexed": true,
          "internalType": "address",
          "name": "beacon",
          "type": "address"
        }
      ],
      "name": "BeaconUpgraded",
      "type": "event"
    },
    {
      "anonymous": false,
      "inputs": [
        {
          "indexed": true,
          "internalType": "uint256",
          "name": "tokenId",
          "type": "uint256"
        },
        {
          "indexed": true,
          "internalType": "uint256",
          "name": "escrowId",
          "type": "uint256"
        },
        {
          "indexed": false,
          "internalType": "address",
          "name": "from",
          "type": "address"
        },
        {
          "indexed": false,
          "internalType": "address",
          "name": "to",
          "type": "address"
        },
        {
          "indexed": false,
          "internalType": "uint256",
          "name": "salePrice",
          "type": "uint256"
        },
        {
          "indexed": false,
          "internalType": "string",
          "name": "vertical",
          "type": "string"
        }
      ],
      "name": "EscrowTransferCompleted",
      "type": "event"
    },
    {
      "anonymous": false,
      "inputs": [
        {
          "indexed": false,
          "internalType": "uint8",
          "name": "version",
          "type": "uint8"
        }
      ],
      "name": "Initialized",
      "type": "event"
    },
    {
      "anonymous": false,
      "inputs": [
        {
          "indexed": false,
          "internalType": "uint256",
          "name": "_tokenId",
          "type": "uint256"
        }
      ],
      "name": "MetadataUpdate",
      "type": "event"
    },
    {
      "anonymous": false,
      "inputs": [
        {
          "indexed": false,
          "internalType": "address",
          "name": "account",
          "type": "address"
        }
      ],
      "name": "Paused",
      "type": "event"
    },
    {
      "anonymous": false,
      "inputs": [
        {
          "indexed": true,
          "internalType": "bytes32",
          "name": "role",
          "type": "bytes32"
        },
        {
          "indexed": true,
          "internalType": "bytes32",
          "name": "previousAdminRole",
          "type": "bytes32"
        },
        {
          "indexed": true,
          "internalType": "bytes32",
          "name": "newAdminRole",
          "type": "bytes32"
        }
      ],
      "name": "RoleAdminChanged",
      "type": "event"
    },
    {
      "anonymous": false,
      "inputs": [
        {
          "indexed": true,
          "internalType": "bytes32",
          "name": "role",
          "type": "bytes32"
        },
        {
          "indexed": true,
          "internalType": "address",
          "name": "account",
          "type": "address"
        },
        {
          "indexed": true,
          "internalType": "address",
          "name": "sender",
          "type": "address"
        }
      ],
      "name": "RoleGranted",
      "type": "event"
    },
    {
      "anonymous": false,
      "inputs": [
        {
          "indexed": true,
          "internalType": "bytes32",
          "name": "role",
          "type": "bytes32"
        },
        {
          "indexed": true,
          "internalType": "address",
          "name": "account",
          "type": "address"
        },
        {
          "indexed": true,
          "internalType": "address",
          "name": "sender",
          "type": "address"
        }
      ],
      "name": "RoleRevoked",
      "type": "event"
    },
    {
      "anonymous": false,
      "inputs": [
        {
          "indexed": true,
          "internalType": "address",
          "name": "from",
          "type": "address"
        },
        {
          "indexed": true,
          "internalType": "address",
          "name": "to",
          "type": "address"
        },
        {
          "indexed": true,
          "internalType": "uint256",
          "name": "tokenId",
          "type": "uint256"
        }
      ],
      "name": "Transfer",
      "type": "event"
    },
    {
      "anonymous": false,
      "inputs": [
        {
          "indexed": false,
          "internalType": "address",
          "name": "account",
          "type": "address"
        }
      ],
      "name": "Unpaused",
      "type": "event"
    },
    {
      "anonymous": false,
      "inputs": [
        {
          "indexed": true,
          "internalType": "address",
          "name": "implementation",
          "type": "address"
        }
      ],
      "name": "Upgraded",
      "type": "event"
    },
    {
      "inputs": [],
      "name": "DEFAULT_ADMIN_ROLE",
      "outputs": [
        {
          "internalType": "bytes32",
          "name": "",
          "type": "bytes32"
        }
      ],
      "stateMutability": "view",
      "type": "function"
    },
    {
      "inputs": [],
      "name": "KUSTODIA_ROLE",
      "outputs": [
        {
          "internalType": "bytes32",
          "name": "",
          "type": "bytes32"
        }
      ],
      "stateMutability": "view",
      "type": "function"
    },
    {
      "inputs": [],
      "name": "PAUSER_ROLE",
      "outputs": [
        {
          "internalType": "bytes32",
          "name": "",
          "type": "bytes32"
        }
      ],
      "stateMutability": "view",
      "type": "function"
    },
    {
      "inputs": [],
      "name": "UPDATER_ROLE",
      "outputs": [
        {
          "internalType": "bytes32",
          "name": "",
          "type": "bytes32"
        }
      ],
      "stateMutability": "view",
      "type": "function"
    },
    {
      "inputs": [],
      "name": "VERIFIER_ROLE",
      "outputs": [
        {
          "internalType": "bytes32",
          "name": "",
          "type": "bytes32"
        }
      ],
      "stateMutability": "view",
      "type": "function"
    },
    {
      "inputs": [
        {
          "internalType": "uint256",
          "name": "tokenId",
          "type": "uint256"
        },
        {
          "internalType": "enum UniversalAssetNFTPausable.EventType",
          "name": "eventType",
          "type": "uint8"
        },
        {
          "internalType": "string",
          "name": "description",
          "type": "string"
        },
        {
          "internalType": "uint256",
          "name": "transactionAmount",
          "type": "uint256"
        },
        {
          "internalType": "string[]",
          "name": "supportingDocs",
          "type": "string[]"
        },
        {
          "internalType": "string[]",
          "name": "customFieldKeys",
          "type": "string[]"
        },
        {
          "internalType": "string[]",
          "name": "customFieldValues",
          "type": "string[]"
        }
      ],
      "name": "addAssetEvent",
      "outputs": [],
      "stateMutability": "nonpayable",
      "type": "function"
    },
    {
      "inputs": [
        {
          "internalType": "uint256",
          "name": "tokenId",
          "type": "uint256"
        },
        {
          "internalType": "uint256",
          "name": "eventIndex",
          "type": "uint256"
        },
        {
          "internalType": "string",
          "name": "key",
          "type": "string"
        },
        {
          "internalType": "string",
          "name": "value",
          "type": "string"
        }
      ],
      "name": "addEventCustomField",
      "outputs": [],
      "stateMutability": "nonpayable",
      "type": "function"
    },
    {
      "inputs": [
        {
          "internalType": "address",
          "name": "to",
          "type": "address"
        },
        {
          "internalType": "uint256",
          "name": "tokenId",
          "type": "uint256"
        }
      ],
      "name": "approve",
      "outputs": [],
      "stateMutability": "nonpayable",
      "type": "function"
    },
    {
      "inputs": [
        {
          "internalType": "uint256",
          "name": "",
          "type": "uint256"
        },
        {
          "internalType": "uint256",
          "name": "",
          "type": "uint256"
        }
      ],
      "name": "assetHistory",
      "outputs": [
        {
          "internalType": "enum UniversalAssetNFTPausable.EventType",
          "name": "eventType",
          "type": "uint8"
        },
        {
          "internalType": "uint256",
          "name": "timestamp",
          "type": "uint256"
        },
        {
          "internalType": "address",
          "name": "authorizedBy",
          "type": "address"
        },
        {
          "internalType": "string",
          "name": "description",
          "type": "string"
        },
        {
          "internalType": "uint256",
          "name": "transactionAmount",
          "type": "uint256"
        }
      ],
      "stateMutability": "view",
      "type": "function"
    },
    {
      "inputs": [
        {
          "internalType": "string",
          "name": "",
          "type": "string"
        }
      ],
      "name": "assetIdToTokenId",
      "outputs": [
        {
          "internalType": "uint256",
          "name": "",
          "type": "uint256"
        }
      ],
      "stateMutability": "view",
      "type": "function"
    },
    {
      "inputs": [
        {
          "internalType": "uint256",
          "name": "",
          "type": "uint256"
        }
      ],
      "name": "assets",
      "outputs": [
        {
          "internalType": "string",
          "name": "assetId",
          "type": "string"
        },
        {
          "internalType": "enum UniversalAssetNFTPausable.AssetType",
          "name": "assetType",
          "type": "uint8"
        },
        {
          "internalType": "address",
          "name": "currentOwner",
          "type": "address"
        },
        {
          "internalType": "uint256",
          "name": "creationDate",
          "type": "uint256"
        },
        {
          "internalType": "bool",
          "name": "isVerified",
          "type": "bool"
        },
        {
          "internalType": "bool",
          "name": "isActive",
          "type": "bool"
        },
        {
          "internalType": "uint256",
          "name": "lastUpdated",
          "type": "uint256"
        }
      ],
      "stateMutability": "view",
      "type": "function"
    },
    {
      "inputs": [
        {
          "internalType": "address",
          "name": "owner",
          "type": "address"
        }
      ],
      "name": "balanceOf",
      "outputs": [
        {
          "internalType": "uint256",
          "name": "",
          "type": "uint256"
        }
      ],
      "stateMutability": "view",
      "type": "function"
    },
    {
      "inputs": [
        {
          "internalType": "string",
          "name": "assetId",
          "type": "string"
        },
        {
          "internalType": "enum UniversalAssetNFTPausable.AssetType",
          "name": "assetType",
          "type": "uint8"
        },
        {
          "internalType": "address",
          "name": "owner",
          "type": "address"
        },
        {
          "internalType": "string[]",
          "name": "metadataKeys",
          "type": "string[]"
        },
        {
          "internalType": "string[]",
          "name": "metadataValues",
          "type": "string[]"
        },
        {
          "internalType": "string",
          "name": "_tokenURI",
          "type": "string"
        }
      ],
      "name": "createAsset",
      "outputs": [
        {
          "internalType": "uint256",
          "name": "",
          "type": "uint256"
        }
      ],
      "stateMutability": "nonpayable",
      "type": "function"
    },
    {
      "inputs": [
        {
          "internalType": "uint256",
          "name": "tokenId",
          "type": "uint256"
        },
        {
          "internalType": "string",
          "name": "reason",
          "type": "string"
        }
      ],
      "name": "deactivateAsset",
      "outputs": [],
      "stateMutability": "nonpayable",
      "type": "function"
    },
    {
      "inputs": [
        {
          "internalType": "uint256",
          "name": "tokenId",
          "type": "uint256"
        }
      ],
      "name": "getApproved",
      "outputs": [
        {
          "internalType": "address",
          "name": "",
          "type": "address"
        }
      ],
      "stateMutability": "view",
      "type": "function"
    },
    {
      "inputs": [
        {
          "internalType": "uint256",
          "name": "tokenId",
          "type": "uint256"
        }
      ],
      "name": "getAsset",
      "outputs": [
        {
          "internalType": "string",
          "name": "assetId",
          "type": "string"
        },
        {
          "internalType": "enum UniversalAssetNFTPausable.AssetType",
          "name": "assetType",
          "type": "uint8"
        },
        {
          "internalType": "address",
          "name": "currentOwner",
          "type": "address"
        },
        {
          "internalType": "uint256",
          "name": "creationDate",
          "type": "uint256"
        },
        {
          "internalType": "bool",
          "name": "isVerified",
          "type": "bool"
        },
        {
          "internalType": "bool",
          "name": "isActive",
          "type": "bool"
        },
        {
          "internalType": "uint256",
          "name": "lastUpdated",
          "type": "uint256"
        }
      ],
      "stateMutability": "view",
      "type": "function"
    },
    {
      "inputs": [
        {
          "internalType": "uint256",
          "name": "tokenId",
          "type": "uint256"
        },
        {
          "internalType": "uint256",
          "name": "eventIndex",
          "type": "uint256"
        }
      ],
      "name": "getAssetEvent",
      "outputs": [
        {
          "internalType": "enum UniversalAssetNFTPausable.EventType",
          "name": "eventType",
          "type": "uint8"
        },
        {
          "internalType": "uint256",
          "name": "timestamp",
          "type": "uint256"
        },
        {
          "internalType": "address",
          "name": "authorizedBy",
          "type": "address"
        },
        {
          "internalType": "string",
          "name": "description",
          "type": "string"
        },
        {
          "internalType": "uint256",
          "name": "transactionAmount",
          "type": "uint256"
        },
        {
          "internalType": "string[]",
          "name": "supportingDocs",
          "type": "string[]"
        }
      ],
      "stateMutability": "view",
      "type": "function"
    },
    {
      "inputs": [
        {
          "internalType": "uint256",
          "name": "tokenId",
          "type": "uint256"
        }
      ],
      "name": "getAssetEventCount",
      "outputs": [
        {
          "internalType": "uint256",
          "name": "",
          "type": "uint256"
        }
      ],
      "stateMutability": "view",
      "type": "function"
    },
    {
      "inputs": [
        {
          "internalType": "uint256",
          "name": "tokenId",
          "type": "uint256"
        },
        {
          "internalType": "uint256",
          "name": "eventIndex",
          "type": "uint256"
        },
        {
          "internalType": "string",
          "name": "key",
          "type": "string"
        }
      ],
      "name": "getAssetEventCustomField",
      "outputs": [
        {
          "internalType": "string",
          "name": "",
          "type": "string"
        }
      ],
      "stateMutability": "view",
      "type": "function"
    },
    {
      "inputs": [
        {
          "internalType": "uint256",
          "name": "tokenId",
          "type": "uint256"
        },
        {
          "internalType": "string",
          "name": "key",
          "type": "string"
        }
      ],
      "name": "getAssetMetadata",
      "outputs": [
        {
          "internalType": "string",
          "name": "",
          "type": "string"
        }
      ],
      "stateMutability": "view",
      "type": "function"
    },
    {
      "inputs": [
        {
          "internalType": "address",
          "name": "owner",
          "type": "address"
        }
      ],
      "name": "getOwnerAssets",
      "outputs": [
        {
          "internalType": "uint256[]",
          "name": "",
          "type": "uint256[]"
        }
      ],
      "stateMutability": "view",
      "type": "function"
    },
    {
      "inputs": [
        {
          "internalType": "bytes32",
          "name": "role",
          "type": "bytes32"
        }
      ],
      "name": "getRoleAdmin",
      "outputs": [
        {
          "internalType": "bytes32",
          "name": "",
          "type": "bytes32"
        }
      ],
      "stateMutability": "view",
      "type": "function"
    },
    {
      "inputs": [
        {
          "internalType": "string",
          "name": "assetId",
          "type": "string"
        }
      ],
      "name": "getTokenIdByAssetId",
      "outputs": [
        {
          "internalType": "uint256",
          "name": "",
          "type": "uint256"
        }
      ],
      "stateMutability": "view",
      "type": "function"
    },
    {
      "inputs": [
        {
          "internalType": "bytes32",
          "name": "role",
          "type": "bytes32"
        },
        {
          "internalType": "address",
          "name": "account",
          "type": "address"
        }
      ],
      "name": "grantRole",
      "outputs": [],
      "stateMutability": "nonpayable",
      "type": "function"
    },
    {
      "inputs": [
        {
          "internalType": "bytes32",
          "name": "role",
          "type": "bytes32"
        },
        {
          "internalType": "address",
          "name": "account",
          "type": "address"
        }
      ],
      "name": "hasRole",
      "outputs": [
        {
          "internalType": "bool",
          "name": "",
          "type": "bool"
        }
      ],
      "stateMutability": "view",
      "type": "function"
    },
    {
      "inputs": [
        {
          "internalType": "string",
          "name": "name",
          "type": "string"
        },
        {
          "internalType": "string",
          "name": "symbol",
          "type": "string"
        },
        {
          "internalType": "address",
          "name": "admin",
          "type": "address"
        }
      ],
      "name": "initialize",
      "outputs": [],
      "stateMutability": "nonpayable",
      "type": "function"
    },
    {
      "inputs": [
        {
          "internalType": "address",
          "name": "owner",
          "type": "address"
        },
        {
          "internalType": "address",
          "name": "operator",
          "type": "address"
        }
      ],
      "name": "isApprovedForAll",
      "outputs": [
        {
          "internalType": "bool",
          "name": "",
          "type": "bool"
        }
      ],
      "stateMutability": "view",
      "type": "function"
    },
    {
      "inputs": [
        {
          "internalType": "uint256",
          "name": "tokenId",
          "type": "uint256"
        },
        {
          "internalType": "uint256",
          "name": "escrowId",
          "type": "uint256"
        },
        {
          "internalType": "string",
          "name": "vertical",
          "type": "string"
        }
      ],
      "name": "lockAssetForEscrow",
      "outputs": [],
      "stateMutability": "nonpayable",
      "type": "function"
    },
    {
      "inputs": [],
      "name": "name",
      "outputs": [
        {
          "internalType": "string",
          "name": "",
          "type": "string"
        }
      ],
      "stateMutability": "view",
      "type": "function"
    },
    {
      "inputs": [
        {
          "internalType": "address",
          "name": "",
          "type": "address"
        },
        {
          "internalType": "uint256",
          "name": "",
          "type": "uint256"
        }
      ],
      "name": "ownerAssets",
      "outputs": [
        {
          "internalType": "uint256",
          "name": "",
          "type": "uint256"
        }
      ],
      "stateMutability": "view",
      "type": "function"
    },
    {
      "inputs": [
        {
          "internalType": "uint256",
          "name": "tokenId",
          "type": "uint256"
        }
      ],
      "name": "ownerOf",
      "outputs": [
        {
          "internalType": "address",
          "name": "",
          "type": "address"
        }
      ],
      "stateMutability": "view",
      "type": "function"
    },
    {
      "inputs": [],
      "name": "pause",
      "outputs": [],
      "stateMutability": "nonpayable",
      "type": "function"
    },
    {
      "inputs": [],
      "name": "paused",
      "outputs": [
        {
          "internalType": "bool",
          "name": "",
          "type": "bool"
        }
      ],
      "stateMutability": "view",
      "type": "function"
    },
    {
      "inputs": [],
      "name": "proxiableUUID",
      "outputs": [
        {
          "internalType": "bytes32",
          "name": "",
          "type": "bytes32"
        }
      ],
      "stateMutability": "view",
      "type": "function"
    },
    {
      "inputs": [
        {
          "internalType": "uint256",
          "name": "tokenId",
          "type": "uint256"
        },
        {
          "internalType": "string",
          "name": "reason",
          "type": "string"
        }
      ],
      "name": "reactivateAsset",
      "outputs": [],
      "stateMutability": "nonpayable",
      "type": "function"
    },
    {
      "inputs": [
        {
          "internalType": "bytes32",
          "name": "role",
          "type": "bytes32"
        },
        {
          "internalType": "address",
          "name": "account",
          "type": "address"
        }
      ],
      "name": "renounceRole",
      "outputs": [],
      "stateMutability": "nonpayable",
      "type": "function"
    },
    {
      "inputs": [
        {
          "internalType": "bytes32",
          "name": "role",
          "type": "bytes32"
        },
        {
          "internalType": "address",
          "name": "account",
          "type": "address"
        }
      ],
      "name": "revokeRole",
      "outputs": [],
      "stateMutability": "nonpayable",
      "type": "function"
    },
    {
      "inputs": [
        {
          "internalType": "address",
          "name": "from",
          "type": "address"
        },
        {
          "internalType": "address",
          "name": "to",
          "type": "address"
        },
        {
          "internalType": "uint256",
          "name": "tokenId",
          "type": "uint256"
        }
      ],
      "name": "safeTransferFrom",
      "outputs": [],
      "stateMutability": "nonpayable",
      "type": "function"
    },
    {
      "inputs": [
        {
          "internalType": "address",
          "name": "from",
          "type": "address"
        },
        {
          "internalType": "address",
          "name": "to",
          "type": "address"
        },
        {
          "internalType": "uint256",
          "name": "tokenId",
          "type": "uint256"
        },
        {
          "internalType": "bytes",
          "name": "data",
          "type": "bytes"
        }
      ],
      "name": "safeTransferFrom",
      "outputs": [],
      "stateMutability": "nonpayable",
      "type": "function"
    },
    {
      "inputs": [
        {
          "internalType": "address",
          "name": "operator",
          "type": "address"
        },
        {
          "internalType": "bool",
          "name": "approved",
          "type": "bool"
        }
      ],
      "name": "setApprovalForAll",
      "outputs": [],
      "stateMutability": "nonpayable",
      "type": "function"
    },
    {
      "inputs": [
        {
          "internalType": "bytes4",
          "name": "interfaceId",
          "type": "bytes4"
        }
      ],
      "name": "supportsInterface",
      "outputs": [
        {
          "internalType": "bool",
          "name": "",
          "type": "bool"
        }
      ],
      "stateMutability": "view",
      "type": "function"
    },
    {
      "inputs": [],
      "name": "symbol",
      "outputs": [
        {
          "internalType": "string",
          "name": "",
          "type": "string"
        }
      ],
      "stateMutability": "view",
      "type": "function"
    },
    {
      "inputs": [
        {
          "internalType": "uint256",
          "name": "tokenId",
          "type": "uint256"
        }
      ],
      "name": "tokenURI",
      "outputs": [
        {
          "internalType": "string",
          "name": "",
          "type": "string"
        }
      ],
      "stateMutability": "view",
      "type": "function"
    },
    {
      "inputs": [
        {
          "internalType": "uint256",
          "name": "tokenId",
          "type": "uint256"
        },
        {
          "internalType": "address",
          "name": "to",
          "type": "address"
        },
        {
          "internalType": "uint256",
          "name": "salePrice",
          "type": "uint256"
        },
        {
          "internalType": "string",
          "name": "escrowId",
          "type": "string"
        }
      ],
      "name": "transferAssetWithEscrow",
      "outputs": [],
      "stateMutability": "nonpayable",
      "type": "function"
    },
    {
      "inputs": [
        {
          "internalType": "uint256",
          "name": "tokenId",
          "type": "uint256"
        },
        {
          "internalType": "address",
          "name": "to",
          "type": "address"
        },
        {
          "internalType": "uint256",
          "name": "salePrice",
          "type": "uint256"
        },
        {
          "internalType": "uint256",
          "name": "escrowId",
          "type": "uint256"
        },
        {
          "internalType": "string",
          "name": "vertical",
          "type": "string"
        },
        {
          "internalType": "string",
          "name": "clabe",
          "type": "string"
        }
      ],
      "name": "transferAssetWithEscrowV2",
      "outputs": [],
      "stateMutability": "nonpayable",
      "type": "function"
    },
    {
      "inputs": [
        {
          "internalType": "address",
          "name": "from",
          "type": "address"
        },
        {
          "internalType": "address",
          "name": "to",
          "type": "address"
        },
        {
          "internalType": "uint256",
          "name": "tokenId",
          "type": "uint256"
        }
      ],
      "name": "transferFrom",
      "outputs": [],
      "stateMutability": "nonpayable",
      "type": "function"
    },
    {
      "inputs": [
        {
          "internalType": "uint256",
          "name": "tokenId",
          "type": "uint256"
        },
        {
          "internalType": "uint256",
          "name": "escrowId",
          "type": "uint256"
        },
        {
          "internalType": "string",
          "name": "reason",
          "type": "string"
        }
      ],
      "name": "unlockAssetFromEscrow",
      "outputs": [],
      "stateMutability": "nonpayable",
      "type": "function"
    },
    {
      "inputs": [],
      "name": "unpause",
      "outputs": [],
      "stateMutability": "nonpayable",
      "type": "function"
    },
    {
      "inputs": [
        {
          "internalType": "uint256",
          "name": "tokenId",
          "type": "uint256"
        },
        {
          "internalType": "string",
          "name": "key",
          "type": "string"
        },
        {
          "internalType": "string",
          "name": "value",
          "type": "string"
        }
      ],
      "name": "updateAssetMetadata",
      "outputs": [],
      "stateMutability": "nonpayable",
      "type": "function"
    },
    {
      "inputs": [
        {
          "internalType": "address",
          "name": "newImplementation",
          "type": "address"
        }
      ],
      "name": "upgradeTo",
      "outputs": [],
      "stateMutability": "nonpayable",
      "type": "function"
    },
    {
      "inputs": [
        {
          "internalType": "address",
          "name": "newImplementation",
          "type": "address"
        },
        {
          "internalType": "bytes",
          "name": "data",
          "type": "bytes"
        }
      ],
      "name": "upgradeToAndCall",
      "outputs": [],
      "stateMutability": "payable",
      "type": "function"
    },
    {
      "inputs": [
        {
          "internalType": "uint256",
          "name": "tokenId",
          "type": "uint256"
        }
      ],
      "name": "verifyAsset",
      "outputs": [],
      "stateMutability": "nonpayable",
      "type": "function"
    }
  ],
  "bytecode": "0x60a08060405234620000e157306080526000549060ff8260081c166200008f575060ff8082160362000053575b6040516177419081620000e78239608051818181613aef01528181613bd901526142920152f35b60ff90811916176000557f7f26b83ff96e1f2b6a682f133852f6798a09c465da95921460cefb3847402498602060405160ff8152a1386200002c565b62461bcd60e51b815260206004820152602760248201527f496e697469616c697a61626c653a20636f6e747261637420697320696e697469604482015266616c697a696e6760c81b6064820152608490fd5b600080fdfe608080604052600436101561001357600080fd5b60003560e01c90816301ffc9a71461540c5750806306fdde0314615367578063077f224a14614e2f578063081812fc14614e11578063095ea7b314614c975780631e1946a9146146ae57806323b872dd1461468a578063248a9ca31461465b5780632c5c4a47146146055780632d38f89b146145505780632df91091146145275780632f2ff15d1461448657806336568abe146143f45780633659cfe61461426d57806337d73934146141045780633c2fd95014613f315780633f4ba83a14613e9d57806342842e0e14613e6a578063455bd95114613e1157806347e6338014613de85780634f1ef28614613b9b57806352d1902d14613adc57806359fd285c146135545780635c975abb146135315780635e40e128146129db5780636352211e146129ab57806370a082311461291457806373eeab25146128db57806378250cec1461219057806383f1f6fe14611ffb5780638456cb5914611dee57806391d1485414611da157806395d89b4114611cd3578063a217fddf14611cb7578063a22cb46514611be9578063b49b1a5b146115cd578063b5c9e3d614611541578063b88d4fde146114cd578063bb6d85cb14610cec578063c3d2ac4a14610be6578063c87b56dd14610b86578063ca0674a214610a43578063cf35bdd0146109d6578063d04ec72a14610979578063d11cd1fb146104b2578063d547741f14610471578063e63ab1e914610448578063e7705db61461041f578063e985e9c5146103c9578063eac8f5b814610350578063ec1a8dab146102f35763f11f68911461025b57600080fd5b346102ee5761026936615690565b906000526101c5602052604060002080548210156102ee576102c99161028e91615909565b5060ff815416906102e460018201549160018060a01b0360028201541660046102b9600384016157e1565b92015493604051968780976156a6565b6020860152604085015260a0606085015260a08401906154ce565b9060808301520390f35b600080fd5b346102ee5761034c61033861033361030a36615778565b9061031c610317826167c7565b616d36565b6000526101c46020526005604060002001906158e3565b6157e1565b6040519182916020835260208301906154ce565b0390f35b346102ee5760203660031901126102ee57600435610370610317826167c7565b6000526101c46020526040600020600181015461034c600283015492600381015461039f6004830154926157e1565b604051958695600884811c60ff908116958116949183901c6001600160a01b031692169088615894565b346102ee5760403660031901126102ee576103e26155fa565b6103ea615610565b9060018060a01b03809116600052606a60205260406000209116600052602052602060ff604060002054166040519015158152f35b346102ee5760003660031901126102ee5760206040516000805160206176cc8339815191528152f35b346102ee5760003660031901126102ee5760206040516000805160206175cc8339815191528152f35b346102ee5760403660031901126102ee576104b0600435610490615610565b908060005260c96020526104ab600160406000200154615cec565b615deb565b005b346102ee5760803660031901126102ee576104cb615610565b6064356001600160401b0381116102ee576104ea90369060040161559d565b6104f2615925565b6104fa616ca7565b6105086103176004356167c7565b6001600160a01b0382169061051e82151561719f565b610529600435615fd6565b916004356000526101c4602052610547846001604060002001616b65565b610553600435846173f7565b6000526101c760205261056c6004356040600020616bda565b61057960043584846161bd565b610581616bfd565b9061058b82616b99565b5261059581616b99565b50604051906105a3826154f3565b602282527f417373657420736f6c64207468726f756768204b7573746f64696120657363726020830152616f7760f01b60408301526004356000526101c56020526105f16040600020616dd1565b50805460ff19166001908117825542908201556002810180546001600160a01b0319163317905582519091906001600160401b03811161084a57600383019061063a82546157a7565b601f8111610947575b50806020601f82116001146108e3576000916108d8575b508160011b916000199060031b1c19161790555b6044356004830155805190600160401b821161084a576005830154826005850155808310610860575b5060206005910192016000526020600020916000905b82821061072a578660008051602061766c83398151915261072588886004356000526101c46020524260046040600020015560008051602061760c83398151915260405160018152604060208201528061070e6004359460408301906154ce565b0390a26040519182916004359560443591846171eb565b0390a2005b80518051906001600160401b03821161084a5761074786546157a7565b601f811161080d575b50602090601f831160011461079d579282600194936020938695600092610792575b5050600019600383901b1c191690841b1787555b019401910190926106ad565b015190508c80610772565b908660005260206000209160005b601f19851681106107f5575083602093600196938796938794601f198116106107dc575b505050811b018755610786565b015160001960f88460031b161c191690558c80806107cf565b919260206001819286850151815501940192016107ab565b61083a90876000526020600020601f850160051c81019160208610610840575b601f0160051c0190616b4e565b89610750565b909150819061082d565b634e487b7160e01b600052604160045260246000fd5b600584016000526020600020908382015b8183018110610881575050610697565b8061088e600192546157a7565b8061089b575b5001610871565b601f811183146108b15750600081555b8a610894565b6000908282526108cf601f60208420920160051c8201858301616b4e565b818355556108ab565b90508501518861065a565b6000848152602081209250601f198416905b81811061092f57509083600194939210610916575b5050811b01905561066e565b87015160001960f88460031b161c19169055888061090a565b9192602060018192868c0151815501940192016108f5565b61097390836000526020600020601f840160051c8101916020851061084057601f0160051c0190616b4e565b87610643565b346102ee5760203660031901126102ee576004356001600160401b0381116102ee576109c260206109af8193369060040161559d565b81604051938285809451938492016154ab565b81016101c681520301902054604051908152f35b346102ee5760203660031901126102ee576004356000526101c46020526040600020610a01816157e1565b61034c600183015491600284015493600460038201549101549160405195869560ff808560081c1694169260ff60018060a01b038360081c1692169088615894565b346102ee57610a5136615778565b90610a5a615925565b610a62616ca7565b610a6e610317826167c7565b806000526101c49160209280845260ff60036040600020015460081c1615610b45579282937fbdd6e51a8525db23b0d18cc5b3fdd4a4d3edc7ef91c0122802fb74da91246e7a93600052815260406000206003810161ff00198154169055600442910155610b3160405172020b9b9b2ba103232b0b1ba34bb30ba32b21d1606d1b83820152610b1a6033828651610b0a81848401898b016154ab565b810103601381018452018261555f565b60405190610b278261550e565b6000825286616df2565b6107256040519282849384528301906154ce565b60405162461bcd60e51b8152600481018590526019602482015278105cdcd95d08185b1c9958591e4819195858dd1a5d985d1959603a1b6044820152606490fd5b346102ee5760203660031901126102ee57600435610bab610ba6826167c7565b615f8f565b600052609760205261034c610bc360406000206157e1565b6000604051610bd18161550e565b526040519182916020835260208301906154ce565b346102ee57610bf436615778565b90610bfd615925565b610c05616ca7565b610c11610317826167c7565b806000526101c49160209280845260ff60036040600020015460081c16610cb0579282937f4e53463a1ecc848e39870b3037363fa72c5297748e7f458fec8a5173f896b3e493600052815260406000206003810161010061ff0019825416179055600442910155610b3160405172020b9b9b2ba103932b0b1ba34bb30ba32b21d1606d1b83820152610b1a6033828651610b0a81848401898b016154ab565b60405162461bcd60e51b8152600481018590526014602482015273417373657420616c72656164792061637469766560601b6044820152606490fd5b346102ee5760e03660031901126102ee57600e60243510156102ee576044356001600160401b0381116102ee57610d2790369060040161559d565b6084356001600160401b0381116102ee57610d469036906004016156f8565b9060a4356001600160401b0381116102ee57610d669036906004016156f8565b9160c4356001600160401b0381116102ee57610d869036906004016156f8565b90610d8f616ca7565b610d9d6103176004356167c7565b33600090815260008051602061758c833981519152602052604090205460ff1680156114a7575b8015611481575b1561143d57610ddd8451835114616d79565b610dea8451835114616d79565b6004356000526101c5602052610e036040600020616dd1565b50805460ff191660ff60243516178155426001820155600281018054336001600160a01b031990911617905583519091906001600160401b03811161084a57610e4f60038401546157a7565b601f8111611408575b50806020601f821160011461139b57600091611390575b508160011b916000199060031b1c19161760038301555b6064356004830155805190600160401b821161084a576005830154826005850155808310611318575b5060206005910192016000526020600020916000905b828210611203575050505060005b835181101561101c57610ee68183616bc6565b516004356000526101c4602052610f0e6005604060002001610f088488616bc6565b516158e3565b815190916001600160401b03821161084a57610f2a83546157a7565b601f8111610fea575b50602090601f8311600114610f7b57610f6b9493929160009183610f70575b50508160011b916000199060031b1c1916179055616b8a565b610ed3565b015190508880610f52565b908360005260206000209160005b601f1985168110610fd25750918391600193610f6b979695601f19811610610fb9575b505050811b019055616b8a565b015160001960f88460031b161c19169055888080610fac565b91926020600181928685015181550194019201610f89565b61101690846000526020600020601f850160051c8101916020861061084057601f0160051c0190616b4e565b87610f33565b50916004356000526101c4602052426004604060002001556101c5602052604060002054806000198101116111ed57611069906004356000526101c5602052600019016040600020615909565b509260005b825181101561119f576110818183616bc6565b5161109360068701610f088487616bc6565b815190916001600160401b03821161084a576110af83546157a7565b601f811161116d575b50602090601f83116001146110ff576110ef94939291600091836110f45750508160011b916000199060031b1c1916179055616b8a565b61106e565b015190508980610f52565b908360005260206000209160005b601f198516811061115557509183916001936110ef979695601f1981161061113c57505050811b019055616b8a565b015160001960f88460031b161c19169055898080610fac565b9192602060018192868501518155019401920161110d565b61119990846000526020600020601f850160051c8101916020861061084057601f0160051c0190616b4e565b886110b8565b836004356000526101c46020524260046040600020015560008051602061760c8339815191526040516111d4816024356156a6565b60406020820152806107256004359460408301906154ce565b634e487b7160e01b600052601160045260246000fd5b80518051906001600160401b03821161084a5761122086546157a7565b601f81116112e6575b50602090601f831160011461127657928260019493602093869560009261126b575b5050600019600383901b1c191690841b1787555b01940191019092610ec5565b015190508c8061124b565b908660005260206000209160005b601f19851681106112ce575083602093600196938796938794601f198116106112b5575b505050811b01875561125f565b015160001960f88460031b161c191690558c80806112a8565b91926020600181928685015181550194019201611284565b61131290876000526020600020601f850160051c8101916020861061084057601f0160051c0190616b4e565b89611229565b600584016000526020600020908382015b8183018110611339575050610eaf565b80611346600192546157a7565b80611353575b5001611329565b601f811183146113695750600081555b8a61134c565b600090828252611387601f60208420920160051c8201858301616b4e565b81835555611363565b905085015187610e6f565b91506003840160005260206000206000925b601f19831684106113f0576001935082601f198116106113d7575b5050811b016003830155610e86565b87015160001960f88460031b161c1916905587806113c8565b878101518255602093840193600190920191016113ad565b61143790600385016000526020600020601f840160051c8101916020851061084057601f0160051c0190616b4e565b86610e58565b60405162461bcd60e51b815260206004820152601c60248201527b4e6f7420617574686f72697a656420746f20616464206576656e747360201b6044820152606490fd5b5033600090815260008051602061762c833981519152602052604090205460ff16610dcb565b503360009081526000805160206176ac833981519152602052604090205460ff16610dc4565b346102ee5760803660031901126102ee576114e66155fa565b6114ee615610565b90606435906044356001600160401b0383116102ee576104b09361151961153c94369060040161559d565b9261152c61152784336160f5565b616020565b6115378383836161bd565b61690c565b6160d5565b346102ee5760203660031901126102ee576004356001600160401b0381116102ee5760206109af61157692369060040161559d565b81016101c681520301902054801561159357602090604051908152f35b60405162461bcd60e51b8152602060048201526012602482015271105cdcd95d081251081b9bdd08199bdd5b9960721b6044820152606490fd5b346102ee576115db36615626565b906115e4615925565b6115ec616ca7565b6115f8610317846167c7565b611600616bfd565b61160982617255565b61164d602e60405180936d32b9b1b937bbafbab73637b1b59d60911b602083015261163d81518092602086860191016154ab565b810103600e81018452018261555f565b61165682616b99565b5261166081616b99565b50611669616c2c565b91611672616c2c565b9161167b61720d565b61168485616b99565b5261168e84616b99565b5061169882617255565b6116a184616b99565b526116ab83616b99565b506040516116b881615529565b60068152653932b0b9b7b760d11b60208201526116d485616ba6565b526116de84616ba6565b50846116e984616ba6565b526116f383616ba6565b506040519061170182615529565b601a825279417373657420756e6c6f636b65642066726f6d20657363726f7760301b60208301526117358551855114616d79565b866000526101c560205261174c6040600020616dd1565b50805460ff1916600d1781554260018201556002810180546001600160a01b03191633179055825190926001600160401b03821161084a57819061179360038601546157a7565b601f8111611bb4575b50602090601f8311600114611b4257600092611b37575b50508160011b916000199060031b1c19161760038301555b60006004830155805190600160401b821161084a576005830154826005850155808310611abf575b5060206005910192016000526020600020916000905b8282106119aa575050505060005b83518110156119565761182a8184616bc6565b51866000526101c460205261184a6005604060002001610f088488616bc6565b815190916001600160401b03821161084a5761186683546157a7565b601f8111611924575b50602090601f83116001146118b6576118a694939291600091836118ab5750508160011b916000199060031b1c1916179055616b8a565b611817565b015190508a80610f52565b908360005260206000209160005b601f198516811061190c57509183916001936118a6979695601f198116106118f357505050811b019055616b8a565b015160001960f88460031b161c191690558a8080610fac565b919260206001819286850151815501940192016118c4565b61195090846000526020600020601f850160051c8101916020861061084057601f0160051c0190616b4e565b8961186f565b50847ffddfab352add1d6e13d36770163292a8866bb4b78aed0d5c56278ecd290e48546119a586836000526101c4602052426004604060002001556040519182916020835260208301906154ce565b0390a3005b80518051906001600160401b03821161084a576119c786546157a7565b601f8111611a8d575b50602090601f8311600114611a1d579282600194936020938695600092611a12575b5050600019600383901b1c191690841b1787555b01940191019092611809565b015190508e806119f2565b908660005260206000209160005b601f1985168110611a75575083602093600196938796938794601f19811610611a5c575b505050811b018755611a06565b015160001960f88460031b161c191690558e8080611a4f565b91926020600181928685015181550194019201611a2b565b611ab990876000526020600020601f850160051c8101916020861061084057601f0160051c0190616b4e565b8b6119d0565b600584016000526020600020908382015b8183018110611ae05750506117f3565b80611aed600192546157a7565b80611afa575b5001611ad0565b601f81118314611b105750600081555b8c611af3565b600090828252611b2e601f60208420920160051c8201858301616b4e565b81835555611b0a565b0151905089806117b3565b9250600385016000526020600020906000935b601f1984168510611b99576001945083601f19811610611b80575b505050811b0160038301556117cb565b015160001960f88460031b161c19169055898080611b70565b81810151835560209485019460019093019290910190611b55565b611be390600387016000526020600020601f850160051c8101916020861061084057601f0160051c0190616b4e565b8a61179c565b346102ee5760403660031901126102ee57611c026155fa565b602435908115158092036102ee576001600160a01b031690338214611c765733600052606a602052604060002082600052602052604060002060ff1981541660ff83161790556040519081527f17307eab39ab6107e8899845ad3d59bd9653f200f220920489ca2b5937696c3160203392a3005b60405162461bcd60e51b815260206004820152601960248201527822a9219b99189d1030b8383937bb32903a379031b0b63632b960391b6044820152606490fd5b346102ee5760003660031901126102ee57602060405160008152f35b346102ee5760003660031901126102ee57604051600090606654611cf6816157a7565b808352600191808316908115611d795750600114611d1f575b61034c836103388187038261555f565b6066600090815260209450917f46501879b8ca8525e8c2fd519e2fbfcfa2ebea26501294aa02cbfcfb12e943545b828410611d665750505081019091019061033881611d0f565b8054858501870152928501928101611d4d565b61034c955061033893506020915091849260ff191682840152151560051b8201019350611d0f565b346102ee5760403660031901126102ee57611dba615610565b60043560005260c960205260406000209060018060a01b0316600052602052602060ff604060002054166040519015158152f35b346102ee5760003660031901126102ee573360009081527f69740cd0ab091be8193e004660c49ef128fdf47ef95c5cc8c747e37ac0379df860209081526040909120546000805160206175cc833981519152919060ff1615611e8a577f62e78cea01bee320cd4e420270b5ea74000d11b0c9f74754ebdbfc544b05a25890611e74616ca7565b600160ff1960fb54161760fb55604051338152a1005b611e9333616a34565b91604051611ea081615544565b60428152828101916060368437815115611fe557603083538151600190811015611fe557607860218401536041905b808211611fa1575050611f7057611f3c93611f4b9260489260405196879360008051602061752c83398151915288860152611f13815180928a6037890191016154ab565b8401917001034b99036b4b9b9b4b733903937b6329607d1b6037840152518093868401906154ab565b0103602881018552018361555f565b611f6c60405192839262461bcd60e51b8452600484015260248301906154ce565b0390fd5b6064836040519062461bcd60e51b825280600483015260248201526000805160206174cc8339815191526044820152fd5b9091600f81166010811015611fe5576f181899199a1a9b1b9c1cb0b131b232b360811b901a611fd08486616a23565b5360041c9180156111ed576000190190611ecf565b634e487b7160e01b600052603260045260246000fd5b346102ee5760803660031901126102ee576024356004356001600160401b036044358181116102ee5761203290369060040161559d565b606435908282116102ee57600661209c6120536120a494369060040161559d565b9661205c615bd7565b612064616ca7565b612070610317886167c7565b866000526101c560209781895261208d604060002054841061715c565b60005287526040600020615909565b5001906158e3565b91835191821161084a576120b883546157a7565b601f8111612160575b5080601f83116001146120fd57508192936000926120f2575b5050600019600383901b1c191660019190911b179055005b0151905083806120da565b90601f198316948460005282600020926000905b87821061214857505083600195961061212f575b505050811b019055005b015160001960f88460031b161c19169055838080612125565b80600185968294968601518155019501930190612111565b61218a908460005282600020601f850160051c81019184861061084057601f0160051c0190616b4e565b846120c1565b346102ee5760c03660031901126102ee576121a9615610565b6084356001600160401b0381116102ee576121c890369060040161559d565b9060a4356001600160401b0381116102ee576121e890369060040161559d565b6121f0615925565b6121f8616ca7565b6122066103176004356167c7565b61221a6001600160a01b038316151561719f565b612225600435615fd6565b6004356000526101c4602052612242836001604060002001616b65565b61224e600435826173f7565b60018060a01b0383166000526101c76020526122706004356040600020616bda565b61227d60043584836161bd565b612285616bfd565b93612291606435617255565b6122ce602760405180936632b9b1b937bb9d60c91b60208301526122be81518092602086860191016154ab565b810103600781018452018261555f565b6122d786616b99565b526122e185616b99565b506122ea616c60565b946122f3616c60565b936122fc61720d565b61230588616b99565b5261230f87616b99565b5061231b606435617255565b61232486616b99565b5261232e85616b99565b50612337617231565b61234088616ba6565b5261234a87616ba6565b508261235586616ba6565b5261235f85616ba6565b5060405161236c81615529565b6005815264636c61626560d81b602082015261238788616bb6565b5261239187616bb6565b5061239b85616bb6565b526123a584616bb6565b50604051906123b3826154f3565b602582527f417373657420736f6c64207468726f756768204b7573746f646961204573637260208301526437bb902b1960d91b60408301526123f88751865114616d79565b6004356000526101c56020526124116040600020616dd1565b50805460ff19166001908117825542908201556002810180546001600160a01b03191633179055825190926001600160401b03821161084a57819061245960038601546157a7565b601f81116128a6575b50602090601f831160011461283457600092612829575b50508160011b916000199060031b1c19161760038301555b6044356004830155805190600160401b821161084a5760058301548260058501558083106127b1575b5060206005910192016000526020600020916000905b82821061269c575050505060005b85518110156125fb576124f18185616bc6565b516004356000526101c46020526125136005604060002001610f08848a616bc6565b815190916001600160401b03821161084a5761252f83546157a7565b601f81116125c9575b50602090601f83116001146125745761256f94939291600091836118ab5750508160011b916000199060031b1c1916179055616b8a565b6124de565b908360005260206000209160005b601f19851681106125b1575091839160019361256f979695601f198116106118f357505050811b019055616b8a565b91926020600181928685015181550194019201612582565b6125f590846000526020600020601f850160051c8101916020861061084057601f0160051c0190616b4e565b89612538565b50836004356000526101c46020524260046040600020015560405160008051602061766c83398151915260043591806126386044358689846171eb565b0390a26040519260018060a01b0316835260018060a01b031660208301526044356040830152608060608301527f0a8fc98ef9d92905c86449bc54091fa61c2b6643160ff542aae482072e69410e60643592806119a56004359460808301906154ce565b80518051906001600160401b03821161084a576126b986546157a7565b601f811161277f575b50602090601f831160011461270f579282600194936020938695600092612704575b5050600019600383901b1c191690841b1787555b019401910190926124d0565b015190508e806126e4565b908660005260206000209160005b601f1985168110612767575083602093600196938796938794601f1981161061274e575b505050811b0187556126f8565b015160001960f88460031b161c191690558e8080612741565b9192602060018192868501518155019401920161271d565b6127ab90876000526020600020601f850160051c8101916020861061084057601f0160051c0190616b4e565b8b6126c2565b600584016000526020600020908382015b81830181106127d25750506124ba565b806127df600192546157a7565b806127ec575b50016127c2565b601f811183146128025750600081555b8c6127e5565b600090828252612820601f60208420920160051c8201858301616b4e565b818355556127fc565b015190508980612479565b9250600385016000526020600020906000935b601f198416851061288b576001945083601f19811610612872575b505050811b016003830155612491565b015160001960f88460031b161c19169055898080612862565b81810151835560209485019460019093019290910190612847565b6128d590600387016000526020600020601f850160051c8101916020861061084057601f0160051c0190616b4e565b8a612462565b346102ee5760203660031901126102ee576004356128fb610317826167c7565b6000526101c56020526020604060002054604051908152f35b346102ee5760203660031901126102ee576001600160a01b036129356155fa565b1680156129545760005260686020526020604060002054604051908152f35b60405162461bcd60e51b815260206004820152602960248201527f4552433732313a2061646472657373207a65726f206973206e6f7420612076616044820152683634b21037bbb732b960b91b6064820152608490fd5b346102ee5760203660031901126102ee5760206129c9600435615fd6565b6040516001600160a01b039091168152f35b346102ee5760c03660031901126102ee576004356001600160401b0381116102ee57612a0b90369060040161559d565b600a60243510156102ee57612a1e6155e4565b6064356001600160401b0381116102ee57612a3d9036906004016156f8565b6084356001600160401b0381116102ee57612a5c9036906004016156f8565b60a4356001600160401b0381116102ee57612a7b90369060040161559d565b93612a84615925565b612a8c616ca7565b600261012d54146134ec57600261012d558051156134ac576001600160a01b03841615613468576040516020818351612ac881838588016154ab565b81016101c6815203019020546134295782518251036133e45760016101c3540194856101c355612b8261153c604051612b008161550e565b60008152612b16612b108a6167c7565b15616ceb565b612b1e616ca7565b612b2a612b108a6167c7565b6001600160a01b0388166000818152606860209081526040808320805460010190558c83526067909152812080546001600160a01b031916831790558a919060008051602061764c8339815191528180a48888616814565b8051613240575b5060008581526101c46020526040902081519095906001600160401b03811161084a57612bb687546157a7565b601f811161320e575b50806020601f82116001146131a75760009161319c575b508160011b916000199060031b1c19161786555b60ff1960018701541660ff60243516176001870155612c0c8560018801616b65565b4260028701556003860161010061ffff1982541617905542600487015560005b8451811015612d5d57612c3f8185616bc6565b51612c5160058901610f088489616bc6565b815190916001600160401b03821161084a57612c6d83546157a7565b601f8111612d2b575b50602090601f8311600114612cbd57612cad9493929160009183612cb25750508160011b916000199060031b1c1916179055616b8a565b612c2c565b015190508b80610f52565b908360005260206000209160005b601f1985168110612d135750918391600193612cad979695601f19811610612cfa57505050811b019055616b8a565b015160001960f88460031b161c191690558b8080610fac565b91926020600181928685015181550194019201612ccb565b612d5790846000526020600020601f850160051c8101916020861061084057601f0160051c0190616b4e565b8a612c76565b5084816040516020818651612d758183858b016154ab565b81016101c68152030190205560018060a01b0381166000526101c7602052612da1826040600020616bda565b604051612dad8161550e565b6000815260405190612dbe82615529565b6011825270105cdcd95d081391950818dc99585d1959607a1b6020830152836000526101c5602052612df36040600020616dd1565b50805460ff191681554260018201556002810180546001600160a01b0319163317905582519091906001600160401b03811161084a57612e3660038401546157a7565b601f8111613167575b50806020601f82116001146130fa576000916130ef575b508160011b916000199060031b1c19161760038301555b60006004830155805190600160401b821161084a576005830154826005850155808310613077575b5060206005910192016000526020600020916000905b828210612f6257602087807f9e7a448dd8b77230ae8b9ea14d1b4e3246e353147bcd43e5abd7402e9ac373aa612f348c8b8460008051602061760c833981519152612f1d8e836000526101c48b52426004604060002001556040519182916000835260408d84015260408301906154ce565b0390a26040519283926060845260608401906154ce565b90612f43888401602435615887565b6001600160a01b031660408301520390a2600161012d55604051908152f35b80518051906001600160401b03821161084a57612f7f86546157a7565b601f8111613045575b50602090601f8311600114612fd5579282600194936020938695600092612fca575b5050600019600383901b1c191690841b1787555b01940191019092612eab565b015190508d80612faa565b908660005260206000209160005b601f198516811061302d575083602093600196938796938794601f19811610613014575b505050811b018755612fbe565b015160001960f88460031b161c191690558d8080613007565b91926020600181928685015181550194019201612fe3565b61307190876000526020600020601f850160051c8101916020861061084057601f0160051c0190616b4e565b8a612f88565b600584016000526020600020908382015b8183018110613098575050612e95565b806130a5600192546157a7565b806130b2575b5001613088565b601f811183146130c85750600081555b8b6130ab565b6000908282526130e6601f60208420920160051c8201858301616b4e565b818355556130c2565b905084015188612e56565b91506003840160005260206000206000925b601f198316841061314f576001935082601f19811610613136575b5050811b016003830155612e6d565b86015160001960f88460031b161c191690558880613127565b8681015182556020938401936001909201910161310c565b61319690600385016000526020600020601f840160051c8101916020851061084057601f0160051c0190616b4e565b87612e3f565b905083015188612bd6565b91508760005260206000206000925b601f19831684106131f6576001935082601f198116106131dd575b5050811b018655612bea565b85015160001960f88460031b161c1916905588806131d1565b858101518255602093840193600190920191016131b6565b61323a90886000526020600020601f840160051c8101916020851061084057601f0160051c0190616b4e565b87612bbf565b613249866167c7565b15613388576000868152609760205260409020815190916001600160401b03821161084a57819061327a84546157a7565b601f8111613356575b50602090601f83116001146132ea576000926132df575b50508160011b916000199060031b1c19161790555b7ff8e1a15aba9398e019f0b49df1a4fde98ee17ae345cb5f6b5e2c27f5033e8ce76020604051878152a185612b89565b01519050888061329a565b9250836000526020600020906000935b601f198416851061333b576001945083601f19811610613322575b505050811b0190556132af565b015160001960f88460031b161c19169055888080613315565b818101518355602094850194600190930192909101906132fa565b61338290856000526020600020601f850160051c8101916020861061084057601f0160051c0190616b4e565b89613283565b60405162461bcd60e51b815260206004820152602e60248201527f45524337323155524953746f726167653a2055524920736574206f66206e6f6e60448201526d32bc34b9ba32b73a103a37b5b2b760911b6064820152608490fd5b60405162461bcd60e51b815260206004820152601f60248201527f4d6574616461746120617272617973206c656e677468206d69736d61746368006044820152606490fd5b60405162461bcd60e51b8152602060048201526017602482015276417373657420494420616c72656164792065786973747360481b6044820152606490fd5b60405162461bcd60e51b815260206004820152601c60248201527b4f776e65722063616e6e6f74206265207a65726f206164647265737360201b6044820152606490fd5b60405162461bcd60e51b815260206004820152601860248201527741737365742049442063616e6e6f7420626520656d70747960401b6044820152606490fd5b60405162461bcd60e51b815260206004820152601f60248201527f5265656e7472616e637947756172643a207265656e7472616e742063616c6c006044820152606490fd5b346102ee5760003660031901126102ee57602060ff60fb54166040519015158152f35b346102ee5760203660031901126102ee573360009081526000805160206176ac83398151915260205260409020546000805160206176cc8339815191529060ff16156139a8576135a2616ca7565b6135b06103176004356167c7565b6004356000526101c46020526040600020600381019060ff1991600183825416179055600442910155604051906135e68261550e565b60008252604051916135f783615529565b601a8352794173736574207665726966696564206279204b7573746f64696160301b60208401526004356000526101c5602052600c6136396040600020616dd1565b5080549093161782554260018301556002820180546001600160a01b0319163317905582516001600160401b03811161084a5761367960038401546157a7565b601f8111613973575b50806020601f8211600114613906576000916138fb575b508160011b916000199060031b1c19161760038301555b60006004830155805190600160401b821161084a576005830154826005850155808310613883575b5060206005910192016000526020600020916000905b82821061376e57846004356000526101c46020524260046040600020015560008051602061760c833981519152604051600c8152604060208201528061373b6004359460408301906154ce565b0390a26040513381527f5bd81a4d257100f5fe7df72a9e528a7aaf33871f8258739a331d2627a83f0aac602060043592a2005b80518051906001600160401b03821161084a5761378b86546157a7565b601f8111613851575b50602090601f83116001146137e15792826001949360209386956000926137d6575b5050600019600383901b1c191690841b1787555b019401910190926136ee565b015190508a806137b6565b908660005260206000209160005b601f1985168110613839575083602093600196938796938794601f19811610613820575b505050811b0187556137ca565b015160001960f88460031b161c191690558a8080613813565b919260206001819286850151815501940192016137ef565b61387d90876000526020600020601f850160051c8101916020861061084057601f0160051c0190616b4e565b87613794565b600584016000526020600020908382015b81830181106138a45750506136d8565b806138b1600192546157a7565b806138be575b5001613894565b601f811183146138d45750600081555b886138b7565b6000908282526138f2601f60208420920160051c8201858301616b4e565b818355556138ce565b905084015185613699565b91506003840160005260206000206000925b601f198316841061395b576001935082601f19811610613942575b5050811b0160038301556136b0565b86015160001960f88460031b161c191690558580613933565b86810151825560209384019360019092019101613918565b6139a290600385016000526020600020601f840160051c8101916020851061084057601f0160051c0190616b4e565b84613682565b6139b133616a34565b604051916139be83615544565b6042835260208301906060368337835115611fe557603082538351600190811015611fe557607860218601536041905b808211613a98575050613a66576048613a3792613a4692611f6c9560405195869360008051602061752c8339815191526020860152611f138151809260206037890191016154ab565b0103602881018452018261555f565b60405162461bcd60e51b81526020600482015291829160248301906154ce565b606460405162461bcd60e51b815260206004820152602060248201526000805160206174cc8339815191526044820152fd5b9091600f81166010811015611fe5576f181899199a1a9b1b9c1cb0b131b232b360811b901a613ac78488616a23565b5360041c9180156111ed5760001901906139ee565b346102ee5760003660031901126102ee577f00000000000000000000000000000000000000000000000000000000000000006001600160a01b03163003613b3557602060405160008051602061756c8339815191528152f35b60405162461bcd60e51b815260206004820152603860248201527f555550535570677261646561626c653a206d757374206e6f742062652063616c6044820152771b1959081d1a1c9bdd59da0819195b1959d85d1958d85b1b60421b6064820152608490fd5b60403660031901126102ee57613baf6155fa565b6024356001600160401b0381116102ee57613bce90369060040161559d565b906001600160a01b037f0000000000000000000000000000000000000000000000000000000000000000811690613c0730831415615e61565b613c2460008051602061756c833981519152928284541614615eb0565b613c2c615ad1565b6000805160206174ec8339815191525460ff1615613c505750506104b09150615eff565b6040516352d1902d60e01b81526020939291831691908481600481865afa60009181613db9575b50613cc65760405162461bcd60e51b815260048101869052602e60248201526000805160206176ec83398151915260448201526d6f6e206973206e6f74205555505360901b6064820152608490fd5b03613d6257613cd482615eff565b6000805160206175ec833981519152600080a2825115801590613d5a575b613cf857005b6000806104b09460405194613d0c866154f3565b602786527f416464726573733a206c6f772d6c6576656c2064656c65676174652063616c6c81870152660819985a5b195960ca1b604087015281519101845af4613d546167e4565b9161698a565b506001613cf2565b60405162461bcd60e51b815260048101849052602960248201527f45524331393637557067726164653a20756e737570706f727465642070726f786044820152681a58589b195555525160ba1b6064820152608490fd5b9091508581813d8311613de1575b613dd1818361555f565b810103126102ee57519087613c77565b503d613dc7565b346102ee5760003660031901126102ee5760206040516000805160206175ac8339815191528152f35b346102ee5760403660031901126102ee57613e2a6155fa565b6001600160a01b031660009081526101c760205260409020805460243591908210156102ee57602091613e5c916156c9565b90546040519160031b1c8152f35b346102ee576104b061153c613e7e3661565b565b9060405192613e8c8461550e565b6000845261152c61152784336160f5565b346102ee5760003660031901126102ee57613eb6615ad1565b60fb5460ff811615613ef55760ff191660fb557f5db9ee0a495bf2e6ff9c91a7834c1ba4fdd244a5e8aa4e537bd38aeae4b073aa6020604051338152a1005b60405162461bcd60e51b815260206004820152601460248201527314185d5cd8589b194e881b9bdd081c185d5cd95960621b6044820152606490fd5b346102ee5760603660031901126102ee576004356001600160401b036024358181116102ee57613f6590369060040161559d565b906044358181116102ee57613f7e90369060040161559d565b613f86615bd7565b613f8e616ca7565b613f9a610317856167c7565b836000526101c4602092818452613fb86005604060002001866158e3565b90835190811161084a57613fcc82546157a7565b601f81116140d4575b5084601f8211600114614057579261403f95928260008051602061750c8339815191529896936107259660009161404c575b508160011b916000199060031b1c19161790555b876000528252426004604060002001556040519485946040865260408601906154ce565b91848303908501526154ce565b90508401518b614007565b601f1982169083600052866000209160005b8181106140bd575083610725969361403f99969360008051602061750c8339815191529b9996600194106140a4575b5050811b01905561401b565b86015160001960f88460031b161c191690558b80614098565b91928860018192868b015181550194019201614069565b6140fe908360005286600020601f840160051c81019188851061084057601f0160051c0190616b4e565b87613fd5565b346102ee5761414f61411536615690565b6141236103178394936167c7565b826000526101c5602093818552614140604060002054841061715c565b60005283526040600020615909565b509060ff82541690600190818401549060018060a01b036002860154169160048601549261418360036005890198016157e1565b90875492614190846156e1565b9361419e604051958661555f565b808552858501809a600052866000206000915b83831061424a5750505050906141e992916141cf604051809a6156a6565b85890152604088015260c0606088015260c08701906154ce565b92608086015284830360a0860152519081835280830192818360051b82010196936000915b84831061421b5787890388f35b9091929394958480614238839b601f198682030187528a516154ce565b9a98019695949190910192019061420e565b908a808a819f9d959461425c856157e1565b8152019201920192509b999b6141b1565b346102ee576020806003193601126102ee576142876155fa565b6001600160a01b03917f000000000000000000000000000000000000000000000000000000000000000083166142bf30821415615e61565b6142dc60008051602061756c833981519152918583541614615eb0565b6142e4615ad1565b604051936142f18561550e565b600085526000805160206174ec8339815191525460ff161561431a575050506104b09150615eff565b83929316906040516352d1902d60e01b81528481600481865afa600091816143c5575b5061438c5760405162461bcd60e51b815260048101869052602e60248201526000805160206176ec83398151915260448201526d6f6e206973206e6f74205555505360901b6064820152608490fd5b03613d625761439a82615eff565b6000805160206175ec833981519152600080a28251158015906143bd57613cf857005b506000613cf2565b9091508581813d83116143ed575b6143dd818361555f565b810103126102ee5751908761433d565b503d6143d3565b346102ee5760403660031901126102ee5761440d615610565b336001600160a01b03821603614429576104b090600435615deb565b60405162461bcd60e51b815260206004820152602f60248201527f416363657373436f6e74726f6c3a2063616e206f6e6c792072656e6f756e636560448201526e103937b632b9903337b91039b2b63360891b6064820152608490fd5b346102ee5760403660031901126102ee576004356144a2615610565b8160005260c96020526144bc600160406000200154615cec565b8160005260c960205260406000209060018060a01b0316908160005260205260ff60406000205416156144eb57005b8160005260c96020526040600020816000526020526040600020600160ff19825416179055339160008051602061748c833981519152600080a4005b346102ee5760003660031901126102ee5760206040516000805160206174ac8339815191528152f35b346102ee576020806003193601126102ee576001600160a01b036145726155fa565b166000526101c78152604060002060405190818382549182815201908192600052846000209060005b868282106145f15786866145b18288038361555f565b604051928392818401908285525180915260408401929160005b8281106145da57505050500390f35b8351855286955093810193928101926001016145cb565b83548552909301926001928301920161459b565b346102ee5761034c61033861033361209c600661462136615626565b939161462f610317826167c7565b806000526101c5908160205261464b604060002054841061715c565b6000526020526040600020615909565b346102ee5760203660031901126102ee5760043560005260c96020526020600160406000200154604051908152f35b346102ee576104b061469b3661565b565b916146a961152784336160f5565b6161bd565b346102ee576146bc36615626565b906146c5615925565b6146cd616ca7565b6146d9610317846167c7565b6146e1616bfd565b6146ea82617255565b61472c602c60405180936b32b9b1b937bbafb637b1b59d60a11b602083015261471c81518092602086860191016154ab565b810103600c81018452018261555f565b61473582616b99565b5261473f81616b99565b50614748616c2c565b91614751616c2c565b9161475a61720d565b61476385616b99565b5261476d84616b99565b5061477782617255565b61478084616b99565b5261478a83616b99565b50614793617231565b61479c85616ba6565b526147a684616ba6565b50846147b184616ba6565b526147bb83616ba6565b50604051906147c9826154f3565b602382527f4173736574206c6f636b656420666f7220657363726f77207472616e7361637460208301526234b7b760e91b604083015261480c8551855114616d79565b866000526101c56020526148236040600020616dd1565b50805460ff1916600d1781554260018201556002810180546001600160a01b03191633179055825190926001600160401b03821161084a57819061486a60038601546157a7565b601f8111614c62575b50602090601f8311600114614bf057600092614be5575b50508160011b916000199060031b1c19161760038301555b60006004830155805190600160401b821161084a576005830154826005850155808310614b6d575b5060206005910192016000526020600020916000905b828210614a58575050505060005b8351811015614a09576149018184616bc6565b51866000526101c46020526149216005604060002001610f088488616bc6565b815190916001600160401b03821161084a5761493d83546157a7565b601f81116149d7575b50602090601f83116001146149825761497d94939291600091836118ab5750508160011b916000199060031b1c1916179055616b8a565b6148ee565b908360005260206000209160005b601f19851681106149bf575091839160019361497d979695601f198116106118f357505050811b019055616b8a565b91926020600181928685015181550194019201614990565b614a0390846000526020600020601f850160051c8101916020861061084057601f0160051c0190616b4e565b89614946565b50847fc5529797c0e4ae36aa82b01ccf2eacee20ab019e92da6d871e965885e56c89526119a586836000526101c4602052426004604060002001556040519182916020835260208301906154ce565b80518051906001600160401b03821161084a57614a7586546157a7565b601f8111614b3b575b50602090601f8311600114614acb579282600194936020938695600092614ac0575b5050600019600383901b1c191690841b1787555b019401910190926148e0565b015190508e80614aa0565b908660005260206000209160005b601f1985168110614b23575083602093600196938796938794601f19811610614b0a575b505050811b018755614ab4565b015160001960f88460031b161c191690558e8080614afd565b91926020600181928685015181550194019201614ad9565b614b6790876000526020600020601f850160051c8101916020861061084057601f0160051c0190616b4e565b8b614a7e565b600584016000526020600020908382015b8183018110614b8e5750506148ca565b80614b9b600192546157a7565b80614ba8575b5001614b7e565b601f81118314614bbe5750600081555b8c614ba1565b600090828252614bdc601f60208420920160051c8201858301616b4e565b81835555614bb8565b01519050898061488a565b9250600385016000526020600020906000935b601f1984168510614c47576001945083601f19811610614c2e575b505050811b0160038301556148a2565b015160001960f88460031b161c19169055898080614c1e565b81810151835560209485019460019093019290910190614c03565b614c9190600387016000526020600020601f850160051c8101916020861061084057601f0160051c0190616b4e565b8a614873565b346102ee5760403660031901126102ee57614cb06155fa565b602435906001600160a01b038080614cc785615fd6565b16921691808314614dc257803314908115614d9d575b5015614d3257600083815260696020526040902080546001600160a01b03191683179055614d0a83615fd6565b167f8c5be1e5ebec7d5bd14f71427d1e84f3dd0314c0f7b2291e5b200ac8c7c3b925600080a4005b60405162461bcd60e51b815260206004820152603d60248201527f4552433732313a20617070726f76652063616c6c6572206973206e6f7420746f60448201527f6b656e206f776e6572206f7220617070726f76656420666f7220616c6c0000006064820152608490fd5b9050600052606a60205260406000203360005260205260ff6040600020541684614cdd565b60405162461bcd60e51b815260206004820152602160248201527f4552433732313a20617070726f76616c20746f2063757272656e74206f776e656044820152603960f91b6064820152608490fd5b346102ee5760203660031901126102ee5760206129c9600435615ff9565b346102ee5760603660031901126102ee576001600160401b036004358181116102ee57614e6090369060040161559d565b906024358181116102ee57614e7990369060040161559d565b90614e826155e4565b6000549060ff92838360081c16159485809661535b575b8015615345575b156152e95760019660ff19948789878316176000556152d7575b50614ed48660005460081c16614ecf81616aee565b616aee565b805183811161084a5780614ee96065546157a7565b92601f938481116152a6575b5060209084831160011461524157600092615236575b5050600019600383901b1c191690891b176065555b815192831161084a578291614f366066546157a7565b8281116151fb575b5060209183116001146151965760009261518b575b5050600019600383901b1c191690861b176066555b614fbb8360005460081c16614f7c81616aee565b614f8581616aee565b614f8e81616aee565b614f9781616aee565b8360fb541660fb55614fa881616aee565b614fb181616aee565b8661012d55616aee565b6001600160a01b031690811561514e57600082815260008051602061768c833981519152602052604090205460c990841615615112575b6000805160206174ac83398151915280600052816020526040600020846000526020528460406000205416156150d5575b506000805160206175cc8339815191529384600052816020526040600020846000526020526040600020541615615097575b5050505061505f57005b60207f7f26b83ff96e1f2b6a682f133852f6798a09c465da95921460cefb38474024989161ff001960005416600055604051908152a1005b8360005260205260406000208260005260205284604060002091825416179055339160008051602061748c833981519152600080a482808080615055565b80600052816020526040600020846000526020526040600020878482541617905583339160008051602061748c833981519152600080a486615023565b6000805280602052604060002083600052602052604060002086838254161790553383600060008051602061748c8339815191528180a4614ff2565b60405162461bcd60e51b8152602060048201526015602482015274496e76616c69642061646d696e206164647265737360581b6044820152606490fd5b015190508780614f53565b90889350601f198316916066600052816000209260005b8181106151e3575084116151ca575b505050811b01606655614f68565b015160001960f88460031b161c191690558780806151bc565b8284015185558b9690940193602093840193016151ad565b61522790606660005260206000208480870160051c8201926020881061522d575b0160051c0190616b4e565b89614f3e565b9250819261521c565b015190508a80614f0b565b908b9350601f198316916065600052816000209260005b81811061528e57508411615275575b505050811b01606555614f20565b015160001960f88460031b161c191690558a8080615267565b8284015185558e969094019360209384019301615258565b6152d190606560005260206000208680860160051c8201926020871061522d570160051c0190616b4e565b8b614ef5565b61ffff19166101011760005588614eba565b60405162461bcd60e51b815260206004820152602e60248201527f496e697469616c697a61626c653a20636f6e747261637420697320616c72656160448201526d191e481a5b9a5d1a585b1a5e995960921b6064820152608490fd5b50303b158015614ea05750600185851614614ea0565b50600185851610614e99565b346102ee5760003660031901126102ee5760405160009060655461538a816157a7565b808352600191808316908115611d7957506001146153b25761034c836103388187038261555f565b6065600090815260209450917f8ff97419363ffd7000167f130ef7168fbea05faf9251824ca5043f113cc6a7c75b8284106153f95750505081019091019061033881611d0f565b80548585018701529285019281016153e0565b346102ee5760203660031901126102ee576004359063ffffffff60e01b82168092036102ee57602091637965db0b60e01b811490811561544e575b5015158152f35b632483248360e11b811491508115615468575b5083615447565b6380ac58cd60e01b81149150811561549a575b8115615489575b5083615461565b6301ffc9a760e01b14905083615482565b635b5e139f60e01b8114915061547b565b60005b8381106154be5750506000910152565b81810151838201526020016154ae565b906020916154e7815180928185528580860191016154ab565b601f01601f1916010190565b606081019081106001600160401b0382111761084a57604052565b602081019081106001600160401b0382111761084a57604052565b604081019081106001600160401b0382111761084a57604052565b608081019081106001600160401b0382111761084a57604052565b601f909101601f19168101906001600160401b0382119082101761084a57604052565b6001600160401b03811161084a57601f01601f191660200190565b81601f820112156102ee578035906155b482615582565b926155c2604051948561555f565b828452602083830101116102ee57816000926020809301838601378301015290565b604435906001600160a01b03821682036102ee57565b600435906001600160a01b03821682036102ee57565b602435906001600160a01b03821682036102ee57565b60606003198201126102ee576004359160243591604435906001600160401b0382116102ee576156589160040161559d565b90565b60609060031901126102ee576001600160a01b039060043582811681036102ee579160243590811681036102ee579060443590565b60409060031901126102ee576004359060243590565b90600e8210156156b35752565b634e487b7160e01b600052602160045260246000fd5b8054821015611fe55760005260206000200190600090565b6001600160401b03811161084a5760051b60200190565b9080601f830112156102ee57813590615710826156e1565b9261571e604051948561555f565b828452602092838086019160051b830101928084116102ee57848301915b84831061574c5750505050505090565b82356001600160401b0381116102ee57869161576d8484809489010161559d565b81520192019161573c565b9060406003198301126102ee5760043591602435906001600160401b0382116102ee576156589160040161559d565b90600182811c921680156157d7575b60208310146157c157565b634e487b7160e01b600052602260045260246000fd5b91607f16916157b6565b90604051918260008254926157f5846157a7565b9081845260019485811690816000146158645750600114615821575b505061581f9250038361555f565b565b9093915060005260209081600020936000915b81831061584c57505061581f93508201013880615811565b85548884018501529485019487945091830191615834565b91505061581f94506020925060ff191682840152151560051b8201013880615811565b90600a8210156156b35752565b9390926158be6158b360c097949a99989560e0885260e08801906154ce565b996020870190615887565b6001600160a01b03166040850152606084015215156080830152151560a08201520152565b6020906158fd9282604051948386809551938492016154ab565b82019081520301902090565b8054821015611fe5576000526007602060002091020190600090565b33600090815260008051602061758c833981519152602090815260408083205490926000805160206174ac8339815191529160ff16156159655750505050565b61596e33616a34565b9184519061597b82615544565b60428252848201926060368537825115615abd5760308453825190600191821015615abd5790607860218501536041915b818311615a4f57505050615a1f576048611f6c938693615a03936159f4985198899360008051602061752c8339815191528a860152611f13815180928c6037890191016154ab565b0103602881018752018561555f565b5192839262461bcd60e51b8452600484015260248301906154ce565b60648486519062461bcd60e51b825280600483015260248201526000805160206174cc8339815191526044820152fd5b909192600f81166010811015615aa9576f181899199a1a9b1b9c1cb0b131b232b360811b901a615a7f8587616a23565b5360041c928015615a95576000190191906159ac565b634e487b7160e01b82526011600452602482fd5b634e487b7160e01b83526032600452602483fd5b634e487b7160e01b81526032600452602490fd5b33600090815260008051602061768c833981519152602090815260408083205490929060ff1615615b0157505050565b615b0a33616a34565b9080845190615b1882615544565b60428252848201926060368537825115615abd5760308453825190600191821015615abd5790607860218501536041915b818311615b9157505050615a1f576048611f6c938693615a03936159f4985198899360008051602061752c8339815191528a860152611f13815180928c6037890191016154ab565b909192600f81166010811015615aa9576f181899199a1a9b1b9c1cb0b131b232b360811b901a615bc18587616a23565b5360041c928015615a9557600019019190615b49565b33600090815260008051602061762c833981519152602090815260408083205490926000805160206175ac8339815191529160ff1615615c175750505050565b615c2033616a34565b91845190615c2d82615544565b60428252848201926060368537825115615abd5760308453825190600191821015615abd5790607860218501536041915b818311615ca657505050615a1f576048611f6c938693615a03936159f4985198899360008051602061752c8339815191528a860152611f13815180928c6037890191016154ab565b909192600f81166010811015615aa9576f181899199a1a9b1b9c1cb0b131b232b360811b901a615cd68587616a23565b5360041c928015615a9557600019019190615c5e565b60009080825260209060c98252604092838120338252835260ff848220541615615d165750505050565b615d1f33616a34565b91845190615d2c82615544565b60428252848201926060368537825115615abd5760308453825190600191821015615abd5790607860218501536041915b818311615da557505050615a1f576048611f6c938693615a03936159f4985198899360008051602061752c8339815191528a860152611f13815180928c6037890191016154ab565b909192600f81166010811015615aa9576f181899199a1a9b1b9c1cb0b131b232b360811b901a615dd58587616a23565b5360041c928015615a9557600019019190615d5d565b9060009180835260c9602052604083209160018060a01b03169182845260205260ff604084205416615e1c57505050565b80835260c9602052604083208284526020526040832060ff1981541690557ff6391f5c32d9c69d2a47ea670b442974b53935d1edc7fd64eb21e047a839171b339380a4565b15615e6857565b60405162461bcd60e51b815260206004820152602c602482015260008051602061754c83398151915260448201526b19195b1959d85d1958d85b1b60a21b6064820152608490fd5b15615eb757565b60405162461bcd60e51b815260206004820152602c602482015260008051602061754c83398151915260448201526b6163746976652070726f787960a01b6064820152608490fd5b803b15615f345760008051602061756c83398151915280546001600160a01b0319166001600160a01b03909216919091179055565b60405162461bcd60e51b815260206004820152602d60248201527f455243313936373a206e657720696d706c656d656e746174696f6e206973206e60448201526c1bdd08184818dbdb9d1c9858dd609a1b6064820152608490fd5b15615f9657565b60405162461bcd60e51b8152602060048201526018602482015277115490cdcc8c4e881a5b9d985b1a59081d1bdad95b88125160421b6044820152606490fd5b6000908152606760205260409020546001600160a01b0316615658811515615f8f565b616005610ba6826167c7565b6000908152606960205260409020546001600160a01b031690565b1561602757565b60405162461bcd60e51b815260206004820152602d60248201527f4552433732313a2063616c6c6572206973206e6f7420746f6b656e206f776e6560448201526c1c881bdc88185c1c1c9bdd9959609a1b6064820152608490fd5b60809060208152603260208201527f4552433732313a207472616e7366657220746f206e6f6e20455243373231526560408201527131b2b4bb32b91034b6b83632b6b2b73a32b960711b60608201520190565b156160dc57565b60405162461bcd60e51b815280611f6c60048201616082565b906001600160a01b03808061610984615fd6565b1693169183831493841561613c575b508315616126575b50505090565b61613291929350615ff9565b1614388080616120565b909350600052606a60205260406000208260005260205260ff604060002054169238616118565b1561616a57565b60405162461bcd60e51b815260206004820152602560248201527f4552433732313a207472616e736665722066726f6d20696e636f72726563742060448201526437bbb732b960d91b6064820152608490fd5b906161dd6161ca84615fd6565b6001600160a01b03848116911614616163565b6001600160a01b03811615616776576161f4616ca7565b6001600160a01b03821615158061676e575b6162a2575b61622a6001600160a01b038381169061622386615fd6565b1614616163565b600083815260696020908152604080832080546001600160a01b03199081169091556001600160a01b039586168085526068845282852080546000190190559490951680845281842080546001019055868452606790925282208054909416811790935560008051602061764c8339815191529080a4565b6001600160a01b03821660009081526101c7602081905260408220949392915b85548082101561676257856162d783896156c9565b919054600392831b1c146162f55750506162f090616b8a565b6162c2565b9092939495969160001984019384116111ed576163286163419261631c61634696866156c9565b9054911b1c91846156c9565b90919082549060031b91821b91600019901b1916179055565b6173b7565b60018060a01b038216600052602052616363836040600020616bda565b826000526101c4602052604060002061637f8260018301616b65565b6004429101556040516163918161550e565b60008152604051906163a282615529565b601b82527a105cdcd95d081bdddb995c9cda1a5c081d1c985b9cd9995c9c9959602a1b6020830152846000526101c56020526163e16040600020616dd1565b50805460ff191660029081178255426001830155810180546001600160a01b03191633179055825190919060038301906001600160401b03811161084a5761642982546157a7565b601f8111616730575b50806020601f82116001146166cc576000916166c1575b508160011b916000199060031b1c19161790555b60006004830155805190600160401b821161084a576005830154826005850155808310616649575b509060056020889594930192016000526020600020916000905b82821061652b57505050506164ec60008051602061760c83398151915291836000526101c460205242600460406000200155604051918291600283526040602084015260408301906154ce565b0390a2604080516001600160a01b03848116825283166020820152600091810191909152839060008051602061766c83398151915290606090a261620b565b809192939495505180519060018060401b03821161084a5761654d86546157a7565b601f8111616617575b50602090601f83116001146165a757928260019493602093869560009261659c575b5050600019600383901b1c191690841b1787555b019401910187949392919261649f565b015190503880616578565b908660005260206000209160005b601f19851681106165ff575083602093600196938796938794601f198116106165e6575b505050811b01875561658c565b015160001960f88460031b161c191690553880806165d9565b919260206001819286850151815501940192016165b5565b61664390876000526020600020601f850160051c8101916020861061084057601f0160051c0190616b4e565b38616556565b600584016000526020600020908382015b818301811061666a575050616485565b80616677600192546157a7565b80616684575b500161665a565b601f8111831461669a5750600081555b3861667d565b6000908282526166b8601f60208420920160051c8201858301616b4e565b81835555616694565b905085015138616449565b6000848152602081209250601f198416905b818110616718575090836001949392106166ff575b5050811b01905561645d565b87015160001960f88460031b161c1916905538806166f3565b9192602060018192868c0151815501940192016166de565b61675c90836000526020600020601f840160051c8101916020851061084057601f0160051c0190616b4e565b38616432565b50509091929350616346565b506001616206565b60405162461bcd60e51b8152602060048201526024808201527f4552433732313a207472616e7366657220746f20746865207a65726f206164646044820152637265737360e01b6064820152608490fd5b6000908152606760205260409020546001600160a01b0316151590565b3d1561680f573d906167f582615582565b91616803604051938461555f565b82523d6000602084013e565b606090565b909190803b15616904576020604051809281630a85bd0160e11b968782523360048301528161685d600098899384602485015260448401526080606484015260848301906154ce565b03926001600160a01b03165af1908290826168b5575b50506168a7576168816167e4565b805190816168a25760405162461bcd60e51b815280611f6c60048201616082565b602001fd5b6001600160e01b0319161490565b909192506020813d82116168fc575b816168d16020938361555f565b810103126168f85751906001600160e01b0319821682036168f55750903880616873565b80fd5b5080fd5b3d91506168c4565b505050600190565b919290803b1561698157604051630a85bd0160e11b8082523360048301526001600160a01b039485166024830152604482019590955260806064820152916020918391829081906169619060848301906154ce565b03916000968791165af1908290826168b55750506168a7576168816167e4565b50505050600190565b919290156169ec575081511561699e575090565b3b156169a75790565b60405162461bcd60e51b815260206004820152601d60248201527f416464726573733a2063616c6c20746f206e6f6e2d636f6e74726163740000006044820152606490fd5b8251909150156169ff5750805190602001fd5b60405162461bcd60e51b815260206004820152908190611f6c9060248301906154ce565b908151811015611fe5570160200190565b60405190616a41826154f3565b602a8252602082016040368237825115611fe557603090538151600190811015611fe557607860218401536029905b808211616a80575050613a665790565b9091600f81166010811015616ad9576f181899199a1a9b1b9c1cb0b131b232b360811b901a616aaf8486616a23565b5360041c918015616ac4576000190190616a70565b60246000634e487b7160e01b81526011600452fd5b60246000634e487b7160e01b81526032600452fd5b15616af557565b60405162461bcd60e51b815260206004820152602b60248201527f496e697469616c697a61626c653a20636f6e7472616374206973206e6f74206960448201526a6e697469616c697a696e6760a81b6064820152608490fd5b818110616b59575050565b60008155600101616b4e565b8054610100600160a81b03191660089290921b610100600160a81b0316919091179055565b60001981146111ed5760010190565b805115611fe55760200190565b805160011015611fe55760400190565b805160021015611fe55760600190565b8051821015611fe55760209160051b010190565b80549190600160401b83101561084a578261632891600161581f950181556156c9565b604051616c0981615529565b600181528060005b60208082101561612057906060602092828501015201616c11565b604090815191616c3b836154f3565b600283528260005b828110616c4f57505050565b806060602080938501015201616c43565b60405190608082016001600160401b0381118382101761084a5760405260038252819060005b606080821015616ca0579060209182828701015201616c86565b5050909150565b60ff60fb5416616cb357565b60405162461bcd60e51b815260206004820152601060248201526f14185d5cd8589b194e881c185d5cd95960821b6044820152606490fd5b15616cf257565b60405162461bcd60e51b815260206004820152601c60248201527b115490cdcc8c4e881d1bdad95b88185b1c9958591e481b5a5b9d195960221b6044820152606490fd5b15616d3d57565b60405162461bcd60e51b8152602060048201526014602482015273105cdcd95d08191bd95cc81b9bdd08195e1a5cdd60621b6044820152606490fd5b15616d8057565b60405162461bcd60e51b8152602060048201526024808201527f437573746f6d206669656c647320617272617973206c656e677468206d69736d6044820152630c2e8c6d60e31b6064820152608490fd5b8054600160401b81101561084a57616dee91600182018155615909565b9091565b919060008381526020926101c58452616e0d60408320616dd1565b50805460ff1916600d178155426001808301919091556002820180546001600160a01b0319163317905584519092916001600160401b0390600381018284116170a957616e5a81546157a7565b93601f948a86821161712f575b5050898582116001146170c857908060059493928a916170bd575b50600019600383901b1c191690881b1790555b8660048201550190835193600160401b85116170a95788908354868555808710617030575b50939293019286528786209186935b858510616f19575050505050505091616f14604092848660008051602061760c83398151915296526101c4845260048542922001558351938493600d855284015260408301906154ce565b0390a2565b805190815184811161701c5788918c918b616f3489546157a7565b84888211616ff0575b50505082948c878311600114616f8357958291869792616f78575b5050600019600383901b1c191690841b1787555b01940194019392616ec9565b015190503880616f58565b9095601f1983168a8352858320925b818110616fce5750908697848895949310616fb5575b505050811b018755616f6c565b015160001960f88460031b161c19169055388080616fa8565b9497939686929691938786015181550195019301928f94918d96939794616f92565b828b6170149452208880850160051c82019287861061522d570160051c0190616b4e565b8b3884616f3d565b634e487b7160e01b8a52604160045260248afd5b8489528787848b2092830192015b82811061704c575050616eba565b90919293508961705c82546157a7565b8061706f575b50500190878b939261703e565b8d898083116001146170885750505081555b8938617062565b6170a0918585528420920160051c8201858301616b4e565b81835555617081565b634e487b7160e01b87526041600452602487fd5b90508a015138616e82565b8289528a8920601f19831694939289929091908b8e8e5b8983106171185750505082600597106170ff575b5050811b019055616e95565b8c015160001960f88460031b161c1916905538806170f3565b83015184558c959093019291820191018e8e6170df565b61715591848b5287828c209181860160051c830193861061522d570160051c0190616b4e565b388a616e67565b1561716357565b60405162461bcd60e51b8152602060048201526014602482015273115d995b9d08191bd95cc81b9bdd08195e1a5cdd60621b6044820152606490fd5b156171a657565b60405162461bcd60e51b815260206004820152601f60248201527f43616e6e6f74207472616e7366657220746f207a65726f2061646472657373006044820152606490fd5b6001600160a01b03918216815291166020820152604081019190915260600190565b6040519061721a82615529565b6008825267195cd8dc9bddd25960c21b6020830152565b6040519061723e82615529565b60088252671d995c9d1a58d85b60c21b6020830152565b6000908072184f03e93ff9f4daa797ed6e38ed64bf6a1f0160401b808210156173a9575b506904ee2d6d415b85acef8160201b8083101561739a575b50662386f26fc100008083101561738b575b506305f5e1008083101561737c575b506127108083101561736d575b50606482101561735d575b600a80921015617353575b600190816021818601956172e887615582565b966172f6604051988961555f565b808852617305601f1991615582565b01366020890137860101905b61731d575b5050505090565b600019019083906f181899199a1a9b1b9c1cb0b131b232b360811b8282061a83530491821561734e57919082617311565b617316565b91600101916172d5565b91906064600291049101916172ca565b600491939204910191386172bf565b600891939204910191386172b2565b601091939204910191386172a3565b60209193920491019138617291565b604093508104915038617279565b80549081156173e157600019918201916173d183836156c9565b909182549160031b1b1916905555565b634e487b7160e01b600052603160045260246000fd5b6001600160a01b031660009081526101c7602052604081209091825b82548082101561748457829061742983866156c9565b929054600393841b1c1461744757505061744290616b8a565b617413565b91939490925060001982019182116174705750916163286163419261631c869561581f976156c9565b634e487b7160e01b81526011600452602490fd5b505050505056fe2f8788117e7eff1d82e926ec794901d17c78024a50270940304540a733656f0df3dbd55030dd16e8ccaca9e44af740ec8b918b9d031f90f4cc45bfb2c3a05f51537472696e67733a20686578206c656e67746820696e73756666696369656e744910fdfa16fed3260ed0e7147f7cc6da11a60208b5b9406d12a635614ffd9143589f5f1b831c2b1bb6368f38c84e2a21507d083cfa73f4d227d7f3d4895df766416363657373436f6e74726f6c3a206163636f756e742000000000000000000046756e6374696f6e206d7573742062652063616c6c6564207468726f75676820360894a13ba1a3210667c828492db98dca3e2076cc3735a920a3ca505d382bbc41ca33391a508f9b52a13ab0ccfdfe1a03c3147acc4f7031bd026af9e76fea9b73e573f9566d61418a34d5de3ff49360f9c51fec37f7486551670290f6285dab65d7a28e3265b37a6474929f336521b332c1681b933f6cb9f3376673440d862abc7cd75a20ee27fd9adebab32041f755214dbc6bffa90cc0225b39da2e5c2d3bb378ed08a835f303cf82a1165775e4784b00762bd617d9c9d170559927f9d95c89ca0af2a20e421b2ea81b0c56798ff9a64da9c91f656bff9a786fc276eeb6deddf252ad1be2c89b69c2b068fc378daa952ba7f163c4a11628f55a4df523b3eff3ece9284d33275d9c297a27c91c816d5543b99eb1a60525f3cee810ed72009181fe90a866a48a634a12852c1be675b683a22307409932a7443b8029347be756ebc07f15a865628dcaca212835c325734172eee273875a0c95e11d2e9d87b04f0ce23c3e399818cfee81a7ab0880f714e53d7672b08df0fa62f2843416e1ea0945524331393637557067726164653a206e657720696d706c656d656e74617469a2646970667358221220338d53455b2015cc3e5dcda162a02a9861d46e881bbfeb80ca0a9e8cd06cbf3264736f6c63430008140033",
  "linkReferences": {},
  "deployedLinkReferences": {}
}