{
  "_format": "hh-sol-artifact-1",
  "contractName": "UniversalAssetNFT",
  "sourceName": "contracts/UniversalAssetNFT.sol",
  "abi": [
    {
      "inputs": [],
      "stateMutability": "nonpayable",
      "type": "constructor"
    },
    {
      "anonymous": false,
      "inputs": [
        {
          "indexed": true,
          "internalType": "address",
          "name": "owner",
          "type": "address"
        },
        {
          "indexed": true,
          "internalType": "address",
          "name": "approved",
          "type": "address"
        },
        {
          "indexed": true,
          "internalType": "uint256",
          "name": "tokenId",
          "type": "uint256"
        }
      ],
      "name": "Approval",
      "type": "event"
    },
    {
      "anonymous": false,
      "inputs": [
        {
          "indexed": true,
          "internalType": "address",
          "name": "owner",
          "type": "address"
        },
        {
          "indexed": true,
          "internalType": "address",
          "name": "operator",
          "type": "address"
        },
        {
          "indexed": false,
          "internalType": "bool",
          "name": "approved",
          "type": "bool"
        }
      ],
      "name": "ApprovalForAll",
      "type": "event"
    },
    {
      "anonymous": false,
      "inputs": [
        {
          "indexed": true,
          "internalType": "uint256",
          "name": "tokenId",
          "type": "uint256"
        },
        {
          "indexed": false,
          "internalType": "string",
          "name": "assetId",
          "type": "string"
        },
        {
          "indexed": false,
          "internalType": "enum UniversalAssetNFT.AssetType",
          "name": "assetType",
          "type": "uint8"
        },
        {
          "indexed": false,
          "internalType": "address",
          "name": "owner",
          "type": "address"
        }
      ],
      "name": "AssetCreated",
      "type": "event"
    },
    {
      "anonymous": false,
      "inputs": [
        {
          "indexed": true,
          "internalType": "uint256",
          "name": "tokenId",
          "type": "uint256"
        },
        {
          "indexed": false,
          "internalType": "enum UniversalAssetNFT.EventType",
          "name": "eventType",
          "type": "uint8"
        },
        {
          "indexed": false,
          "internalType": "string",
          "name": "description",
          "type": "string"
        }
      ],
      "name": "AssetEventAdded",
      "type": "event"
    },
    {
      "anonymous": false,
      "inputs": [
        {
          "indexed": true,
          "internalType": "uint256",
          "name": "tokenId",
          "type": "uint256"
        },
        {
          "indexed": false,
          "internalType": "string",
          "name": "key",
          "type": "string"
        },
        {
          "indexed": false,
          "internalType": "string",
          "name": "value",
          "type": "string"
        }
      ],
      "name": "AssetMetadataUpdated",
      "type": "event"
    },
    {
      "anonymous": false,
      "inputs": [
        {
          "indexed": true,
          "internalType": "uint256",
          "name": "tokenId",
          "type": "uint256"
        },
        {
          "indexed": false,
          "internalType": "address",
          "name": "from",
          "type": "address"
        },
        {
          "indexed": false,
          "internalType": "address",
          "name": "to",
          "type": "address"
        },
        {
          "indexed": false,
          "internalType": "uint256",
          "name": "amount",
          "type": "uint256"
        }
      ],
      "name": "AssetTransferred",
      "type": "event"
    },
    {
      "anonymous": false,
      "inputs": [
        {
          "indexed": true,
          "internalType": "uint256",
          "name": "tokenId",
          "type": "uint256"
        },
        {
          "indexed": false,
          "internalType": "address",
          "name": "verifier",
          "type": "address"
        }
      ],
      "name": "AssetVerified",
      "type": "event"
    },
    {
      "anonymous": false,
      "inputs": [
        {
          "indexed": false,
          "internalType": "uint256",
          "name": "_fromTokenId",
          "type": "uint256"
        },
        {
          "indexed": false,
          "internalType": "uint256",
          "name": "_toTokenId",
          "type": "uint256"
        }
      ],
      "name": "BatchMetadataUpdate",
      "type": "event"
    },
    {
      "anonymous": false,
      "inputs": [
        {
          "indexed": false,
          "internalType": "uint256",
          "name": "_tokenId",
          "type": "uint256"
        }
      ],
      "name": "MetadataUpdate",
      "type": "event"
    },
    {
      "anonymous": false,
      "inputs": [
        {
          "indexed": true,
          "internalType": "bytes32",
          "name": "role",
          "type": "bytes32"
        },
        {
          "indexed": true,
          "internalType": "bytes32",
          "name": "previousAdminRole",
          "type": "bytes32"
        },
        {
          "indexed": true,
          "internalType": "bytes32",
          "name": "newAdminRole",
          "type": "bytes32"
        }
      ],
      "name": "RoleAdminChanged",
      "type": "event"
    },
    {
      "anonymous": false,
      "inputs": [
        {
          "indexed": true,
          "internalType": "bytes32",
          "name": "role",
          "type": "bytes32"
        },
        {
          "indexed": true,
          "internalType": "address",
          "name": "account",
          "type": "address"
        },
        {
          "indexed": true,
          "internalType": "address",
          "name": "sender",
          "type": "address"
        }
      ],
      "name": "RoleGranted",
      "type": "event"
    },
    {
      "anonymous": false,
      "inputs": [
        {
          "indexed": true,
          "internalType": "bytes32",
          "name": "role",
          "type": "bytes32"
        },
        {
          "indexed": true,
          "internalType": "address",
          "name": "account",
          "type": "address"
        },
        {
          "indexed": true,
          "internalType": "address",
          "name": "sender",
          "type": "address"
        }
      ],
      "name": "RoleRevoked",
      "type": "event"
    },
    {
      "anonymous": false,
      "inputs": [
        {
          "indexed": true,
          "internalType": "address",
          "name": "from",
          "type": "address"
        },
        {
          "indexed": true,
          "internalType": "address",
          "name": "to",
          "type": "address"
        },
        {
          "indexed": true,
          "internalType": "uint256",
          "name": "tokenId",
          "type": "uint256"
        }
      ],
      "name": "Transfer",
      "type": "event"
    },
    {
      "inputs": [],
      "name": "DEFAULT_ADMIN_ROLE",
      "outputs": [
        {
          "internalType": "bytes32",
          "name": "",
          "type": "bytes32"
        }
      ],
      "stateMutability": "view",
      "type": "function"
    },
    {
      "inputs": [],
      "name": "KUSTODIA_ROLE",
      "outputs": [
        {
          "internalType": "bytes32",
          "name": "",
          "type": "bytes32"
        }
      ],
      "stateMutability": "view",
      "type": "function"
    },
    {
      "inputs": [],
      "name": "UPDATER_ROLE",
      "outputs": [
        {
          "internalType": "bytes32",
          "name": "",
          "type": "bytes32"
        }
      ],
      "stateMutability": "view",
      "type": "function"
    },
    {
      "inputs": [],
      "name": "VERIFIER_ROLE",
      "outputs": [
        {
          "internalType": "bytes32",
          "name": "",
          "type": "bytes32"
        }
      ],
      "stateMutability": "view",
      "type": "function"
    },
    {
      "inputs": [
        {
          "internalType": "uint256",
          "name": "tokenId",
          "type": "uint256"
        },
        {
          "internalType": "enum UniversalAssetNFT.EventType",
          "name": "eventType",
          "type": "uint8"
        },
        {
          "internalType": "string",
          "name": "description",
          "type": "string"
        },
        {
          "internalType": "uint256",
          "name": "transactionAmount",
          "type": "uint256"
        },
        {
          "internalType": "string[]",
          "name": "supportingDocs",
          "type": "string[]"
        },
        {
          "internalType": "string[]",
          "name": "customFieldKeys",
          "type": "string[]"
        },
        {
          "internalType": "string[]",
          "name": "customFieldValues",
          "type": "string[]"
        }
      ],
      "name": "addAssetEvent",
      "outputs": [],
      "stateMutability": "nonpayable",
      "type": "function"
    },
    {
      "inputs": [
        {
          "internalType": "address",
          "name": "to",
          "type": "address"
        },
        {
          "internalType": "uint256",
          "name": "tokenId",
          "type": "uint256"
        }
      ],
      "name": "approve",
      "outputs": [],
      "stateMutability": "nonpayable",
      "type": "function"
    },
    {
      "inputs": [
        {
          "internalType": "uint256",
          "name": "",
          "type": "uint256"
        },
        {
          "internalType": "uint256",
          "name": "",
          "type": "uint256"
        }
      ],
      "name": "assetHistory",
      "outputs": [
        {
          "internalType": "enum UniversalAssetNFT.EventType",
          "name": "eventType",
          "type": "uint8"
        },
        {
          "internalType": "uint256",
          "name": "timestamp",
          "type": "uint256"
        },
        {
          "internalType": "address",
          "name": "authorizedBy",
          "type": "address"
        },
        {
          "internalType": "string",
          "name": "description",
          "type": "string"
        },
        {
          "internalType": "uint256",
          "name": "transactionAmount",
          "type": "uint256"
        }
      ],
      "stateMutability": "view",
      "type": "function"
    },
    {
      "inputs": [
        {
          "internalType": "string",
          "name": "",
          "type": "string"
        }
      ],
      "name": "assetIdToTokenId",
      "outputs": [
        {
          "internalType": "uint256",
          "name": "",
          "type": "uint256"
        }
      ],
      "stateMutability": "view",
      "type": "function"
    },
    {
      "inputs": [
        {
          "internalType": "uint256",
          "name": "",
          "type": "uint256"
        }
      ],
      "name": "assets",
      "outputs": [
        {
          "internalType": "string",
          "name": "assetId",
          "type": "string"
        },
        {
          "internalType": "enum UniversalAssetNFT.AssetType",
          "name": "assetType",
          "type": "uint8"
        },
        {
          "internalType": "address",
          "name": "currentOwner",
          "type": "address"
        },
        {
          "internalType": "uint256",
          "name": "creationDate",
          "type": "uint256"
        },
        {
          "internalType": "bool",
          "name": "isVerified",
          "type": "bool"
        },
        {
          "internalType": "bool",
          "name": "isActive",
          "type": "bool"
        },
        {
          "internalType": "uint256",
          "name": "lastUpdated",
          "type": "uint256"
        }
      ],
      "stateMutability": "view",
      "type": "function"
    },
    {
      "inputs": [
        {
          "internalType": "address",
          "name": "owner",
          "type": "address"
        }
      ],
      "name": "balanceOf",
      "outputs": [
        {
          "internalType": "uint256",
          "name": "",
          "type": "uint256"
        }
      ],
      "stateMutability": "view",
      "type": "function"
    },
    {
      "inputs": [
        {
          "internalType": "string",
          "name": "assetId",
          "type": "string"
        },
        {
          "internalType": "enum UniversalAssetNFT.AssetType",
          "name": "assetType",
          "type": "uint8"
        },
        {
          "internalType": "address",
          "name": "owner",
          "type": "address"
        },
        {
          "internalType": "string",
          "name": "_tokenURI",
          "type": "string"
        },
        {
          "internalType": "string[]",
          "name": "metadataKeys",
          "type": "string[]"
        },
        {
          "internalType": "string[]",
          "name": "metadataValues",
          "type": "string[]"
        }
      ],
      "name": "createAsset",
      "outputs": [
        {
          "internalType": "uint256",
          "name": "",
          "type": "uint256"
        }
      ],
      "stateMutability": "nonpayable",
      "type": "function"
    },
    {
      "inputs": [
        {
          "internalType": "uint256",
          "name": "tokenId",
          "type": "uint256"
        }
      ],
      "name": "getApproved",
      "outputs": [
        {
          "internalType": "address",
          "name": "",
          "type": "address"
        }
      ],
      "stateMutability": "view",
      "type": "function"
    },
    {
      "inputs": [
        {
          "internalType": "uint256",
          "name": "tokenId",
          "type": "uint256"
        },
        {
          "internalType": "uint256",
          "name": "eventIndex",
          "type": "uint256"
        }
      ],
      "name": "getAssetEvent",
      "outputs": [
        {
          "internalType": "enum UniversalAssetNFT.EventType",
          "name": "eventType",
          "type": "uint8"
        },
        {
          "internalType": "uint256",
          "name": "timestamp",
          "type": "uint256"
        },
        {
          "internalType": "address",
          "name": "authorizedBy",
          "type": "address"
        },
        {
          "internalType": "string",
          "name": "description",
          "type": "string"
        },
        {
          "internalType": "uint256",
          "name": "transactionAmount",
          "type": "uint256"
        },
        {
          "internalType": "string[]",
          "name": "supportingDocs",
          "type": "string[]"
        }
      ],
      "stateMutability": "view",
      "type": "function"
    },
    {
      "inputs": [
        {
          "internalType": "uint256",
          "name": "tokenId",
          "type": "uint256"
        }
      ],
      "name": "getAssetHistoryLength",
      "outputs": [
        {
          "internalType": "uint256",
          "name": "",
          "type": "uint256"
        }
      ],
      "stateMutability": "view",
      "type": "function"
    },
    {
      "inputs": [
        {
          "internalType": "uint256",
          "name": "tokenId",
          "type": "uint256"
        },
        {
          "internalType": "string",
          "name": "key",
          "type": "string"
        }
      ],
      "name": "getAssetMetadata",
      "outputs": [
        {
          "internalType": "string",
          "name": "",
          "type": "string"
        }
      ],
      "stateMutability": "view",
      "type": "function"
    },
    {
      "inputs": [
        {
          "internalType": "address",
          "name": "owner",
          "type": "address"
        }
      ],
      "name": "getOwnerAssets",
      "outputs": [
        {
          "internalType": "uint256[]",
          "name": "",
          "type": "uint256[]"
        }
      ],
      "stateMutability": "view",
      "type": "function"
    },
    {
      "inputs": [
        {
          "internalType": "bytes32",
          "name": "role",
          "type": "bytes32"
        }
      ],
      "name": "getRoleAdmin",
      "outputs": [
        {
          "internalType": "bytes32",
          "name": "",
          "type": "bytes32"
        }
      ],
      "stateMutability": "view",
      "type": "function"
    },
    {
      "inputs": [
        {
          "internalType": "bytes32",
          "name": "role",
          "type": "bytes32"
        },
        {
          "internalType": "address",
          "name": "account",
          "type": "address"
        }
      ],
      "name": "grantRole",
      "outputs": [],
      "stateMutability": "nonpayable",
      "type": "function"
    },
    {
      "inputs": [
        {
          "internalType": "bytes32",
          "name": "role",
          "type": "bytes32"
        },
        {
          "internalType": "address",
          "name": "account",
          "type": "address"
        }
      ],
      "name": "hasRole",
      "outputs": [
        {
          "internalType": "bool",
          "name": "",
          "type": "bool"
        }
      ],
      "stateMutability": "view",
      "type": "function"
    },
    {
      "inputs": [
        {
          "internalType": "address",
          "name": "owner",
          "type": "address"
        },
        {
          "internalType": "address",
          "name": "operator",
          "type": "address"
        }
      ],
      "name": "isApprovedForAll",
      "outputs": [
        {
          "internalType": "bool",
          "name": "",
          "type": "bool"
        }
      ],
      "stateMutability": "view",
      "type": "function"
    },
    {
      "inputs": [],
      "name": "name",
      "outputs": [
        {
          "internalType": "string",
          "name": "",
          "type": "string"
        }
      ],
      "stateMutability": "view",
      "type": "function"
    },
    {
      "inputs": [
        {
          "internalType": "address",
          "name": "",
          "type": "address"
        },
        {
          "internalType": "uint256",
          "name": "",
          "type": "uint256"
        }
      ],
      "name": "ownerAssets",
      "outputs": [
        {
          "internalType": "uint256",
          "name": "",
          "type": "uint256"
        }
      ],
      "stateMutability": "view",
      "type": "function"
    },
    {
      "inputs": [
        {
          "internalType": "uint256",
          "name": "tokenId",
          "type": "uint256"
        }
      ],
      "name": "ownerOf",
      "outputs": [
        {
          "internalType": "address",
          "name": "",
          "type": "address"
        }
      ],
      "stateMutability": "view",
      "type": "function"
    },
    {
      "inputs": [
        {
          "internalType": "bytes32",
          "name": "role",
          "type": "bytes32"
        },
        {
          "internalType": "address",
          "name": "account",
          "type": "address"
        }
      ],
      "name": "renounceRole",
      "outputs": [],
      "stateMutability": "nonpayable",
      "type": "function"
    },
    {
      "inputs": [
        {
          "internalType": "bytes32",
          "name": "role",
          "type": "bytes32"
        },
        {
          "internalType": "address",
          "name": "account",
          "type": "address"
        }
      ],
      "name": "revokeRole",
      "outputs": [],
      "stateMutability": "nonpayable",
      "type": "function"
    },
    {
      "inputs": [
        {
          "internalType": "address",
          "name": "from",
          "type": "address"
        },
        {
          "internalType": "address",
          "name": "to",
          "type": "address"
        },
        {
          "internalType": "uint256",
          "name": "tokenId",
          "type": "uint256"
        }
      ],
      "name": "safeTransferFrom",
      "outputs": [],
      "stateMutability": "nonpayable",
      "type": "function"
    },
    {
      "inputs": [
        {
          "internalType": "address",
          "name": "from",
          "type": "address"
        },
        {
          "internalType": "address",
          "name": "to",
          "type": "address"
        },
        {
          "internalType": "uint256",
          "name": "tokenId",
          "type": "uint256"
        },
        {
          "internalType": "bytes",
          "name": "data",
          "type": "bytes"
        }
      ],
      "name": "safeTransferFrom",
      "outputs": [],
      "stateMutability": "nonpayable",
      "type": "function"
    },
    {
      "inputs": [
        {
          "internalType": "address",
          "name": "operator",
          "type": "address"
        },
        {
          "internalType": "bool",
          "name": "approved",
          "type": "bool"
        }
      ],
      "name": "setApprovalForAll",
      "outputs": [],
      "stateMutability": "nonpayable",
      "type": "function"
    },
    {
      "inputs": [
        {
          "internalType": "bytes4",
          "name": "interfaceId",
          "type": "bytes4"
        }
      ],
      "name": "supportsInterface",
      "outputs": [
        {
          "internalType": "bool",
          "name": "",
          "type": "bool"
        }
      ],
      "stateMutability": "view",
      "type": "function"
    },
    {
      "inputs": [],
      "name": "symbol",
      "outputs": [
        {
          "internalType": "string",
          "name": "",
          "type": "string"
        }
      ],
      "stateMutability": "view",
      "type": "function"
    },
    {
      "inputs": [
        {
          "internalType": "uint256",
          "name": "tokenId",
          "type": "uint256"
        }
      ],
      "name": "tokenURI",
      "outputs": [
        {
          "internalType": "string",
          "name": "",
          "type": "string"
        }
      ],
      "stateMutability": "view",
      "type": "function"
    },
    {
      "inputs": [
        {
          "internalType": "uint256",
          "name": "tokenId",
          "type": "uint256"
        },
        {
          "internalType": "address",
          "name": "to",
          "type": "address"
        },
        {
          "internalType": "uint256",
          "name": "salePrice",
          "type": "uint256"
        },
        {
          "internalType": "string",
          "name": "escrowId",
          "type": "string"
        }
      ],
      "name": "transferAssetWithEscrow",
      "outputs": [],
      "stateMutability": "nonpayable",
      "type": "function"
    },
    {
      "inputs": [
        {
          "internalType": "address",
          "name": "from",
          "type": "address"
        },
        {
          "internalType": "address",
          "name": "to",
          "type": "address"
        },
        {
          "internalType": "uint256",
          "name": "tokenId",
          "type": "uint256"
        }
      ],
      "name": "transferFrom",
      "outputs": [],
      "stateMutability": "nonpayable",
      "type": "function"
    },
    {
      "inputs": [
        {
          "internalType": "uint256",
          "name": "tokenId",
          "type": "uint256"
        },
        {
          "internalType": "string",
          "name": "key",
          "type": "string"
        },
        {
          "internalType": "string",
          "name": "value",
          "type": "string"
        }
      ],
      "name": "updateAssetMetadata",
      "outputs": [],
      "stateMutability": "nonpayable",
      "type": "function"
    },
    {
      "inputs": [
        {
          "internalType": "uint256",
          "name": "tokenId",
          "type": "uint256"
        }
      ],
      "name": "verifyAsset",
      "outputs": [],
      "stateMutability": "nonpayable",
      "type": "function"
    }
  ],
  "bytecode": "0x608034620003f45760406001600160401b0382820181811184821017620003de578252601883526020907f4b7573746f64696120556e6976657273616c20417373657400000000000000008285015282519383850185811083821117620003de57845260038552624b554160e81b83860152805191808311620003de576000928354906001938483811c93168015620003d3575b87841014620003bf578190601f938481116200036c575b50879084831160011462000308578792620002fc575b5050600019600383901b1c191690841b1784555b8651918211620002e85782548381811c91168015620002dd575b86821014620002c95781811162000281575b50849082116001146200021e57839495968293949262000212575b5050600019600383901b1c191690821b1781555b8060085581805260078352838220338352835260ff848320541615620001da575b7ff3dbd55030dd16e8ccaca9e44af740ec8b918b9d031f90f4cc45bfb2c3a05f519283835260078152848320338452815260ff8584205416156200019e575b8451613e1c9081620003fa8239f35b8383526007815284832090338452528382209060ff19825416179055339160008051602062004216833981519152339280a4388080806200018f565b8180526007835283822033835283528382208160ff19825416179055333383600080516020620042168339815191528180a462000150565b0151905038806200011b565b82845284842090601f198316855b8181106200026b5750978385969798991062000251575b505050811b0181556200012f565b015160001960f88460031b161c1916905538808062000243565b898301518455928501929187019187016200022c565b8385528585208280850160051c820192888610620002bf575b0160051c019084905b828110620002b357505062000100565b868155018490620002a3565b925081926200029a565b634e487b7160e01b85526022600452602485fd5b90607f1690620000ee565b634e487b7160e01b84526041600452602484fd5b015190503880620000c0565b8780528888208794509190601f198416895b8b8282106200035557505084116200033b575b505050811b018455620000d4565b015160001960f88460031b161c191690553880806200032d565b8385015186558a979095019493840193016200031a565b9091508680528787208480850160051c8201928a8610620003b5575b918891869594930160051c01915b828110620003a6575050620000aa565b89815585945088910162000396565b9250819262000388565b634e487b7160e01b86526022600452602486fd5b92607f169262000093565b634e487b7160e01b600052604160045260246000fd5b600080fdfe608080604052600436101561001357600080fd5b60003560e01c90816301ffc9a714612d535750806306fdde0314612cb0578063081812fc14612c92578063095ea7b314612b1857806323b872dd14612af4578063248a9ca314612ac55780632d38f89b14612a115780632df91091146129e85780632f2ff15d1461293557806336568abe146128a357806337d73934146126fc5780633c2fd9501461253357806342842e0e14612500578063455bd951146124a857806347e633801461247f57806359fd285c14611f105780636352211e14611ee057806370a0823114611e4957806391d1485414611dfc57806395d89b4114611d4b578063a217fddf14611d2f578063a22cb46514611c61578063b88d4fde14611be1578063bb6d85cb146115d3578063c87b56dd14611573578063cf35bdd0146114d1578063d04ec72a14611475578063d11cd1fb14610e9c578063d547741f14610e5b578063d834419c14610370578063e078e9c814610338578063e7705db61461030f578063e985e9c5146102b9578063ec1a8dab146102375763f11f6891146101a057600080fd5b34610232576101ae36612e9b565b90600052600b602052604060002080548210156102325761020d916101d29161317a565b5060ff8154169061022860018201549160018060a01b0360028201541660046101fd600384016130a1565b9201549360405196878097612eb1565b6020860152604085015260a0606085015260a0840190612e15565b9060808301520390f35b600080fd5b34610232576040366003190112610232576024356004356001600160401b0382116102325761029c6102a1916102746102b5943690600401612f9a565b906102866102818261391a565b613cc3565b600052600a602052600560406000200190613154565b6130a1565b604051918291602083526020830190612e15565b0390f35b34610232576040366003190112610232576102d2612e3a565b6102da612e50565b9060018060a01b03809116600052600560205260406000209116600052602052602060ff604060002054166040519015158152f35b34610232576000366003190112610232576020604051600080516020613dc78339815191528152f35b34610232576020366003190112610232576004356103586102818261391a565b600052600b6020526020604060002054604051908152f35b346102325760c0366003190112610232576004356001600160401b038111610232576103a0903690600401612f9a565b600a6024351015610232576044356001600160a01b0381169003610232576064356001600160401b038111610232576103dd903690600401612f9a565b6084356001600160401b038111610232576103fc903690600401612fe7565b60a4356001600160401b0381116102325761041b903690600401612fe7565b610423613354565b835115610e1b576044356001600160a01b031615610dd75760405160208186516104508183858b01612df2565b8101600c81520301902054610d98578151815103610d5357600954926001840160095561050861050360405161048581612ed4565b6000815261049b6104958861391a565b15613c78565b6104a76104958861391a565b6044356001600160a01b03166000818152600360209081526040808320805460010190558a83526002909152812080546001600160a01b03191683179055889190600080516020613da78339815191528180a486604435613937565b613736565b6105118461391a565b15610cf7576000848152600660205260409020815190916001600160401b0382116107835781906105428454613067565b601f8111610cc5575b50602090601f8311600114610c5957600092610c4e575b50508160011b916000199060031b1c19161790555b7ff8e1a15aba9398e019f0b49df1a4fde98ee17ae345cb5f6b5e2c27f5033e8ce76020604051858152a16000838152600a6020526040902084519094906001600160401b038111610783576105cc8654613067565b601f8111610c1c575b50806020601f8211600114610bb557600091610baa575b508160011b916000199060031b1c19161785555b61061f6001860160ff1981541660ff6024351617815560443590613c00565b4260028601556003850161010061ffff1982541617905542600486015560005b8351811015610799576106528184613c41565b5161066a600588016106648488613c41565b51613154565b815190916001600160401b038211610783576106868354613067565b601f8111610746575b50602090601f83116001146106d7576106c794939291600091836106cc575b50508160011b916000199060031b1c1916179055613c25565b61063f565b015190508a806106ae565b908360005260206000209160005b601f198516811061072e57509183916001936106c7979695601f19811610610715575b505050811b019055613c25565b015160001960f88460031b161c191690558a8080610708565b919260206001819286850151815501940192016106e5565b61077390846000526020600020601f850160051c81019160208610610779575b601f0160051c0190613be9565b8961068f565b9091508190610766565b634e487b7160e01b600052604160045260246000fd5b50838060405160208185516107b18183858a01612df2565b8101600c8152030190205560018060a01b0360443516600052600d6020526107dd816040600020613c55565b6040516107e981612ed4565b60008152604051906107fa82612eef565b6011825270105cdcd95d081391950818dc99585d1959607a1b602083015282600052600b60205260406000208054600160401b811015610783576108439160018201815561317a565b50805460ff191681554260018201556002810180546001600160a01b03191633179055825190926001600160401b0382116107835781906108876003860154613067565b601f8111610b75575b50602090601f8311600114610b0357600092610af8575b50508160011b916000199060031b1c19161760038301555b60006004830155805190600160401b8211610783576005830154826005850155808310610a80575b5060206005910192016000526020600020916000905b82821061096b57602085807f9e7a448dd8b77230ae8b9ea14d1b4e3246e353147bcd43e5abd7402e9ac373aa6109418a604051918291606083526060830190612e15565b61094f878301602435613147565b6044356001600160a01b031660408301520390a2604051908152f35b80518051906001600160401b038211610783576109888654613067565b601f8111610a4e575b50602090601f83116001146109de5792826001949360209386956000926109d3575b5050600019600383901b1c191690841b1787555b019401910190926108fd565b015190508b806109b3565b908660005260206000209160005b601f1985168110610a36575083602093600196938796938794601f19811610610a1d575b505050811b0187556109c7565b015160001960f88460031b161c191690558b8080610a10565b919260206001819286850151815501940192016109ec565b610a7a90876000526020600020601f850160051c8101916020861061077957601f0160051c0190613be9565b88610991565b600584016000526020600020908382015b8183018110610aa15750506108e7565b80610aae60019254613067565b80610abb575b5001610a91565b601f81118314610ad15750600081555b89610ab4565b600090828252610aef601f60208420920160051c8201858301613be9565b81835555610acb565b0151905086806108a7565b9250600385016000526020600020906000935b601f1984168510610b5a576001945083601f19811610610b41575b505050811b0160038301556108bf565b015160001960f88460031b161c19169055868080610b31565b81810151835560209485019460019093019290910190610b16565b610ba490600387016000526020600020601f850160051c8101916020861061077957601f0160051c0190613be9565b87610890565b9050820151876105ec565b91508660005260206000206000925b601f1983168410610c04576001935082601f19811610610beb575b5050811b018555610600565b84015160001960f88460031b161c191690558780610bdf565b84810151825560209384019360019092019101610bc4565b610c4890876000526020600020601f840160051c8101916020851061077957601f0160051c0190613be9565b866105d5565b015190508780610562565b9250836000526020600020906000935b601f1984168510610caa576001945083601f19811610610c91575b505050811b019055610577565b015160001960f88460031b161c19169055878080610c84565b81810151835560209485019460019093019290910190610c69565b610cf190856000526020600020601f850160051c8101916020861061077957601f0160051c0190613be9565b8861054b565b60405162461bcd60e51b815260206004820152602e60248201527f45524337323155524953746f726167653a2055524920736574206f66206e6f6e60448201526d32bc34b9ba32b73a103a37b5b2b760911b6064820152608490fd5b60405162461bcd60e51b815260206004820152601f60248201527f4d6574616461746120617272617973206c656e677468206d69736d61746368006044820152606490fd5b60405162461bcd60e51b8152602060048201526017602482015276417373657420494420616c72656164792065786973747360481b6044820152606490fd5b60405162461bcd60e51b815260206004820152601c60248201527b4f776e65722063616e6e6f74206265207a65726f206164647265737360201b6044820152606490fd5b60405162461bcd60e51b815260206004820152601860248201527741737365742049442063616e6e6f7420626520656d70747960401b6044820152606490fd5b3461023257604036600319011261023257610e9a600435610e7a612e50565b90806000526007602052610e9560016040600020015461347b565b61357a565b005b3461023257608036600319011261023257610eb5612e50565b6064356001600160401b03811161023257610ed4903690600401612f9a565b610edc613354565b610eea61028160043561391a565b6001600160a01b038281161561143057610f05600435613637565b92600435600052600a602052610f22816001604060002001613c00565b818416600052600d60205260406000209260005b84548082101561142557610f4a8287612fb8565b905460039291831b1c60043514610f6b575050610f6690613c25565b610f36565b600096929193949596199182820191821161140f57610f9d610f90610fb69386612fb8565b905490871b1c9185612fb8565b90919082549060031b91821b91600019901b1916179055565b815480156113f957810192610fcb8484612fb8565b81939154921b1b19169055555b828216600052600d602052610ff36004356040600020613c55565b611000600435838661381e565b6040519061100d82612eef565b6001825260005b602081106113e8575061102682613c34565b5261103081613c34565b5060405190606082016001600160401b0381118382101761078357604052602282527f417373657420736f6c64207468726f756768204b7573746f64696120657363726020830152616f7760f01b6040830152600435600052600b602052604060002090815491600160401b9283811015610783576110b49160018201815561317a565b50805460ff19166001908117825542908201556002810180546001600160a01b0319163317905583519093906001600160401b038111610783578060038601926110fe8454613067565b601f81116113b6575b50602090601f831160011461135057600092611345575b50508160011b916000199060031b1c19161790555b604435600484015580519182116107835760058301548260058501558083106112cd575b5060206005910192016000526020600020916000905b8282106111b85750505050816040519316835216602082015260443560408201527ff3ece9284d33275d9c297a27c91c816d5543b99eb1a60525f3cee810ed720091606060043592a2005b80518051906001600160401b038211610783576111d58654613067565b601f811161129b575b50602090601f831160011461122b579282600194936020938695600092611220575b5050600019600383901b1c191690841b1787555b0194019101909261116d565b015190508c80611200565b908660005260206000209160005b601f1985168110611283575083602093600196938796938794601f1981161061126a575b505050811b018755611214565b015160001960f88460031b161c191690558c808061125d565b91926020600181928685015181550194019201611239565b6112c790876000526020600020601f850160051c8101916020861061077957601f0160051c0190613be9565b896111de565b600584016000526020600020908382015b81830181106112ee575050611157565b806112fb60019254613067565b80611308575b50016112de565b601f8111831461131e5750600081555b8a611301565b60009082825261133c601f60208420920160051c8201858301613be9565b81835555611318565b01519050898061111e565b6000858152602081209350601f198516905b81811061139e5750908460019594939210611385575b505050811b019055611133565b015160001960f88460031b161c19169055898080611378565b92936020600181928786015181550195019301611362565b6113e290856000526020600020601f850160051c8101916020861061077957601f0160051c0190613be9565b8a611107565b806060602080938601015201611014565b634e487b7160e01b600052603160045260246000fd5b634e487b7160e01b600052601160045260246000fd5b505090919250610fd8565b60405162461bcd60e51b815260206004820152601f60248201527f43616e6e6f74207472616e7366657220746f207a65726f2061646472657373006044820152606490fd5b34610232576020366003190112610232576004356001600160401b038111610232576114be60206114ab81933690600401612f9a565b8160405193828580945193849201612df2565b8101600c81520301902054604051908152f35b3461023257602036600319011261023257600435600052600a60205261152c60406000206114fe816130a1565b9060018101549060ff600282015491600460038201549101549260405196879660e0885260e0880190612e15565b9461153c60208801858316613147565b600890811c6001600160a01b031660408801526060870191909152818316151560808701521c16151560a084015260c08301520390f35b34610232576020366003190112610232576004356115986115938261391a565b6135f0565b60005260066020526102b56115b060406000206130a1565b60006040516115be81612ed4565b52604051918291602083526020830190612e15565b346102325760e036600319011261023257600e6024351015610232576044356001600160401b0381116102325761160e903690600401612f9a565b6084356001600160401b0381116102325761162d903690600401612fe7565b9060a4356001600160401b0381116102325761164d903690600401612fe7565b60c4356001600160401b0381116102325761166c903690600401612fe7565b92611675613196565b61168361028160043561391a565b8151845103611b9057600435600052600b60205260406000208054600160401b811015610783576116b99160018201815561317a565b50805460ff191660ff60243516178155426001820155600281018054336001600160a01b031990911617905583519091906001600160401b038111610783576117056003840154613067565b601f8111611b5b575b50806020601f8211600114611aee57600091611ae3575b508160011b916000199060031b1c19161760038301555b6064356004830155805190600160401b8211610783576005830154826005850155808310611a6b575b5060206005910192016000526020600020916000905b8282106119565750505050600435600052600b602052604060002054600019810190811161140f576117bc90600435600052600b602052604060002061317a565b509260005b82518110156118f2576117d48183613c41565b516117e6600687016106648487613c41565b815190916001600160401b038211610783576118028354613067565b601f81116118c0575b50602090601f83116001146118525761184294939291600091836118475750508160011b916000199060031b1c1916179055613c25565b6117c1565b0151905089806106ae565b908360005260206000209160005b601f19851681106118a85750918391600193611842979695601f1981161061188f57505050811b019055613c25565b015160001960f88460031b161c19169055898080610708565b91926020600181928685015181550194019201611860565b6118ec90846000526020600020601f850160051c8101916020861061077957601f0160051c0190613be9565b8861180b565b83600435600052600a602052426004604060002001557fb378ed08a835f303cf82a1165775e4784b00762bd617d9c9d170559927f9d95c60405161193881602435612eb1565b6040602082015280611951600435946040830190612e15565b0390a2005b80518051906001600160401b038211610783576119738654613067565b601f8111611a39575b50602090601f83116001146119c95792826001949360209386956000926119be575b5050600019600383901b1c191690841b1787555b0194019101909261177b565b015190508c8061199e565b908660005260206000209160005b601f1985168110611a21575083602093600196938796938794601f19811610611a08575b505050811b0187556119b2565b015160001960f88460031b161c191690558c80806119fb565b919260206001819286850151815501940192016119d7565b611a6590876000526020600020601f850160051c8101916020861061077957601f0160051c0190613be9565b8961197c565b600584016000526020600020908382015b8183018110611a8c575050611765565b80611a9960019254613067565b80611aa6575b5001611a7c565b601f81118314611abc5750600081555b8a611a9f565b600090828252611ada601f60208420920160051c8201858301613be9565b81835555611ab6565b905085015187611725565b91506003840160005260206000206000925b601f1983168410611b43576001935082601f19811610611b2a575b5050811b01600383015561173c565b87015160001960f88460031b161c191690558780611b1b565b87810151825560209384019360019092019101611b00565b611b8a90600385016000526020600020601f840160051c8101916020851061077957601f0160051c0190613be9565b8661170e565b60405162461bcd60e51b8152602060048201526024808201527f437573746f6d206669656c647320617272617973206c656e677468206d69736d6044820152630c2e8c6d60e31b6064820152608490fd5b3461023257608036600319011261023257611bfa612e3a565b611c02612e50565b90606435906044356001600160401b038311610232573660238401121561023257610e9a93611c3e610503943690602481600401359101612f63565b92611c51611c4c8433613756565b613681565b611c5c83838361381e565b613a55565b3461023257604036600319011261023257611c7a612e3a565b60243590811515809203610232576001600160a01b031690338214611cee57336000526005602052604060002082600052602052604060002060ff1981541660ff83161790556040519081527f17307eab39ab6107e8899845ad3d59bd9653f200f220920489ca2b5937696c3160203392a3005b60405162461bcd60e51b815260206004820152601960248201527822a9219b99189d1030b8383937bb32903a379031b0b63632b960391b6044820152606490fd5b3461023257600036600319011261023257602060405160008152f35b346102325760003660031901126102325760405160009060018054611d6f81613067565b80845290828116908115611dd45750600114611d96575b6102b5836102a181870382612f25565b92508060005260209283600020916000925b828410611dc1575050508101909101906102a181611d86565b8054858501870152928501928101611da8565b6102b595506102a193506020915091849260ff191682840152151560051b8201019350611d86565b3461023257604036600319011261023257611e15612e50565b600435600052600760205260406000209060018060a01b0316600052602052602060ff604060002054166040519015158152f35b34610232576020366003190112610232576001600160a01b03611e6a612e3a565b168015611e895760005260036020526020604060002054604051908152f35b60405162461bcd60e51b815260206004820152602960248201527f4552433732313a2061646472657373207a65726f206973206e6f7420612076616044820152683634b21037bbb732b960b91b6064820152608490fd5b34610232576020366003190112610232576020611efe600435613637565b6040516001600160a01b039091168152f35b34610232576020806003193601126102325760043590600080516020613dc78339815191528060005260078252604060002033600052825260ff604060002054161561230d5750611f636102818361391a565b81600052600a8152604060002060039081810160019160ff1991838382541617905560044291015560405192611f9884612ed4565b6000845260405193611fa985612eef565b601a8552794173736574207665726966696564206279204b7573746f64696160301b868601526000878152600b8752604090208054600160401b9491858210156107835781611ffe9188600c9401815561317a565b50805490921617815542858201556002810180546001600160a01b0319163317905585516001600160401b03919084820190838111610783576120418254613067565b98601f998b8b82116122de575b50508a908a8311600114612276576005949392916000918361226b575b505060001982891b1c191690891b1790555b600060048201550191805194851161078357879083548685558087106121ec575b506000938452888420939491015b8585106120df57897f5bd81a4d257100f5fe7df72a9e528a7aaf33871f8258739a331d2627a83f0aac8a604051338152a2005b80519081518481116107835788918b916120f98854613067565b8c81116121b3575b5082948c82116001146121435784958291600092612138575b505060001982881b1c191690841b1787555b019401940193926120ac565b015190508f8061211a565b94601f1982169089600052846000209160005b8181106121915750908697848895949310612179575b505050811b01875561212c565b0151600019838a1b60f8161c191690558f808061216c565b9497939686929691938786015181550195019301928e94918d96939794612156565b6121dd90896000528d856000209080850160051c8201928786106121e3575b0160051c0190613be9565b8e612101565b925081926121d2565b8460005287878460002092830192015b82811061220a57505061209e565b90919293508961221a8254613067565b8061222d575b50500190878a93926121fc565b8c82821160011461224757505050600081555b898d612220565b600092612262918585528420920160051c8201858301613be9565b81835555612240565b015190508d8061206b565b9392918b8a92601f1983168560005282600020926000905b8282106122c75750509683600598106122af575b505050811b01905561207d565b0151600019838b1b60f8161c191690558d80806122a2565b838a015185558e969094019392830192018f61228e565b61230691856000528c826000209181870160051c83019387106121e3570160051c0190613be9565b8c8b61204e565b9061231733613aed565b9160405161232481612f0a565b604281528281019160603684378151156124695760308353815160019081101561246957607860218401536041905b8082116124255750506123f4576123c0936123cf92604892604051968793600080516020613d6783398151915288860152612397815180928a603789019101612df2565b8401917001034b99036b4b9b9b4b733903937b6329607d1b603784015251809386840190612df2565b01036028810185520183612f25565b6123f060405192839262461bcd60e51b845260048401526024830190612e15565b0390fd5b6064836040519062461bcd60e51b82528060048301526024820152600080516020613d278339815191526044820152fd5b9091600f81166010811015612469576f181899199a1a9b1b9c1cb0b131b232b360811b901a6124548486613adc565b5360041c91801561140f576000190190612353565b634e487b7160e01b600052603260045260246000fd5b34610232576000366003190112610232576020604051600080516020613d878339815191528152f35b34610232576040366003190112610232576124c1612e3a565b6001600160a01b03166000908152600d6020526040902080546024359190821015610232576020916124f291612fb8565b90546040519160031b1c8152f35b3461023257610e9a61050361251436612e66565b906040519261252284612ed4565b60008452611c51611c4c8433613756565b34610232576060366003190112610232576004356001600160401b0360243581811161023257612567903690600401612f9a565b9060443581811161023257612580903690600401612f9a565b612588613196565b6125946102818561391a565b83600052602091600a83526125b0600560406000200185613154565b908251908111610783576125c48254613067565b601f81116126cc575b5083601f8211600114612650579261195192826126389693600080516020613d478339815191529896600091612645575b508160011b916000199060031b1c19161790555b86600052600a825242600460406000200155604051948594604086526040860190612e15565b9184830390850152612e15565b90508301518a6125fe565b601f1982169083600052856000209160005b8181106126b5575083600080516020613d47833981519152989693611951969361263899966001941061269c575b5050811b019055612612565b85015160001960f88460031b161c191690558a80612690565b91928760018192868a015181550194019201612662565b6126f6908360005285600020601f840160051c81019187851061077957601f0160051c0190613be9565b866125cd565b346102325761270a36612e9b565b6127166102818361391a565b81600052602091600b8352604060002054821015612862579061274491600052600b8352604060002061317a565b509060ff82541690600190818401549060018060a01b036002860154169160048601549261277860036005890198016130a1565b9087549261278584612fd0565b936127936040519586612f25565b808552858501809a600052866000206000915b83831061283f5750505050906127de92916127c4604051809a612eb1565b85890152604088015260c0606088015260c0870190612e15565b92608086015284830360a0860152519081835280830192818360051b82010196936000915b8483106128105787890388f35b909192939495848061282d839b601f198682030187528a51612e15565b9a980196959491909101920190612803565b908a808a819f9d9594612851856130a1565b8152019201920192509b999b6127a6565b60405162461bcd60e51b81526004810184905260196024820152784576656e7420696e646578206f7574206f6620626f756e647360381b6044820152606490fd5b34610232576040366003190112610232576128bc612e50565b336001600160a01b038216036128d857610e9a9060043561357a565b60405162461bcd60e51b815260206004820152602f60248201527f416363657373436f6e74726f6c3a2063616e206f6e6c792072656e6f756e636560448201526e103937b632b9903337b91039b2b63360891b6064820152608490fd5b3461023257604036600319011261023257600435612951612e50565b81600052600760205261296b60016040600020015461347b565b81600052600760205260406000209060018060a01b0316908160005260205260ff604060002054161561299a57005b8160005260076020526040600020816000526020526040600020600160ff1982541617905533917f2f8788117e7eff1d82e926ec794901d17c78024a50270940304540a733656f0d600080a4005b34610232576000366003190112610232576020604051600080516020613d078339815191528152f35b3461023257602080600319360112610232576001600160a01b03612a33612e3a565b16600052600d8152604060002060405190818382549182815201908192600052846000209060005b86828210612ab1578686612a7182880383612f25565b604051928392818401908285525180915260408401929160005b828110612a9a57505050500390f35b835185528695509381019392810192600101612a8b565b835485529093019260019283019201612a5b565b346102325760203660031901126102325760043560005260076020526020600160406000200154604051908152f35b3461023257610e9a612b0536612e66565b91612b13611c4c8433613756565b61381e565b3461023257604036600319011261023257612b31612e3a565b602435906001600160a01b038080612b4885613637565b16921691808314612c4357803314908115612c1e575b5015612bb357600083815260046020526040902080546001600160a01b03191683179055612b8b83613637565b167f8c5be1e5ebec7d5bd14f71427d1e84f3dd0314c0f7b2291e5b200ac8c7c3b925600080a4005b60405162461bcd60e51b815260206004820152603d60248201527f4552433732313a20617070726f76652063616c6c6572206973206e6f7420746f60448201527f6b656e206f776e6572206f7220617070726f76656420666f7220616c6c0000006064820152608490fd5b9050600052600560205260406000203360005260205260ff6040600020541684612b5e565b60405162461bcd60e51b815260206004820152602160248201527f4552433732313a20617070726f76616c20746f2063757272656e74206f776e656044820152603960f91b6064820152608490fd5b34610232576020366003190112610232576020611efe60043561365a565b3461023257600036600319011261023257604051600090600054612cd381613067565b808352600191808316908115611dd45750600114612cfb576102b5836102a181870382612f25565b600080805260209450917f290decd9548b62a8d60345a988386fc84ba6bc95484008f6362f93160ef3e5635b828410612d40575050508101909101906102a181611d86565b8054858501870152928501928101612d27565b34610232576020366003190112610232576004359063ffffffff60e01b821680920361023257602091637965db0b60e01b8114908115612d95575b5015158152f35b632483248360e11b811491508115612daf575b5083612d8e565b6380ac58cd60e01b811491508115612de1575b8115612dd0575b5083612da8565b6301ffc9a760e01b14905083612dc9565b635b5e139f60e01b81149150612dc2565b60005b838110612e055750506000910152565b8181015183820152602001612df5565b90602091612e2e81518092818552858086019101612df2565b601f01601f1916010190565b600435906001600160a01b038216820361023257565b602435906001600160a01b038216820361023257565b6060906003190112610232576001600160a01b0390600435828116810361023257916024359081168103610232579060443590565b6040906003190112610232576004359060243590565b90600e821015612ebe5752565b634e487b7160e01b600052602160045260246000fd5b602081019081106001600160401b0382111761078357604052565b604081019081106001600160401b0382111761078357604052565b608081019081106001600160401b0382111761078357604052565b601f909101601f19168101906001600160401b0382119082101761078357604052565b6001600160401b03811161078357601f01601f191660200190565b929192612f6f82612f48565b91612f7d6040519384612f25565b829481845281830111610232578281602093846000960137010152565b9080601f8301121561023257816020612fb593359101612f63565b90565b80548210156124695760005260206000200190600090565b6001600160401b0381116107835760051b60200190565b9080601f8301121561023257813590612fff82612fd0565b9261300d6040519485612f25565b828452602092838086019160051b8301019280841161023257848301915b84831061303b5750505050505090565b82356001600160401b03811161023257869161305c84848094890101612f9a565b81520192019161302b565b90600182811c92168015613097575b602083101461308157565b634e487b7160e01b600052602260045260246000fd5b91607f1691613076565b90604051918260008254926130b584613067565b90818452600194858116908160001461312457506001146130e1575b50506130df92500383612f25565b565b9093915060005260209081600020936000915b81831061310c5750506130df935082010138806130d1565b855488840185015294850194879450918301916130f4565b9150506130df94506020925060ff191682840152151560051b82010138806130d1565b90600a821015612ebe5752565b60209061316e928260405194838680955193849201612df2565b82019081520301902090565b8054821015612469576000526007602060002091020190600090565b3360009081527feac5c60f35588055bbb86ef7f5a30bb5677c3d590e5c178a26cb24e83190b2b960209081526040808320549092600080516020613d878339815191529160ff16156131e85750505050565b6131f133613aed565b918451906131fe82612f0a565b6042825284820192606036853782511561334057603084538251906001918210156133405790607860218501536041915b8183116132d2575050506132a25760486123f0938693613286936132779851988993600080516020613d678339815191528a860152612397815180928c603789019101612df2565b01036028810187520185612f25565b5192839262461bcd60e51b845260048401526024830190612e15565b60648486519062461bcd60e51b82528060048301526024820152600080516020613d278339815191526044820152fd5b909192600f8116601081101561332c576f181899199a1a9b1b9c1cb0b131b232b360811b901a6133028587613adc565b5360041c9280156133185760001901919061322f565b634e487b7160e01b82526011600452602482fd5b634e487b7160e01b83526032600452602483fd5b634e487b7160e01b81526032600452602490fd5b3360009081527f963cba417b6349c72e41d1f4ceb490135a07f0124085613db031b1d53b12038260209081526040808320549092600080516020613d078339815191529160ff16156133a65750505050565b6133af33613aed565b918451906133bc82612f0a565b6042825284820192606036853782511561334057603084538251906001918210156133405790607860218501536041915b818311613435575050506132a25760486123f0938693613286936132779851988993600080516020613d678339815191528a860152612397815180928c603789019101612df2565b909192600f8116601081101561332c576f181899199a1a9b1b9c1cb0b131b232b360811b901a6134658587613adc565b5360041c928015613318576000190191906133ed565b60009080825260209060078252604092838120338252835260ff8482205416156134a55750505050565b6134ae33613aed565b918451906134bb82612f0a565b6042825284820192606036853782511561334057603084538251906001918210156133405790607860218501536041915b818311613534575050506132a25760486123f0938693613286936132779851988993600080516020613d678339815191528a860152612397815180928c603789019101612df2565b909192600f8116601081101561332c576f181899199a1a9b1b9c1cb0b131b232b360811b901a6135648587613adc565b5360041c928015613318576000190191906134ec565b906000918083526007602052604083209160018060a01b03169182845260205260ff6040842054166135ab57505050565b8083526007602052604083208284526020526040832060ff1981541690557ff6391f5c32d9c69d2a47ea670b442974b53935d1edc7fd64eb21e047a839171b339380a4565b156135f757565b60405162461bcd60e51b8152602060048201526018602482015277115490cdcc8c4e881a5b9d985b1a59081d1bdad95b88125160421b6044820152606490fd5b6000908152600260205260409020546001600160a01b0316612fb58115156135f0565b6136666115938261391a565b6000908152600460205260409020546001600160a01b031690565b1561368857565b60405162461bcd60e51b815260206004820152602d60248201527f4552433732313a2063616c6c6572206973206e6f7420746f6b656e206f776e6560448201526c1c881bdc88185c1c1c9bdd9959609a1b6064820152608490fd5b60809060208152603260208201527f4552433732313a207472616e7366657220746f206e6f6e20455243373231526560408201527131b2b4bb32b91034b6b83632b6b2b73a32b960711b60608201520190565b1561373d57565b60405162461bcd60e51b8152806123f0600482016136e3565b906001600160a01b03808061376a84613637565b1693169183831493841561379d575b508315613787575b50505090565b6137939192935061365a565b1614388080613781565b909350600052600560205260406000208260005260205260ff604060002054169238613779565b156137cb57565b60405162461bcd60e51b815260206004820152602560248201527f4552433732313a207472616e736665722066726f6d20696e636f72726563742060448201526437bbb732b960d91b6064820152608490fd5b906138469161382c84613637565b6001600160a01b03939184169284929091831684146137c4565b169182156138c957816138639161385c86613637565b16146137c4565b600080516020613da7833981519152600084815260046020526040812060018060a01b03199081815416905583825260036020526040822060001981540190558482526040822060018154019055858252600260205284604083209182541617905580a4565b60405162461bcd60e51b8152602060048201526024808201527f4552433732313a207472616e7366657220746f20746865207a65726f206164646044820152637265737360e01b6064820152608490fd5b6000908152600260205260409020546001600160a01b0316151590565b91929091803b15613a4c57613984936040519081630a85bd0160e11b9384825233600483015260009687602484015260448301526080606483015281878160209a8b966084830190612e15565b03926001600160a01b03165af1849181613a08575b506139f7575050503d6000146139ef573d6139b381612f48565b906139c16040519283612f25565b81528091833d92013e5b805191826139ec5760405162461bcd60e51b8152806123f0600482016136e3565b01fd5b5060606139cb565b6001600160e01b0319161492509050565b9091508581813d8311613a45575b613a208183612f25565b81010312613a4157516001600160e01b031981168103613a41579038613999565b8480fd5b503d613a16565b50915050600190565b92939190803b15613ad257613aa7946040518092630a85bd0160e11b9485835233600484015260018060a01b03809816602484015260448301526080606483015281806020998a956084830190612e15565b03916000988991165af1849181613a0857506139f7575050503d6000146139ef573d6139b381612f48565b5050915050600190565b908151811015612469570160200190565b60405190606082016001600160401b0381118382101761078357604052602a82526020820160403682378251156124695760309053815160019081101561246957607860218401536029905b808211613b7b575050613b495790565b606460405162461bcd60e51b81526020600482015260206024820152600080516020613d278339815191526044820152fd5b9091600f81166010811015613bd4576f181899199a1a9b1b9c1cb0b131b232b360811b901a613baa8486613adc565b5360041c918015613bbf576000190190613b39565b60246000634e487b7160e01b81526011600452fd5b60246000634e487b7160e01b81526032600452fd5b818110613bf4575050565b60008155600101613be9565b8054610100600160a81b03191660089290921b610100600160a81b0316919091179055565b600019811461140f5760010190565b8051156124695760200190565b80518210156124695760209160051b010190565b80549190600160401b8310156107835782610f9d9160016130df95018155612fb8565b15613c7f57565b60405162461bcd60e51b815260206004820152601c60248201527b115490cdcc8c4e881d1bdad95b88185b1c9958591e481b5a5b9d195960221b6044820152606490fd5b15613cca57565b60405162461bcd60e51b8152602060048201526014602482015273105cdcd95d08191bd95cc81b9bdd08195e1a5cdd60621b6044820152606490fdfef3dbd55030dd16e8ccaca9e44af740ec8b918b9d031f90f4cc45bfb2c3a05f51537472696e67733a20686578206c656e67746820696e73756666696369656e74589f5f1b831c2b1bb6368f38c84e2a21507d083cfa73f4d227d7f3d4895df766416363657373436f6e74726f6c3a206163636f756e742000000000000000000073e573f9566d61418a34d5de3ff49360f9c51fec37f7486551670290f6285dabddf252ad1be2c89b69c2b068fc378daa952ba7f163c4a11628f55a4df523b3ef0ce23c3e399818cfee81a7ab0880f714e53d7672b08df0fa62f2843416e1ea09a264697066735822122070586c74b842834bc1acf9555fe6c77e430e9718584a3b9d95d180d736466b3f64736f6c634300081400332f8788117e7eff1d82e926ec794901d17c78024a50270940304540a733656f0d",
  "linkReferences": {},
  "deployedLinkReferences": {}
}